{
  "_format": "hh-sol-artifact-1",
  "contractName": "ChitFund",
  "sourceName": "contracts/ChitFund.sol",
  "abi": [
    {
      "inputs": [
        {
          "internalType": "address",
          "name": "_organizer",
          "type": "address"
        },
        {
          "internalType": "uint256",
          "name": "_contributionAmountInEther",
          "type": "uint256"
        },
        {
          "internalType": "uint256",
          "name": "_totalParticipants",
          "type": "uint256"
        },
        {
          "internalType": "uint256[]",
          "name": "_contributionDeadlines",
          "type": "uint256[]"
        },
        {
          "internalType": "address[]",
          "name": "_participants",
          "type": "address[]"
        }
      ],
      "stateMutability": "nonpayable",
      "type": "constructor"
    },
    {
      "anonymous": false,
      "inputs": [
        {
          "indexed": false,
          "internalType": "address",
          "name": "participant",
          "type": "address"
        },
        {
          "indexed": false,
          "internalType": "uint256",
          "name": "amount",
          "type": "uint256"
        }
      ],
      "name": "CollateralStaked",
      "type": "event"
    },
    {
      "anonymous": false,
      "inputs": [
        {
          "indexed": false,
          "internalType": "address",
          "name": "participant",
          "type": "address"
        },
        {
          "indexed": false,
          "internalType": "uint256",
          "name": "amount",
          "type": "uint256"
        },
        {
          "indexed": false,
          "internalType": "uint256",
          "name": "cycle",
          "type": "uint256"
        }
      ],
      "name": "ContributionReceived",
      "type": "event"
    },
    {
      "anonymous": false,
      "inputs": [
        {
          "indexed": false,
          "internalType": "address",
          "name": "recipient",
          "type": "address"
        },
        {
          "indexed": false,
          "internalType": "uint256",
          "name": "amount",
          "type": "uint256"
        },
        {
          "indexed": false,
          "internalType": "uint256",
          "name": "cycle",
          "type": "uint256"
        }
      ],
      "name": "FundDisbursed",
      "type": "event"
    },
    {
      "anonymous": false,
      "inputs": [],
      "name": "FundStarted",
      "type": "event"
    },
    {
      "inputs": [],
      "name": "collateralAmount",
      "outputs": [
        {
          "internalType": "uint256",
          "name": "",
          "type": "uint256"
        }
      ],
      "stateMutability": "view",
      "type": "function"
    },
    {
      "inputs": [],
      "name": "contribute",
      "outputs": [],
      "stateMutability": "payable",
      "type": "function"
    },
    {
      "inputs": [],
      "name": "contributionAmount",
      "outputs": [
        {
          "internalType": "uint256",
          "name": "",
          "type": "uint256"
        }
      ],
      "stateMutability": "view",
      "type": "function"
    },
    {
      "inputs": [
        {
          "internalType": "uint256",
          "name": "",
          "type": "uint256"
        }
      ],
      "name": "contributionDeadlines",
      "outputs": [
        {
          "internalType": "uint256",
          "name": "",
          "type": "uint256"
        }
      ],
      "stateMutability": "view",
      "type": "function"
    },
    {
      "inputs": [],
      "name": "currentCycle",
      "outputs": [
        {
          "internalType": "uint256",
          "name": "",
          "type": "uint256"
        }
      ],
      "stateMutability": "view",
      "type": "function"
    },
    {
      "inputs": [],
      "name": "fundStarted",
      "outputs": [
        {
          "internalType": "bool",
          "name": "",
          "type": "bool"
        }
      ],
      "stateMutability": "view",
      "type": "function"
    },
    {
      "inputs": [
        {
          "internalType": "address",
          "name": "_addr",
          "type": "address"
        }
      ],
      "name": "getParticipantDetails",
      "outputs": [
        {
          "internalType": "bool",
          "name": "hasContributed",
          "type": "bool"
        },
        {
          "internalType": "bool",
          "name": "hasReceivedFund",
          "type": "bool"
        }
      ],
      "stateMutability": "view",
      "type": "function"
    },
    {
      "inputs": [],
      "name": "isFundCompleted",
      "outputs": [
        {
          "internalType": "bool",
          "name": "",
          "type": "bool"
        }
      ],
      "stateMutability": "view",
      "type": "function"
    },
    {
      "inputs": [
        {
          "internalType": "address",
          "name": "_addr",
          "type": "address"
        }
      ],
      "name": "isParticipant",
      "outputs": [
        {
          "internalType": "bool",
          "name": "",
          "type": "bool"
        }
      ],
      "stateMutability": "view",
      "type": "function"
    },
    {
      "inputs": [],
      "name": "organizer",
      "outputs": [
        {
          "internalType": "address",
          "name": "",
          "type": "address"
        }
      ],
      "stateMutability": "view",
      "type": "function"
    },
    {
      "inputs": [
        {
          "internalType": "address",
          "name": "",
          "type": "address"
        }
      ],
      "name": "participantIndex",
      "outputs": [
        {
          "internalType": "uint256",
          "name": "",
          "type": "uint256"
        }
      ],
      "stateMutability": "view",
      "type": "function"
    },
    {
      "inputs": [
        {
          "internalType": "uint256",
          "name": "",
          "type": "uint256"
        }
      ],
      "name": "participants",
      "outputs": [
        {
          "internalType": "address payable",
          "name": "addr",
          "type": "address"
        },
        {
          "internalType": "bool",
          "name": "hasContributed",
          "type": "bool"
        },
        {
          "internalType": "bool",
          "name": "hasStakedCollateral",
          "type": "bool"
        },
        {
          "internalType": "bool",
          "name": "hasReceivedFund",
          "type": "bool"
        }
      ],
      "stateMutability": "view",
      "type": "function"
    },
    {
      "inputs": [],
      "name": "stakeCollateral",
      "outputs": [],
      "stateMutability": "payable",
      "type": "function"
    },
    {
      "inputs": [],
      "name": "totalCollateralStaked",
      "outputs": [
        {
          "internalType": "uint256",
          "name": "",
          "type": "uint256"
        }
      ],
      "stateMutability": "view",
      "type": "function"
    },
    {
      "inputs": [],
      "name": "totalCycles",
      "outputs": [
        {
          "internalType": "uint256",
          "name": "",
          "type": "uint256"
        }
      ],
      "stateMutability": "view",
      "type": "function"
    },
    {
      "inputs": [],
      "name": "totalParticipants",
      "outputs": [
        {
          "internalType": "uint256",
          "name": "",
          "type": "uint256"
        }
      ],
      "stateMutability": "view",
      "type": "function"
    }
  ],
  "bytecode": "0x608060405234801561001057600080fd5b506040516120a53803806120a5833981810160405281019061003291906106da565b82815114610075576040517f08c379a000000000000000000000000000000000000000000000000000000000815260040161006c906107ea565b60405180910390fd5b828251146100b8576040517f08c379a00000000000000000000000000000000000000000000000000000000081526004016100af90610856565b60405180910390fd5b846000806101000a81548173ffffffffffffffffffffffffffffffffffffffff021916908373ffffffffffffffffffffffffffffffffffffffff160217905550670de0b6b3a76400008461010c91906108a5565b60018190555082600281905550826004819055506001600381905550816005908051906020019061013e9291906103ac565b50600a60015461014e9190610916565b6006819055506000600190505b6005805490508110156101ff5760056001826101779190610947565b815481106101885761018761097b565b5b9060005260206000200154600582815481106101a7576101a661097b565b5b9060005260206000200154116101f2576040517f08c379a00000000000000000000000000000000000000000000000000000000081526004016101e990610a1c565b60405180910390fd5b808060010191505061015b565b5060005b81518110156103a1576008604051806080016040528084848151811061022c5761022b61097b565b5b602002602001015173ffffffffffffffffffffffffffffffffffffffff168152602001600015158152602001600015158152602001600015158152509080600181540180825580915050600190039060005260206000200160009091909190915060008201518160000160006101000a81548173ffffffffffffffffffffffffffffffffffffffff021916908373ffffffffffffffffffffffffffffffffffffffff16021790555060208201518160000160146101000a81548160ff02191690831515021790555060408201518160000160156101000a81548160ff02191690831515021790555060608201518160000160166101000a81548160ff0219169083151502179055505050806009600084848151811061034e5761034d61097b565b5b602002602001015173ffffffffffffffffffffffffffffffffffffffff1673ffffffffffffffffffffffffffffffffffffffff168152602001908152602001600020819055508080600101915050610203565b505050505050610a3c565b8280548282559060005260206000209081019282156103e8579160200282015b828111156103e75782518255916020019190600101906103cc565b5b5090506103f591906103f9565b5090565b5b808211156104125760008160009055506001016103fa565b5090565b6000604051905090565b600080fd5b600080fd5b600073ffffffffffffffffffffffffffffffffffffffff82169050919050565b60006104558261042a565b9050919050565b6104658161044a565b811461047057600080fd5b50565b6000815190506104828161045c565b92915050565b6000819050919050565b61049b81610488565b81146104a657600080fd5b50565b6000815190506104b881610492565b92915050565b600080fd5b6000601f19601f8301169050919050565b7f4e487b7100000000000000000000000000000000000000000000000000000000600052604160045260246000fd5b61050c826104c3565b810181811067ffffffffffffffff8211171561052b5761052a6104d4565b5b80604052505050565b600061053e610416565b905061054a8282610503565b919050565b600067ffffffffffffffff82111561056a576105696104d4565b5b602082029050602081019050919050565b600080fd5b600061059361058e8461054f565b610534565b905080838252602082019050602084028301858111156105b6576105b561057b565b5b835b818110156105df57806105cb88826104a9565b8452602084019350506020810190506105b8565b5050509392505050565b600082601f8301126105fe576105fd6104be565b5b815161060e848260208601610580565b91505092915050565b600067ffffffffffffffff821115610632576106316104d4565b5b602082029050602081019050919050565b600061065661065184610617565b610534565b905080838252602082019050602084028301858111156106795761067861057b565b5b835b818110156106a2578061068e8882610473565b84526020840193505060208101905061067b565b5050509392505050565b600082601f8301126106c1576106c06104be565b5b81516106d1848260208601610643565b91505092915050565b600080600080600060a086880312156106f6576106f5610420565b5b600061070488828901610473565b9550506020610715888289016104a9565b9450506040610726888289016104a9565b935050606086015167ffffffffffffffff81111561074757610746610425565b5b610753888289016105e9565b925050608086015167ffffffffffffffff81111561077457610773610425565b5b610780888289016106ac565b9150509295509295909350565b600082825260208201905092915050565b7f5061727469636970616e747320636f756e74206d69736d617463680000000000600082015250565b60006107d4601b8361078d565b91506107df8261079e565b602082019050919050565b60006020820190508181036000830152610803816107c7565b9050919050565b7f446561646c696e657320636f756e74206d69736d617463680000000000000000600082015250565b600061084060188361078d565b915061084b8261080a565b602082019050919050565b6000602082019050818103600083015261086f81610833565b9050919050565b7f4e487b7100000000000000000000000000000000000000000000000000000000600052601160045260246000fd5b60006108b082610488565b91506108bb83610488565b92508282026108c981610488565b915082820484148315176108e0576108df610876565b5b5092915050565b7f4e487b7100000000000000000000000000000000000000000000000000000000600052601260045260246000fd5b600061092182610488565b915061092c83610488565b92508261093c5761093b6108e7565b5b828204905092915050565b600061095282610488565b915061095d83610488565b925082820390508181111561097557610974610876565b5b92915050565b7f4e487b7100000000000000000000000000000000000000000000000000000000600052603260045260246000fd5b7f446561646c696e6573206d75737420626520696e20696e6372656173696e672060008201527f6f72646572000000000000000000000000000000000000000000000000000000602082015250565b6000610a0660258361078d565b9150610a11826109aa565b604082019050919050565b60006020820190508181036000830152610a35816109f9565b9050919050565b61165a80610a4b6000396000f3fe6080604052600436106100f35760003560e01c8063929066f51161008a578063a26dbf2611610059578063a26dbf2614610339578063bab2f55214610364578063d7bb99ba1461038f578063f54a36cc14610399576100f3565b8063929066f51461027b57806392d09ceb146102b8578063968873eb146102e3578063a16576811461030e576100f3565b806344e0b8c1116100c657806344e0b8c1146101aa578063481523d3146101e85780635fa0b65f146102255780636120326514610250576100f3565b8063070fecb5146100f8578063083b913714610102578063271751da1461013f57806335c1d3491461016a575b600080fd5b6101006103c4565b005b34801561010e57600080fd5b5061012960048036038101906101249190610e0c565b61062b565b6040516101369190610e52565b60405180910390f35b34801561014b57600080fd5b50610154610643565b6040516101619190610e52565b60405180910390f35b34801561017657600080fd5b50610191600480360381019061018c9190610e99565b610649565b6040516101a19493929190610f02565b60405180910390f35b3480156101b657600080fd5b506101d160048036038101906101cc9190610e0c565b6106cc565b6040516101df929190610f47565b60405180910390f35b3480156101f457600080fd5b5061020f600480360381019061020a9190610e99565b61077e565b60405161021c9190610e52565b60405180910390f35b34801561023157600080fd5b5061023a6107a2565b6040516102479190610e52565b60405180910390f35b34801561025c57600080fd5b506102656107a8565b6040516102729190610f7f565b60405180910390f35b34801561028757600080fd5b506102a2600480360381019061029d9190610e0c565b6107cc565b6040516102af9190610f9a565b60405180910390f35b3480156102c457600080fd5b506102cd610899565b6040516102da9190610e52565b60405180910390f35b3480156102ef57600080fd5b506102f861089f565b6040516103059190610f9a565b60405180910390f35b34801561031a57600080fd5b506103236108ad565b6040516103309190610e52565b60405180910390f35b34801561034557600080fd5b5061034e6108b3565b60405161035b9190610e52565b60405180910390f35b34801561037057600080fd5b506103796108b9565b6040516103869190610e52565b60405180910390f35b6103976108bf565b005b3480156103a557600080fd5b506103ae610b7c565b6040516103bb9190610f9a565b60405180910390f35b6103cd336107cc565b61040c576040517f08c379a000000000000000000000000000000000000000000000000000000000815260040161040390611038565b60405180910390fd5b600760009054906101000a900460ff161561045c576040517f08c379a0000000000000000000000000000000000000000000000000000000008152600401610453906110a4565b60405180910390fd5b60065434146104a0576040517f08c379a000000000000000000000000000000000000000000000000000000000815260040161049790611110565b60405180910390fd5b6000600960003373ffffffffffffffffffffffffffffffffffffffff1673ffffffffffffffffffffffffffffffffffffffff1681526020019081526020016000205490506000600882815481106104fa576104f9611130565b5b9060005260206000200190508060000160159054906101000a900460ff1615610558576040517f08c379a000000000000000000000000000000000000000000000000000000000815260040161054f906111ab565b60405180910390fd5b60018160000160156101000a81548160ff02191690831515021790555034600a600082825461058791906111fa565b925050819055507fe9b0699bffdb73d59bcd6347dfd5172f6d708c11e0b056c5a76d7c231d402ffb33346040516105bf92919061122e565b60405180910390a16002546006546105d79190611257565b600a5403610627576001600760006101000a81548160ff0219169083151502179055507f041ddb0bda597672859a3817681cdb372a435e94fe5a68a5651eee0fbdf4664b60405160405180910390a15b5050565b60096020528060005260406000206000915090505481565b600a5481565b6008818154811061065957600080fd5b906000526020600020016000915090508060000160009054906101000a900473ffffffffffffffffffffffffffffffffffffffff16908060000160149054906101000a900460ff16908060000160159054906101000a900460ff16908060000160169054906101000a900460ff16905084565b6000806106d8836107cc565b6106e85760008091509150610779565b6000600960008573ffffffffffffffffffffffffffffffffffffffff1673ffffffffffffffffffffffffffffffffffffffff16815260200190815260200160002054905060006008828154811061074257610741611130565b5b9060005260206000200190508060000160149054906101000a900460ff168160000160169054906101000a900460ff169350935050505b915091565b6005818154811061078e57600080fd5b906000526020600020016000915090505481565b60015481565b60008054906101000a900473ffffffffffffffffffffffffffffffffffffffff1681565b600080600960008473ffffffffffffffffffffffffffffffffffffffff1673ffffffffffffffffffffffffffffffffffffffff1681526020019081526020016000205490508060088054905011801561089157508273ffffffffffffffffffffffffffffffffffffffff166008828154811061084b5761084a611130565b5b9060005260206000200160000160009054906101000a900473ffffffffffffffffffffffffffffffffffffffff1673ffffffffffffffffffffffffffffffffffffffff16145b915050919050565b60065481565b600060045460035411905090565b60045481565b60025481565b60035481565b6108c8336107cc565b610907576040517f08c379a00000000000000000000000000000000000000000000000000000000081526004016108fe90611038565b60405180910390fd5b600760009054906101000a900460ff16610956576040517f08c379a000000000000000000000000000000000000000000000000000000000815260040161094d906112e5565b60405180910390fd5b600454600354111561099d576040517f08c379a000000000000000000000000000000000000000000000000000000000815260040161099490611351565b60405180910390fd5b600560016003546109ae9190611371565b815481106109bf576109be611130565b5b9060005260206000200154421115610a0c576040517f08c379a0000000000000000000000000000000000000000000000000000000008152600401610a0390611417565b60405180910390fd5b6001543414610a50576040517f08c379a0000000000000000000000000000000000000000000000000000000008152600401610a4790611483565b60405180910390fd5b6000600960003373ffffffffffffffffffffffffffffffffffffffff1673ffffffffffffffffffffffffffffffffffffffff168152602001908152602001600020549050600060088281548110610aaa57610aa9611130565b5b9060005260206000200190508060000160149054906101000a900460ff1615610b08576040517f08c379a0000000000000000000000000000000000000000000000000000000008152600401610aff906114ef565b60405180910390fd5b60018160000160146101000a81548160ff0219169083151502179055507fd2dff949d20e874cc6ba1dcefb840fb8cf6000a4197bfb69accfea5a32443ff53334600354604051610b5a9392919061150f565b60405180910390a1610b6a610b8f565b15610b7857610b77610bf7565b5b5050565b600760009054906101000a900460ff1681565b600080600090505b600880549050811015610bee5760088181548110610bb857610bb7611130565b5b9060005260206000200160000160149054906101000a900460ff16610be1576000915050610bf4565b8080600101915050610b97565b50600190505b90565b600080600090505b600880549050811015610c9c57600060088281548110610c2257610c21611130565b5b9060005260206000200190508060000160169054906101000a900460ff16610c8e578060000160009054906101000a900473ffffffffffffffffffffffffffffffffffffffff16925060018160000160166101000a81548160ff02191690831515021790555050610c9c565b508080600101915050610bff565b506000600254600154610caf9190611257565b90508173ffffffffffffffffffffffffffffffffffffffff166108fc829081150290604051600060405180830381858888f19350505050158015610cf7573d6000803e3d6000fd5b507fba47a90c5497941f5c8a80cb50e75a6739149c92483dcc0648eb1f37c129c36d8282600354604051610d2d939291906115a5565b60405180910390a160005b600880549050811015610d8c57600060088281548110610d5b57610d5a611130565b5b9060005260206000200160000160146101000a81548160ff0219169083151502179055508080600101915050610d38565b5060036000815480929190610da0906115dc565b91905055505050565b600080fd5b600073ffffffffffffffffffffffffffffffffffffffff82169050919050565b6000610dd982610dae565b9050919050565b610de981610dce565b8114610df457600080fd5b50565b600081359050610e0681610de0565b92915050565b600060208284031215610e2257610e21610da9565b5b6000610e3084828501610df7565b91505092915050565b6000819050919050565b610e4c81610e39565b82525050565b6000602082019050610e676000830184610e43565b92915050565b610e7681610e39565b8114610e8157600080fd5b50565b600081359050610e9381610e6d565b92915050565b600060208284031215610eaf57610eae610da9565b5b6000610ebd84828501610e84565b91505092915050565b6000610ed182610dae565b9050919050565b610ee181610ec6565b82525050565b60008115159050919050565b610efc81610ee7565b82525050565b6000608082019050610f176000830187610ed8565b610f246020830186610ef3565b610f316040830185610ef3565b610f3e6060830184610ef3565b95945050505050565b6000604082019050610f5c6000830185610ef3565b610f696020830184610ef3565b9392505050565b610f7981610dce565b82525050565b6000602082019050610f946000830184610f70565b92915050565b6000602082019050610faf6000830184610ef3565b92915050565b600082825260208201905092915050565b7f4f6e6c79207061727469636970616e74732063616e20706572666f726d20746860008201527f697320616374696f6e0000000000000000000000000000000000000000000000602082015250565b6000611022602983610fb5565b915061102d82610fc6565b604082019050919050565b6000602082019050818103600083015261105181611015565b9050919050565b7f46756e6420616c72656164792073746172746564000000000000000000000000600082015250565b600061108e601483610fb5565b915061109982611058565b602082019050919050565b600060208201905081810360008301526110bd81611081565b9050919050565b7f496e636f727265637420636f6c6c61746572616c20616d6f756e740000000000600082015250565b60006110fa601b83610fb5565b9150611105826110c4565b602082019050919050565b60006020820190508181036000830152611129816110ed565b9050919050565b7f4e487b7100000000000000000000000000000000000000000000000000000000600052603260045260246000fd5b7f416c7265616479207374616b656420636f6c6c61746572616c00000000000000600082015250565b6000611195601983610fb5565b91506111a08261115f565b602082019050919050565b600060208201905081810360008301526111c481611188565b9050919050565b7f4e487b7100000000000000000000000000000000000000000000000000000000600052601160045260246000fd5b600061120582610e39565b915061121083610e39565b9250828201905080821115611228576112276111cb565b5b92915050565b60006040820190506112436000830185610f70565b6112506020830184610e43565b9392505050565b600061126282610e39565b915061126d83610e39565b925082820261127b81610e39565b91508282048414831517611292576112916111cb565b5b5092915050565b7f46756e6420686173206e6f742073746172746564207965740000000000000000600082015250565b60006112cf601883610fb5565b91506112da82611299565b602082019050919050565b600060208201905081810360008301526112fe816112c2565b9050919050565b7f416c6c206379636c657320636f6d706c65746564000000000000000000000000600082015250565b600061133b601483610fb5565b915061134682611305565b602082019050919050565b6000602082019050818103600083015261136a8161132e565b9050919050565b600061137c82610e39565b915061138783610e39565b925082820390508181111561139f5761139e6111cb565b5b92915050565b7f436f6e747269627574696f6e20706572696f6420656e64656420666f7220746860008201527f6973206379636c65000000000000000000000000000000000000000000000000602082015250565b6000611401602883610fb5565b915061140c826113a5565b604082019050919050565b60006020820190508181036000830152611430816113f4565b9050919050565b7f496e636f727265637420636f6e747269627574696f6e20616d6f756e74000000600082015250565b600061146d601d83610fb5565b915061147882611437565b602082019050919050565b6000602082019050818103600083015261149c81611460565b9050919050565b7f416c726561647920636f6e74726962757465642074686973206379636c650000600082015250565b60006114d9601e83610fb5565b91506114e4826114a3565b602082019050919050565b60006020820190508181036000830152611508816114cc565b9050919050565b60006060820190506115246000830186610f70565b6115316020830185610e43565b61153e6040830184610e43565b949350505050565b6000819050919050565b600061156b61156661156184610dae565b611546565b610dae565b9050919050565b600061157d82611550565b9050919050565b600061158f82611572565b9050919050565b61159f81611584565b82525050565b60006060820190506115ba6000830186611596565b6115c76020830185610e43565b6115d46040830184610e43565b949350505050565b60006115e782610e39565b91507fffffffffffffffffffffffffffffffffffffffffffffffffffffffffffffffff8203611619576116186111cb565b5b60018201905091905056fea26469706673582212208f4add71c2ff567e753b1c5e5522ea6a23d722d24700f5dbb68f3f949e36dd7564736f6c634300081b0033",
  "linkReferences": {},
  "deployedLinkReferences": {}
}