{
  "_format": "hh-sol-artifact-1",
  "contractName": "ChitFund",
  "sourceName": "contracts/ChitFund.sol",
  "abi": [
    {
      "inputs": [
        {
          "internalType": "address",
          "name": "_organizer",
          "type": "address"
        },
        {
          "internalType": "uint256",
          "name": "_contributionAmountInEther",
          "type": "uint256"
        },
        {
          "internalType": "uint256",
          "name": "_totalParticipants",
          "type": "uint256"
        },
        {
          "internalType": "uint256",
          "name": "_totalCycles",
          "type": "uint256"
        },
        {
          "internalType": "uint256",
          "name": "_cycleDuration",
          "type": "uint256"
        },
        {
          "internalType": "uint256",
          "name": "_startTime",
          "type": "uint256"
        },
        {
          "internalType": "address[]",
          "name": "_participants",
          "type": "address[]"
        }
      ],
      "stateMutability": "nonpayable",
      "type": "constructor"
    },
    {
      "anonymous": false,
      "inputs": [
        {
          "indexed": false,
          "internalType": "address",
          "name": "participant",
          "type": "address"
        },
        {
          "indexed": false,
          "internalType": "uint256",
          "name": "amount",
          "type": "uint256"
        }
      ],
      "name": "CollateralStaked",
      "type": "event"
    },
    {
      "anonymous": false,
      "inputs": [
        {
          "indexed": false,
          "internalType": "address",
          "name": "participant",
          "type": "address"
        },
        {
          "indexed": false,
          "internalType": "uint256",
          "name": "amount",
          "type": "uint256"
        },
        {
          "indexed": false,
          "internalType": "uint256",
          "name": "cycle",
          "type": "uint256"
        }
      ],
      "name": "ContributionReceived",
      "type": "event"
    },
    {
      "anonymous": false,
      "inputs": [
        {
          "indexed": false,
          "internalType": "address",
          "name": "recipient",
          "type": "address"
        },
        {
          "indexed": false,
          "internalType": "uint256",
          "name": "amount",
          "type": "uint256"
        },
        {
          "indexed": false,
          "internalType": "uint256",
          "name": "cycle",
          "type": "uint256"
        }
      ],
      "name": "FundDisbursed",
      "type": "event"
    },
    {
      "anonymous": false,
      "inputs": [],
      "name": "FundStarted",
      "type": "event"
    },
    {
      "inputs": [],
      "name": "collateralAmount",
      "outputs": [
        {
          "internalType": "uint256",
          "name": "",
          "type": "uint256"
        }
      ],
      "stateMutability": "view",
      "type": "function"
    },
    {
      "inputs": [],
      "name": "contribute",
      "outputs": [],
      "stateMutability": "payable",
      "type": "function"
    },
    {
      "inputs": [],
      "name": "contributionAmount",
      "outputs": [
        {
          "internalType": "uint256",
          "name": "",
          "type": "uint256"
        }
      ],
      "stateMutability": "view",
      "type": "function"
    },
    {
      "inputs": [],
      "name": "currentCycle",
      "outputs": [
        {
          "internalType": "uint256",
          "name": "",
          "type": "uint256"
        }
      ],
      "stateMutability": "view",
      "type": "function"
    },
    {
      "inputs": [],
      "name": "cycleDuration",
      "outputs": [
        {
          "internalType": "uint256",
          "name": "",
          "type": "uint256"
        }
      ],
      "stateMutability": "view",
      "type": "function"
    },
    {
      "inputs": [],
      "name": "fundStarted",
      "outputs": [
        {
          "internalType": "bool",
          "name": "",
          "type": "bool"
        }
      ],
      "stateMutability": "view",
      "type": "function"
    },
    {
      "inputs": [
        {
          "internalType": "uint256",
          "name": "cycle",
          "type": "uint256"
        }
      ],
      "name": "getDeadlineForCycle",
      "outputs": [
        {
          "internalType": "uint256",
          "name": "",
          "type": "uint256"
        }
      ],
      "stateMutability": "view",
      "type": "function"
    },
    {
      "inputs": [
        {
          "internalType": "address",
          "name": "_addr",
          "type": "address"
        }
      ],
      "name": "getParticipantDetails",
      "outputs": [
        {
          "internalType": "bool",
          "name": "hasContributed",
          "type": "bool"
        },
        {
          "internalType": "bool",
          "name": "hasReceivedFund",
          "type": "bool"
        }
      ],
      "stateMutability": "view",
      "type": "function"
    },
    {
      "inputs": [],
      "name": "isFundCompleted",
      "outputs": [
        {
          "internalType": "bool",
          "name": "",
          "type": "bool"
        }
      ],
      "stateMutability": "view",
      "type": "function"
    },
    {
      "inputs": [
        {
          "internalType": "address",
          "name": "_addr",
          "type": "address"
        }
      ],
      "name": "isParticipant",
      "outputs": [
        {
          "internalType": "bool",
          "name": "",
          "type": "bool"
        }
      ],
      "stateMutability": "view",
      "type": "function"
    },
    {
      "inputs": [],
      "name": "organizer",
      "outputs": [
        {
          "internalType": "address",
          "name": "",
          "type": "address"
        }
      ],
      "stateMutability": "view",
      "type": "function"
    },
    {
      "inputs": [
        {
          "internalType": "address",
          "name": "",
          "type": "address"
        }
      ],
      "name": "participantIndex",
      "outputs": [
        {
          "internalType": "uint256",
          "name": "",
          "type": "uint256"
        }
      ],
      "stateMutability": "view",
      "type": "function"
    },
    {
      "inputs": [
        {
          "internalType": "uint256",
          "name": "",
          "type": "uint256"
        }
      ],
      "name": "participants",
      "outputs": [
        {
          "internalType": "address payable",
          "name": "addr",
          "type": "address"
        },
        {
          "internalType": "bool",
          "name": "hasContributed",
          "type": "bool"
        },
        {
          "internalType": "bool",
          "name": "hasStakedCollateral",
          "type": "bool"
        },
        {
          "internalType": "bool",
          "name": "hasReceivedFund",
          "type": "bool"
        }
      ],
      "stateMutability": "view",
      "type": "function"
    },
    {
      "inputs": [],
      "name": "stakeCollateral",
      "outputs": [],
      "stateMutability": "payable",
      "type": "function"
    },
    {
      "inputs": [],
      "name": "startTime",
      "outputs": [
        {
          "internalType": "uint256",
          "name": "",
          "type": "uint256"
        }
      ],
      "stateMutability": "view",
      "type": "function"
    },
    {
      "inputs": [],
      "name": "totalCollateralStaked",
      "outputs": [
        {
          "internalType": "uint256",
          "name": "",
          "type": "uint256"
        }
      ],
      "stateMutability": "view",
      "type": "function"
    },
    {
      "inputs": [],
      "name": "totalCycles",
      "outputs": [
        {
          "internalType": "uint256",
          "name": "",
          "type": "uint256"
        }
      ],
      "stateMutability": "view",
      "type": "function"
    },
    {
      "inputs": [],
      "name": "totalParticipants",
      "outputs": [
        {
          "internalType": "uint256",
          "name": "",
          "type": "uint256"
        }
      ],
      "stateMutability": "view",
      "type": "function"
    }
  ],
  "bytecode": "0x608060405234801561001057600080fd5b50604051611e74380380611e74833981810160405281019061003291906104b7565b84815114610075576040517f08c379a000000000000000000000000000000000000000000000000000000000815260040161006c906105d2565b60405180910390fd5b866000806101000a81548173ffffffffffffffffffffffffffffffffffffffff021916908373ffffffffffffffffffffffffffffffffffffffff160217905550670de0b6b3a7640000866100c99190610621565b60018190555084600281905550836004819055508260058190555081600681905550600a6001546100fa9190610692565b600781905550600160038190555060005b81518110156102a95760096040518060800160405280848481518110610134576101336106c3565b5b602002602001015173ffffffffffffffffffffffffffffffffffffffff168152602001600015158152602001600015158152602001600015158152509080600181540180825580915050600190039060005260206000200160009091909190915060008201518160000160006101000a81548173ffffffffffffffffffffffffffffffffffffffff021916908373ffffffffffffffffffffffffffffffffffffffff16021790555060208201518160000160146101000a81548160ff02191690831515021790555060408201518160000160156101000a81548160ff02191690831515021790555060608201518160000160166101000a81548160ff021916908315150217905550505080600a6000848481518110610256576102556106c3565b5b602002602001015173ffffffffffffffffffffffffffffffffffffffff1673ffffffffffffffffffffffffffffffffffffffff16815260200190815260200160002081905550808060010191505061010b565b50505050505050506106f2565b6000604051905090565b600080fd5b600080fd5b600073ffffffffffffffffffffffffffffffffffffffff82169050919050565b60006102f5826102ca565b9050919050565b610305816102ea565b811461031057600080fd5b50565b600081519050610322816102fc565b92915050565b6000819050919050565b61033b81610328565b811461034657600080fd5b50565b60008151905061035881610332565b92915050565b600080fd5b6000601f19601f8301169050919050565b7f4e487b7100000000000000000000000000000000000000000000000000000000600052604160045260246000fd5b6103ac82610363565b810181811067ffffffffffffffff821117156103cb576103ca610374565b5b80604052505050565b60006103de6102b6565b90506103ea82826103a3565b919050565b600067ffffffffffffffff82111561040a57610409610374565b5b602082029050602081019050919050565b600080fd5b600061043361042e846103ef565b6103d4565b905080838252602082019050602084028301858111156104565761045561041b565b5b835b8181101561047f578061046b8882610313565b845260208401935050602081019050610458565b5050509392505050565b600082601f83011261049e5761049d61035e565b5b81516104ae848260208601610420565b91505092915050565b600080600080600080600060e0888a0312156104d6576104d56102c0565b5b60006104e48a828b01610313565b97505060206104f58a828b01610349565b96505060406105068a828b01610349565b95505060606105178a828b01610349565b94505060806105288a828b01610349565b93505060a06105398a828b01610349565b92505060c088015167ffffffffffffffff81111561055a576105596102c5565b5b6105668a828b01610489565b91505092959891949750929550565b600082825260208201905092915050565b7f5061727469636970616e747320636f756e74206d69736d617463680000000000600082015250565b60006105bc601b83610575565b91506105c782610586565b602082019050919050565b600060208201905081810360008301526105eb816105af565b9050919050565b7f4e487b7100000000000000000000000000000000000000000000000000000000600052601160045260246000fd5b600061062c82610328565b915061063783610328565b925082820261064581610328565b9150828204841483151761065c5761065b6105f2565b5b5092915050565b7f4e487b7100000000000000000000000000000000000000000000000000000000600052601260045260246000fd5b600061069d82610328565b91506106a883610328565b9250826106b8576106b7610663565b5b828204905092915050565b7f4e487b7100000000000000000000000000000000000000000000000000000000600052603260045260246000fd5b611773806107016000396000f3fe6080604052600436106101095760003560e01c8063929066f511610095578063a26dbf2611610064578063a26dbf2614610368578063af2d0a3114610393578063bab2f552146103d0578063d7bb99ba146103fb578063f54a36cc1461040557610109565b8063929066f5146102aa57806392d09ceb146102e7578063968873eb14610312578063a16576811461033d57610109565b806344e0b8c1116100dc57806344e0b8c1146101c05780635bec4cb4146101fe5780635fa0b65f14610229578063612032651461025457806378e979251461027f57610109565b8063070fecb51461010e578063083b913714610118578063271751da1461015557806335c1d34914610180575b600080fd5b610116610430565b005b34801561012457600080fd5b5061013f600480360381019061013a9190610eb9565b610697565b60405161014c9190610eff565b60405180910390f35b34801561016157600080fd5b5061016a6106af565b6040516101779190610eff565b60405180910390f35b34801561018c57600080fd5b506101a760048036038101906101a29190610f46565b6106b5565b6040516101b79493929190610faf565b60405180910390f35b3480156101cc57600080fd5b506101e760048036038101906101e29190610eb9565b610738565b6040516101f5929190610ff4565b60405180910390f35b34801561020a57600080fd5b506102136107ea565b6040516102209190610eff565b60405180910390f35b34801561023557600080fd5b5061023e6107f0565b60405161024b9190610eff565b60405180910390f35b34801561026057600080fd5b506102696107f6565b604051610276919061102c565b60405180910390f35b34801561028b57600080fd5b5061029461081a565b6040516102a19190610eff565b60405180910390f35b3480156102b657600080fd5b506102d160048036038101906102cc9190610eb9565b610820565b6040516102de9190611047565b60405180910390f35b3480156102f357600080fd5b506102fc6108ed565b6040516103099190610eff565b60405180910390f35b34801561031e57600080fd5b506103276108f3565b6040516103349190611047565b60405180910390f35b34801561034957600080fd5b50610352610901565b60405161035f9190610eff565b60405180910390f35b34801561037457600080fd5b5061037d610907565b60405161038a9190610eff565b60405180910390f35b34801561039f57600080fd5b506103ba60048036038101906103b59190610f46565b61090d565b6040516103c79190610eff565b60405180910390f35b3480156103dc57600080fd5b506103e5610982565b6040516103f29190610eff565b60405180910390f35b610403610988565b005b34801561041157600080fd5b5061041a610c29565b6040516104279190611047565b60405180910390f35b61043933610820565b610478576040517f08c379a000000000000000000000000000000000000000000000000000000000815260040161046f906110e5565b60405180910390fd5b600860009054906101000a900460ff16156104c8576040517f08c379a00000000000000000000000000000000000000000000000000000000081526004016104bf90611151565b60405180910390fd5b600754341461050c576040517f08c379a0000000000000000000000000000000000000000000000000000000008152600401610503906111bd565b60405180910390fd5b6000600a60003373ffffffffffffffffffffffffffffffffffffffff1673ffffffffffffffffffffffffffffffffffffffff168152602001908152602001600020549050600060098281548110610566576105656111dd565b5b9060005260206000200190508060000160159054906101000a900460ff16156105c4576040517f08c379a00000000000000000000000000000000000000000000000000000000081526004016105bb90611258565b60405180910390fd5b60018160000160156101000a81548160ff02191690831515021790555034600b60008282546105f391906112a7565b925050819055507fe9b0699bffdb73d59bcd6347dfd5172f6d708c11e0b056c5a76d7c231d402ffb333460405161062b9291906112db565b60405180910390a16002546007546106439190611304565b600b5403610693576001600860006101000a81548160ff0219169083151502179055507f041ddb0bda597672859a3817681cdb372a435e94fe5a68a5651eee0fbdf4664b60405160405180910390a15b5050565b600a6020528060005260406000206000915090505481565b600b5481565b600981815481106106c557600080fd5b906000526020600020016000915090508060000160009054906101000a900473ffffffffffffffffffffffffffffffffffffffff16908060000160149054906101000a900460ff16908060000160159054906101000a900460ff16908060000160169054906101000a900460ff16905084565b60008061074483610820565b61075457600080915091506107e5565b6000600a60008573ffffffffffffffffffffffffffffffffffffffff1673ffffffffffffffffffffffffffffffffffffffff1681526020019081526020016000205490506000600982815481106107ae576107ad6111dd565b5b9060005260206000200190508060000160149054906101000a900460ff168160000160169054906101000a900460ff169350935050505b915091565b60055481565b60015481565b60008054906101000a900473ffffffffffffffffffffffffffffffffffffffff1681565b60065481565b600080600a60008473ffffffffffffffffffffffffffffffffffffffff1673ffffffffffffffffffffffffffffffffffffffff168152602001908152602001600020549050806009805490501180156108e557508273ffffffffffffffffffffffffffffffffffffffff166009828154811061089f5761089e6111dd565b5b9060005260206000200160000160009054906101000a900473ffffffffffffffffffffffffffffffffffffffff1673ffffffffffffffffffffffffffffffffffffffff16145b915050919050565b60075481565b600060045460035411905090565b60045481565b60025481565b6000600454821115610954576040517f08c379a000000000000000000000000000000000000000000000000000000000815260040161094b90611392565b60405180910390fd5b60055460018361096491906113b2565b61096e9190611304565b60065461097b91906112a7565b9050919050565b60035481565b61099133610820565b6109d0576040517f08c379a00000000000000000000000000000000000000000000000000000000081526004016109c7906110e5565b60405180910390fd5b600860009054906101000a900460ff16610a1f576040517f08c379a0000000000000000000000000000000000000000000000000000000008152600401610a1690611432565b60405180910390fd5b6004546003541115610a66576040517f08c379a0000000000000000000000000000000000000000000000000000000008152600401610a5d9061149e565b60405180910390fd5b6000610a7360035461090d565b905080421115610ab8576040517f08c379a0000000000000000000000000000000000000000000000000000000008152600401610aaf90611530565b60405180910390fd5b6001543414610afc576040517f08c379a0000000000000000000000000000000000000000000000000000000008152600401610af39061159c565b60405180910390fd5b6000600a60003373ffffffffffffffffffffffffffffffffffffffff1673ffffffffffffffffffffffffffffffffffffffff168152602001908152602001600020549050600060098281548110610b5657610b556111dd565b5b9060005260206000200190508060000160149054906101000a900460ff1615610bb4576040517f08c379a0000000000000000000000000000000000000000000000000000000008152600401610bab90611608565b60405180910390fd5b60018160000160146101000a81548160ff0219169083151502179055507fd2dff949d20e874cc6ba1dcefb840fb8cf6000a4197bfb69accfea5a32443ff53334600354604051610c0693929190611628565b60405180910390a1610c16610c3c565b15610c2457610c23610ca4565b5b505050565b600860009054906101000a900460ff1681565b600080600090505b600980549050811015610c9b5760098181548110610c6557610c646111dd565b5b9060005260206000200160000160149054906101000a900460ff16610c8e576000915050610ca1565b8080600101915050610c44565b50600190505b90565b600080600090505b600980549050811015610d4957600060098281548110610ccf57610cce6111dd565b5b9060005260206000200190508060000160169054906101000a900460ff16610d3b578060000160009054906101000a900473ffffffffffffffffffffffffffffffffffffffff16925060018160000160166101000a81548160ff02191690831515021790555050610d49565b508080600101915050610cac565b506000600254600154610d5c9190611304565b90508173ffffffffffffffffffffffffffffffffffffffff166108fc829081150290604051600060405180830381858888f19350505050158015610da4573d6000803e3d6000fd5b507fba47a90c5497941f5c8a80cb50e75a6739149c92483dcc0648eb1f37c129c36d8282600354604051610dda939291906116be565b60405180910390a160005b600980549050811015610e3957600060098281548110610e0857610e076111dd565b5b9060005260206000200160000160146101000a81548160ff0219169083151502179055508080600101915050610de5565b5060036000815480929190610e4d906116f5565b91905055505050565b600080fd5b600073ffffffffffffffffffffffffffffffffffffffff82169050919050565b6000610e8682610e5b565b9050919050565b610e9681610e7b565b8114610ea157600080fd5b50565b600081359050610eb381610e8d565b92915050565b600060208284031215610ecf57610ece610e56565b5b6000610edd84828501610ea4565b91505092915050565b6000819050919050565b610ef981610ee6565b82525050565b6000602082019050610f146000830184610ef0565b92915050565b610f2381610ee6565b8114610f2e57600080fd5b50565b600081359050610f4081610f1a565b92915050565b600060208284031215610f5c57610f5b610e56565b5b6000610f6a84828501610f31565b91505092915050565b6000610f7e82610e5b565b9050919050565b610f8e81610f73565b82525050565b60008115159050919050565b610fa981610f94565b82525050565b6000608082019050610fc46000830187610f85565b610fd16020830186610fa0565b610fde6040830185610fa0565b610feb6060830184610fa0565b95945050505050565b60006040820190506110096000830185610fa0565b6110166020830184610fa0565b9392505050565b61102681610e7b565b82525050565b6000602082019050611041600083018461101d565b92915050565b600060208201905061105c6000830184610fa0565b92915050565b600082825260208201905092915050565b7f4f6e6c79207061727469636970616e74732063616e20706572666f726d20746860008201527f697320616374696f6e0000000000000000000000000000000000000000000000602082015250565b60006110cf602983611062565b91506110da82611073565b604082019050919050565b600060208201905081810360008301526110fe816110c2565b9050919050565b7f46756e6420616c72656164792073746172746564000000000000000000000000600082015250565b600061113b601483611062565b915061114682611105565b602082019050919050565b6000602082019050818103600083015261116a8161112e565b9050919050565b7f496e636f727265637420636f6c6c61746572616c20616d6f756e740000000000600082015250565b60006111a7601b83611062565b91506111b282611171565b602082019050919050565b600060208201905081810360008301526111d68161119a565b9050919050565b7f4e487b7100000000000000000000000000000000000000000000000000000000600052603260045260246000fd5b7f416c7265616479207374616b656420636f6c6c61746572616c00000000000000600082015250565b6000611242601983611062565b915061124d8261120c565b602082019050919050565b6000602082019050818103600083015261127181611235565b9050919050565b7f4e487b7100000000000000000000000000000000000000000000000000000000600052601160045260246000fd5b60006112b282610ee6565b91506112bd83610ee6565b92508282019050808211156112d5576112d4611278565b5b92915050565b60006040820190506112f0600083018561101d565b6112fd6020830184610ef0565b9392505050565b600061130f82610ee6565b915061131a83610ee6565b925082820261132881610ee6565b9150828204841483151761133f5761133e611278565b5b5092915050565b7f4379636c65206f7574206f6620626f756e647300000000000000000000000000600082015250565b600061137c601383611062565b915061138782611346565b602082019050919050565b600060208201905081810360008301526113ab8161136f565b9050919050565b60006113bd82610ee6565b91506113c883610ee6565b92508282039050818111156113e0576113df611278565b5b92915050565b7f46756e6420686173206e6f742073746172746564207965740000000000000000600082015250565b600061141c601883611062565b9150611427826113e6565b602082019050919050565b6000602082019050818103600083015261144b8161140f565b9050919050565b7f416c6c206379636c657320636f6d706c65746564000000000000000000000000600082015250565b6000611488601483611062565b915061149382611452565b602082019050919050565b600060208201905081810360008301526114b78161147b565b9050919050565b7f436f6e747269627574696f6e20706572696f6420656e64656420666f7220746860008201527f6973206379636c65000000000000000000000000000000000000000000000000602082015250565b600061151a602883611062565b9150611525826114be565b604082019050919050565b600060208201905081810360008301526115498161150d565b9050919050565b7f496e636f727265637420636f6e747269627574696f6e20616d6f756e74000000600082015250565b6000611586601d83611062565b915061159182611550565b602082019050919050565b600060208201905081810360008301526115b581611579565b9050919050565b7f416c726561647920636f6e74726962757465642074686973206379636c650000600082015250565b60006115f2601e83611062565b91506115fd826115bc565b602082019050919050565b60006020820190508181036000830152611621816115e5565b9050919050565b600060608201905061163d600083018661101d565b61164a6020830185610ef0565b6116576040830184610ef0565b949350505050565b6000819050919050565b600061168461167f61167a84610e5b565b61165f565b610e5b565b9050919050565b600061169682611669565b9050919050565b60006116a88261168b565b9050919050565b6116b88161169d565b82525050565b60006060820190506116d360008301866116af565b6116e06020830185610ef0565b6116ed6040830184610ef0565b949350505050565b600061170082610ee6565b91507fffffffffffffffffffffffffffffffffffffffffffffffffffffffffffffffff820361173257611731611278565b5b60018201905091905056fea2646970667358221220548251421c1861c17ec17e03de8ae95122c94902ec4f3663a9cea94fcf5c655b64736f6c634300081b0033",
  "linkReferences": {},
  "deployedLinkReferences": {}
}