{
  "_format": "hh-sol-artifact-1",
  "contractName": "ChitFund",
  "sourceName": "contracts/ChitFund.sol",
  "abi": [
    {
      "inputs": [
        {
          "internalType": "address",
          "name": "_organizer",
          "type": "address"
        },
        {
          "internalType": "string",
          "name": "_name",
          "type": "string"
        },
        {
          "internalType": "uint256",
          "name": "_contributionAmount",
          "type": "uint256"
        },
        {
          "internalType": "uint256",
          "name": "_totalParticipants",
          "type": "uint256"
        },
        {
          "internalType": "uint256",
          "name": "_totalCycles",
          "type": "uint256"
        },
        {
          "internalType": "uint256",
          "name": "_cycleDuration",
          "type": "uint256"
        },
        {
          "internalType": "uint256",
          "name": "_startTime",
          "type": "uint256"
        },
        {
          "internalType": "address[]",
          "name": "_participants",
          "type": "address[]"
        }
      ],
      "stateMutability": "nonpayable",
      "type": "constructor"
    },
    {
      "anonymous": false,
      "inputs": [
        {
          "indexed": false,
          "internalType": "address",
          "name": "participant",
          "type": "address"
        },
        {
          "indexed": false,
          "internalType": "uint256",
          "name": "amount",
          "type": "uint256"
        }
      ],
      "name": "CollateralStaked",
      "type": "event"
    },
    {
      "anonymous": false,
      "inputs": [
        {
          "indexed": false,
          "internalType": "address",
          "name": "participant",
          "type": "address"
        },
        {
          "indexed": false,
          "internalType": "uint256",
          "name": "amount",
          "type": "uint256"
        },
        {
          "indexed": false,
          "internalType": "uint256",
          "name": "cycle",
          "type": "uint256"
        }
      ],
      "name": "ContributionReceived",
      "type": "event"
    },
    {
      "anonymous": false,
      "inputs": [
        {
          "indexed": false,
          "internalType": "address",
          "name": "recipient",
          "type": "address"
        },
        {
          "indexed": false,
          "internalType": "uint256",
          "name": "amount",
          "type": "uint256"
        },
        {
          "indexed": false,
          "internalType": "uint256",
          "name": "cycle",
          "type": "uint256"
        }
      ],
      "name": "FundDisbursed",
      "type": "event"
    },
    {
      "anonymous": false,
      "inputs": [],
      "name": "FundStarted",
      "type": "event"
    },
    {
      "inputs": [],
      "name": "collateralAmount",
      "outputs": [
        {
          "internalType": "uint256",
          "name": "",
          "type": "uint256"
        }
      ],
      "stateMutability": "view",
      "type": "function"
    },
    {
      "inputs": [],
      "name": "contribute",
      "outputs": [],
      "stateMutability": "payable",
      "type": "function"
    },
    {
      "inputs": [],
      "name": "contributionAmount",
      "outputs": [
        {
          "internalType": "uint256",
          "name": "",
          "type": "uint256"
        }
      ],
      "stateMutability": "view",
      "type": "function"
    },
    {
      "inputs": [],
      "name": "currentCycle",
      "outputs": [
        {
          "internalType": "uint256",
          "name": "",
          "type": "uint256"
        }
      ],
      "stateMutability": "view",
      "type": "function"
    },
    {
      "inputs": [],
      "name": "cycleDuration",
      "outputs": [
        {
          "internalType": "uint256",
          "name": "",
          "type": "uint256"
        }
      ],
      "stateMutability": "view",
      "type": "function"
    },
    {
      "inputs": [],
      "name": "fundStarted",
      "outputs": [
        {
          "internalType": "bool",
          "name": "",
          "type": "bool"
        }
      ],
      "stateMutability": "view",
      "type": "function"
    },
    {
      "inputs": [],
      "name": "getChitFundDetails",
      "outputs": [
        {
          "internalType": "address",
          "name": "_fundAddress",
          "type": "address"
        },
        {
          "internalType": "string",
          "name": "_name",
          "type": "string"
        },
        {
          "internalType": "address",
          "name": "_organizer",
          "type": "address"
        },
        {
          "internalType": "uint256",
          "name": "_contributionAmount",
          "type": "uint256"
        },
        {
          "internalType": "uint256",
          "name": "_totalParticipants",
          "type": "uint256"
        },
        {
          "internalType": "uint256",
          "name": "_currentCycle",
          "type": "uint256"
        },
        {
          "internalType": "uint256",
          "name": "_totalCycles",
          "type": "uint256"
        },
        {
          "internalType": "bool",
          "name": "_fundStarted",
          "type": "bool"
        },
        {
          "internalType": "uint256",
          "name": "_totalCollateralStaked",
          "type": "uint256"
        },
        {
          "internalType": "uint256",
          "name": "_cycleDuration",
          "type": "uint256"
        },
        {
          "internalType": "uint256",
          "name": "_startTime",
          "type": "uint256"
        }
      ],
      "stateMutability": "view",
      "type": "function"
    },
    {
      "inputs": [],
      "name": "getContributionAmount",
      "outputs": [
        {
          "internalType": "uint256",
          "name": "",
          "type": "uint256"
        }
      ],
      "stateMutability": "view",
      "type": "function"
    },
    {
      "inputs": [
        {
          "internalType": "uint256",
          "name": "cycle",
          "type": "uint256"
        }
      ],
      "name": "getDeadlineForCycle",
      "outputs": [
        {
          "internalType": "uint256",
          "name": "",
          "type": "uint256"
        }
      ],
      "stateMutability": "view",
      "type": "function"
    },
    {
      "inputs": [],
      "name": "getNextRecipient",
      "outputs": [
        {
          "internalType": "address",
          "name": "",
          "type": "address"
        }
      ],
      "stateMutability": "view",
      "type": "function"
    },
    {
      "inputs": [],
      "name": "getOverdueParticipants",
      "outputs": [
        {
          "internalType": "address[]",
          "name": "",
          "type": "address[]"
        }
      ],
      "stateMutability": "view",
      "type": "function"
    },
    {
      "inputs": [
        {
          "internalType": "address",
          "name": "_addr",
          "type": "address"
        }
      ],
      "name": "getParticipantDetails",
      "outputs": [
        {
          "internalType": "bool",
          "name": "hasStakedCollateral",
          "type": "bool"
        },
        {
          "internalType": "bool",
          "name": "hasContributed",
          "type": "bool"
        },
        {
          "internalType": "bool",
          "name": "hasReceivedFund",
          "type": "bool"
        }
      ],
      "stateMutability": "view",
      "type": "function"
    },
    {
      "inputs": [],
      "name": "isFundCompleted",
      "outputs": [
        {
          "internalType": "bool",
          "name": "",
          "type": "bool"
        }
      ],
      "stateMutability": "view",
      "type": "function"
    },
    {
      "inputs": [
        {
          "internalType": "address",
          "name": "_addr",
          "type": "address"
        }
      ],
      "name": "isParticipant",
      "outputs": [
        {
          "internalType": "bool",
          "name": "",
          "type": "bool"
        }
      ],
      "stateMutability": "view",
      "type": "function"
    },
    {
      "inputs": [
        {
          "internalType": "address",
          "name": "_participant",
          "type": "address"
        }
      ],
      "name": "isParticipantOverdue",
      "outputs": [
        {
          "internalType": "bool",
          "name": "",
          "type": "bool"
        }
      ],
      "stateMutability": "view",
      "type": "function"
    },
    {
      "inputs": [],
      "name": "name",
      "outputs": [
        {
          "internalType": "string",
          "name": "",
          "type": "string"
        }
      ],
      "stateMutability": "view",
      "type": "function"
    },
    {
      "inputs": [],
      "name": "organizer",
      "outputs": [
        {
          "internalType": "address",
          "name": "",
          "type": "address"
        }
      ],
      "stateMutability": "view",
      "type": "function"
    },
    {
      "inputs": [
        {
          "internalType": "address",
          "name": "",
          "type": "address"
        }
      ],
      "name": "participantIndex",
      "outputs": [
        {
          "internalType": "uint256",
          "name": "",
          "type": "uint256"
        }
      ],
      "stateMutability": "view",
      "type": "function"
    },
    {
      "inputs": [
        {
          "internalType": "uint256",
          "name": "",
          "type": "uint256"
        }
      ],
      "name": "participants",
      "outputs": [
        {
          "internalType": "address payable",
          "name": "addr",
          "type": "address"
        },
        {
          "internalType": "bool",
          "name": "hasContributed",
          "type": "bool"
        },
        {
          "internalType": "bool",
          "name": "hasStakedCollateral",
          "type": "bool"
        },
        {
          "internalType": "bool",
          "name": "hasReceivedFund",
          "type": "bool"
        }
      ],
      "stateMutability": "view",
      "type": "function"
    },
    {
      "inputs": [],
      "name": "stakeCollateral",
      "outputs": [],
      "stateMutability": "payable",
      "type": "function"
    },
    {
      "inputs": [],
      "name": "startTime",
      "outputs": [
        {
          "internalType": "uint256",
          "name": "",
          "type": "uint256"
        }
      ],
      "stateMutability": "view",
      "type": "function"
    },
    {
      "inputs": [],
      "name": "totalCollateralStaked",
      "outputs": [
        {
          "internalType": "uint256",
          "name": "",
          "type": "uint256"
        }
      ],
      "stateMutability": "view",
      "type": "function"
    },
    {
      "inputs": [],
      "name": "totalCycles",
      "outputs": [
        {
          "internalType": "uint256",
          "name": "",
          "type": "uint256"
        }
      ],
      "stateMutability": "view",
      "type": "function"
    },
    {
      "inputs": [],
      "name": "totalParticipants",
      "outputs": [
        {
          "internalType": "uint256",
          "name": "",
          "type": "uint256"
        }
      ],
      "stateMutability": "view",
      "type": "function"
    }
  ],
  "bytecode": "0x608060405234801561001057600080fd5b50604051612c83380380612c8383398181016040528101906100329190610585565b84815114610075576040517f08c379a000000000000000000000000000000000000000000000000000000000815260040161006c906106d0565b60405180910390fd5b876000806101000a81548173ffffffffffffffffffffffffffffffffffffffff021916908373ffffffffffffffffffffffffffffffffffffffff16021790555086600190816100c49190610907565b508560028190555084600381905550836005819055508260068190555081600781905550600a6002546100f79190610a08565b600881905550600160048190555060005b81518110156102a657600a604051806080016040528084848151811061013157610130610a39565b5b602002602001015173ffffffffffffffffffffffffffffffffffffffff168152602001600015158152602001600015158152602001600015158152509080600181540180825580915050600190039060005260206000200160009091909190915060008201518160000160006101000a81548173ffffffffffffffffffffffffffffffffffffffff021916908373ffffffffffffffffffffffffffffffffffffffff16021790555060208201518160000160146101000a81548160ff02191690831515021790555060408201518160000160156101000a81548160ff02191690831515021790555060608201518160000160166101000a81548160ff021916908315150217905550505080600b600084848151811061025357610252610a39565b5b602002602001015173ffffffffffffffffffffffffffffffffffffffff1673ffffffffffffffffffffffffffffffffffffffff168152602001908152602001600020819055508080600101915050610108565b505050505050505050610a68565b6000604051905090565b600080fd5b600080fd5b600073ffffffffffffffffffffffffffffffffffffffff82169050919050565b60006102f3826102c8565b9050919050565b610303816102e8565b811461030e57600080fd5b50565b600081519050610320816102fa565b92915050565b600080fd5b600080fd5b6000601f19601f8301169050919050565b7f4e487b7100000000000000000000000000000000000000000000000000000000600052604160045260246000fd5b61037982610330565b810181811067ffffffffffffffff8211171561039857610397610341565b5b80604052505050565b60006103ab6102b4565b90506103b78282610370565b919050565b600067ffffffffffffffff8211156103d7576103d6610341565b5b6103e082610330565b9050602081019050919050565b60005b8381101561040b5780820151818401526020810190506103f0565b60008484015250505050565b600061042a610425846103bc565b6103a1565b9050828152602081018484840111156104465761044561032b565b5b6104518482856103ed565b509392505050565b600082601f83011261046e5761046d610326565b5b815161047e848260208601610417565b91505092915050565b6000819050919050565b61049a81610487565b81146104a557600080fd5b50565b6000815190506104b781610491565b92915050565b600067ffffffffffffffff8211156104d8576104d7610341565b5b602082029050602081019050919050565b600080fd5b60006105016104fc846104bd565b6103a1565b90508083825260208201905060208402830185811115610524576105236104e9565b5b835b8181101561054d57806105398882610311565b845260208401935050602081019050610526565b5050509392505050565b600082601f83011261056c5761056b610326565b5b815161057c8482602086016104ee565b91505092915050565b600080600080600080600080610100898b0312156105a6576105a56102be565b5b60006105b48b828c01610311565b985050602089015167ffffffffffffffff8111156105d5576105d46102c3565b5b6105e18b828c01610459565b97505060406105f28b828c016104a8565b96505060606106038b828c016104a8565b95505060806106148b828c016104a8565b94505060a06106258b828c016104a8565b93505060c06106368b828c016104a8565b92505060e089015167ffffffffffffffff811115610657576106566102c3565b5b6106638b828c01610557565b9150509295985092959890939650565b600082825260208201905092915050565b7f5061727469636970616e747320636f756e74206d69736d617463680000000000600082015250565b60006106ba601b83610673565b91506106c582610684565b602082019050919050565b600060208201905081810360008301526106e9816106ad565b9050919050565b600081519050919050565b7f4e487b7100000000000000000000000000000000000000000000000000000000600052602260045260246000fd5b6000600282049050600182168061074257607f821691505b602082108103610755576107546106fb565b5b50919050565b60008190508160005260206000209050919050565b60006020601f8301049050919050565b600082821b905092915050565b6000600883026107bd7fffffffffffffffffffffffffffffffffffffffffffffffffffffffffffffffff82610780565b6107c78683610780565b95508019841693508086168417925050509392505050565b6000819050919050565b60006108046107ff6107fa84610487565b6107df565b610487565b9050919050565b6000819050919050565b61081e836107e9565b61083261082a8261080b565b84845461078d565b825550505050565b600090565b61084761083a565b610852818484610815565b505050565b5b818110156108765761086b60008261083f565b600181019050610858565b5050565b601f8211156108bb5761088c8161075b565b61089584610770565b810160208510156108a4578190505b6108b86108b085610770565b830182610857565b50505b505050565b600082821c905092915050565b60006108de600019846008026108c0565b1980831691505092915050565b60006108f783836108cd565b9150826002028217905092915050565b610910826106f0565b67ffffffffffffffff81111561092957610928610341565b5b610933825461072a565b61093e82828561087a565b600060209050601f831160018114610971576000841561095f578287015190505b61096985826108eb565b8655506109d1565b601f19841661097f8661075b565b60005b828110156109a757848901518255600182019150602085019450602081019050610982565b868310156109c457848901516109c0601f8916826108cd565b8355505b6001600288020188555050505b505050505050565b7f4e487b7100000000000000000000000000000000000000000000000000000000600052601260045260246000fd5b6000610a1382610487565b9150610a1e83610487565b925082610a2e57610a2d6109d9565b5b828204905092915050565b7f4e487b7100000000000000000000000000000000000000000000000000000000600052603260045260246000fd5b61220c80610a776000396000f3fe60806040526004361061014b5760003560e01c8063929066f5116100b6578063bab2f5521161006f578063bab2f552146104b0578063bbb48445146104db578063cbc3cecb14610506578063d7bb99ba14610531578063f54a36cc1461053b578063fd379a31146105665761014b565b8063929066f51461038a57806392d09ceb146103c7578063968873eb146103f2578063a16576811461041d578063a26dbf2614610448578063af2d0a31146104735761014b565b80634a9829cd116101085780634a9829cd1461026c5780635bec4cb4146102a95780635fa0b65f146102d457806361203265146102ff57806365d68e4e1461032a57806378e979251461035f5761014b565b806306fdde0314610150578063070fecb51461017b578063083b913714610185578063271751da146101c257806335c1d349146101ed57806344e0b8c11461022d575b600080fd5b34801561015c57600080fd5b50610165610591565b60405161017291906115b1565b60405180910390f35b61018361061f565b005b34801561019157600080fd5b506101ac60048036038101906101a79190611636565b610886565b6040516101b9919061167c565b60405180910390f35b3480156101ce57600080fd5b506101d761089e565b6040516101e4919061167c565b60405180910390f35b3480156101f957600080fd5b50610214600480360381019061020f91906116c3565b6108a4565b604051610224949392919061172c565b60405180910390f35b34801561023957600080fd5b50610254600480360381019061024f9190611636565b610927565b60405161026393929190611771565b60405180910390f35b34801561027857600080fd5b50610293600480360381019061028e9190611636565b6109f5565b6040516102a091906117a8565b60405180910390f35b3480156102b557600080fd5b506102be610af0565b6040516102cb919061167c565b60405180910390f35b3480156102e057600080fd5b506102e9610af6565b6040516102f6919061167c565b60405180910390f35b34801561030b57600080fd5b50610314610afc565b60405161032191906117d2565b60405180910390f35b34801561033657600080fd5b5061033f610b20565b6040516103569b9a999897969594939291906117ed565b60405180910390f35b34801561036b57600080fd5b50610374610c2a565b604051610381919061167c565b60405180910390f35b34801561039657600080fd5b506103b160048036038101906103ac9190611636565b610c30565b6040516103be91906117a8565b60405180910390f35b3480156103d357600080fd5b506103dc610cfd565b6040516103e9919061167c565b60405180910390f35b3480156103fe57600080fd5b50610407610d03565b60405161041491906117a8565b60405180910390f35b34801561042957600080fd5b50610432610d11565b60405161043f919061167c565b60405180910390f35b34801561045457600080fd5b5061045d610d17565b60405161046a919061167c565b60405180910390f35b34801561047f57600080fd5b5061049a600480360381019061049591906116c3565b610d1d565b6040516104a7919061167c565b60405180910390f35b3480156104bc57600080fd5b506104c5610d92565b6040516104d2919061167c565b60405180910390f35b3480156104e757600080fd5b506104f0610d98565b6040516104fd919061167c565b60405180910390f35b34801561051257600080fd5b5061051b610da2565b604051610528919061195d565b60405180910390f35b610539610f75565b005b34801561054757600080fd5b50610550611216565b60405161055d91906117a8565b60405180910390f35b34801561057257600080fd5b5061057b611229565b60405161058891906117d2565b60405180910390f35b6001805461059e906119ae565b80601f01602080910402602001604051908101604052809291908181526020018280546105ca906119ae565b80156106175780601f106105ec57610100808354040283529160200191610617565b820191906000526020600020905b8154815290600101906020018083116105fa57829003601f168201915b505050505081565b61062833610c30565b610667576040517f08c379a000000000000000000000000000000000000000000000000000000000815260040161065e90611a51565b60405180910390fd5b600960009054906101000a900460ff16156106b7576040517f08c379a00000000000000000000000000000000000000000000000000000000081526004016106ae90611abd565b60405180910390fd5b60085434146106fb576040517f08c379a00000000000000000000000000000000000000000000000000000000081526004016106f290611b29565b60405180910390fd5b6000600b60003373ffffffffffffffffffffffffffffffffffffffff1673ffffffffffffffffffffffffffffffffffffffff1681526020019081526020016000205490506000600a828154811061075557610754611b49565b5b9060005260206000200190508060000160159054906101000a900460ff16156107b3576040517f08c379a00000000000000000000000000000000000000000000000000000000081526004016107aa90611bc4565b60405180910390fd5b60018160000160156101000a81548160ff02191690831515021790555034600c60008282546107e29190611c13565b925050819055507fe9b0699bffdb73d59bcd6347dfd5172f6d708c11e0b056c5a76d7c231d402ffb333460405161081a929190611c47565b60405180910390a16003546008546108329190611c70565b600c5403610882576001600960006101000a81548160ff0219169083151502179055507f041ddb0bda597672859a3817681cdb372a435e94fe5a68a5651eee0fbdf4664b60405160405180910390a15b5050565b600b6020528060005260406000206000915090505481565b600c5481565b600a81815481106108b457600080fd5b906000526020600020016000915090508060000160009054906101000a900473ffffffffffffffffffffffffffffffffffffffff16908060000160149054906101000a900460ff16908060000160159054906101000a900460ff16908060000160169054906101000a900460ff16905084565b600080600061093584610c30565b6109495760008060009250925092506109ee565b6000600b60008673ffffffffffffffffffffffffffffffffffffffff1673ffffffffffffffffffffffffffffffffffffffff1681526020019081526020016000205490506000600a82815481106109a3576109a2611b49565b5b9060005260206000200190508060000160159054906101000a900460ff168160000160149054906101000a900460ff168260000160169054906101000a900460ff1694509450945050505b9193909250565b6000610a0082610c30565b610a3f576040517f08c379a0000000000000000000000000000000000000000000000000000000008152600401610a3690611cfe565b60405180910390fd5b6000600b60008473ffffffffffffffffffffffffffffffffffffffff1673ffffffffffffffffffffffffffffffffffffffff1681526020019081526020016000205490506000600a8281548110610a9957610a98611b49565b5b9060005260206000200190506000610ab2600454610d1d565b90508160000160149054906101000a900460ff16158015610ad257508042115b15610ae35760019350505050610aeb565b600093505050505b919050565b60065481565b60025481565b60008054906101000a900473ffffffffffffffffffffffffffffffffffffffff1681565b60006060600080600080600080600080600030600160008054906101000a900473ffffffffffffffffffffffffffffffffffffffff16600254600354600454600554600960009054906101000a900460ff16600c54600654600754898054610b87906119ae565b80601f0160208091040260200160405190810160405280929190818152602001828054610bb3906119ae565b8015610c005780601f10610bd557610100808354040283529160200191610c00565b820191906000526020600020905b815481529060010190602001808311610be357829003601f168201915b505050505099509a509a509a509a509a509a509a509a509a509a509a50909192939495969798999a565b60075481565b600080600b60008473ffffffffffffffffffffffffffffffffffffffff1673ffffffffffffffffffffffffffffffffffffffff16815260200190815260200160002054905080600a80549050118015610cf557508273ffffffffffffffffffffffffffffffffffffffff16600a8281548110610caf57610cae611b49565b5b9060005260206000200160000160009054906101000a900473ffffffffffffffffffffffffffffffffffffffff1673ffffffffffffffffffffffffffffffffffffffff16145b915050919050565b60085481565b600060055460045411905090565b60055481565b60035481565b6000600554821115610d64576040517f08c379a0000000000000000000000000000000000000000000000000000000008152600401610d5b90611d6a565b60405180910390fd5b600654600183610d749190611d8a565b610d7e9190611c70565b600754610d8b9190611c13565b9050919050565b60045481565b6000600254905090565b6060600080610db2600454610d1d565b905060005b600a80549050811015610e2057600a8181548110610dd857610dd7611b49565b5b9060005260206000200160000160149054906101000a900460ff16158015610dff57508142115b15610e13578280610e0f90611dbe565b9350505b8080600101915050610db7565b5060008267ffffffffffffffff811115610e3d57610e3c611e06565b5b604051908082528060200260200182016040528015610e6b5781602001602082028036833780820191505090505b5090506000805b600a80549050811015610f6a57600a8181548110610e9357610e92611b49565b5b9060005260206000200160000160149054906101000a900460ff16158015610eba57508342115b15610f5d57600a8181548110610ed357610ed2611b49565b5b9060005260206000200160000160009054906101000a900473ffffffffffffffffffffffffffffffffffffffff16838381518110610f1457610f13611b49565b5b602002602001019073ffffffffffffffffffffffffffffffffffffffff16908173ffffffffffffffffffffffffffffffffffffffff16815250508180610f5990611dbe565b9250505b8080600101915050610e72565b508194505050505090565b610f7e33610c30565b610fbd576040517f08c379a0000000000000000000000000000000000000000000000000000000008152600401610fb490611a51565b60405180910390fd5b600960009054906101000a900460ff1661100c576040517f08c379a000000000000000000000000000000000000000000000000000000000815260040161100390611e81565b60405180910390fd5b6005546004541115611053576040517f08c379a000000000000000000000000000000000000000000000000000000000815260040161104a90611eed565b60405180910390fd5b6000611060600454610d1d565b9050804211156110a5576040517f08c379a000000000000000000000000000000000000000000000000000000000815260040161109c90611f7f565b60405180910390fd5b60025434146110e9576040517f08c379a00000000000000000000000000000000000000000000000000000000081526004016110e090611feb565b60405180910390fd5b6000600b60003373ffffffffffffffffffffffffffffffffffffffff1673ffffffffffffffffffffffffffffffffffffffff1681526020019081526020016000205490506000600a828154811061114357611142611b49565b5b9060005260206000200190508060000160149054906101000a900460ff16156111a1576040517f08c379a000000000000000000000000000000000000000000000000000000000815260040161119890612057565b60405180910390fd5b60018160000160146101000a81548160ff0219169083151502179055507fd2dff949d20e874cc6ba1dcefb840fb8cf6000a4197bfb69accfea5a32443ff533346004546040516111f393929190612077565b60405180910390a1611203611307565b156112115761121061136f565b5b505050565b600960009054906101000a900460ff1681565b600080600090505b600a805490508110156112c857600a818154811061125257611251611b49565b5b9060005260206000200160000160169054906101000a900460ff166112bb57600a818154811061128557611284611b49565b5b9060005260206000200160000160009054906101000a900473ffffffffffffffffffffffffffffffffffffffff16915050611304565b8080600101915050611231565b506040517f08c379a00000000000000000000000000000000000000000000000000000000081526004016112fb90612120565b60405180910390fd5b90565b600080600090505b600a8054905081101561136657600a81815481106113305761132f611b49565b5b9060005260206000200160000160149054906101000a900460ff1661135957600091505061136c565b808060010191505061130f565b50600190505b90565b600080600090505b600a80549050811015611414576000600a828154811061139a57611399611b49565b5b9060005260206000200190508060000160169054906101000a900460ff16611406578060000160009054906101000a900473ffffffffffffffffffffffffffffffffffffffff16925060018160000160166101000a81548160ff02191690831515021790555050611414565b508080600101915050611377565b5060006003546002546114279190611c70565b90508173ffffffffffffffffffffffffffffffffffffffff166108fc829081150290604051600060405180830381858888f1935050505015801561146f573d6000803e3d6000fd5b507fba47a90c5497941f5c8a80cb50e75a6739149c92483dcc0648eb1f37c129c36d82826004546040516114a59392919061219f565b60405180910390a160005b600a80549050811015611504576000600a82815481106114d3576114d2611b49565b5b9060005260206000200160000160146101000a81548160ff02191690831515021790555080806001019150506114b0565b506004600081548092919061151890611dbe565b91905055505050565b600081519050919050565b600082825260208201905092915050565b60005b8381101561155b578082015181840152602081019050611540565b60008484015250505050565b6000601f19601f8301169050919050565b600061158382611521565b61158d818561152c565b935061159d81856020860161153d565b6115a681611567565b840191505092915050565b600060208201905081810360008301526115cb8184611578565b905092915050565b600080fd5b600073ffffffffffffffffffffffffffffffffffffffff82169050919050565b6000611603826115d8565b9050919050565b611613816115f8565b811461161e57600080fd5b50565b6000813590506116308161160a565b92915050565b60006020828403121561164c5761164b6115d3565b5b600061165a84828501611621565b91505092915050565b6000819050919050565b61167681611663565b82525050565b6000602082019050611691600083018461166d565b92915050565b6116a081611663565b81146116ab57600080fd5b50565b6000813590506116bd81611697565b92915050565b6000602082840312156116d9576116d86115d3565b5b60006116e7848285016116ae565b91505092915050565b60006116fb826115d8565b9050919050565b61170b816116f0565b82525050565b60008115159050919050565b61172681611711565b82525050565b60006080820190506117416000830187611702565b61174e602083018661171d565b61175b604083018561171d565b611768606083018461171d565b95945050505050565b6000606082019050611786600083018661171d565b611793602083018561171d565b6117a0604083018461171d565b949350505050565b60006020820190506117bd600083018461171d565b92915050565b6117cc816115f8565b82525050565b60006020820190506117e760008301846117c3565b92915050565b600061016082019050611803600083018e6117c3565b8181036020830152611815818d611578565b9050611824604083018c6117c3565b611831606083018b61166d565b61183e608083018a61166d565b61184b60a083018961166d565b61185860c083018861166d565b61186560e083018761171d565b61187361010083018661166d565b61188161012083018561166d565b61188f61014083018461166d565b9c9b505050505050505050505050565b600081519050919050565b600082825260208201905092915050565b6000819050602082019050919050565b6118d4816115f8565b82525050565b60006118e683836118cb565b60208301905092915050565b6000602082019050919050565b600061190a8261189f565b61191481856118aa565b935061191f836118bb565b8060005b8381101561195057815161193788826118da565b9750611942836118f2565b925050600181019050611923565b5085935050505092915050565b6000602082019050818103600083015261197781846118ff565b905092915050565b7f4e487b7100000000000000000000000000000000000000000000000000000000600052602260045260246000fd5b600060028204905060018216806119c657607f821691505b6020821081036119d9576119d861197f565b5b50919050565b7f4f6e6c79207061727469636970616e74732063616e20706572666f726d20746860008201527f697320616374696f6e0000000000000000000000000000000000000000000000602082015250565b6000611a3b60298361152c565b9150611a46826119df565b604082019050919050565b60006020820190508181036000830152611a6a81611a2e565b9050919050565b7f46756e6420616c72656164792073746172746564000000000000000000000000600082015250565b6000611aa760148361152c565b9150611ab282611a71565b602082019050919050565b60006020820190508181036000830152611ad681611a9a565b9050919050565b7f496e636f727265637420636f6c6c61746572616c20616d6f756e740000000000600082015250565b6000611b13601b8361152c565b9150611b1e82611add565b602082019050919050565b60006020820190508181036000830152611b4281611b06565b9050919050565b7f4e487b7100000000000000000000000000000000000000000000000000000000600052603260045260246000fd5b7f416c7265616479207374616b656420636f6c6c61746572616c00000000000000600082015250565b6000611bae60198361152c565b9150611bb982611b78565b602082019050919050565b60006020820190508181036000830152611bdd81611ba1565b9050919050565b7f4e487b7100000000000000000000000000000000000000000000000000000000600052601160045260246000fd5b6000611c1e82611663565b9150611c2983611663565b9250828201905080821115611c4157611c40611be4565b5b92915050565b6000604082019050611c5c60008301856117c3565b611c69602083018461166d565b9392505050565b6000611c7b82611663565b9150611c8683611663565b9250828202611c9481611663565b91508282048414831517611cab57611caa611be4565b5b5092915050565b7f41646472657373206973206e6f742061207061727469636970616e7400000000600082015250565b6000611ce8601c8361152c565b9150611cf382611cb2565b602082019050919050565b60006020820190508181036000830152611d1781611cdb565b9050919050565b7f4379636c65206f7574206f6620626f756e647300000000000000000000000000600082015250565b6000611d5460138361152c565b9150611d5f82611d1e565b602082019050919050565b60006020820190508181036000830152611d8381611d47565b9050919050565b6000611d9582611663565b9150611da083611663565b9250828203905081811115611db857611db7611be4565b5b92915050565b6000611dc982611663565b91507fffffffffffffffffffffffffffffffffffffffffffffffffffffffffffffffff8203611dfb57611dfa611be4565b5b600182019050919050565b7f4e487b7100000000000000000000000000000000000000000000000000000000600052604160045260246000fd5b7f46756e6420686173206e6f742073746172746564207965740000000000000000600082015250565b6000611e6b60188361152c565b9150611e7682611e35565b602082019050919050565b60006020820190508181036000830152611e9a81611e5e565b9050919050565b7f416c6c206379636c657320636f6d706c65746564000000000000000000000000600082015250565b6000611ed760148361152c565b9150611ee282611ea1565b602082019050919050565b60006020820190508181036000830152611f0681611eca565b9050919050565b7f436f6e747269627574696f6e20706572696f6420656e64656420666f7220746860008201527f6973206379636c65000000000000000000000000000000000000000000000000602082015250565b6000611f6960288361152c565b9150611f7482611f0d565b604082019050919050565b60006020820190508181036000830152611f9881611f5c565b9050919050565b7f496e636f727265637420636f6e747269627574696f6e20616d6f756e74000000600082015250565b6000611fd5601d8361152c565b9150611fe082611f9f565b602082019050919050565b6000602082019050818103600083015261200481611fc8565b9050919050565b7f416c726561647920636f6e74726962757465642074686973206379636c650000600082015250565b6000612041601e8361152c565b915061204c8261200b565b602082019050919050565b6000602082019050818103600083015261207081612034565b9050919050565b600060608201905061208c60008301866117c3565b612099602083018561166d565b6120a6604083018461166d565b949350505050565b7f416c6c207061727469636970616e74732068617665207265636569766564207460008201527f68652066756e6420666f722074686973206379636c652e000000000000000000602082015250565b600061210a60378361152c565b9150612115826120ae565b604082019050919050565b60006020820190508181036000830152612139816120fd565b9050919050565b6000819050919050565b600061216561216061215b846115d8565b612140565b6115d8565b9050919050565b60006121778261214a565b9050919050565b60006121898261216c565b9050919050565b6121998161217e565b82525050565b60006060820190506121b46000830186612190565b6121c1602083018561166d565b6121ce604083018461166d565b94935050505056fea26469706673582212208e5bd9e9ce7ddb7927bc3479f0fca8dc1bd932e693ae19a442a98f6a35948c6664736f6c634300081b0033",
  "linkReferences": {},
  "deployedLinkReferences": {}
}