{
  "_format": "hh-sol-artifact-1",
  "contractName": "ChitFund",
  "sourceName": "contracts/ChitFund.sol",
  "abi": [
    {
      "inputs": [
        {
          "internalType": "address",
          "name": "_organizer",
          "type": "address"
        },
        {
          "internalType": "string",
          "name": "_name",
          "type": "string"
        },
        {
          "internalType": "uint256",
          "name": "_contributionAmount",
          "type": "uint256"
        },
        {
          "internalType": "uint256",
          "name": "_totalParticipants",
          "type": "uint256"
        },
        {
          "internalType": "uint256",
          "name": "_totalCycles",
          "type": "uint256"
        },
        {
          "internalType": "uint256",
          "name": "_cycleDuration",
          "type": "uint256"
        },
        {
          "internalType": "uint256",
          "name": "_startTime",
          "type": "uint256"
        },
        {
          "internalType": "address[]",
          "name": "_participants",
          "type": "address[]"
        },
        {
          "internalType": "uint256",
          "name": "_collateralPercentage",
          "type": "uint256"
        }
      ],
      "stateMutability": "nonpayable",
      "type": "constructor"
    },
    {
      "anonymous": false,
      "inputs": [
        {
          "indexed": false,
          "internalType": "address",
          "name": "participant",
          "type": "address"
        },
        {
          "indexed": false,
          "internalType": "uint256",
          "name": "amount",
          "type": "uint256"
        }
      ],
      "name": "CollateralReturned",
      "type": "event"
    },
    {
      "anonymous": false,
      "inputs": [
        {
          "indexed": false,
          "internalType": "address",
          "name": "participant",
          "type": "address"
        },
        {
          "indexed": false,
          "internalType": "uint256",
          "name": "amount",
          "type": "uint256"
        }
      ],
      "name": "CollateralStaked",
      "type": "event"
    },
    {
      "anonymous": false,
      "inputs": [
        {
          "indexed": false,
          "internalType": "address",
          "name": "participant",
          "type": "address"
        },
        {
          "indexed": false,
          "internalType": "uint256",
          "name": "amount",
          "type": "uint256"
        },
        {
          "indexed": false,
          "internalType": "uint256",
          "name": "cycle",
          "type": "uint256"
        }
      ],
      "name": "ContributionReceived",
      "type": "event"
    },
    {
      "anonymous": false,
      "inputs": [
        {
          "indexed": false,
          "internalType": "uint256",
          "name": "cycle",
          "type": "uint256"
        }
      ],
      "name": "CycleCompleted",
      "type": "event"
    },
    {
      "anonymous": false,
      "inputs": [
        {
          "indexed": false,
          "internalType": "address",
          "name": "recipient",
          "type": "address"
        },
        {
          "indexed": false,
          "internalType": "uint256",
          "name": "cycle",
          "type": "uint256"
        }
      ],
      "name": "FundClaimed",
      "type": "event"
    },
    {
      "anonymous": false,
      "inputs": [
        {
          "indexed": false,
          "internalType": "address",
          "name": "recipient",
          "type": "address"
        },
        {
          "indexed": false,
          "internalType": "uint256",
          "name": "amount",
          "type": "uint256"
        },
        {
          "indexed": false,
          "internalType": "uint256",
          "name": "cycle",
          "type": "uint256"
        }
      ],
      "name": "FundDisbursed",
      "type": "event"
    },
    {
      "anonymous": false,
      "inputs": [],
      "name": "FundStarted",
      "type": "event"
    },
    {
      "anonymous": false,
      "inputs": [
        {
          "indexed": false,
          "internalType": "address",
          "name": "recipient",
          "type": "address"
        },
        {
          "indexed": false,
          "internalType": "uint256",
          "name": "amount",
          "type": "uint256"
        }
      ],
      "name": "TransferFailed",
      "type": "event"
    },
    {
      "inputs": [],
      "name": "claim",
      "outputs": [],
      "stateMutability": "nonpayable",
      "type": "function"
    },
    {
      "inputs": [],
      "name": "collateralAmount",
      "outputs": [
        {
          "internalType": "uint256",
          "name": "",
          "type": "uint256"
        }
      ],
      "stateMutability": "view",
      "type": "function"
    },
    {
      "inputs": [],
      "name": "collateralPercentage",
      "outputs": [
        {
          "internalType": "uint256",
          "name": "",
          "type": "uint256"
        }
      ],
      "stateMutability": "view",
      "type": "function"
    },
    {
      "inputs": [],
      "name": "contribute",
      "outputs": [],
      "stateMutability": "payable",
      "type": "function"
    },
    {
      "inputs": [],
      "name": "contributionAmount",
      "outputs": [
        {
          "internalType": "uint256",
          "name": "",
          "type": "uint256"
        }
      ],
      "stateMutability": "view",
      "type": "function"
    },
    {
      "inputs": [],
      "name": "currentCycle",
      "outputs": [
        {
          "internalType": "uint256",
          "name": "",
          "type": "uint256"
        }
      ],
      "stateMutability": "view",
      "type": "function"
    },
    {
      "inputs": [],
      "name": "cycleDuration",
      "outputs": [
        {
          "internalType": "uint256",
          "name": "",
          "type": "uint256"
        }
      ],
      "stateMutability": "view",
      "type": "function"
    },
    {
      "inputs": [],
      "name": "fundStarted",
      "outputs": [
        {
          "internalType": "bool",
          "name": "",
          "type": "bool"
        }
      ],
      "stateMutability": "view",
      "type": "function"
    },
    {
      "inputs": [],
      "name": "getChitFundDetails",
      "outputs": [
        {
          "internalType": "address",
          "name": "_fundAddress",
          "type": "address"
        },
        {
          "internalType": "string",
          "name": "_name",
          "type": "string"
        },
        {
          "internalType": "address",
          "name": "_organizer",
          "type": "address"
        },
        {
          "internalType": "uint256",
          "name": "_contributionAmount",
          "type": "uint256"
        },
        {
          "internalType": "uint256",
          "name": "_totalParticipants",
          "type": "uint256"
        },
        {
          "internalType": "uint256",
          "name": "_currentCycle",
          "type": "uint256"
        },
        {
          "internalType": "uint256",
          "name": "_totalCycles",
          "type": "uint256"
        },
        {
          "internalType": "bool",
          "name": "_fundStarted",
          "type": "bool"
        },
        {
          "internalType": "uint256",
          "name": "_totalCollateralStaked",
          "type": "uint256"
        },
        {
          "internalType": "uint256",
          "name": "_cycleDuration",
          "type": "uint256"
        },
        {
          "internalType": "uint256",
          "name": "_startTime",
          "type": "uint256"
        },
        {
          "internalType": "uint256",
          "name": "_collateralAmount",
          "type": "uint256"
        }
      ],
      "stateMutability": "view",
      "type": "function"
    },
    {
      "inputs": [],
      "name": "getContractBalance",
      "outputs": [
        {
          "internalType": "uint256",
          "name": "",
          "type": "uint256"
        }
      ],
      "stateMutability": "view",
      "type": "function"
    },
    {
      "inputs": [],
      "name": "getContributionAmount",
      "outputs": [
        {
          "internalType": "uint256",
          "name": "",
          "type": "uint256"
        }
      ],
      "stateMutability": "view",
      "type": "function"
    },
    {
      "inputs": [
        {
          "internalType": "uint256",
          "name": "cycle",
          "type": "uint256"
        }
      ],
      "name": "getDeadlineForCycle",
      "outputs": [
        {
          "internalType": "uint256",
          "name": "",
          "type": "uint256"
        }
      ],
      "stateMutability": "view",
      "type": "function"
    },
    {
      "inputs": [],
      "name": "getNextRecipient",
      "outputs": [
        {
          "internalType": "address",
          "name": "",
          "type": "address"
        }
      ],
      "stateMutability": "view",
      "type": "function"
    },
    {
      "inputs": [],
      "name": "getOverdueParticipants",
      "outputs": [
        {
          "internalType": "address[]",
          "name": "",
          "type": "address[]"
        }
      ],
      "stateMutability": "view",
      "type": "function"
    },
    {
      "inputs": [
        {
          "internalType": "address",
          "name": "_addr",
          "type": "address"
        }
      ],
      "name": "getParticipantDetails",
      "outputs": [
        {
          "internalType": "bool",
          "name": "hasStakedCollateral",
          "type": "bool"
        },
        {
          "internalType": "bool",
          "name": "hasContributed",
          "type": "bool"
        },
        {
          "internalType": "bool",
          "name": "hasReceivedFund",
          "type": "bool"
        }
      ],
      "stateMutability": "view",
      "type": "function"
    },
    {
      "inputs": [],
      "name": "isFundCompleted",
      "outputs": [
        {
          "internalType": "bool",
          "name": "",
          "type": "bool"
        }
      ],
      "stateMutability": "view",
      "type": "function"
    },
    {
      "inputs": [
        {
          "internalType": "address",
          "name": "_addr",
          "type": "address"
        }
      ],
      "name": "isParticipant",
      "outputs": [
        {
          "internalType": "bool",
          "name": "",
          "type": "bool"
        }
      ],
      "stateMutability": "view",
      "type": "function"
    },
    {
      "inputs": [
        {
          "internalType": "address",
          "name": "_participant",
          "type": "address"
        }
      ],
      "name": "isParticipantOverdue",
      "outputs": [
        {
          "internalType": "bool",
          "name": "",
          "type": "bool"
        }
      ],
      "stateMutability": "view",
      "type": "function"
    },
    {
      "inputs": [],
      "name": "name",
      "outputs": [
        {
          "internalType": "string",
          "name": "",
          "type": "string"
        }
      ],
      "stateMutability": "view",
      "type": "function"
    },
    {
      "inputs": [],
      "name": "organizer",
      "outputs": [
        {
          "internalType": "address",
          "name": "",
          "type": "address"
        }
      ],
      "stateMutability": "view",
      "type": "function"
    },
    {
      "inputs": [
        {
          "internalType": "address",
          "name": "",
          "type": "address"
        }
      ],
      "name": "participantIndex",
      "outputs": [
        {
          "internalType": "uint256",
          "name": "",
          "type": "uint256"
        }
      ],
      "stateMutability": "view",
      "type": "function"
    },
    {
      "inputs": [
        {
          "internalType": "uint256",
          "name": "",
          "type": "uint256"
        }
      ],
      "name": "participants",
      "outputs": [
        {
          "internalType": "address payable",
          "name": "addr",
          "type": "address"
        },
        {
          "internalType": "bool",
          "name": "hasContributed",
          "type": "bool"
        },
        {
          "internalType": "bool",
          "name": "hasStakedCollateral",
          "type": "bool"
        },
        {
          "internalType": "bool",
          "name": "hasReceivedFund",
          "type": "bool"
        }
      ],
      "stateMutability": "view",
      "type": "function"
    },
    {
      "inputs": [
        {
          "internalType": "address payable",
          "name": "_participant",
          "type": "address"
        }
      ],
      "name": "returnCollateral",
      "outputs": [],
      "stateMutability": "nonpayable",
      "type": "function"
    },
    {
      "inputs": [],
      "name": "stakeCollateral",
      "outputs": [],
      "stateMutability": "payable",
      "type": "function"
    },
    {
      "inputs": [],
      "name": "startTime",
      "outputs": [
        {
          "internalType": "uint256",
          "name": "",
          "type": "uint256"
        }
      ],
      "stateMutability": "view",
      "type": "function"
    },
    {
      "inputs": [],
      "name": "totalCollateralStaked",
      "outputs": [
        {
          "internalType": "uint256",
          "name": "",
          "type": "uint256"
        }
      ],
      "stateMutability": "view",
      "type": "function"
    },
    {
      "inputs": [],
      "name": "totalCycles",
      "outputs": [
        {
          "internalType": "uint256",
          "name": "",
          "type": "uint256"
        }
      ],
      "stateMutability": "view",
      "type": "function"
    },
    {
      "inputs": [],
      "name": "totalParticipants",
      "outputs": [
        {
          "internalType": "uint256",
          "name": "",
          "type": "uint256"
        }
      ],
      "stateMutability": "view",
      "type": "function"
    }
  ],
  "bytecode": "0x608060405234801561001057600080fd5b50604051613b9a380380613b9a833981810160405281019061003291906105ea565b85825114610075576040517f08c379a000000000000000000000000000000000000000000000000000000000815260040161006c90610749565b60405180910390fd5b600081118015610086575060648111155b6100c5576040517f08c379a00000000000000000000000000000000000000000000000000000000081526004016100bc906107db565b60405180910390fd5b886000806101000a81548173ffffffffffffffffffffffffffffffffffffffff021916908373ffffffffffffffffffffffffffffffffffffffff16021790555087600190816101149190610a12565b5086600281905550856003819055508460058190555083600681905550826007819055508060088190555060646008546002546101519190610b13565b61015b9190610b84565b600981905550600160048190555060005b825181101561030a57600b604051806080016040528085848151811061019557610194610bb5565b5b602002602001015173ffffffffffffffffffffffffffffffffffffffff168152602001600015158152602001600015158152602001600015158152509080600181540180825580915050600190039060005260206000200160009091909190915060008201518160000160006101000a81548173ffffffffffffffffffffffffffffffffffffffff021916908373ffffffffffffffffffffffffffffffffffffffff16021790555060208201518160000160146101000a81548160ff02191690831515021790555060408201518160000160156101000a81548160ff02191690831515021790555060608201518160000160166101000a81548160ff021916908315150217905550505080600c60008584815181106102b7576102b6610bb5565b5b602002602001015173ffffffffffffffffffffffffffffffffffffffff1673ffffffffffffffffffffffffffffffffffffffff16815260200190815260200160002081905550808060010191505061016c565b50505050505050505050610be4565b6000604051905090565b600080fd5b600080fd5b600073ffffffffffffffffffffffffffffffffffffffff82169050919050565b60006103588261032d565b9050919050565b6103688161034d565b811461037357600080fd5b50565b6000815190506103858161035f565b92915050565b600080fd5b600080fd5b6000601f19601f8301169050919050565b7f4e487b7100000000000000000000000000000000000000000000000000000000600052604160045260246000fd5b6103de82610395565b810181811067ffffffffffffffff821117156103fd576103fc6103a6565b5b80604052505050565b6000610410610319565b905061041c82826103d5565b919050565b600067ffffffffffffffff82111561043c5761043b6103a6565b5b61044582610395565b9050602081019050919050565b60005b83811015610470578082015181840152602081019050610455565b60008484015250505050565b600061048f61048a84610421565b610406565b9050828152602081018484840111156104ab576104aa610390565b5b6104b6848285610452565b509392505050565b600082601f8301126104d3576104d261038b565b5b81516104e384826020860161047c565b91505092915050565b6000819050919050565b6104ff816104ec565b811461050a57600080fd5b50565b60008151905061051c816104f6565b92915050565b600067ffffffffffffffff82111561053d5761053c6103a6565b5b602082029050602081019050919050565b600080fd5b600061056661056184610522565b610406565b905080838252602082019050602084028301858111156105895761058861054e565b5b835b818110156105b2578061059e8882610376565b84526020840193505060208101905061058b565b5050509392505050565b600082601f8301126105d1576105d061038b565b5b81516105e1848260208601610553565b91505092915050565b60008060008060008060008060006101208a8c03121561060d5761060c610323565b5b600061061b8c828d01610376565b99505060208a015167ffffffffffffffff81111561063c5761063b610328565b5b6106488c828d016104be565b98505060406106598c828d0161050d565b975050606061066a8c828d0161050d565b965050608061067b8c828d0161050d565b95505060a061068c8c828d0161050d565b94505060c061069d8c828d0161050d565b93505060e08a015167ffffffffffffffff8111156106be576106bd610328565b5b6106ca8c828d016105bc565b9250506101006106dc8c828d0161050d565b9150509295985092959850929598565b600082825260208201905092915050565b7f5061727469636970616e747320636f756e74206d69736d617463680000000000600082015250565b6000610733601b836106ec565b915061073e826106fd565b602082019050919050565b6000602082019050818103600083015261076281610726565b9050919050565b7f436f6c6c61746572616c2070657263656e746167652073686f756c642062652060008201527f6265747765656e203120616e6420313030000000000000000000000000000000602082015250565b60006107c56031836106ec565b91506107d082610769565b604082019050919050565b600060208201905081810360008301526107f4816107b8565b9050919050565b600081519050919050565b7f4e487b7100000000000000000000000000000000000000000000000000000000600052602260045260246000fd5b6000600282049050600182168061084d57607f821691505b6020821081036108605761085f610806565b5b50919050565b60008190508160005260206000209050919050565b60006020601f8301049050919050565b600082821b905092915050565b6000600883026108c87fffffffffffffffffffffffffffffffffffffffffffffffffffffffffffffffff8261088b565b6108d2868361088b565b95508019841693508086168417925050509392505050565b6000819050919050565b600061090f61090a610905846104ec565b6108ea565b6104ec565b9050919050565b6000819050919050565b610929836108f4565b61093d61093582610916565b848454610898565b825550505050565b600090565b610952610945565b61095d818484610920565b505050565b5b818110156109815761097660008261094a565b600181019050610963565b5050565b601f8211156109c65761099781610866565b6109a08461087b565b810160208510156109af578190505b6109c36109bb8561087b565b830182610962565b50505b505050565b600082821c905092915050565b60006109e9600019846008026109cb565b1980831691505092915050565b6000610a0283836109d8565b9150826002028217905092915050565b610a1b826107fb565b67ffffffffffffffff811115610a3457610a336103a6565b5b610a3e8254610835565b610a49828285610985565b600060209050601f831160018114610a7c5760008415610a6a578287015190505b610a7485826109f6565b865550610adc565b601f198416610a8a86610866565b60005b82811015610ab257848901518255600182019150602085019450602081019050610a8d565b86831015610acf5784890151610acb601f8916826109d8565b8355505b6001600288020188555050505b505050505050565b7f4e487b7100000000000000000000000000000000000000000000000000000000600052601160045260246000fd5b6000610b1e826104ec565b9150610b29836104ec565b9250828202610b37816104ec565b91508282048414831517610b4e57610b4d610ae4565b5b5092915050565b7f4e487b7100000000000000000000000000000000000000000000000000000000600052601260045260246000fd5b6000610b8f826104ec565b9150610b9a836104ec565b925082610baa57610ba9610b55565b5b828204905092915050565b7f4e487b7100000000000000000000000000000000000000000000000000000000600052603260045260246000fd5b612fa780610bf36000396000f3fe6080604052600436106101b75760003560e01c806378e97925116100ec578063bab2f5521161008a578063d7bb99ba11610064578063d7bb99ba1461060b578063daf2fd5814610615578063f54a36cc1461063e578063fd379a3114610669576101b7565b8063bab2f5521461058a578063bbb48445146105b5578063cbc3cecb146105e0576101b7565b8063968873eb116100c6578063968873eb146104cc578063a1657681146104f7578063a26dbf2614610522578063af2d0a311461054d576101b7565b806378e9792514610439578063929066f51461046457806392d09ceb146104a1576101b7565b80634a9829cd116101595780635fa0b65f116101335780635fa0b65f1461038257806361203265146103ad57806365d68e4e146103d85780636f9fb98a1461040e576101b7565b80634a9829cd146103035780634e71d92d146103405780635bec4cb414610357576101b7565b8063271751da11610195578063271751da1461022e578063308352e81461025957806335c1d3491461028457806344e0b8c1146102c4576101b7565b806306fdde03146101bc578063070fecb5146101e7578063083b9137146101f1575b600080fd5b3480156101c857600080fd5b506101d1610694565b6040516101de9190611d6b565b60405180910390f35b6101ef610722565b005b3480156101fd57600080fd5b5061021860048036038101906102139190611df0565b610989565b6040516102259190611e36565b60405180910390f35b34801561023a57600080fd5b506102436109a1565b6040516102509190611e36565b60405180910390f35b34801561026557600080fd5b5061026e6109a7565b60405161027b9190611e36565b60405180910390f35b34801561029057600080fd5b506102ab60048036038101906102a69190611e7d565b6109ad565b6040516102bb9493929190611ee6565b60405180910390f35b3480156102d057600080fd5b506102eb60048036038101906102e69190611df0565b610a30565b6040516102fa93929190611f2b565b60405180910390f35b34801561030f57600080fd5b5061032a60048036038101906103259190611df0565b610afe565b6040516103379190611f62565b60405180910390f35b34801561034c57600080fd5b50610355610bf9565b005b34801561036357600080fd5b5061036c610d49565b6040516103799190611e36565b60405180910390f35b34801561038e57600080fd5b50610397610d4f565b6040516103a49190611e36565b60405180910390f35b3480156103b957600080fd5b506103c2610d55565b6040516103cf9190611f8c565b60405180910390f35b3480156103e457600080fd5b506103ed610d79565b6040516104059c9b9a99989796959493929190611fa7565b60405180910390f35b34801561041a57600080fd5b50610423610e8a565b6040516104309190611e36565b60405180910390f35b34801561044557600080fd5b5061044e610e92565b60405161045b9190611e36565b60405180910390f35b34801561047057600080fd5b5061048b60048036038101906104869190611df0565b610e98565b6040516104989190611f62565b60405180910390f35b3480156104ad57600080fd5b506104b6610f65565b6040516104c39190611e36565b60405180910390f35b3480156104d857600080fd5b506104e1610f6b565b6040516104ee9190611f62565b60405180910390f35b34801561050357600080fd5b5061050c610f79565b6040516105199190611e36565b60405180910390f35b34801561052e57600080fd5b50610537610f7f565b6040516105449190611e36565b60405180910390f35b34801561055957600080fd5b50610574600480360381019061056f9190611e7d565b610f85565b6040516105819190611e36565b60405180910390f35b34801561059657600080fd5b5061059f610ffa565b6040516105ac9190611e36565b60405180910390f35b3480156105c157600080fd5b506105ca611000565b6040516105d79190611e36565b60405180910390f35b3480156105ec57600080fd5b506105f5611017565b6040516106029190612126565b60405180910390f35b6106136111ea565b005b34801561062157600080fd5b5061063c60048036038101906106379190612174565b611488565b005b34801561064a57600080fd5b50610653611807565b6040516106609190611f62565b60405180910390f35b34801561067557600080fd5b5061067e61181a565b60405161068b9190611f8c565b60405180910390f35b600180546106a1906121d0565b80601f01602080910402602001604051908101604052809291908181526020018280546106cd906121d0565b801561071a5780601f106106ef5761010080835404028352916020019161071a565b820191906000526020600020905b8154815290600101906020018083116106fd57829003601f168201915b505050505081565b61072b33610e98565b61076a576040517f08c379a000000000000000000000000000000000000000000000000000000000815260040161076190612273565b60405180910390fd5b600a60009054906101000a900460ff16156107ba576040517f08c379a00000000000000000000000000000000000000000000000000000000081526004016107b1906122df565b60405180910390fd5b60095434146107fe576040517f08c379a00000000000000000000000000000000000000000000000000000000081526004016107f59061234b565b60405180910390fd5b6000600c60003373ffffffffffffffffffffffffffffffffffffffff1673ffffffffffffffffffffffffffffffffffffffff1681526020019081526020016000205490506000600b82815481106108585761085761236b565b5b9060005260206000200190508060000160159054906101000a900460ff16156108b6576040517f08c379a00000000000000000000000000000000000000000000000000000000081526004016108ad906123e6565b60405180910390fd5b60018160000160156101000a81548160ff02191690831515021790555034600d60008282546108e59190612435565b925050819055507fe9b0699bffdb73d59bcd6347dfd5172f6d708c11e0b056c5a76d7c231d402ffb333460405161091d929190612469565b60405180910390a16003546009546109359190612492565b600d5403610985576001600a60006101000a81548160ff0219169083151502179055507f041ddb0bda597672859a3817681cdb372a435e94fe5a68a5651eee0fbdf4664b60405160405180910390a15b5050565b600c6020528060005260406000206000915090505481565b600d5481565b60085481565b600b81815481106109bd57600080fd5b906000526020600020016000915090508060000160009054906101000a900473ffffffffffffffffffffffffffffffffffffffff16908060000160149054906101000a900460ff16908060000160159054906101000a900460ff16908060000160169054906101000a900460ff16905084565b6000806000610a3e84610e98565b610a52576000806000925092509250610af7565b6000600c60008673ffffffffffffffffffffffffffffffffffffffff1673ffffffffffffffffffffffffffffffffffffffff1681526020019081526020016000205490506000600b8281548110610aac57610aab61236b565b5b9060005260206000200190508060000160159054906101000a900460ff168160000160149054906101000a900460ff168260000160169054906101000a900460ff1694509450945050505b9193909250565b6000610b0982610e98565b610b48576040517f08c379a0000000000000000000000000000000000000000000000000000000008152600401610b3f90612520565b60405180910390fd5b6000600c60008473ffffffffffffffffffffffffffffffffffffffff1673ffffffffffffffffffffffffffffffffffffffff1681526020019081526020016000205490506000600b8281548110610ba257610ba161236b565b5b9060005260206000200190506000610bbb600454610f85565b90508160000160149054906101000a900460ff16158015610bdb57508042115b15610bec5760019350505050610bf4565b600093505050505b919050565b3373ffffffffffffffffffffffffffffffffffffffff16610c1861181a565b73ffffffffffffffffffffffffffffffffffffffff1614610c6e576040517f08c379a0000000000000000000000000000000000000000000000000000000008152600401610c65906125b2565b60405180910390fd5b600a60009054906101000a900460ff16610cbd576040517f08c379a0000000000000000000000000000000000000000000000000000000008152600401610cb49061261e565b60405180910390fd5b610cc56118f8565b610d04576040517f08c379a0000000000000000000000000000000000000000000000000000000008152600401610cfb9061268a565b60405180910390fd5b610d0c611960565b7fc8dc8699e66727a0166ccf48d03b81c15c44f6106437b58b71708ee620b6dcf633600454604051610d3f929190612469565b60405180910390a1565b60065481565b60025481565b60008054906101000a900473ffffffffffffffffffffffffffffffffffffffff1681565b6000606060008060008060008060008060008030600160008054906101000a900473ffffffffffffffffffffffffffffffffffffffff16600254600354600454600554600a60009054906101000a900460ff16600d546006546007546009548a8054610de4906121d0565b80601f0160208091040260200160405190810160405280929190818152602001828054610e10906121d0565b8015610e5d5780601f10610e3257610100808354040283529160200191610e5d565b820191906000526020600020905b815481529060010190602001808311610e4057829003601f168201915b50505050509a509b509b509b509b509b509b509b509b509b509b509b509b50909192939495969798999a9b565b600047905090565b60075481565b600080600c60008473ffffffffffffffffffffffffffffffffffffffff1673ffffffffffffffffffffffffffffffffffffffff16815260200190815260200160002054905080600b80549050118015610f5d57508273ffffffffffffffffffffffffffffffffffffffff16600b8281548110610f1757610f1661236b565b5b9060005260206000200160000160009054906101000a900473ffffffffffffffffffffffffffffffffffffffff1673ffffffffffffffffffffffffffffffffffffffff16145b915050919050565b60095481565b600060055460045411905090565b60055481565b60035481565b6000600554821115610fcc576040517f08c379a0000000000000000000000000000000000000000000000000000000008152600401610fc3906126f6565b60405180910390fd5b600654600183610fdc9190612716565b610fe69190612492565b600754610ff39190612435565b9050919050565b60045481565b60006003546002546110129190612779565b905090565b6060600080611027600454610f85565b905060005b600b8054905081101561109557600b818154811061104d5761104c61236b565b5b9060005260206000200160000160149054906101000a900460ff1615801561107457508142115b15611088578280611084906127aa565b9350505b808060010191505061102c565b5060008267ffffffffffffffff8111156110b2576110b16127f2565b5b6040519080825280602002602001820160405280156110e05781602001602082028036833780820191505090505b5090506000805b600b805490508110156111df57600b81815481106111085761110761236b565b5b9060005260206000200160000160149054906101000a900460ff1615801561112f57508342115b156111d257600b81815481106111485761114761236b565b5b9060005260206000200160000160009054906101000a900473ffffffffffffffffffffffffffffffffffffffff168383815181106111895761118861236b565b5b602002602001019073ffffffffffffffffffffffffffffffffffffffff16908173ffffffffffffffffffffffffffffffffffffffff168152505081806111ce906127aa565b9250505b80806001019150506110e7565b508194505050505090565b6111f333610e98565b611232576040517f08c379a000000000000000000000000000000000000000000000000000000000815260040161122990612273565b60405180910390fd5b600a60009054906101000a900460ff16611281576040517f08c379a00000000000000000000000000000000000000000000000000000000081526004016112789061261e565b60405180910390fd5b60055460045411156112c8576040517f08c379a00000000000000000000000000000000000000000000000000000000081526004016112bf9061286d565b60405180910390fd5b60006003546002546112da9190612779565b905060006112e9600454610f85565b90508042111561132e576040517f08c379a0000000000000000000000000000000000000000000000000000000008152600401611325906128ff565b60405180910390fd5b813414611370576040517f08c379a00000000000000000000000000000000000000000000000000000000081526004016113679061296b565b60405180910390fd5b6000600c60003373ffffffffffffffffffffffffffffffffffffffff1673ffffffffffffffffffffffffffffffffffffffff1681526020019081526020016000205490506000600b82815481106113ca576113c961236b565b5b9060005260206000200190508060000160149054906101000a900460ff1615611428576040517f08c379a000000000000000000000000000000000000000000000000000000000815260040161141f906129d7565b60405180910390fd5b60018160000160146101000a81548160ff0219169083151502179055507fd2dff949d20e874cc6ba1dcefb840fb8cf6000a4197bfb69accfea5a32443ff5333460045460405161147a939291906129f7565b60405180910390a150505050565b60008054906101000a900473ffffffffffffffffffffffffffffffffffffffff1673ffffffffffffffffffffffffffffffffffffffff163373ffffffffffffffffffffffffffffffffffffffff1614611516576040517f08c379a000000000000000000000000000000000000000000000000000000000815260040161150d90612aa0565b60405180910390fd5b600a60019054906101000a900460ff1615611566576040517f08c379a000000000000000000000000000000000000000000000000000000000815260040161155d90612b0c565b60405180910390fd5b6001600a60016101000a81548160ff021916908315150217905550600554600454116115c7576040517f08c379a00000000000000000000000000000000000000000000000000000000081526004016115be90612b78565b60405180910390fd5b6000600c60008373ffffffffffffffffffffffffffffffffffffffff1673ffffffffffffffffffffffffffffffffffffffff168152602001908152602001600020549050600b805490508110611652576040517f08c379a000000000000000000000000000000000000000000000000000000000815260040161164990612be4565b60405180910390fd5b6000600b82815481106116685761166761236b565b5b9060005260206000200190508060000160159054906101000a900460ff166116c5576040517f08c379a00000000000000000000000000000000000000000000000000000000081526004016116bc90612c50565b60405180910390fd5b60008160000160156101000a81548160ff021916908315150217905550600954600d60008282546116f69190612716565b9250508190555060008373ffffffffffffffffffffffffffffffffffffffff1660095460405161172590612ca1565b60006040518083038185875af1925050503d8060008114611762576040519150601f19603f3d011682016040523d82523d6000602084013e611767565b606091505b50509050806117ab576040517f08c379a00000000000000000000000000000000000000000000000000000000081526004016117a290612d02565b60405180910390fd5b7f3db642b80902afb8ef23a2aeab4800b4b3717feb180705cf0a1c273ccc591c97846009546040516117de929190612d81565b60405180910390a15050506000600a60016101000a81548160ff02191690831515021790555050565b600a60009054906101000a900460ff1681565b600080600090505b600b805490508110156118b957600b81815481106118435761184261236b565b5b9060005260206000200160000160169054906101000a900460ff166118ac57600b81815481106118765761187561236b565b5b9060005260206000200160000160009054906101000a900473ffffffffffffffffffffffffffffffffffffffff169150506118f5565b8080600101915050611822565b506040517f08c379a00000000000000000000000000000000000000000000000000000000081526004016118ec90612e1c565b60405180910390fd5b90565b600080600090505b600b8054905081101561195757600b81815481106119215761192061236b565b5b9060005260206000200160000160149054906101000a900460ff1661194a57600091505061195d565b8080600101915050611900565b50600190505b90565b600a60019054906101000a900460ff16156119b0576040517f08c379a00000000000000000000000000000000000000000000000000000000081526004016119a790612b0c565b60405180910390fd5b6001600a60016101000a81548160ff0219169083151502179055506119d36118f8565b611a12576040517f08c379a0000000000000000000000000000000000000000000000000000000008152600401611a0990612eae565b60405180910390fd5b60008060005b600b80549050811015611a9b576000600b8281548110611a3b57611a3a61236b565b5b9060005260206000200190508060000160169054906101000a900460ff16611a8d578060000160009054906101000a900473ffffffffffffffffffffffffffffffffffffffff16935081925050611a9b565b508080600101915050611a18565b506000600254905060008373ffffffffffffffffffffffffffffffffffffffff1682604051611ac990612ca1565b60006040518083038185875af1925050503d8060008114611b06576040519150601f19603f3d011682016040523d82523d6000602084013e611b0b565b606091505b505090508015611c46576001600b8481548110611b2b57611b2a61236b565b5b9060005260206000200160000160166101000a81548160ff0219169083151502179055507fba47a90c5497941f5c8a80cb50e75a6739149c92483dcc0648eb1f37c129c36d8483600454604051611b8493929190612ece565b60405180910390a160005b600b80549050811015611be3576000600b8281548110611bb257611bb161236b565b5b9060005260206000200160000160146101000a81548160ff0219169083151502179055508080600101915050611b8f565b5060046000815480929190611bf7906127aa565b91905055507f0af2a8f03a51ebe8400bca44591b14bcb3d0f551909c1065a28afe98e316c0606001600454611c2c9190612716565b604051611c399190611e36565b60405180910390a1611cba565b7f1c43b9761b3fba5321ca8212bfc231945f668ccc0c446f333999eea9ce8fda818483604051611c77929190612d81565b60405180910390a16040517f08c379a0000000000000000000000000000000000000000000000000000000008152600401611cb190612f51565b60405180910390fd5b505050506000600a60016101000a81548160ff021916908315150217905550565b600081519050919050565b600082825260208201905092915050565b60005b83811015611d15578082015181840152602081019050611cfa565b60008484015250505050565b6000601f19601f8301169050919050565b6000611d3d82611cdb565b611d478185611ce6565b9350611d57818560208601611cf7565b611d6081611d21565b840191505092915050565b60006020820190508181036000830152611d858184611d32565b905092915050565b600080fd5b600073ffffffffffffffffffffffffffffffffffffffff82169050919050565b6000611dbd82611d92565b9050919050565b611dcd81611db2565b8114611dd857600080fd5b50565b600081359050611dea81611dc4565b92915050565b600060208284031215611e0657611e05611d8d565b5b6000611e1484828501611ddb565b91505092915050565b6000819050919050565b611e3081611e1d565b82525050565b6000602082019050611e4b6000830184611e27565b92915050565b611e5a81611e1d565b8114611e6557600080fd5b50565b600081359050611e7781611e51565b92915050565b600060208284031215611e9357611e92611d8d565b5b6000611ea184828501611e68565b91505092915050565b6000611eb582611d92565b9050919050565b611ec581611eaa565b82525050565b60008115159050919050565b611ee081611ecb565b82525050565b6000608082019050611efb6000830187611ebc565b611f086020830186611ed7565b611f156040830185611ed7565b611f226060830184611ed7565b95945050505050565b6000606082019050611f406000830186611ed7565b611f4d6020830185611ed7565b611f5a6040830184611ed7565b949350505050565b6000602082019050611f776000830184611ed7565b92915050565b611f8681611db2565b82525050565b6000602082019050611fa16000830184611f7d565b92915050565b600061018082019050611fbd600083018f611f7d565b8181036020830152611fcf818e611d32565b9050611fde604083018d611f7d565b611feb606083018c611e27565b611ff8608083018b611e27565b61200560a083018a611e27565b61201260c0830189611e27565b61201f60e0830188611ed7565b61202d610100830187611e27565b61203b610120830186611e27565b612049610140830185611e27565b612057610160830184611e27565b9d9c50505050505050505050505050565b600081519050919050565b600082825260208201905092915050565b6000819050602082019050919050565b61209d81611db2565b82525050565b60006120af8383612094565b60208301905092915050565b6000602082019050919050565b60006120d382612068565b6120dd8185612073565b93506120e883612084565b8060005b8381101561211957815161210088826120a3565b975061210b836120bb565b9250506001810190506120ec565b5085935050505092915050565b6000602082019050818103600083015261214081846120c8565b905092915050565b61215181611eaa565b811461215c57600080fd5b50565b60008135905061216e81612148565b92915050565b60006020828403121561218a57612189611d8d565b5b60006121988482850161215f565b91505092915050565b7f4e487b7100000000000000000000000000000000000000000000000000000000600052602260045260246000fd5b600060028204905060018216806121e857607f821691505b6020821081036121fb576121fa6121a1565b5b50919050565b7f4f6e6c79207061727469636970616e74732063616e20706572666f726d20746860008201527f697320616374696f6e0000000000000000000000000000000000000000000000602082015250565b600061225d602983611ce6565b915061226882612201565b604082019050919050565b6000602082019050818103600083015261228c81612250565b9050919050565b7f46756e6420616c72656164792073746172746564000000000000000000000000600082015250565b60006122c9601483611ce6565b91506122d482612293565b602082019050919050565b600060208201905081810360008301526122f8816122bc565b9050919050565b7f496e636f727265637420636f6c6c61746572616c20616d6f756e740000000000600082015250565b6000612335601b83611ce6565b9150612340826122ff565b602082019050919050565b6000602082019050818103600083015261236481612328565b9050919050565b7f4e487b7100000000000000000000000000000000000000000000000000000000600052603260045260246000fd5b7f416c7265616479207374616b656420636f6c6c61746572616c00000000000000600082015250565b60006123d0601983611ce6565b91506123db8261239a565b602082019050919050565b600060208201905081810360008301526123ff816123c3565b9050919050565b7f4e487b7100000000000000000000000000000000000000000000000000000000600052601160045260246000fd5b600061244082611e1d565b915061244b83611e1d565b925082820190508082111561246357612462612406565b5b92915050565b600060408201905061247e6000830185611f7d565b61248b6020830184611e27565b9392505050565b600061249d82611e1d565b91506124a883611e1d565b92508282026124b681611e1d565b915082820484148315176124cd576124cc612406565b5b5092915050565b7f41646472657373206973206e6f742061207061727469636970616e7400000000600082015250565b600061250a601c83611ce6565b9150612515826124d4565b602082019050919050565b60006020820190508181036000830152612539816124fd565b9050919050565b7f4f6e6c792074686520656c696769626c6520726563697069656e742063616e2060008201527f636c61696d207468652066756e64730000000000000000000000000000000000602082015250565b600061259c602f83611ce6565b91506125a782612540565b604082019050919050565b600060208201905081810360008301526125cb8161258f565b9050919050565b7f46756e6420686173206e6f742073746172746564207965740000000000000000600082015250565b6000612608601883611ce6565b9150612613826125d2565b602082019050919050565b60006020820190508181036000830152612637816125fb565b9050919050565b7f4e6f7420616c6c20636f6e747269627574696f6e732072656365697665640000600082015250565b6000612674601e83611ce6565b915061267f8261263e565b602082019050919050565b600060208201905081810360008301526126a381612667565b9050919050565b7f4379636c65206f7574206f6620626f756e647300000000000000000000000000600082015250565b60006126e0601383611ce6565b91506126eb826126aa565b602082019050919050565b6000602082019050818103600083015261270f816126d3565b9050919050565b600061272182611e1d565b915061272c83611e1d565b925082820390508181111561274457612743612406565b5b92915050565b7f4e487b7100000000000000000000000000000000000000000000000000000000600052601260045260246000fd5b600061278482611e1d565b915061278f83611e1d565b92508261279f5761279e61274a565b5b828204905092915050565b60006127b582611e1d565b91507fffffffffffffffffffffffffffffffffffffffffffffffffffffffffffffffff82036127e7576127e6612406565b5b600182019050919050565b7f4e487b7100000000000000000000000000000000000000000000000000000000600052604160045260246000fd5b7f416c6c206379636c657320636f6d706c65746564000000000000000000000000600082015250565b6000612857601483611ce6565b915061286282612821565b602082019050919050565b600060208201905081810360008301526128868161284a565b9050919050565b7f436f6e747269627574696f6e20706572696f6420656e64656420666f7220746860008201527f6973206379636c65000000000000000000000000000000000000000000000000602082015250565b60006128e9602883611ce6565b91506128f48261288d565b604082019050919050565b60006020820190508181036000830152612918816128dc565b9050919050565b7f496e636f727265637420636f6e747269627574696f6e20616d6f756e74000000600082015250565b6000612955601d83611ce6565b91506129608261291f565b602082019050919050565b6000602082019050818103600083015261298481612948565b9050919050565b7f416c726561647920636f6e74726962757465642074686973206379636c650000600082015250565b60006129c1601e83611ce6565b91506129cc8261298b565b602082019050919050565b600060208201905081810360008301526129f0816129b4565b9050919050565b6000606082019050612a0c6000830186611f7d565b612a196020830185611e27565b612a266040830184611e27565b949350505050565b7f4f6e6c79206f7267616e697a65722063616e20706572666f726d20746869732060008201527f616374696f6e0000000000000000000000000000000000000000000000000000602082015250565b6000612a8a602683611ce6565b9150612a9582612a2e565b604082019050919050565b60006020820190508181036000830152612ab981612a7d565b9050919050565b7f5265656e7472616e637947756172643a207265656e7472616e742063616c6c00600082015250565b6000612af6601f83611ce6565b9150612b0182612ac0565b602082019050919050565b60006020820190508181036000830152612b2581612ae9565b9050919050565b7f46756e64206e6f7420636f6d706c657465642079657400000000000000000000600082015250565b6000612b62601683611ce6565b9150612b6d82612b2c565b602082019050919050565b60006020820190508181036000830152612b9181612b55565b9050919050565b7f4e6f742061207061727469636970616e74000000000000000000000000000000600082015250565b6000612bce601183611ce6565b9150612bd982612b98565b602082019050919050565b60006020820190508181036000830152612bfd81612bc1565b9050919050565b7f4e6f20636f6c6c61746572616c20746f2072657475726e000000000000000000600082015250565b6000612c3a601783611ce6565b9150612c4582612c04565b602082019050919050565b60006020820190508181036000830152612c6981612c2d565b9050919050565b600081905092915050565b50565b6000612c8b600083612c70565b9150612c9682612c7b565b600082019050919050565b6000612cac82612c7e565b9150819050919050565b7f436f6c6c61746572616c2072657475726e206661696c65640000000000000000600082015250565b6000612cec601883611ce6565b9150612cf782612cb6565b602082019050919050565b60006020820190508181036000830152612d1b81612cdf565b9050919050565b6000819050919050565b6000612d47612d42612d3d84611d92565b612d22565b611d92565b9050919050565b6000612d5982612d2c565b9050919050565b6000612d6b82612d4e565b9050919050565b612d7b81612d60565b82525050565b6000604082019050612d966000830185612d72565b612da36020830184611e27565b9392505050565b7f416c6c207061727469636970616e74732068617665207265636569766564207460008201527f68652066756e6420666f722074686973206379636c652e000000000000000000602082015250565b6000612e06603783611ce6565b9150612e1182612daa565b604082019050919050565b60006020820190508181036000830152612e3581612df9565b9050919050565b7f416c6c20636f6e747269627574696f6e73206e6f74207265636569766564207960008201527f6574000000000000000000000000000000000000000000000000000000000000602082015250565b6000612e98602283611ce6565b9150612ea382612e3c565b604082019050919050565b60006020820190508181036000830152612ec781612e8b565b9050919050565b6000606082019050612ee36000830186612d72565b612ef06020830185611e27565b612efd6040830184611e27565b949350505050565b7f46756e64207472616e73666572206661696c6564000000000000000000000000600082015250565b6000612f3b601483611ce6565b9150612f4682612f05565b602082019050919050565b60006020820190508181036000830152612f6a81612f2e565b905091905056fea26469706673582212202dc0c55b8d1989a70836da39b965a8d732bc8d59614acb2f25d1cae04a5df02764736f6c634300081b0033",
  "linkReferences": {},
  "deployedLinkReferences": {}
}