{
  "_format": "hh-sol-artifact-1",
  "contractName": "ChitFund",
  "sourceName": "contracts/ChitFund.sol",
  "abi": [
    {
      "inputs": [
        {
          "internalType": "address",
          "name": "_organizer",
          "type": "address"
        },
        {
          "internalType": "string",
          "name": "_name",
          "type": "string"
        },
        {
          "internalType": "uint256",
          "name": "_contributionAmount",
          "type": "uint256"
        },
        {
          "internalType": "uint256",
          "name": "_totalParticipants",
          "type": "uint256"
        },
        {
          "internalType": "uint256",
          "name": "_totalCycles",
          "type": "uint256"
        },
        {
          "internalType": "uint256",
          "name": "_cycleDuration",
          "type": "uint256"
        },
        {
          "internalType": "uint256",
          "name": "_startTime",
          "type": "uint256"
        },
        {
          "internalType": "address[]",
          "name": "_participants",
          "type": "address[]"
        },
        {
          "internalType": "uint256",
          "name": "_collateralPercentage",
          "type": "uint256"
        }
      ],
      "stateMutability": "nonpayable",
      "type": "constructor"
    },
    {
      "anonymous": false,
      "inputs": [
        {
          "indexed": false,
          "internalType": "address",
          "name": "chitFundAddress",
          "type": "address"
        },
        {
          "indexed": false,
          "internalType": "address",
          "name": "participant",
          "type": "address"
        },
        {
          "indexed": false,
          "internalType": "uint256",
          "name": "amount",
          "type": "uint256"
        }
      ],
      "name": "CollateralReturned",
      "type": "event"
    },
    {
      "anonymous": false,
      "inputs": [
        {
          "indexed": false,
          "internalType": "address",
          "name": "chitFundAddress",
          "type": "address"
        },
        {
          "indexed": false,
          "internalType": "address",
          "name": "participant",
          "type": "address"
        },
        {
          "indexed": false,
          "internalType": "uint256",
          "name": "amount",
          "type": "uint256"
        }
      ],
      "name": "CollateralStaked",
      "type": "event"
    },
    {
      "anonymous": false,
      "inputs": [
        {
          "indexed": false,
          "internalType": "address",
          "name": "chitFundAddress",
          "type": "address"
        },
        {
          "indexed": false,
          "internalType": "address",
          "name": "participant",
          "type": "address"
        },
        {
          "indexed": false,
          "internalType": "uint256",
          "name": "amount",
          "type": "uint256"
        },
        {
          "indexed": false,
          "internalType": "uint256",
          "name": "cycle",
          "type": "uint256"
        }
      ],
      "name": "ContributionReceived",
      "type": "event"
    },
    {
      "anonymous": false,
      "inputs": [
        {
          "indexed": false,
          "internalType": "address",
          "name": "chitFundAddress",
          "type": "address"
        },
        {
          "indexed": false,
          "internalType": "uint256",
          "name": "cycle",
          "type": "uint256"
        }
      ],
      "name": "CycleCompleted",
      "type": "event"
    },
    {
      "anonymous": false,
      "inputs": [
        {
          "indexed": false,
          "internalType": "address",
          "name": "chitFundAddress",
          "type": "address"
        },
        {
          "indexed": false,
          "internalType": "address",
          "name": "recipient",
          "type": "address"
        },
        {
          "indexed": false,
          "internalType": "uint256",
          "name": "cycle",
          "type": "uint256"
        }
      ],
      "name": "FundClaimed",
      "type": "event"
    },
    {
      "anonymous": false,
      "inputs": [
        {
          "indexed": false,
          "internalType": "address",
          "name": "chitFundAddress",
          "type": "address"
        },
        {
          "indexed": false,
          "internalType": "address",
          "name": "recipient",
          "type": "address"
        },
        {
          "indexed": false,
          "internalType": "uint256",
          "name": "amount",
          "type": "uint256"
        },
        {
          "indexed": false,
          "internalType": "uint256",
          "name": "cycle",
          "type": "uint256"
        }
      ],
      "name": "FundDisbursed",
      "type": "event"
    },
    {
      "anonymous": false,
      "inputs": [
        {
          "indexed": false,
          "internalType": "address",
          "name": "chitFundAddress",
          "type": "address"
        }
      ],
      "name": "FundStarted",
      "type": "event"
    },
    {
      "inputs": [],
      "name": "claim",
      "outputs": [],
      "stateMutability": "nonpayable",
      "type": "function"
    },
    {
      "inputs": [],
      "name": "collateralAmount",
      "outputs": [
        {
          "internalType": "uint256",
          "name": "",
          "type": "uint256"
        }
      ],
      "stateMutability": "view",
      "type": "function"
    },
    {
      "inputs": [],
      "name": "collateralPercentage",
      "outputs": [
        {
          "internalType": "uint256",
          "name": "",
          "type": "uint256"
        }
      ],
      "stateMutability": "view",
      "type": "function"
    },
    {
      "inputs": [],
      "name": "contribute",
      "outputs": [],
      "stateMutability": "payable",
      "type": "function"
    },
    {
      "inputs": [],
      "name": "contributionAmount",
      "outputs": [
        {
          "internalType": "uint256",
          "name": "",
          "type": "uint256"
        }
      ],
      "stateMutability": "view",
      "type": "function"
    },
    {
      "inputs": [],
      "name": "currentCycle",
      "outputs": [
        {
          "internalType": "uint256",
          "name": "",
          "type": "uint256"
        }
      ],
      "stateMutability": "view",
      "type": "function"
    },
    {
      "inputs": [],
      "name": "cycleDuration",
      "outputs": [
        {
          "internalType": "uint256",
          "name": "",
          "type": "uint256"
        }
      ],
      "stateMutability": "view",
      "type": "function"
    },
    {
      "inputs": [],
      "name": "fundStarted",
      "outputs": [
        {
          "internalType": "bool",
          "name": "",
          "type": "bool"
        }
      ],
      "stateMutability": "view",
      "type": "function"
    },
    {
      "inputs": [],
      "name": "getChitFundDetails",
      "outputs": [
        {
          "internalType": "address",
          "name": "_fundAddress",
          "type": "address"
        },
        {
          "internalType": "string",
          "name": "_name",
          "type": "string"
        },
        {
          "internalType": "address",
          "name": "_organizer",
          "type": "address"
        },
        {
          "internalType": "uint256",
          "name": "_contributionAmount",
          "type": "uint256"
        },
        {
          "internalType": "uint256",
          "name": "_totalParticipants",
          "type": "uint256"
        },
        {
          "internalType": "uint256",
          "name": "_currentCycle",
          "type": "uint256"
        },
        {
          "internalType": "uint256",
          "name": "_totalCycles",
          "type": "uint256"
        },
        {
          "internalType": "bool",
          "name": "_fundStarted",
          "type": "bool"
        },
        {
          "internalType": "uint256",
          "name": "_totalCollateralStaked",
          "type": "uint256"
        },
        {
          "internalType": "uint256",
          "name": "_cycleDuration",
          "type": "uint256"
        },
        {
          "internalType": "uint256",
          "name": "_startTime",
          "type": "uint256"
        },
        {
          "internalType": "uint256",
          "name": "_collateralAmount",
          "type": "uint256"
        },
        {
          "internalType": "address",
          "name": "_nextRecipient",
          "type": "address"
        }
      ],
      "stateMutability": "view",
      "type": "function"
    },
    {
      "inputs": [],
      "name": "getContributionAmount",
      "outputs": [
        {
          "internalType": "uint256",
          "name": "",
          "type": "uint256"
        }
      ],
      "stateMutability": "view",
      "type": "function"
    },
    {
      "inputs": [
        {
          "internalType": "uint256",
          "name": "cycle",
          "type": "uint256"
        }
      ],
      "name": "getDeadlineForCycle",
      "outputs": [
        {
          "internalType": "uint256",
          "name": "",
          "type": "uint256"
        }
      ],
      "stateMutability": "view",
      "type": "function"
    },
    {
      "inputs": [],
      "name": "getNextRecipient",
      "outputs": [],
      "stateMutability": "nonpayable",
      "type": "function"
    },
    {
      "inputs": [],
      "name": "getNextRecipientAddress",
      "outputs": [
        {
          "internalType": "address",
          "name": "",
          "type": "address"
        }
      ],
      "stateMutability": "view",
      "type": "function"
    },
    {
      "inputs": [],
      "name": "getOverdueParticipants",
      "outputs": [
        {
          "internalType": "address[]",
          "name": "",
          "type": "address[]"
        }
      ],
      "stateMutability": "view",
      "type": "function"
    },
    {
      "inputs": [
        {
          "internalType": "address",
          "name": "_addr",
          "type": "address"
        }
      ],
      "name": "getParticipantDetails",
      "outputs": [
        {
          "internalType": "bool",
          "name": "hasStakedCollateral",
          "type": "bool"
        },
        {
          "internalType": "bool",
          "name": "hasContributed",
          "type": "bool"
        },
        {
          "internalType": "bool",
          "name": "hasReceivedFund",
          "type": "bool"
        }
      ],
      "stateMutability": "view",
      "type": "function"
    },
    {
      "inputs": [
        {
          "internalType": "address",
          "name": "_addr",
          "type": "address"
        }
      ],
      "name": "isParticipant",
      "outputs": [
        {
          "internalType": "bool",
          "name": "",
          "type": "bool"
        }
      ],
      "stateMutability": "view",
      "type": "function"
    },
    {
      "inputs": [
        {
          "internalType": "address",
          "name": "_participant",
          "type": "address"
        }
      ],
      "name": "isParticipantOverdue",
      "outputs": [
        {
          "internalType": "bool",
          "name": "",
          "type": "bool"
        }
      ],
      "stateMutability": "view",
      "type": "function"
    },
    {
      "inputs": [],
      "name": "name",
      "outputs": [
        {
          "internalType": "string",
          "name": "",
          "type": "string"
        }
      ],
      "stateMutability": "view",
      "type": "function"
    },
    {
      "inputs": [],
      "name": "nextRecipient",
      "outputs": [
        {
          "internalType": "address",
          "name": "",
          "type": "address"
        }
      ],
      "stateMutability": "view",
      "type": "function"
    },
    {
      "inputs": [],
      "name": "organizer",
      "outputs": [
        {
          "internalType": "address",
          "name": "",
          "type": "address"
        }
      ],
      "stateMutability": "view",
      "type": "function"
    },
    {
      "inputs": [
        {
          "internalType": "address",
          "name": "",
          "type": "address"
        }
      ],
      "name": "participantIndex",
      "outputs": [
        {
          "internalType": "uint256",
          "name": "",
          "type": "uint256"
        }
      ],
      "stateMutability": "view",
      "type": "function"
    },
    {
      "inputs": [
        {
          "internalType": "uint256",
          "name": "",
          "type": "uint256"
        }
      ],
      "name": "participants",
      "outputs": [
        {
          "internalType": "address payable",
          "name": "addr",
          "type": "address"
        },
        {
          "internalType": "bool",
          "name": "hasContributed",
          "type": "bool"
        },
        {
          "internalType": "bool",
          "name": "hasStakedCollateral",
          "type": "bool"
        },
        {
          "internalType": "bool",
          "name": "hasReceivedFund",
          "type": "bool"
        }
      ],
      "stateMutability": "view",
      "type": "function"
    },
    {
      "inputs": [],
      "name": "returnAllCollateral",
      "outputs": [],
      "stateMutability": "nonpayable",
      "type": "function"
    },
    {
      "inputs": [],
      "name": "stakeCollateral",
      "outputs": [],
      "stateMutability": "payable",
      "type": "function"
    },
    {
      "inputs": [],
      "name": "startTime",
      "outputs": [
        {
          "internalType": "uint256",
          "name": "",
          "type": "uint256"
        }
      ],
      "stateMutability": "view",
      "type": "function"
    },
    {
      "inputs": [],
      "name": "totalCollateralStaked",
      "outputs": [
        {
          "internalType": "uint256",
          "name": "",
          "type": "uint256"
        }
      ],
      "stateMutability": "view",
      "type": "function"
    },
    {
      "inputs": [],
      "name": "totalCycles",
      "outputs": [
        {
          "internalType": "uint256",
          "name": "",
          "type": "uint256"
        }
      ],
      "stateMutability": "view",
      "type": "function"
    },
    {
      "inputs": [],
      "name": "totalParticipants",
      "outputs": [
        {
          "internalType": "uint256",
          "name": "",
          "type": "uint256"
        }
      ],
      "stateMutability": "view",
      "type": "function"
    }
  ],
  "bytecode": "0x60806040523461056657611ab18038038061001981610580565b9283398101906101208183031261056657610033816105a5565b60208201519091906001600160401b0381116105665781019083601f830112156105665781516001600160401b0381116102fd5761007a601f8201601f1916602001610580565b9281845285602083830101116105665760005b82811061056b575050602060009184010152604081015191606082015160808301519060a08401519260c08501519460e081015160018060401b0381116105665781019880601f8b011215610566578951996001600160401b038b116102fd578a60051b90602080610100818501610580565b809e8152019282010192831161056657602001905b82821061054e575050506101000151968289510361050957871515806104fe575b1561049f57600080546001600160a01b0319166001600160a01b03929092169190911790558051906001600160401b0382116102fd5760015490600182811c92168015610495575b602083101461047f5781601f84931161040f575b50602090601f83116001146103a75760009261039c575b50508160011b916000199060031b1c1916176001555b84600255600355600555600655600755816008558181029181830414901517156103865760649004600955600060045560005b8151811015610313576001600160a01b0361020d82846105b9565b51604051929116608083016001600160401b038111848210176102fd576040528252602082016000815260408301600081526060840160008152600b54680100000000000000008110156102fd5780600161026b9201600b556105e3565b9390936102e757945183549551925191516001600160b81b03199096166001600160a01b039182161792151560a01b60ff60a01b169290921790151560a81b60ff60a81b161793151560b01b60ff60b01b169390931790556001916102d082856105b9565b5116600052600c60205280604060002055016101f2565b634e487b7160e01b600052600060045260246000fd5b634e487b7160e01b600052604160045260246000fd5b60005b6003548110156103805760ff61032b826105e3565b505460b01c161561033e57600101610316565b610347906105e3565b5054600a805462010000600160b01b03191660109290921b62010000600160b01b03169190911790555b6040516114b290816105ff8239f35b50610371565b634e487b7160e01b600052601160045260246000fd5b0151905038806101a9565b600160009081528281209350601f198516905b8181106103f757509084600195949392106103de575b505050811b016001556101bf565b015160001960f88460031b161c191690553880806103d0565b929360206001819287860151815501950193016103ba565b60016000529091507fb10e2d527612073b26eecdfd717e6a320cf44b4afac2b0732d9fcbe2b7fa0cf6601f840160051c81019160208510610475575b90601f859493920160051c01905b8181106104665750610192565b60008155849350600101610459565b909150819061044b565b634e487b7160e01b600052602260045260246000fd5b91607f169161017e565b60405162461bcd60e51b815260206004820152603160248201527f436f6c6c61746572616c2070657263656e746167652073686f756c642062652060448201527006265747765656e203120616e642031303607c1b6064820152608490fd5b506064881115610136565b60405162461bcd60e51b815260206004820152601b60248201527f5061727469636970616e747320636f756e74206d69736d6174636800000000006044820152606490fd5b6020809161055b846105a5565b815201910190610115565b600080fd5b8060208092840101518282880101520161008d565b6040519190601f01601f191682016001600160401b038111838210176102fd57604052565b51906001600160a01b038216820361056657565b80518210156105cd5760209160051b010190565b634e487b7160e01b600052603260045260246000fd5b600b548110156105cd57600b6000526020600020019060009056fe6080604052600436101561001257600080fd5b6000803560e01c806306fdde0314610ebf578063070fecb514610cfd578063083b913714610cbc578063271751da14610c9e578063308352e814610c8057806335c1d34914610c1b578063399cd2501461019257806344e0b8c114610bd15780634a9829cd14610ba05780634e71d92d146108995780635428197c146106f35780635bec4cb4146106d55780635fa0b65f146106b7578063612032651461069057806365d68e4e146105d557806378e97925146105b7578063929066f51461057c57806392d09ceb1461055e578063a165768114610540578063a26dbf2614610522578063af2d0a3114610503578063bab2f552146104e5578063bbb48445146104bb578063cbc3cecb14610345578063d7bb99ba146101bf578063d94c7c2714610192578063f54a36cc1461016f5763fd379a311461015157600080fd5b3461016c578060031936011261016c576101696113e1565b80f35b80fd5b503461016c578060031936011261016c57602060ff600a54166040519015158152f35b503461016c578060031936011261016c57600a5460405160109190911c6001600160a01b03168152602090f35b508060031936011261016c576101dc6101d7336112eb565b611081565b6101ea60ff600a5416611213565b60045460055410610309576102046002546003549061139a565b34036102c457338152600c60205261021f6040822054611050565b50805460ff8160a01c1661027f57600160a01b9060ff60a01b19161790557f4d26c2fe8f421a52e199f32ee4fc57172d01659bf57a1a39c4397b2bb07f539a6080600454604051903082523360208301523460408301526060820152a180f35b60405162461bcd60e51b815260206004820152601e60248201527f416c726561647920636f6e74726962757465642074686973206379636c6500006044820152606490fd5b60405162461bcd60e51b815260206004820152601d60248201527f496e636f727265637420636f6e747269627574696f6e20616d6f756e740000006044820152606490fd5b60405162461bcd60e51b8152602060048201526014602482015273105b1b0818de58db195cc818dbdb5c1b195d195960621b6044820152606490fd5b503461016c578060031936011261016c578061036260045461132e565b6003549190835b838110610479575061039361037d836113c9565b9261038b6040519485610ef3565b8084526113c9565b602083019390601f19013685378491855b8281106103f857868587604051928392602084019060208552518091526040840192915b8181106103d6575050500390f35b82516001600160a01b03168452859450602093840193909201916001016103c8565b60ff61040382611050565b505460a01c161580610470575b61041d575b6001016103a4565b9261042784611050565b505485516001600160a01b039091169082101561045c578161045491602060019460051b890101526113ba565b939050610415565b634e487b7160e01b88526032600452602488fd5b50814211610410565b60ff61048482611050565b505460a01c1615806104b2575b61049e575b600101610369565b916104aa6001916113ba565b929050610496565b50814211610491565b503461016c578060031936011261016c5760206104dd6002546003549061139a565b604051908152f35b503461016c578060031936011261016c576020600454604051908152f35b503461016c57602036600319011261016c5760206104dd60043561132e565b503461016c578060031936011261016c576020600354604051908152f35b503461016c578060031936011261016c576020600554604051908152f35b503461016c578060031936011261016c576020600954604051908152f35b503461016c57602036600319011261016c57600435906001600160a01b038216820361016c5760206105ad836112eb565b6040519015158152f35b503461016c578060031936011261016c576020600754604051908152f35b503461016c578060031936011261016c5760206101a09160018060a01b03905416600254600354906004549160055492600a5493600d549060065492600754946009549661063b610624610f2b565b6040519d8e9d8e30815201526101a08d019061100f565b60408c019a909a5260608b015260808a015260a089015260c088015260ff8516151560e088015261010087015261012086015261014085015261016084015260101c6001600160a01b03166101808301520390f35b503461016c578060031936011261016c57546040516001600160a01b039091168152602090f35b503461016c578060031936011261016c576020600254604051908152f35b503461016c578060031936011261016c576020600654604051908152f35b503461016c578060031936011261016c57610100600a5461071a60ff8260081c161561125f565b61ff00191617600a556004546005540361085b57600d541561081657805b6003548110156108055761074b81611050565b50805460ff8160a81c16610764575b5050600101610738565b60ff60a81b19168155600954600d549091908281039081116107f157600d555483918291829182916001600160a01b03165af161079f6112ab565b50156107ac57388061075a565b60405162461bcd60e51b815260206004820152601860248201527f436f6c6c61746572616c2072657475726e206661696c656400000000000000006044820152606490fd5b634e487b7160e01b85526011600452602485fd5b50600d55600a805461ff0019169055005b60405162461bcd60e51b815260206004820152601b60248201527f436f6c6c61746572616c20616c72656164792072657475726e656400000000006044820152606490fd5b60405162461bcd60e51b8152602060048201526016602482015275119d5b99081b9bdd0818dbdb5c1b195d1959081e595d60521b6044820152606490fd5b503461016c578060031936011261016c57600a5433601082901c6001600160a01b031603610b43576108cd60ff8216611213565b6108d5611443565b15610afe57806108ee60ff6101009360081c161561125f565b61ff0019161780600a55610900611443565b15610aae5760025460109190911c6001600160a01b0316908280808084865af16109286112ab565b5015610a7257816080917f6f93c0eec5a091f9faaa7530ed0bf04ba99e92d2d08c7d1b7642ac295b125795938552600c6020526109686040862054611050565b50805460ff60b01b1916600160b01b1790556004546040805130815260208101949094528301919091526060820152a1805b6003548110156109c257806109b0600192611050565b50805460ff60a01b191690550161099a565b506109ce6004546113ba565b806004556000198101908111610a5e5760407f7a22242c42d1e94f110cb053b2cf343580c736816a22ac54ec7dd833bf0dbe63918151903082526020820152a1600a805461ff001916905560045460408051308152336020820152908101919091527f8b5640bc6a70f4cedabaf515fa266b322bf861aa1fda7ac4ae261193eaa6cfa790606090a16101696113e1565b634e487b7160e01b82526011600452602482fd5b60405162461bcd60e51b8152602060048201526014602482015273119d5b99081d1c985b9cd9995c8819985a5b195960621b6044820152606490fd5b60405162461bcd60e51b815260206004820152602260248201527f416c6c20636f6e747269627574696f6e73206e6f742072656365697665642079604482015261195d60f21b6064820152608490fd5b60405162461bcd60e51b815260206004820152601e60248201527f4e6f7420616c6c20636f6e747269627574696f6e7320726563656976656400006044820152606490fd5b60405162461bcd60e51b815260206004820152602f60248201527f4f6e6c792074686520656c696769626c6520726563697069656e742063616e2060448201526e636c61696d207468652066756e647360881b6064820152608490fd5b503461016c57602036600319011261016c57600435906001600160a01b038216820361016c5760206105ad8361116a565b503461016c57602036600319011261016c57600435906001600160a01b038216820361016c576060610c0283611115565b9060405192151583521515602083015215156040820152f35b503461016c57602036600319011261016c5760043590600b5482101561016c576080610c4683611050565b505460ff6040519160018060a01b0381168352818160a01c1615156020840152818160a81c161515604084015260b01c1615156060820152f35b503461016c578060031936011261016c576020600854604051908152f35b503461016c578060031936011261016c576020600d54604051908152f35b503461016c57602036600319011261016c576004356001600160a01b03811690819003610cf9578160409160209352600c83522054604051908152f35b5080fd5b508060031936011261016c57610d156101d7336112eb565b60ff600a5416610e83576009543403610e3e57338152600c602052610d3d6040822054611050565b50805460ff8160a81c16610df95760ff60a81b1916600160a81b179055600d54610d689034906110df565b600d8190556040805130815233602082015234918101919091527fb43984808665df1db24188755e128600f9328714bf9e898378aaa7d27304393490606090a1610db760095460035490611102565b14610dbf5780f35b600160ff19600a541617600a557fdc33cf22f590c5ab4976c2ce3291383f046aac79b0c484500298d3d62f3118ca6020604051308152a180f35b60405162461bcd60e51b815260206004820152601960248201527f416c7265616479207374616b656420636f6c6c61746572616c000000000000006044820152606490fd5b60405162461bcd60e51b815260206004820152601b60248201527f496e636f727265637420636f6c6c61746572616c20616d6f756e7400000000006044820152606490fd5b60405162461bcd60e51b8152602060048201526014602482015273119d5b9908185b1c9958591e481cdd185c9d195960621b6044820152606490fd5b503461016c578060031936011261016c57610eef610edb610f2b565b60405191829160208352602083019061100f565b0390f35b90601f8019910116810190811067ffffffffffffffff821117610f1557604052565b634e487b7160e01b600052604160045260246000fd5b604051906000600154908160011c91600181168015611005575b602084108114610ff1578386528592918115610fd25750600114610f72575b610f7092500383610ef3565b565b506001600090815290917fb10e2d527612073b26eecdfd717e6a320cf44b4afac2b0732d9fcbe2b7fa0cf65b818310610fb6575050906020610f7092820101610f64565b6020919350806001915483858901015201910190918492610f9e565b60209250610f7094915060ff191682840152151560051b820101610f64565b634e487b7160e01b83526022600452602483fd5b92607f1692610f45565b919082519283825260005b84811061103b575050826000602080949584010152601f8019910116010190565b8060208092840101518282860101520161101a565b600b5481101561106b57600b60005260206000200190600090565b634e487b7160e01b600052603260045260246000fd5b1561108857565b60405162461bcd60e51b815260206004820152602960248201527f4f6e6c79207061727469636970616e74732063616e20706572666f726d20746860448201526834b99030b1ba34b7b760b91b6064820152608490fd5b919082018092116110ec57565b634e487b7160e01b600052601160045260246000fd5b818102929181159184041417156110ec57565b61111e816112eb565b1561115e576001600160a01b03166000908152600c602052604090205461114490611050565b505460ff8160a81c169160ff808360a01c169260b01c1690565b50600090600090600090565b611173816112eb565b156111ce576001600160a01b03166000908152600c602052604090205461119990611050565b5060ff6111a760045461132e565b915460a01c161590816111c4575b506111bf57600090565b600190565b90504211386111b5565b60405162461bcd60e51b815260206004820152601c60248201527f41646472657373206973206e6f742061207061727469636970616e74000000006044820152606490fd5b1561121a57565b60405162461bcd60e51b815260206004820152601860248201527f46756e6420686173206e6f7420737461727465642079657400000000000000006044820152606490fd5b1561126657565b60405162461bcd60e51b815260206004820152601f60248201527f5265656e7472616e637947756172643a207265656e7472616e742063616c6c006044820152606490fd5b3d156112e6573d9067ffffffffffffffff8211610f1557604051916112da601f8201601f191660200184610ef3565b82523d6000602084013e565b606090565b6001600160a01b03166000818152600c6020526040902054600354811091908261131457505090565b61131f919250611050565b50546001600160a01b03161490565b600554811161135f5760075460001982019182116110ec5761135661135c9260065490611102565b906110df565b90565b60405162461bcd60e51b81526020600482015260136024820152724379636c65206f7574206f6620626f756e647360681b6044820152606490fd5b81156113a4570490565b634e487b7160e01b600052601260045260246000fd5b60001981146110ec5760010190565b67ffffffffffffffff8111610f155760051b60200190565b60005b6003548110156114405760ff6113f982611050565b505460b01c161561140c576001016113e4565b61141590611050565b5054600a805462010000600160b01b03191660109290921b62010000600160b01b0316919091179055565b50565b60035460005b818110611457575050600190565b60ff61146282611050565b505460a01c161561147557600101611449565b505060009056fea264697066735822122044e55e6f9c1013c553c3b29620ffb2c10a04308336b42bf424693a837ddff4a764736f6c634300081b0033",
  "linkReferences": {},
  "deployedLinkReferences": {}
}