{
  "_format": "hh-sol-artifact-1",
  "contractName": "ChitFundFactory",
  "sourceName": "contracts/ChitFundFactory.sol",
  "abi": [
    {
      "anonymous": false,
      "inputs": [
        {
          "indexed": false,
          "internalType": "address",
          "name": "chitFundAddress",
          "type": "address"
        },
        {
          "indexed": false,
          "internalType": "address",
          "name": "organizer",
          "type": "address"
        },
        {
          "indexed": false,
          "internalType": "string",
          "name": "name",
          "type": "string"
        }
      ],
      "name": "ChitFundCreated",
      "type": "event"
    },
    {
      "inputs": [
        {
          "internalType": "uint256",
          "name": "",
          "type": "uint256"
        }
      ],
      "name": "chitFunds",
      "outputs": [
        {
          "internalType": "contract ChitFund",
          "name": "",
          "type": "address"
        }
      ],
      "stateMutability": "view",
      "type": "function"
    },
    {
      "inputs": [
        {
          "internalType": "string",
          "name": "_name",
          "type": "string"
        },
        {
          "internalType": "uint256",
          "name": "_contributionAmountInEther",
          "type": "uint256"
        },
        {
          "internalType": "uint256",
          "name": "_totalParticipants",
          "type": "uint256"
        },
        {
          "internalType": "uint256",
          "name": "_totalCycles",
          "type": "uint256"
        },
        {
          "internalType": "uint256",
          "name": "_cycleDuration",
          "type": "uint256"
        },
        {
          "internalType": "uint256",
          "name": "_startTime",
          "type": "uint256"
        },
        {
          "internalType": "address[]",
          "name": "_participants",
          "type": "address[]"
        }
      ],
      "name": "createChitFund",
      "outputs": [],
      "stateMutability": "nonpayable",
      "type": "function"
    },
    {
      "inputs": [],
      "name": "getAllChitFunds",
      "outputs": [
        {
          "internalType": "contract ChitFund[]",
          "name": "",
          "type": "address[]"
        }
      ],
      "stateMutability": "view",
      "type": "function"
    }
  ],
  "bytecode": "0x6080604052348015600f57600080fd5b506130e28061001f6000396000f3fe608060405234801561001057600080fd5b50600436106100415760003560e01c80632c1d5a241461004657806385b03dba14610064578063a6538f1b14610094575b600080fd5b61004e6100b0565b60405161005b91906103e9565b60405180910390f35b61007e60048036038101906100799190610455565b61013e565b60405161008b9190610491565b60405180910390f35b6100ae60048036038101906100a991906106f8565b61017d565b005b6060600080548060200260200160405190810160405280929190818152602001828054801561013457602002820191906000526020600020905b8160009054906101000a900473ffffffffffffffffffffffffffffffffffffffff1673ffffffffffffffffffffffffffffffffffffffff16815260200190600101908083116100ea575b5050505050905090565b6000818154811061014e57600080fd5b906000526020600020016000915054906101000a900473ffffffffffffffffffffffffffffffffffffffff1681565b848151146101c0576040517f08c379a00000000000000000000000000000000000000000000000000000000081526004016101b79061082f565b60405180910390fd5b600033888888888888886040516101d6906102ae565b6101e7989796959493929190610988565b604051809103906000f080158015610203573d6000803e3d6000fd5b5090506000819080600181540180825580915050600190039060005260206000200160009091909190916101000a81548173ffffffffffffffffffffffffffffffffffffffff021916908373ffffffffffffffffffffffffffffffffffffffff1602179055507f77a8369a0349657bce0097b3c8460cdbdc1c6647763732a35b9a4f1a487dbf6481338a60405161029c93929190610a14565b60405180910390a15050505050505050565b61265a80610a5383390190565b600081519050919050565b600082825260208201905092915050565b6000819050602082019050919050565b600073ffffffffffffffffffffffffffffffffffffffff82169050919050565b6000819050919050565b600061032c610327610322846102e7565b610307565b6102e7565b9050919050565b600061033e82610311565b9050919050565b600061035082610333565b9050919050565b61036081610345565b82525050565b60006103728383610357565b60208301905092915050565b6000602082019050919050565b6000610396826102bb565b6103a081856102c6565b93506103ab836102d7565b8060005b838110156103dc5781516103c38882610366565b97506103ce8361037e565b9250506001810190506103af565b5085935050505092915050565b60006020820190508181036000830152610403818461038b565b905092915050565b6000604051905090565b600080fd5b600080fd5b6000819050919050565b6104328161041f565b811461043d57600080fd5b50565b60008135905061044f81610429565b92915050565b60006020828403121561046b5761046a610415565b5b600061047984828501610440565b91505092915050565b61048b81610345565b82525050565b60006020820190506104a66000830184610482565b92915050565b600080fd5b600080fd5b6000601f19601f8301169050919050565b7f4e487b7100000000000000000000000000000000000000000000000000000000600052604160045260246000fd5b6104ff826104b6565b810181811067ffffffffffffffff8211171561051e5761051d6104c7565b5b80604052505050565b600061053161040b565b905061053d82826104f6565b919050565b600067ffffffffffffffff82111561055d5761055c6104c7565b5b610566826104b6565b9050602081019050919050565b82818337600083830152505050565b600061059561059084610542565b610527565b9050828152602081018484840111156105b1576105b06104b1565b5b6105bc848285610573565b509392505050565b600082601f8301126105d9576105d86104ac565b5b81356105e9848260208601610582565b91505092915050565b600067ffffffffffffffff82111561060d5761060c6104c7565b5b602082029050602081019050919050565b600080fd5b600061062e826102e7565b9050919050565b61063e81610623565b811461064957600080fd5b50565b60008135905061065b81610635565b92915050565b600061067461066f846105f2565b610527565b905080838252602082019050602084028301858111156106975761069661061e565b5b835b818110156106c057806106ac888261064c565b845260208401935050602081019050610699565b5050509392505050565b600082601f8301126106df576106de6104ac565b5b81356106ef848260208601610661565b91505092915050565b600080600080600080600060e0888a03121561071757610716610415565b5b600088013567ffffffffffffffff8111156107355761073461041a565b5b6107418a828b016105c4565b97505060206107528a828b01610440565b96505060406107638a828b01610440565b95505060606107748a828b01610440565b94505060806107858a828b01610440565b93505060a06107968a828b01610440565b92505060c088013567ffffffffffffffff8111156107b7576107b661041a565b5b6107c38a828b016106ca565b91505092959891949750929550565b600082825260208201905092915050565b7f5061727469636970616e747320636f756e74206d69736d617463680000000000600082015250565b6000610819601b836107d2565b9150610824826107e3565b602082019050919050565b600060208201905081810360008301526108488161080c565b9050919050565b61085881610623565b82525050565b600081519050919050565b60005b8381101561088757808201518184015260208101905061086c565b60008484015250505050565b600061089e8261085e565b6108a881856107d2565b93506108b8818560208601610869565b6108c1816104b6565b840191505092915050565b6108d58161041f565b82525050565b600081519050919050565b6000819050602082019050919050565b6108ff81610623565b82525050565b600061091183836108f6565b60208301905092915050565b6000602082019050919050565b6000610935826108db565b61093f81856102c6565b935061094a836108e6565b8060005b8381101561097b5781516109628882610905565b975061096d8361091d565b92505060018101905061094e565b5085935050505092915050565b60006101008201905061099e600083018b61084f565b81810360208301526109b0818a610893565b90506109bf60408301896108cc565b6109cc60608301886108cc565b6109d960808301876108cc565b6109e660a08301866108cc565b6109f360c08301856108cc565b81810360e0830152610a05818461092a565b90509998505050505050505050565b6000606082019050610a29600083018661084f565b610a36602083018561084f565b8181036040830152610a488184610893565b905094935050505056fe608060405234801561001057600080fd5b5060405161265a38038061265a83398181016040528101906100329190610598565b84815114610075576040517f08c379a000000000000000000000000000000000000000000000000000000000815260040161006c906106e3565b60405180910390fd5b876000806101000a81548173ffffffffffffffffffffffffffffffffffffffff021916908373ffffffffffffffffffffffffffffffffffffffff16021790555086600190816100c4919061091a565b50670de0b6b3a7640000866100d99190610a1b565b60028190555084600381905550836005819055508260068190555081600781905550600a60025461010a9190610a8c565b600881905550600160048190555060005b81518110156102b957600a604051806080016040528084848151811061014457610143610abd565b5b602002602001015173ffffffffffffffffffffffffffffffffffffffff168152602001600015158152602001600015158152602001600015158152509080600181540180825580915050600190039060005260206000200160009091909190915060008201518160000160006101000a81548173ffffffffffffffffffffffffffffffffffffffff021916908373ffffffffffffffffffffffffffffffffffffffff16021790555060208201518160000160146101000a81548160ff02191690831515021790555060408201518160000160156101000a81548160ff02191690831515021790555060608201518160000160166101000a81548160ff021916908315150217905550505080600b600084848151811061026657610265610abd565b5b602002602001015173ffffffffffffffffffffffffffffffffffffffff1673ffffffffffffffffffffffffffffffffffffffff16815260200190815260200160002081905550808060010191505061011b565b505050505050505050610aec565b6000604051905090565b600080fd5b600080fd5b600073ffffffffffffffffffffffffffffffffffffffff82169050919050565b6000610306826102db565b9050919050565b610316816102fb565b811461032157600080fd5b50565b6000815190506103338161030d565b92915050565b600080fd5b600080fd5b6000601f19601f8301169050919050565b7f4e487b7100000000000000000000000000000000000000000000000000000000600052604160045260246000fd5b61038c82610343565b810181811067ffffffffffffffff821117156103ab576103aa610354565b5b80604052505050565b60006103be6102c7565b90506103ca8282610383565b919050565b600067ffffffffffffffff8211156103ea576103e9610354565b5b6103f382610343565b9050602081019050919050565b60005b8381101561041e578082015181840152602081019050610403565b60008484015250505050565b600061043d610438846103cf565b6103b4565b9050828152602081018484840111156104595761045861033e565b5b610464848285610400565b509392505050565b600082601f83011261048157610480610339565b5b815161049184826020860161042a565b91505092915050565b6000819050919050565b6104ad8161049a565b81146104b857600080fd5b50565b6000815190506104ca816104a4565b92915050565b600067ffffffffffffffff8211156104eb576104ea610354565b5b602082029050602081019050919050565b600080fd5b600061051461050f846104d0565b6103b4565b90508083825260208201905060208402830185811115610537576105366104fc565b5b835b81811015610560578061054c8882610324565b845260208401935050602081019050610539565b5050509392505050565b600082601f83011261057f5761057e610339565b5b815161058f848260208601610501565b91505092915050565b600080600080600080600080610100898b0312156105b9576105b86102d1565b5b60006105c78b828c01610324565b985050602089015167ffffffffffffffff8111156105e8576105e76102d6565b5b6105f48b828c0161046c565b97505060406106058b828c016104bb565b96505060606106168b828c016104bb565b95505060806106278b828c016104bb565b94505060a06106388b828c016104bb565b93505060c06106498b828c016104bb565b92505060e089015167ffffffffffffffff81111561066a576106696102d6565b5b6106768b828c0161056a565b9150509295985092959890939650565b600082825260208201905092915050565b7f5061727469636970616e747320636f756e74206d69736d617463680000000000600082015250565b60006106cd601b83610686565b91506106d882610697565b602082019050919050565b600060208201905081810360008301526106fc816106c0565b9050919050565b600081519050919050565b7f4e487b7100000000000000000000000000000000000000000000000000000000600052602260045260246000fd5b6000600282049050600182168061075557607f821691505b6020821081036107685761076761070e565b5b50919050565b60008190508160005260206000209050919050565b60006020601f8301049050919050565b600082821b905092915050565b6000600883026107d07fffffffffffffffffffffffffffffffffffffffffffffffffffffffffffffffff82610793565b6107da8683610793565b95508019841693508086168417925050509392505050565b6000819050919050565b600061081761081261080d8461049a565b6107f2565b61049a565b9050919050565b6000819050919050565b610831836107fc565b61084561083d8261081e565b8484546107a0565b825550505050565b600090565b61085a61084d565b610865818484610828565b505050565b5b818110156108895761087e600082610852565b60018101905061086b565b5050565b601f8211156108ce5761089f8161076e565b6108a884610783565b810160208510156108b7578190505b6108cb6108c385610783565b83018261086a565b50505b505050565b600082821c905092915050565b60006108f1600019846008026108d3565b1980831691505092915050565b600061090a83836108e0565b9150826002028217905092915050565b61092382610703565b67ffffffffffffffff81111561093c5761093b610354565b5b610946825461073d565b61095182828561088d565b600060209050601f8311600181146109845760008415610972578287015190505b61097c85826108fe565b8655506109e4565b601f1984166109928661076e565b60005b828110156109ba57848901518255600182019150602085019450602081019050610995565b868310156109d757848901516109d3601f8916826108e0565b8355505b6001600288020188555050505b505050505050565b7f4e487b7100000000000000000000000000000000000000000000000000000000600052601160045260246000fd5b6000610a268261049a565b9150610a318361049a565b9250828202610a3f8161049a565b91508282048414831517610a5657610a556109ec565b5b5092915050565b7f4e487b7100000000000000000000000000000000000000000000000000000000600052601260045260246000fd5b6000610a978261049a565b9150610aa28361049a565b925082610ab257610ab1610a5d565b5b828204905092915050565b7f4e487b7100000000000000000000000000000000000000000000000000000000600052603260045260246000fd5b611b5f80610afb6000396000f3fe60806040526004361061011f5760003560e01c806378e97925116100a0578063a26dbf2611610064578063a26dbf26146103df578063af2d0a311461040a578063bab2f55214610447578063d7bb99ba14610472578063f54a36cc1461047c5761011f565b806378e97925146102f6578063929066f51461032157806392d09ceb1461035e578063968873eb14610389578063a1657681146103b45761011f565b806344e0b8c1116100e757806344e0b8c1146102015780635bec4cb4146102405780635fa0b65f1461026b578063612032651461029657806365d68e4e146102c15761011f565b806306fdde0314610124578063070fecb51461014f578063083b913714610159578063271751da1461019657806335c1d349146101c1575b600080fd5b34801561013057600080fd5b506101396104a7565b6040516101469190611111565b60405180910390f35b610157610535565b005b34801561016557600080fd5b50610180600480360381019061017b9190611196565b61079c565b60405161018d91906111dc565b60405180910390f35b3480156101a257600080fd5b506101ab6107b4565b6040516101b891906111dc565b60405180910390f35b3480156101cd57600080fd5b506101e860048036038101906101e39190611223565b6107ba565b6040516101f8949392919061128c565b60405180910390f35b34801561020d57600080fd5b5061022860048036038101906102239190611196565b61083d565b604051610237939291906112d1565b60405180910390f35b34801561024c57600080fd5b5061025561090b565b60405161026291906111dc565b60405180910390f35b34801561027757600080fd5b50610280610911565b60405161028d91906111dc565b60405180910390f35b3480156102a257600080fd5b506102ab610917565b6040516102b89190611317565b60405180910390f35b3480156102cd57600080fd5b506102d661093b565b6040516102ed9b9a99989796959493929190611332565b60405180910390f35b34801561030257600080fd5b5061030b610a45565b60405161031891906111dc565b60405180910390f35b34801561032d57600080fd5b5061034860048036038101906103439190611196565b610a4b565b60405161035591906113e4565b60405180910390f35b34801561036a57600080fd5b50610373610b18565b60405161038091906111dc565b60405180910390f35b34801561039557600080fd5b5061039e610b1e565b6040516103ab91906113e4565b60405180910390f35b3480156103c057600080fd5b506103c9610b2c565b6040516103d691906111dc565b60405180910390f35b3480156103eb57600080fd5b506103f4610b32565b60405161040191906111dc565b60405180910390f35b34801561041657600080fd5b50610431600480360381019061042c9190611223565b610b38565b60405161043e91906111dc565b60405180910390f35b34801561045357600080fd5b5061045c610bad565b60405161046991906111dc565b60405180910390f35b61047a610bb3565b005b34801561048857600080fd5b50610491610e54565b60405161049e91906113e4565b60405180910390f35b600180546104b49061142e565b80601f01602080910402602001604051908101604052809291908181526020018280546104e09061142e565b801561052d5780601f106105025761010080835404028352916020019161052d565b820191906000526020600020905b81548152906001019060200180831161051057829003601f168201915b505050505081565b61053e33610a4b565b61057d576040517f08c379a0000000000000000000000000000000000000000000000000000000008152600401610574906114d1565b60405180910390fd5b600960009054906101000a900460ff16156105cd576040517f08c379a00000000000000000000000000000000000000000000000000000000081526004016105c49061153d565b60405180910390fd5b6008543414610611576040517f08c379a0000000000000000000000000000000000000000000000000000000008152600401610608906115a9565b60405180910390fd5b6000600b60003373ffffffffffffffffffffffffffffffffffffffff1673ffffffffffffffffffffffffffffffffffffffff1681526020019081526020016000205490506000600a828154811061066b5761066a6115c9565b5b9060005260206000200190508060000160159054906101000a900460ff16156106c9576040517f08c379a00000000000000000000000000000000000000000000000000000000081526004016106c090611644565b60405180910390fd5b60018160000160156101000a81548160ff02191690831515021790555034600c60008282546106f89190611693565b925050819055507fe9b0699bffdb73d59bcd6347dfd5172f6d708c11e0b056c5a76d7c231d402ffb33346040516107309291906116c7565b60405180910390a160035460085461074891906116f0565b600c5403610798576001600960006101000a81548160ff0219169083151502179055507f041ddb0bda597672859a3817681cdb372a435e94fe5a68a5651eee0fbdf4664b60405160405180910390a15b5050565b600b6020528060005260406000206000915090505481565b600c5481565b600a81815481106107ca57600080fd5b906000526020600020016000915090508060000160009054906101000a900473ffffffffffffffffffffffffffffffffffffffff16908060000160149054906101000a900460ff16908060000160159054906101000a900460ff16908060000160169054906101000a900460ff16905084565b600080600061084b84610a4b565b61085f576000806000925092509250610904565b6000600b60008673ffffffffffffffffffffffffffffffffffffffff1673ffffffffffffffffffffffffffffffffffffffff1681526020019081526020016000205490506000600a82815481106108b9576108b86115c9565b5b9060005260206000200190508060000160159054906101000a900460ff168160000160149054906101000a900460ff168260000160169054906101000a900460ff1694509450945050505b9193909250565b60065481565b60025481565b60008054906101000a900473ffffffffffffffffffffffffffffffffffffffff1681565b60006060600080600080600080600080600030600160008054906101000a900473ffffffffffffffffffffffffffffffffffffffff16600254600354600454600554600960009054906101000a900460ff16600c546006546007548980546109a29061142e565b80601f01602080910402602001604051908101604052809291908181526020018280546109ce9061142e565b8015610a1b5780601f106109f057610100808354040283529160200191610a1b565b820191906000526020600020905b8154815290600101906020018083116109fe57829003601f168201915b505050505099509a509a509a509a509a509a509a509a509a509a509a50909192939495969798999a565b60075481565b600080600b60008473ffffffffffffffffffffffffffffffffffffffff1673ffffffffffffffffffffffffffffffffffffffff16815260200190815260200160002054905080600a80549050118015610b1057508273ffffffffffffffffffffffffffffffffffffffff16600a8281548110610aca57610ac96115c9565b5b9060005260206000200160000160009054906101000a900473ffffffffffffffffffffffffffffffffffffffff1673ffffffffffffffffffffffffffffffffffffffff16145b915050919050565b60085481565b600060055460045411905090565b60055481565b60035481565b6000600554821115610b7f576040517f08c379a0000000000000000000000000000000000000000000000000000000008152600401610b769061177e565b60405180910390fd5b600654600183610b8f919061179e565b610b9991906116f0565b600754610ba69190611693565b9050919050565b60045481565b610bbc33610a4b565b610bfb576040517f08c379a0000000000000000000000000000000000000000000000000000000008152600401610bf2906114d1565b60405180910390fd5b600960009054906101000a900460ff16610c4a576040517f08c379a0000000000000000000000000000000000000000000000000000000008152600401610c419061181e565b60405180910390fd5b6005546004541115610c91576040517f08c379a0000000000000000000000000000000000000000000000000000000008152600401610c889061188a565b60405180910390fd5b6000610c9e600454610b38565b905080421115610ce3576040517f08c379a0000000000000000000000000000000000000000000000000000000008152600401610cda9061191c565b60405180910390fd5b6002543414610d27576040517f08c379a0000000000000000000000000000000000000000000000000000000008152600401610d1e90611988565b60405180910390fd5b6000600b60003373ffffffffffffffffffffffffffffffffffffffff1673ffffffffffffffffffffffffffffffffffffffff1681526020019081526020016000205490506000600a8281548110610d8157610d806115c9565b5b9060005260206000200190508060000160149054906101000a900460ff1615610ddf576040517f08c379a0000000000000000000000000000000000000000000000000000000008152600401610dd6906119f4565b60405180910390fd5b60018160000160146101000a81548160ff0219169083151502179055507fd2dff949d20e874cc6ba1dcefb840fb8cf6000a4197bfb69accfea5a32443ff53334600454604051610e3193929190611a14565b60405180910390a1610e41610e67565b15610e4f57610e4e610ecf565b5b505050565b600960009054906101000a900460ff1681565b600080600090505b600a80549050811015610ec657600a8181548110610e9057610e8f6115c9565b5b9060005260206000200160000160149054906101000a900460ff16610eb9576000915050610ecc565b8080600101915050610e6f565b50600190505b90565b600080600090505b600a80549050811015610f74576000600a8281548110610efa57610ef96115c9565b5b9060005260206000200190508060000160169054906101000a900460ff16610f66578060000160009054906101000a900473ffffffffffffffffffffffffffffffffffffffff16925060018160000160166101000a81548160ff02191690831515021790555050610f74565b508080600101915050610ed7565b506000600354600254610f8791906116f0565b90508173ffffffffffffffffffffffffffffffffffffffff166108fc829081150290604051600060405180830381858888f19350505050158015610fcf573d6000803e3d6000fd5b507fba47a90c5497941f5c8a80cb50e75a6739149c92483dcc0648eb1f37c129c36d828260045460405161100593929190611aaa565b60405180910390a160005b600a80549050811015611064576000600a8281548110611033576110326115c9565b5b9060005260206000200160000160146101000a81548160ff0219169083151502179055508080600101915050611010565b506004600081548092919061107890611ae1565b91905055505050565b600081519050919050565b600082825260208201905092915050565b60005b838110156110bb5780820151818401526020810190506110a0565b60008484015250505050565b6000601f19601f8301169050919050565b60006110e382611081565b6110ed818561108c565b93506110fd81856020860161109d565b611106816110c7565b840191505092915050565b6000602082019050818103600083015261112b81846110d8565b905092915050565b600080fd5b600073ffffffffffffffffffffffffffffffffffffffff82169050919050565b600061116382611138565b9050919050565b61117381611158565b811461117e57600080fd5b50565b6000813590506111908161116a565b92915050565b6000602082840312156111ac576111ab611133565b5b60006111ba84828501611181565b91505092915050565b6000819050919050565b6111d6816111c3565b82525050565b60006020820190506111f160008301846111cd565b92915050565b611200816111c3565b811461120b57600080fd5b50565b60008135905061121d816111f7565b92915050565b60006020828403121561123957611238611133565b5b60006112478482850161120e565b91505092915050565b600061125b82611138565b9050919050565b61126b81611250565b82525050565b60008115159050919050565b61128681611271565b82525050565b60006080820190506112a16000830187611262565b6112ae602083018661127d565b6112bb604083018561127d565b6112c8606083018461127d565b95945050505050565b60006060820190506112e6600083018661127d565b6112f3602083018561127d565b611300604083018461127d565b949350505050565b61131181611158565b82525050565b600060208201905061132c6000830184611308565b92915050565b600061016082019050611348600083018e611308565b818103602083015261135a818d6110d8565b9050611369604083018c611308565b611376606083018b6111cd565b611383608083018a6111cd565b61139060a08301896111cd565b61139d60c08301886111cd565b6113aa60e083018761127d565b6113b86101008301866111cd565b6113c66101208301856111cd565b6113d46101408301846111cd565b9c9b505050505050505050505050565b60006020820190506113f9600083018461127d565b92915050565b7f4e487b7100000000000000000000000000000000000000000000000000000000600052602260045260246000fd5b6000600282049050600182168061144657607f821691505b602082108103611459576114586113ff565b5b50919050565b7f4f6e6c79207061727469636970616e74732063616e20706572666f726d20746860008201527f697320616374696f6e0000000000000000000000000000000000000000000000602082015250565b60006114bb60298361108c565b91506114c68261145f565b604082019050919050565b600060208201905081810360008301526114ea816114ae565b9050919050565b7f46756e6420616c72656164792073746172746564000000000000000000000000600082015250565b600061152760148361108c565b9150611532826114f1565b602082019050919050565b600060208201905081810360008301526115568161151a565b9050919050565b7f496e636f727265637420636f6c6c61746572616c20616d6f756e740000000000600082015250565b6000611593601b8361108c565b915061159e8261155d565b602082019050919050565b600060208201905081810360008301526115c281611586565b9050919050565b7f4e487b7100000000000000000000000000000000000000000000000000000000600052603260045260246000fd5b7f416c7265616479207374616b656420636f6c6c61746572616c00000000000000600082015250565b600061162e60198361108c565b9150611639826115f8565b602082019050919050565b6000602082019050818103600083015261165d81611621565b9050919050565b7f4e487b7100000000000000000000000000000000000000000000000000000000600052601160045260246000fd5b600061169e826111c3565b91506116a9836111c3565b92508282019050808211156116c1576116c0611664565b5b92915050565b60006040820190506116dc6000830185611308565b6116e960208301846111cd565b9392505050565b60006116fb826111c3565b9150611706836111c3565b9250828202611714816111c3565b9150828204841483151761172b5761172a611664565b5b5092915050565b7f4379636c65206f7574206f6620626f756e647300000000000000000000000000600082015250565b600061176860138361108c565b915061177382611732565b602082019050919050565b600060208201905081810360008301526117978161175b565b9050919050565b60006117a9826111c3565b91506117b4836111c3565b92508282039050818111156117cc576117cb611664565b5b92915050565b7f46756e6420686173206e6f742073746172746564207965740000000000000000600082015250565b600061180860188361108c565b9150611813826117d2565b602082019050919050565b60006020820190508181036000830152611837816117fb565b9050919050565b7f416c6c206379636c657320636f6d706c65746564000000000000000000000000600082015250565b600061187460148361108c565b915061187f8261183e565b602082019050919050565b600060208201905081810360008301526118a381611867565b9050919050565b7f436f6e747269627574696f6e20706572696f6420656e64656420666f7220746860008201527f6973206379636c65000000000000000000000000000000000000000000000000602082015250565b600061190660288361108c565b9150611911826118aa565b604082019050919050565b60006020820190508181036000830152611935816118f9565b9050919050565b7f496e636f727265637420636f6e747269627574696f6e20616d6f756e74000000600082015250565b6000611972601d8361108c565b915061197d8261193c565b602082019050919050565b600060208201905081810360008301526119a181611965565b9050919050565b7f416c726561647920636f6e74726962757465642074686973206379636c650000600082015250565b60006119de601e8361108c565b91506119e9826119a8565b602082019050919050565b60006020820190508181036000830152611a0d816119d1565b9050919050565b6000606082019050611a296000830186611308565b611a3660208301856111cd565b611a4360408301846111cd565b949350505050565b6000819050919050565b6000611a70611a6b611a6684611138565b611a4b565b611138565b9050919050565b6000611a8282611a55565b9050919050565b6000611a9482611a77565b9050919050565b611aa481611a89565b82525050565b6000606082019050611abf6000830186611a9b565b611acc60208301856111cd565b611ad960408301846111cd565b949350505050565b6000611aec826111c3565b91507fffffffffffffffffffffffffffffffffffffffffffffffffffffffffffffffff8203611b1e57611b1d611664565b5b60018201905091905056fea26469706673582212202fe4e7ca3caaa80a4461084c773db0671b06fdd334026e243e75a6728ada84dc64736f6c634300081b0033a264697066735822122071ea481d1dc08dcffb0153c0c3f4c2da192d7edafe20fdf21f0ee5e71c33296c64736f6c634300081b0033",
  "linkReferences": {},
  "deployedLinkReferences": {}
}