{
  "contracts/ChitFundFactory.sol": {
    "ChitFundFactory": {
      "abi": [
        {
          "anonymous": false,
          "inputs": [
            {
              "indexed": false,
              "internalType": "address",
              "name": "chitFundAddress",
              "type": "address"
            },
            {
              "indexed": false,
              "internalType": "address",
              "name": "organizer",
              "type": "address"
            },
            {
              "indexed": false,
              "internalType": "string",
              "name": "name",
              "type": "string"
            }
          ],
          "name": "ChitFundCreated",
          "type": "event"
        },
        {
          "inputs": [
            {
              "internalType": "uint256",
              "name": "",
              "type": "uint256"
            }
          ],
          "name": "chitFunds",
          "outputs": [
            {
              "internalType": "contract ChitFund",
              "name": "",
              "type": "address"
            }
          ],
          "stateMutability": "view",
          "type": "function"
        },
        {
          "inputs": [
            {
              "internalType": "string",
              "name": "_name",
              "type": "string"
            },
            {
              "internalType": "uint256",
              "name": "_contributionAmountInEther",
              "type": "uint256"
            },
            {
              "internalType": "uint256",
              "name": "_totalParticipants",
              "type": "uint256"
            },
            {
              "internalType": "uint256",
              "name": "_totalCycles",
              "type": "uint256"
            },
            {
              "internalType": "uint256",
              "name": "_cycleDuration",
              "type": "uint256"
            },
            {
              "internalType": "uint256",
              "name": "_startTime",
              "type": "uint256"
            },
            {
              "internalType": "address[]",
              "name": "_participants",
              "type": "address[]"
            },
            {
              "internalType": "uint256",
              "name": "_collateralPercentage",
              "type": "uint256"
            }
          ],
          "name": "createChitFund",
          "outputs": [],
          "stateMutability": "nonpayable",
          "type": "function"
        },
        {
          "inputs": [],
          "name": "getAllChitFunds",
          "outputs": [
            {
              "internalType": "contract ChitFund[]",
              "name": "",
              "type": "address[]"
            }
          ],
          "stateMutability": "view",
          "type": "function"
        },
        {
          "inputs": [
            {
              "internalType": "address",
              "name": "user",
              "type": "address"
            }
          ],
          "name": "getChitFundsForUser",
          "outputs": [
            {
              "internalType": "address[]",
              "name": "",
              "type": "address[]"
            }
          ],
          "stateMutability": "view",
          "type": "function"
        },
        {
          "inputs": [
            {
              "internalType": "address",
              "name": "",
              "type": "address"
            },
            {
              "internalType": "uint256",
              "name": "",
              "type": "uint256"
            }
          ],
          "name": "userChitFunds",
          "outputs": [
            {
              "internalType": "address",
              "name": "",
              "type": "address"
            }
          ],
          "stateMutability": "view",
          "type": "function"
        }
      ],
      "evm": {
        "bytecode": {
          "linkReferences": {},
          "object": "608080604052346015576121c9908161001b8239f35b600080fdfe608080604052600436101561001357600080fd5b60003560e01c9081632c1d5a241461051c575080632d0f95871461017f5780634b2015d6146100e757806373e9a7f31461009d576385b03dba1461005657600080fd5b34610098576020366003190112610098576004356000548110156100985761007f602091610659565b905460405160039290921b1c6001600160a01b03168152f35b600080fd5b34610098576040366003190112610098576100b6610606565b6001600160a01b03166000908152600160205260409020805460243591908210156100985760209161007f91610689565b34610098576020366003190112610098576001600160a01b03610108610606565b166000526001602052604060002060405190816020825491828152019160005260206000209060005b8181106101605761015c85610148818703826105e4565b60405191829160208352602083019061061c565b0390f35b82546001600160a01b0316845260209093019260019283019201610131565b34610098576101003660031901126100985760043567ffffffffffffffff8111610098573660238201121561009857806004013567ffffffffffffffff811161042b57604051916101da601f8301601f1916602001846105e4565b81835236602483830101116100985781600092602460209301838601378301015260c4359060443567ffffffffffffffff831161009857366023840112156100985782600401359267ffffffffffffffff841161042b578360051b906040519461024760208401876105e4565b8552602460208601928201019036821161009857602401915b8183106104fc5750505060e435818451036104b757801515806104ac575b1561044d5760405191611ab1918284019184831067ffffffffffffffff84111761042b576102fd6101009186956106e3873933855261012060208601526102c96101208601896106a1565b9060243560408701526060860152606435608086015260843560a086015260a43560c086015284810360e08601528861061c565b92015203906000f080156104415760005490600160401b82101561042b5761032e8260016103509401600055610659565b81546001600160a01b0393841694929360039290921b85811b92901b19161790565b905560005b83518110156103e157600060018060a01b0360208360051b87010151168152600160205260408120805491600160401b8310156103cd57506103c56103a38386936001809796018155610689565b815491936001600160a01b0360039290921b82811b19909316911690911b1790565b905501610355565b634e487b7160e01b81526041600452602490fd5b7f77a8369a0349657bce0097b3c8460cdbdc1c6647763732a35b9a4f1a487dbf64838361042660405192839283523360208401526060604084015260608301906106a1565b0390a1005b634e487b7160e01b600052604160045260246000fd5b6040513d6000823e3d90fd5b60405162461bcd60e51b815260206004820152603160248201527f436f6c6c61746572616c2070657263656e746167652073686f756c642062652060448201527006265747765656e203120616e642031303607c1b6064820152608490fd5b50606481111561027e565b60405162461bcd60e51b815260206004820152601b60248201527f5061727469636970616e747320636f756e74206d69736d6174636800000000006044820152606490fd5b82356001600160a01b038116810361009857815260209283019201610260565b346100985760003660031901126100985760005490818152602081018092600080527f290decd9548b62a8d60345a988386fc84ba6bc95484008f6362f93160ef3e5639060005b8181106105c557505050816105799103826105e4565b6040519182916020830190602084525180915260408301919060005b8181106105a3575050500390f35b82516001600160a01b0316845285945060209384019390920191600101610595565b82546001600160a01b0316845260209093019260019283019201610563565b90601f8019910116810190811067ffffffffffffffff82111761042b57604052565b600435906001600160a01b038216820361009857565b906020808351928381520192019060005b81811061063a5750505090565b82516001600160a01b031684526020938401939092019160010161062d565b600054811015610673576000805260206000200190600090565b634e487b7160e01b600052603260045260246000fd5b80548210156106735760005260206000200190600090565b919082519283825260005b8481106106cd575050826000602080949584010152601f8019910116010190565b806020809284010151828286010152016106ac56fe60806040523461056657611ab18038038061001981610580565b9283398101906101208183031261056657610033816105a5565b60208201519091906001600160401b0381116105665781019083601f830112156105665781516001600160401b0381116102fd5761007a601f8201601f1916602001610580565b9281845285602083830101116105665760005b82811061056b575050602060009184010152604081015191606082015160808301519060a08401519260c08501519460e081015160018060401b0381116105665781019880601f8b011215610566578951996001600160401b038b116102fd578a60051b90602080610100818501610580565b809e8152019282010192831161056657602001905b82821061054e575050506101000151968289510361050957871515806104fe575b1561049f57600080546001600160a01b0319166001600160a01b03929092169190911790558051906001600160401b0382116102fd5760015490600182811c92168015610495575b602083101461047f5781601f84931161040f575b50602090601f83116001146103a75760009261039c575b50508160011b916000199060031b1c1916176001555b84600255600355600555600655600755816008558181029181830414901517156103865760649004600955600060045560005b8151811015610313576001600160a01b0361020d82846105b9565b51604051929116608083016001600160401b038111848210176102fd576040528252602082016000815260408301600081526060840160008152600b54680100000000000000008110156102fd5780600161026b9201600b556105e3565b9390936102e757945183549551925191516001600160b81b03199096166001600160a01b039182161792151560a01b60ff60a01b169290921790151560a81b60ff60a81b161793151560b01b60ff60b01b169390931790556001916102d082856105b9565b5116600052600c60205280604060002055016101f2565b634e487b7160e01b600052600060045260246000fd5b634e487b7160e01b600052604160045260246000fd5b60005b6003548110156103805760ff61032b826105e3565b505460b01c161561033e57600101610316565b610347906105e3565b5054600a805462010000600160b01b03191660109290921b62010000600160b01b03169190911790555b6040516114b290816105ff8239f35b50610371565b634e487b7160e01b600052601160045260246000fd5b0151905038806101a9565b600160009081528281209350601f198516905b8181106103f757509084600195949392106103de575b505050811b016001556101bf565b015160001960f88460031b161c191690553880806103d0565b929360206001819287860151815501950193016103ba565b60016000529091507fb10e2d527612073b26eecdfd717e6a320cf44b4afac2b0732d9fcbe2b7fa0cf6601f840160051c81019160208510610475575b90601f859493920160051c01905b8181106104665750610192565b60008155849350600101610459565b909150819061044b565b634e487b7160e01b600052602260045260246000fd5b91607f169161017e565b60405162461bcd60e51b815260206004820152603160248201527f436f6c6c61746572616c2070657263656e746167652073686f756c642062652060448201527006265747765656e203120616e642031303607c1b6064820152608490fd5b506064881115610136565b60405162461bcd60e51b815260206004820152601b60248201527f5061727469636970616e747320636f756e74206d69736d6174636800000000006044820152606490fd5b6020809161055b846105a5565b815201910190610115565b600080fd5b8060208092840101518282880101520161008d565b6040519190601f01601f191682016001600160401b038111838210176102fd57604052565b51906001600160a01b038216820361056657565b80518210156105cd5760209160051b010190565b634e487b7160e01b600052603260045260246000fd5b600b548110156105cd57600b6000526020600020019060009056fe6080604052600436101561001257600080fd5b6000803560e01c806306fdde0314610ebf578063070fecb514610cfd578063083b913714610cbc578063271751da14610c9e578063308352e814610c8057806335c1d34914610c1b578063399cd2501461019257806344e0b8c114610bd15780634a9829cd14610ba05780634e71d92d146108995780635428197c146106f35780635bec4cb4146106d55780635fa0b65f146106b7578063612032651461069057806365d68e4e146105d557806378e97925146105b7578063929066f51461057c57806392d09ceb1461055e578063a165768114610540578063a26dbf2614610522578063af2d0a3114610503578063bab2f552146104e5578063bbb48445146104bb578063cbc3cecb14610345578063d7bb99ba146101bf578063d94c7c2714610192578063f54a36cc1461016f5763fd379a311461015157600080fd5b3461016c578060031936011261016c576101696113e1565b80f35b80fd5b503461016c578060031936011261016c57602060ff600a54166040519015158152f35b503461016c578060031936011261016c57600a5460405160109190911c6001600160a01b03168152602090f35b508060031936011261016c576101dc6101d7336112eb565b611081565b6101ea60ff600a5416611213565b60045460055410610309576102046002546003549061139a565b34036102c457338152600c60205261021f6040822054611050565b50805460ff8160a01c1661027f57600160a01b9060ff60a01b19161790557f4d26c2fe8f421a52e199f32ee4fc57172d01659bf57a1a39c4397b2bb07f539a6080600454604051903082523360208301523460408301526060820152a180f35b60405162461bcd60e51b815260206004820152601e60248201527f416c726561647920636f6e74726962757465642074686973206379636c6500006044820152606490fd5b60405162461bcd60e51b815260206004820152601d60248201527f496e636f727265637420636f6e747269627574696f6e20616d6f756e740000006044820152606490fd5b60405162461bcd60e51b8152602060048201526014602482015273105b1b0818de58db195cc818dbdb5c1b195d195960621b6044820152606490fd5b503461016c578060031936011261016c578061036260045461132e565b6003549190835b838110610479575061039361037d836113c9565b9261038b6040519485610ef3565b8084526113c9565b602083019390601f19013685378491855b8281106103f857868587604051928392602084019060208552518091526040840192915b8181106103d6575050500390f35b82516001600160a01b03168452859450602093840193909201916001016103c8565b60ff61040382611050565b505460a01c161580610470575b61041d575b6001016103a4565b9261042784611050565b505485516001600160a01b039091169082101561045c578161045491602060019460051b890101526113ba565b939050610415565b634e487b7160e01b88526032600452602488fd5b50814211610410565b60ff61048482611050565b505460a01c1615806104b2575b61049e575b600101610369565b916104aa6001916113ba565b929050610496565b50814211610491565b503461016c578060031936011261016c5760206104dd6002546003549061139a565b604051908152f35b503461016c578060031936011261016c576020600454604051908152f35b503461016c57602036600319011261016c5760206104dd60043561132e565b503461016c578060031936011261016c576020600354604051908152f35b503461016c578060031936011261016c576020600554604051908152f35b503461016c578060031936011261016c576020600954604051908152f35b503461016c57602036600319011261016c57600435906001600160a01b038216820361016c5760206105ad836112eb565b6040519015158152f35b503461016c578060031936011261016c576020600754604051908152f35b503461016c578060031936011261016c5760206101a09160018060a01b03905416600254600354906004549160055492600a5493600d549060065492600754946009549661063b610624610f2b565b6040519d8e9d8e30815201526101a08d019061100f565b60408c019a909a5260608b015260808a015260a089015260c088015260ff8516151560e088015261010087015261012086015261014085015261016084015260101c6001600160a01b03166101808301520390f35b503461016c578060031936011261016c57546040516001600160a01b039091168152602090f35b503461016c578060031936011261016c576020600254604051908152f35b503461016c578060031936011261016c576020600654604051908152f35b503461016c578060031936011261016c57610100600a5461071a60ff8260081c161561125f565b61ff00191617600a556004546005540361085b57600d541561081657805b6003548110156108055761074b81611050565b50805460ff8160a81c16610764575b5050600101610738565b60ff60a81b19168155600954600d549091908281039081116107f157600d555483918291829182916001600160a01b03165af161079f6112ab565b50156107ac57388061075a565b60405162461bcd60e51b815260206004820152601860248201527f436f6c6c61746572616c2072657475726e206661696c656400000000000000006044820152606490fd5b634e487b7160e01b85526011600452602485fd5b50600d55600a805461ff0019169055005b60405162461bcd60e51b815260206004820152601b60248201527f436f6c6c61746572616c20616c72656164792072657475726e656400000000006044820152606490fd5b60405162461bcd60e51b8152602060048201526016602482015275119d5b99081b9bdd0818dbdb5c1b195d1959081e595d60521b6044820152606490fd5b503461016c578060031936011261016c57600a5433601082901c6001600160a01b031603610b43576108cd60ff8216611213565b6108d5611443565b15610afe57806108ee60ff6101009360081c161561125f565b61ff0019161780600a55610900611443565b15610aae5760025460109190911c6001600160a01b0316908280808084865af16109286112ab565b5015610a7257816080917f6f93c0eec5a091f9faaa7530ed0bf04ba99e92d2d08c7d1b7642ac295b125795938552600c6020526109686040862054611050565b50805460ff60b01b1916600160b01b1790556004546040805130815260208101949094528301919091526060820152a1805b6003548110156109c257806109b0600192611050565b50805460ff60a01b191690550161099a565b506109ce6004546113ba565b806004556000198101908111610a5e5760407f7a22242c42d1e94f110cb053b2cf343580c736816a22ac54ec7dd833bf0dbe63918151903082526020820152a1600a805461ff001916905560045460408051308152336020820152908101919091527f8b5640bc6a70f4cedabaf515fa266b322bf861aa1fda7ac4ae261193eaa6cfa790606090a16101696113e1565b634e487b7160e01b82526011600452602482fd5b60405162461bcd60e51b8152602060048201526014602482015273119d5b99081d1c985b9cd9995c8819985a5b195960621b6044820152606490fd5b60405162461bcd60e51b815260206004820152602260248201527f416c6c20636f6e747269627574696f6e73206e6f742072656365697665642079604482015261195d60f21b6064820152608490fd5b60405162461bcd60e51b815260206004820152601e60248201527f4e6f7420616c6c20636f6e747269627574696f6e7320726563656976656400006044820152606490fd5b60405162461bcd60e51b815260206004820152602f60248201527f4f6e6c792074686520656c696769626c6520726563697069656e742063616e2060448201526e636c61696d207468652066756e647360881b6064820152608490fd5b503461016c57602036600319011261016c57600435906001600160a01b038216820361016c5760206105ad8361116a565b503461016c57602036600319011261016c57600435906001600160a01b038216820361016c576060610c0283611115565b9060405192151583521515602083015215156040820152f35b503461016c57602036600319011261016c5760043590600b5482101561016c576080610c4683611050565b505460ff6040519160018060a01b0381168352818160a01c1615156020840152818160a81c161515604084015260b01c1615156060820152f35b503461016c578060031936011261016c576020600854604051908152f35b503461016c578060031936011261016c576020600d54604051908152f35b503461016c57602036600319011261016c576004356001600160a01b03811690819003610cf9578160409160209352600c83522054604051908152f35b5080fd5b508060031936011261016c57610d156101d7336112eb565b60ff600a5416610e83576009543403610e3e57338152600c602052610d3d6040822054611050565b50805460ff8160a81c16610df95760ff60a81b1916600160a81b179055600d54610d689034906110df565b600d8190556040805130815233602082015234918101919091527fb43984808665df1db24188755e128600f9328714bf9e898378aaa7d27304393490606090a1610db760095460035490611102565b14610dbf5780f35b600160ff19600a541617600a557fdc33cf22f590c5ab4976c2ce3291383f046aac79b0c484500298d3d62f3118ca6020604051308152a180f35b60405162461bcd60e51b815260206004820152601960248201527f416c7265616479207374616b656420636f6c6c61746572616c000000000000006044820152606490fd5b60405162461bcd60e51b815260206004820152601b60248201527f496e636f727265637420636f6c6c61746572616c20616d6f756e7400000000006044820152606490fd5b60405162461bcd60e51b8152602060048201526014602482015273119d5b9908185b1c9958591e481cdd185c9d195960621b6044820152606490fd5b503461016c578060031936011261016c57610eef610edb610f2b565b60405191829160208352602083019061100f565b0390f35b90601f8019910116810190811067ffffffffffffffff821117610f1557604052565b634e487b7160e01b600052604160045260246000fd5b604051906000600154908160011c91600181168015611005575b602084108114610ff1578386528592918115610fd25750600114610f72575b610f7092500383610ef3565b565b506001600090815290917fb10e2d527612073b26eecdfd717e6a320cf44b4afac2b0732d9fcbe2b7fa0cf65b818310610fb6575050906020610f7092820101610f64565b6020919350806001915483858901015201910190918492610f9e565b60209250610f7094915060ff191682840152151560051b820101610f64565b634e487b7160e01b83526022600452602483fd5b92607f1692610f45565b919082519283825260005b84811061103b575050826000602080949584010152601f8019910116010190565b8060208092840101518282860101520161101a565b600b5481101561106b57600b60005260206000200190600090565b634e487b7160e01b600052603260045260246000fd5b1561108857565b60405162461bcd60e51b815260206004820152602960248201527f4f6e6c79207061727469636970616e74732063616e20706572666f726d20746860448201526834b99030b1ba34b7b760b91b6064820152608490fd5b919082018092116110ec57565b634e487b7160e01b600052601160045260246000fd5b818102929181159184041417156110ec57565b61111e816112eb565b1561115e576001600160a01b03166000908152600c602052604090205461114490611050565b505460ff8160a81c169160ff808360a01c169260b01c1690565b50600090600090600090565b611173816112eb565b156111ce576001600160a01b03166000908152600c602052604090205461119990611050565b5060ff6111a760045461132e565b915460a01c161590816111c4575b506111bf57600090565b600190565b90504211386111b5565b60405162461bcd60e51b815260206004820152601c60248201527f41646472657373206973206e6f742061207061727469636970616e74000000006044820152606490fd5b1561121a57565b60405162461bcd60e51b815260206004820152601860248201527f46756e6420686173206e6f7420737461727465642079657400000000000000006044820152606490fd5b1561126657565b60405162461bcd60e51b815260206004820152601f60248201527f5265656e7472616e637947756172643a207265656e7472616e742063616c6c006044820152606490fd5b3d156112e6573d9067ffffffffffffffff8211610f1557604051916112da601f8201601f191660200184610ef3565b82523d6000602084013e565b606090565b6001600160a01b03166000818152600c6020526040902054600354811091908261131457505090565b61131f919250611050565b50546001600160a01b03161490565b600554811161135f5760075460001982019182116110ec5761135661135c9260065490611102565b906110df565b90565b60405162461bcd60e51b81526020600482015260136024820152724379636c65206f7574206f6620626f756e647360681b6044820152606490fd5b81156113a4570490565b634e487b7160e01b600052601260045260246000fd5b60001981146110ec5760010190565b67ffffffffffffffff8111610f155760051b60200190565b60005b6003548110156114405760ff6113f982611050565b505460b01c161561140c576001016113e4565b61141590611050565b5054600a805462010000600160b01b03191660109290921b62010000600160b01b0316919091179055565b50565b60035460005b818110611457575050600190565b60ff61146282611050565b505460a01c161561147557600101611449565b505060009056fea264697066735822122044e55e6f9c1013c553c3b29620ffb2c10a04308336b42bf424693a837ddff4a764736f6c634300081b0033a2646970667358221220e6c4d17890224086db567271f535dab3ad6b2f24d72bbec35da30ce874f40c3264736f6c634300081b0033",
          "opcodes": "PUSH1 0x80 DUP1 PUSH1 0x40 MSTORE CALLVALUE PUSH1 0x15 JUMPI PUSH2 0x21C9 SWAP1 DUP2 PUSH2 0x1B DUP3 CODECOPY RETURN JUMPDEST PUSH1 0x0 DUP1 REVERT INVALID PUSH1 0x80 DUP1 PUSH1 0x40 MSTORE PUSH1 0x4 CALLDATASIZE LT ISZERO PUSH2 0x13 JUMPI PUSH1 0x0 DUP1 REVERT JUMPDEST PUSH1 0x0 CALLDATALOAD PUSH1 0xE0 SHR SWAP1 DUP2 PUSH4 0x2C1D5A24 EQ PUSH2 0x51C JUMPI POP DUP1 PUSH4 0x2D0F9587 EQ PUSH2 0x17F JUMPI DUP1 PUSH4 0x4B2015D6 EQ PUSH2 0xE7 JUMPI DUP1 PUSH4 0x73E9A7F3 EQ PUSH2 0x9D JUMPI PUSH4 0x85B03DBA EQ PUSH2 0x56 JUMPI PUSH1 0x0 DUP1 REVERT JUMPDEST CALLVALUE PUSH2 0x98 JUMPI PUSH1 0x20 CALLDATASIZE PUSH1 0x3 NOT ADD SLT PUSH2 0x98 JUMPI PUSH1 0x4 CALLDATALOAD PUSH1 0x0 SLOAD DUP2 LT ISZERO PUSH2 0x98 JUMPI PUSH2 0x7F PUSH1 0x20 SWAP2 PUSH2 0x659 JUMP JUMPDEST SWAP1 SLOAD PUSH1 0x40 MLOAD PUSH1 0x3 SWAP3 SWAP1 SWAP3 SHL SHR PUSH1 0x1 PUSH1 0x1 PUSH1 0xA0 SHL SUB AND DUP2 MSTORE RETURN JUMPDEST PUSH1 0x0 DUP1 REVERT JUMPDEST CALLVALUE PUSH2 0x98 JUMPI PUSH1 0x40 CALLDATASIZE PUSH1 0x3 NOT ADD SLT PUSH2 0x98 JUMPI PUSH2 0xB6 PUSH2 0x606 JUMP JUMPDEST PUSH1 0x1 PUSH1 0x1 PUSH1 0xA0 SHL SUB AND PUSH1 0x0 SWAP1 DUP2 MSTORE PUSH1 0x1 PUSH1 0x20 MSTORE PUSH1 0x40 SWAP1 KECCAK256 DUP1 SLOAD PUSH1 0x24 CALLDATALOAD SWAP2 SWAP1 DUP3 LT ISZERO PUSH2 0x98 JUMPI PUSH1 0x20 SWAP2 PUSH2 0x7F SWAP2 PUSH2 0x689 JUMP JUMPDEST CALLVALUE PUSH2 0x98 JUMPI PUSH1 0x20 CALLDATASIZE PUSH1 0x3 NOT ADD SLT PUSH2 0x98 JUMPI PUSH1 0x1 PUSH1 0x1 PUSH1 0xA0 SHL SUB PUSH2 0x108 PUSH2 0x606 JUMP JUMPDEST AND PUSH1 0x0 MSTORE PUSH1 0x1 PUSH1 0x20 MSTORE PUSH1 0x40 PUSH1 0x0 KECCAK256 PUSH1 0x40 MLOAD SWAP1 DUP2 PUSH1 0x20 DUP3 SLOAD SWAP2 DUP3 DUP2 MSTORE ADD SWAP2 PUSH1 0x0 MSTORE PUSH1 0x20 PUSH1 0x0 KECCAK256 SWAP1 PUSH1 0x0 JUMPDEST DUP2 DUP2 LT PUSH2 0x160 JUMPI PUSH2 0x15C DUP6 PUSH2 0x148 DUP2 DUP8 SUB DUP3 PUSH2 0x5E4 JUMP JUMPDEST PUSH1 0x40 MLOAD SWAP2 DUP3 SWAP2 PUSH1 0x20 DUP4 MSTORE PUSH1 0x20 DUP4 ADD SWAP1 PUSH2 0x61C JUMP JUMPDEST SUB SWAP1 RETURN JUMPDEST DUP3 SLOAD PUSH1 0x1 PUSH1 0x1 PUSH1 0xA0 SHL SUB AND DUP5 MSTORE PUSH1 0x20 SWAP1 SWAP4 ADD SWAP3 PUSH1 0x1 SWAP3 DUP4 ADD SWAP3 ADD PUSH2 0x131 JUMP JUMPDEST CALLVALUE PUSH2 0x98 JUMPI PUSH2 0x100 CALLDATASIZE PUSH1 0x3 NOT ADD SLT PUSH2 0x98 JUMPI PUSH1 0x4 CALLDATALOAD PUSH8 0xFFFFFFFFFFFFFFFF DUP2 GT PUSH2 0x98 JUMPI CALLDATASIZE PUSH1 0x23 DUP3 ADD SLT ISZERO PUSH2 0x98 JUMPI DUP1 PUSH1 0x4 ADD CALLDATALOAD PUSH8 0xFFFFFFFFFFFFFFFF DUP2 GT PUSH2 0x42B JUMPI PUSH1 0x40 MLOAD SWAP2 PUSH2 0x1DA PUSH1 0x1F DUP4 ADD PUSH1 0x1F NOT AND PUSH1 0x20 ADD DUP5 PUSH2 0x5E4 JUMP JUMPDEST DUP2 DUP4 MSTORE CALLDATASIZE PUSH1 0x24 DUP4 DUP4 ADD ADD GT PUSH2 0x98 JUMPI DUP2 PUSH1 0x0 SWAP3 PUSH1 0x24 PUSH1 0x20 SWAP4 ADD DUP4 DUP7 ADD CALLDATACOPY DUP4 ADD ADD MSTORE PUSH1 0xC4 CALLDATALOAD SWAP1 PUSH1 0x44 CALLDATALOAD PUSH8 0xFFFFFFFFFFFFFFFF DUP4 GT PUSH2 0x98 JUMPI CALLDATASIZE PUSH1 0x23 DUP5 ADD SLT ISZERO PUSH2 0x98 JUMPI DUP3 PUSH1 0x4 ADD CALLDATALOAD SWAP3 PUSH8 0xFFFFFFFFFFFFFFFF DUP5 GT PUSH2 0x42B JUMPI DUP4 PUSH1 0x5 SHL SWAP1 PUSH1 0x40 MLOAD SWAP5 PUSH2 0x247 PUSH1 0x20 DUP5 ADD DUP8 PUSH2 0x5E4 JUMP JUMPDEST DUP6 MSTORE PUSH1 0x24 PUSH1 0x20 DUP7 ADD SWAP3 DUP3 ADD ADD SWAP1 CALLDATASIZE DUP3 GT PUSH2 0x98 JUMPI PUSH1 0x24 ADD SWAP2 JUMPDEST DUP2 DUP4 LT PUSH2 0x4FC JUMPI POP POP POP PUSH1 0xE4 CALLDATALOAD DUP2 DUP5 MLOAD SUB PUSH2 0x4B7 JUMPI DUP1 ISZERO ISZERO DUP1 PUSH2 0x4AC JUMPI JUMPDEST ISZERO PUSH2 0x44D JUMPI PUSH1 0x40 MLOAD SWAP2 PUSH2 0x1AB1 SWAP2 DUP3 DUP5 ADD SWAP2 DUP5 DUP4 LT PUSH8 0xFFFFFFFFFFFFFFFF DUP5 GT OR PUSH2 0x42B JUMPI PUSH2 0x2FD PUSH2 0x100 SWAP2 DUP7 SWAP6 PUSH2 0x6E3 DUP8 CODECOPY CALLER DUP6 MSTORE PUSH2 0x120 PUSH1 0x20 DUP7 ADD MSTORE PUSH2 0x2C9 PUSH2 0x120 DUP7 ADD DUP10 PUSH2 0x6A1 JUMP JUMPDEST SWAP1 PUSH1 0x24 CALLDATALOAD PUSH1 0x40 DUP8 ADD MSTORE PUSH1 0x60 DUP7 ADD MSTORE PUSH1 0x64 CALLDATALOAD PUSH1 0x80 DUP7 ADD MSTORE PUSH1 0x84 CALLDATALOAD PUSH1 0xA0 DUP7 ADD MSTORE PUSH1 0xA4 CALLDATALOAD PUSH1 0xC0 DUP7 ADD MSTORE DUP5 DUP2 SUB PUSH1 0xE0 DUP7 ADD MSTORE DUP9 PUSH2 0x61C JUMP JUMPDEST SWAP3 ADD MSTORE SUB SWAP1 PUSH1 0x0 CREATE DUP1 ISZERO PUSH2 0x441 JUMPI PUSH1 0x0 SLOAD SWAP1 PUSH1 0x1 PUSH1 0x40 SHL DUP3 LT ISZERO PUSH2 0x42B JUMPI PUSH2 0x32E DUP3 PUSH1 0x1 PUSH2 0x350 SWAP5 ADD PUSH1 0x0 SSTORE PUSH2 0x659 JUMP JUMPDEST DUP2 SLOAD PUSH1 0x1 PUSH1 0x1 PUSH1 0xA0 SHL SUB SWAP4 DUP5 AND SWAP5 SWAP3 SWAP4 PUSH1 0x3 SWAP3 SWAP1 SWAP3 SHL DUP6 DUP2 SHL SWAP3 SWAP1 SHL NOT AND OR SWAP1 JUMP JUMPDEST SWAP1 SSTORE PUSH1 0x0 JUMPDEST DUP4 MLOAD DUP2 LT ISZERO PUSH2 0x3E1 JUMPI PUSH1 0x0 PUSH1 0x1 DUP1 PUSH1 0xA0 SHL SUB PUSH1 0x20 DUP4 PUSH1 0x5 SHL DUP8 ADD ADD MLOAD AND DUP2 MSTORE PUSH1 0x1 PUSH1 0x20 MSTORE PUSH1 0x40 DUP2 KECCAK256 DUP1 SLOAD SWAP2 PUSH1 0x1 PUSH1 0x40 SHL DUP4 LT ISZERO PUSH2 0x3CD JUMPI POP PUSH2 0x3C5 PUSH2 0x3A3 DUP4 DUP7 SWAP4 PUSH1 0x1 DUP1 SWAP8 SWAP7 ADD DUP2 SSTORE PUSH2 0x689 JUMP JUMPDEST DUP2 SLOAD SWAP2 SWAP4 PUSH1 0x1 PUSH1 0x1 PUSH1 0xA0 SHL SUB PUSH1 0x3 SWAP3 SWAP1 SWAP3 SHL DUP3 DUP2 SHL NOT SWAP1 SWAP4 AND SWAP2 AND SWAP1 SWAP2 SHL OR SWAP1 JUMP JUMPDEST SWAP1 SSTORE ADD PUSH2 0x355 JUMP JUMPDEST PUSH4 0x4E487B71 PUSH1 0xE0 SHL DUP2 MSTORE PUSH1 0x41 PUSH1 0x4 MSTORE PUSH1 0x24 SWAP1 REVERT JUMPDEST PUSH32 0x77A8369A0349657BCE0097B3C8460CDBDC1C6647763732A35B9A4F1A487DBF64 DUP4 DUP4 PUSH2 0x426 PUSH1 0x40 MLOAD SWAP3 DUP4 SWAP3 DUP4 MSTORE CALLER PUSH1 0x20 DUP5 ADD MSTORE PUSH1 0x60 PUSH1 0x40 DUP5 ADD MSTORE PUSH1 0x60 DUP4 ADD SWAP1 PUSH2 0x6A1 JUMP JUMPDEST SUB SWAP1 LOG1 STOP JUMPDEST PUSH4 0x4E487B71 PUSH1 0xE0 SHL PUSH1 0x0 MSTORE PUSH1 0x41 PUSH1 0x4 MSTORE PUSH1 0x24 PUSH1 0x0 REVERT JUMPDEST PUSH1 0x40 MLOAD RETURNDATASIZE PUSH1 0x0 DUP3 RETURNDATACOPY RETURNDATASIZE SWAP1 REVERT JUMPDEST PUSH1 0x40 MLOAD PUSH3 0x461BCD PUSH1 0xE5 SHL DUP2 MSTORE PUSH1 0x20 PUSH1 0x4 DUP3 ADD MSTORE PUSH1 0x31 PUSH1 0x24 DUP3 ADD MSTORE PUSH32 0x436F6C6C61746572616C2070657263656E746167652073686F756C6420626520 PUSH1 0x44 DUP3 ADD MSTORE PUSH17 0x6265747765656E203120616E642031303 PUSH1 0x7C SHL PUSH1 0x64 DUP3 ADD MSTORE PUSH1 0x84 SWAP1 REVERT JUMPDEST POP PUSH1 0x64 DUP2 GT ISZERO PUSH2 0x27E JUMP JUMPDEST PUSH1 0x40 MLOAD PUSH3 0x461BCD PUSH1 0xE5 SHL DUP2 MSTORE PUSH1 0x20 PUSH1 0x4 DUP3 ADD MSTORE PUSH1 0x1B PUSH1 0x24 DUP3 ADD MSTORE PUSH32 0x5061727469636970616E747320636F756E74206D69736D617463680000000000 PUSH1 0x44 DUP3 ADD MSTORE PUSH1 0x64 SWAP1 REVERT JUMPDEST DUP3 CALLDATALOAD PUSH1 0x1 PUSH1 0x1 PUSH1 0xA0 SHL SUB DUP2 AND DUP2 SUB PUSH2 0x98 JUMPI DUP2 MSTORE PUSH1 0x20 SWAP3 DUP4 ADD SWAP3 ADD PUSH2 0x260 JUMP JUMPDEST CALLVALUE PUSH2 0x98 JUMPI PUSH1 0x0 CALLDATASIZE PUSH1 0x3 NOT ADD SLT PUSH2 0x98 JUMPI PUSH1 0x0 SLOAD SWAP1 DUP2 DUP2 MSTORE PUSH1 0x20 DUP2 ADD DUP1 SWAP3 PUSH1 0x0 DUP1 MSTORE PUSH32 0x290DECD9548B62A8D60345A988386FC84BA6BC95484008F6362F93160EF3E563 SWAP1 PUSH1 0x0 JUMPDEST DUP2 DUP2 LT PUSH2 0x5C5 JUMPI POP POP POP DUP2 PUSH2 0x579 SWAP2 SUB DUP3 PUSH2 0x5E4 JUMP JUMPDEST PUSH1 0x40 MLOAD SWAP2 DUP3 SWAP2 PUSH1 0x20 DUP4 ADD SWAP1 PUSH1 0x20 DUP5 MSTORE MLOAD DUP1 SWAP2 MSTORE PUSH1 0x40 DUP4 ADD SWAP2 SWAP1 PUSH1 0x0 JUMPDEST DUP2 DUP2 LT PUSH2 0x5A3 JUMPI POP POP POP SUB SWAP1 RETURN JUMPDEST DUP3 MLOAD PUSH1 0x1 PUSH1 0x1 PUSH1 0xA0 SHL SUB AND DUP5 MSTORE DUP6 SWAP5 POP PUSH1 0x20 SWAP4 DUP5 ADD SWAP4 SWAP1 SWAP3 ADD SWAP2 PUSH1 0x1 ADD PUSH2 0x595 JUMP JUMPDEST DUP3 SLOAD PUSH1 0x1 PUSH1 0x1 PUSH1 0xA0 SHL SUB AND DUP5 MSTORE PUSH1 0x20 SWAP1 SWAP4 ADD SWAP3 PUSH1 0x1 SWAP3 DUP4 ADD SWAP3 ADD PUSH2 0x563 JUMP JUMPDEST SWAP1 PUSH1 0x1F DUP1 NOT SWAP2 ADD AND DUP2 ADD SWAP1 DUP2 LT PUSH8 0xFFFFFFFFFFFFFFFF DUP3 GT OR PUSH2 0x42B JUMPI PUSH1 0x40 MSTORE JUMP JUMPDEST PUSH1 0x4 CALLDATALOAD SWAP1 PUSH1 0x1 PUSH1 0x1 PUSH1 0xA0 SHL SUB DUP3 AND DUP3 SUB PUSH2 0x98 JUMPI JUMP JUMPDEST SWAP1 PUSH1 0x20 DUP1 DUP4 MLOAD SWAP3 DUP4 DUP2 MSTORE ADD SWAP3 ADD SWAP1 PUSH1 0x0 JUMPDEST DUP2 DUP2 LT PUSH2 0x63A JUMPI POP POP POP SWAP1 JUMP JUMPDEST DUP3 MLOAD PUSH1 0x1 PUSH1 0x1 PUSH1 0xA0 SHL SUB AND DUP5 MSTORE PUSH1 0x20 SWAP4 DUP5 ADD SWAP4 SWAP1 SWAP3 ADD SWAP2 PUSH1 0x1 ADD PUSH2 0x62D JUMP JUMPDEST PUSH1 0x0 SLOAD DUP2 LT ISZERO PUSH2 0x673 JUMPI PUSH1 0x0 DUP1 MSTORE PUSH1 0x20 PUSH1 0x0 KECCAK256 ADD SWAP1 PUSH1 0x0 SWAP1 JUMP JUMPDEST PUSH4 0x4E487B71 PUSH1 0xE0 SHL PUSH1 0x0 MSTORE PUSH1 0x32 PUSH1 0x4 MSTORE PUSH1 0x24 PUSH1 0x0 REVERT JUMPDEST DUP1 SLOAD DUP3 LT ISZERO PUSH2 0x673 JUMPI PUSH1 0x0 MSTORE PUSH1 0x20 PUSH1 0x0 KECCAK256 ADD SWAP1 PUSH1 0x0 SWAP1 JUMP JUMPDEST SWAP2 SWAP1 DUP3 MLOAD SWAP3 DUP4 DUP3 MSTORE PUSH1 0x0 JUMPDEST DUP5 DUP2 LT PUSH2 0x6CD JUMPI POP POP DUP3 PUSH1 0x0 PUSH1 0x20 DUP1 SWAP5 SWAP6 DUP5 ADD ADD MSTORE PUSH1 0x1F DUP1 NOT SWAP2 ADD AND ADD ADD SWAP1 JUMP JUMPDEST DUP1 PUSH1 0x20 DUP1 SWAP3 DUP5 ADD ADD MLOAD DUP3 DUP3 DUP7 ADD ADD MSTORE ADD PUSH2 0x6AC JUMP INVALID PUSH1 0x80 PUSH1 0x40 MSTORE CALLVALUE PUSH2 0x566 JUMPI PUSH2 0x1AB1 DUP1 CODESIZE SUB DUP1 PUSH2 0x19 DUP2 PUSH2 0x580 JUMP JUMPDEST SWAP3 DUP4 CODECOPY DUP2 ADD SWAP1 PUSH2 0x120 DUP2 DUP4 SUB SLT PUSH2 0x566 JUMPI PUSH2 0x33 DUP2 PUSH2 0x5A5 JUMP JUMPDEST PUSH1 0x20 DUP3 ADD MLOAD SWAP1 SWAP2 SWAP1 PUSH1 0x1 PUSH1 0x1 PUSH1 0x40 SHL SUB DUP2 GT PUSH2 0x566 JUMPI DUP2 ADD SWAP1 DUP4 PUSH1 0x1F DUP4 ADD SLT ISZERO PUSH2 0x566 JUMPI DUP2 MLOAD PUSH1 0x1 PUSH1 0x1 PUSH1 0x40 SHL SUB DUP2 GT PUSH2 0x2FD JUMPI PUSH2 0x7A PUSH1 0x1F DUP3 ADD PUSH1 0x1F NOT AND PUSH1 0x20 ADD PUSH2 0x580 JUMP JUMPDEST SWAP3 DUP2 DUP5 MSTORE DUP6 PUSH1 0x20 DUP4 DUP4 ADD ADD GT PUSH2 0x566 JUMPI PUSH1 0x0 JUMPDEST DUP3 DUP2 LT PUSH2 0x56B JUMPI POP POP PUSH1 0x20 PUSH1 0x0 SWAP2 DUP5 ADD ADD MSTORE PUSH1 0x40 DUP2 ADD MLOAD SWAP2 PUSH1 0x60 DUP3 ADD MLOAD PUSH1 0x80 DUP4 ADD MLOAD SWAP1 PUSH1 0xA0 DUP5 ADD MLOAD SWAP3 PUSH1 0xC0 DUP6 ADD MLOAD SWAP5 PUSH1 0xE0 DUP2 ADD MLOAD PUSH1 0x1 DUP1 PUSH1 0x40 SHL SUB DUP2 GT PUSH2 0x566 JUMPI DUP2 ADD SWAP9 DUP1 PUSH1 0x1F DUP12 ADD SLT ISZERO PUSH2 0x566 JUMPI DUP10 MLOAD SWAP10 PUSH1 0x1 PUSH1 0x1 PUSH1 0x40 SHL SUB DUP12 GT PUSH2 0x2FD JUMPI DUP11 PUSH1 0x5 SHL SWAP1 PUSH1 0x20 DUP1 PUSH2 0x100 DUP2 DUP6 ADD PUSH2 0x580 JUMP JUMPDEST DUP1 SWAP15 DUP2 MSTORE ADD SWAP3 DUP3 ADD ADD SWAP3 DUP4 GT PUSH2 0x566 JUMPI PUSH1 0x20 ADD SWAP1 JUMPDEST DUP3 DUP3 LT PUSH2 0x54E JUMPI POP POP POP PUSH2 0x100 ADD MLOAD SWAP7 DUP3 DUP10 MLOAD SUB PUSH2 0x509 JUMPI DUP8 ISZERO ISZERO DUP1 PUSH2 0x4FE JUMPI JUMPDEST ISZERO PUSH2 0x49F JUMPI PUSH1 0x0 DUP1 SLOAD PUSH1 0x1 PUSH1 0x1 PUSH1 0xA0 SHL SUB NOT AND PUSH1 0x1 PUSH1 0x1 PUSH1 0xA0 SHL SUB SWAP3 SWAP1 SWAP3 AND SWAP2 SWAP1 SWAP2 OR SWAP1 SSTORE DUP1 MLOAD SWAP1 PUSH1 0x1 PUSH1 0x1 PUSH1 0x40 SHL SUB DUP3 GT PUSH2 0x2FD JUMPI PUSH1 0x1 SLOAD SWAP1 PUSH1 0x1 DUP3 DUP2 SHR SWAP3 AND DUP1 ISZERO PUSH2 0x495 JUMPI JUMPDEST PUSH1 0x20 DUP4 LT EQ PUSH2 0x47F JUMPI DUP2 PUSH1 0x1F DUP5 SWAP4 GT PUSH2 0x40F JUMPI JUMPDEST POP PUSH1 0x20 SWAP1 PUSH1 0x1F DUP4 GT PUSH1 0x1 EQ PUSH2 0x3A7 JUMPI PUSH1 0x0 SWAP3 PUSH2 0x39C JUMPI JUMPDEST POP POP DUP2 PUSH1 0x1 SHL SWAP2 PUSH1 0x0 NOT SWAP1 PUSH1 0x3 SHL SHR NOT AND OR PUSH1 0x1 SSTORE JUMPDEST DUP5 PUSH1 0x2 SSTORE PUSH1 0x3 SSTORE PUSH1 0x5 SSTORE PUSH1 0x6 SSTORE PUSH1 0x7 SSTORE DUP2 PUSH1 0x8 SSTORE DUP2 DUP2 MUL SWAP2 DUP2 DUP4 DIV EQ SWAP1 ISZERO OR ISZERO PUSH2 0x386 JUMPI PUSH1 0x64 SWAP1 DIV PUSH1 0x9 SSTORE PUSH1 0x0 PUSH1 0x4 SSTORE PUSH1 0x0 JUMPDEST DUP2 MLOAD DUP2 LT ISZERO PUSH2 0x313 JUMPI PUSH1 0x1 PUSH1 0x1 PUSH1 0xA0 SHL SUB PUSH2 0x20D DUP3 DUP5 PUSH2 0x5B9 JUMP JUMPDEST MLOAD PUSH1 0x40 MLOAD SWAP3 SWAP2 AND PUSH1 0x80 DUP4 ADD PUSH1 0x1 PUSH1 0x1 PUSH1 0x40 SHL SUB DUP2 GT DUP5 DUP3 LT OR PUSH2 0x2FD JUMPI PUSH1 0x40 MSTORE DUP3 MSTORE PUSH1 0x20 DUP3 ADD PUSH1 0x0 DUP2 MSTORE PUSH1 0x40 DUP4 ADD PUSH1 0x0 DUP2 MSTORE PUSH1 0x60 DUP5 ADD PUSH1 0x0 DUP2 MSTORE PUSH1 0xB SLOAD PUSH9 0x10000000000000000 DUP2 LT ISZERO PUSH2 0x2FD JUMPI DUP1 PUSH1 0x1 PUSH2 0x26B SWAP3 ADD PUSH1 0xB SSTORE PUSH2 0x5E3 JUMP JUMPDEST SWAP4 SWAP1 SWAP4 PUSH2 0x2E7 JUMPI SWAP5 MLOAD DUP4 SLOAD SWAP6 MLOAD SWAP3 MLOAD SWAP2 MLOAD PUSH1 0x1 PUSH1 0x1 PUSH1 0xB8 SHL SUB NOT SWAP1 SWAP7 AND PUSH1 0x1 PUSH1 0x1 PUSH1 0xA0 SHL SUB SWAP2 DUP3 AND OR SWAP3 ISZERO ISZERO PUSH1 0xA0 SHL PUSH1 0xFF PUSH1 0xA0 SHL AND SWAP3 SWAP1 SWAP3 OR SWAP1 ISZERO ISZERO PUSH1 0xA8 SHL PUSH1 0xFF PUSH1 0xA8 SHL AND OR SWAP4 ISZERO ISZERO PUSH1 0xB0 SHL PUSH1 0xFF PUSH1 0xB0 SHL AND SWAP4 SWAP1 SWAP4 OR SWAP1 SSTORE PUSH1 0x1 SWAP2 PUSH2 0x2D0 DUP3 DUP6 PUSH2 0x5B9 JUMP JUMPDEST MLOAD AND PUSH1 0x0 MSTORE PUSH1 0xC PUSH1 0x20 MSTORE DUP1 PUSH1 0x40 PUSH1 0x0 KECCAK256 SSTORE ADD PUSH2 0x1F2 JUMP JUMPDEST PUSH4 0x4E487B71 PUSH1 0xE0 SHL PUSH1 0x0 MSTORE PUSH1 0x0 PUSH1 0x4 MSTORE PUSH1 0x24 PUSH1 0x0 REVERT JUMPDEST PUSH4 0x4E487B71 PUSH1 0xE0 SHL PUSH1 0x0 MSTORE PUSH1 0x41 PUSH1 0x4 MSTORE PUSH1 0x24 PUSH1 0x0 REVERT JUMPDEST PUSH1 0x0 JUMPDEST PUSH1 0x3 SLOAD DUP2 LT ISZERO PUSH2 0x380 JUMPI PUSH1 0xFF PUSH2 0x32B DUP3 PUSH2 0x5E3 JUMP JUMPDEST POP SLOAD PUSH1 0xB0 SHR AND ISZERO PUSH2 0x33E JUMPI PUSH1 0x1 ADD PUSH2 0x316 JUMP JUMPDEST PUSH2 0x347 SWAP1 PUSH2 0x5E3 JUMP JUMPDEST POP SLOAD PUSH1 0xA DUP1 SLOAD PUSH3 0x10000 PUSH1 0x1 PUSH1 0xB0 SHL SUB NOT AND PUSH1 0x10 SWAP3 SWAP1 SWAP3 SHL PUSH3 0x10000 PUSH1 0x1 PUSH1 0xB0 SHL SUB AND SWAP2 SWAP1 SWAP2 OR SWAP1 SSTORE JUMPDEST PUSH1 0x40 MLOAD PUSH2 0x14B2 SWAP1 DUP2 PUSH2 0x5FF DUP3 CODECOPY RETURN JUMPDEST POP PUSH2 0x371 JUMP JUMPDEST PUSH4 0x4E487B71 PUSH1 0xE0 SHL PUSH1 0x0 MSTORE PUSH1 0x11 PUSH1 0x4 MSTORE PUSH1 0x24 PUSH1 0x0 REVERT JUMPDEST ADD MLOAD SWAP1 POP CODESIZE DUP1 PUSH2 0x1A9 JUMP JUMPDEST PUSH1 0x1 PUSH1 0x0 SWAP1 DUP2 MSTORE DUP3 DUP2 KECCAK256 SWAP4 POP PUSH1 0x1F NOT DUP6 AND SWAP1 JUMPDEST DUP2 DUP2 LT PUSH2 0x3F7 JUMPI POP SWAP1 DUP5 PUSH1 0x1 SWAP6 SWAP5 SWAP4 SWAP3 LT PUSH2 0x3DE JUMPI JUMPDEST POP POP POP DUP2 SHL ADD PUSH1 0x1 SSTORE PUSH2 0x1BF JUMP JUMPDEST ADD MLOAD PUSH1 0x0 NOT PUSH1 0xF8 DUP5 PUSH1 0x3 SHL AND SHR NOT AND SWAP1 SSTORE CODESIZE DUP1 DUP1 PUSH2 0x3D0 JUMP JUMPDEST SWAP3 SWAP4 PUSH1 0x20 PUSH1 0x1 DUP2 SWAP3 DUP8 DUP7 ADD MLOAD DUP2 SSTORE ADD SWAP6 ADD SWAP4 ADD PUSH2 0x3BA JUMP JUMPDEST PUSH1 0x1 PUSH1 0x0 MSTORE SWAP1 SWAP2 POP PUSH32 0xB10E2D527612073B26EECDFD717E6A320CF44B4AFAC2B0732D9FCBE2B7FA0CF6 PUSH1 0x1F DUP5 ADD PUSH1 0x5 SHR DUP2 ADD SWAP2 PUSH1 0x20 DUP6 LT PUSH2 0x475 JUMPI JUMPDEST SWAP1 PUSH1 0x1F DUP6 SWAP5 SWAP4 SWAP3 ADD PUSH1 0x5 SHR ADD SWAP1 JUMPDEST DUP2 DUP2 LT PUSH2 0x466 JUMPI POP PUSH2 0x192 JUMP JUMPDEST PUSH1 0x0 DUP2 SSTORE DUP5 SWAP4 POP PUSH1 0x1 ADD PUSH2 0x459 JUMP JUMPDEST SWAP1 SWAP2 POP DUP2 SWAP1 PUSH2 0x44B JUMP JUMPDEST PUSH4 0x4E487B71 PUSH1 0xE0 SHL PUSH1 0x0 MSTORE PUSH1 0x22 PUSH1 0x4 MSTORE PUSH1 0x24 PUSH1 0x0 REVERT JUMPDEST SWAP2 PUSH1 0x7F AND SWAP2 PUSH2 0x17E JUMP JUMPDEST PUSH1 0x40 MLOAD PUSH3 0x461BCD PUSH1 0xE5 SHL DUP2 MSTORE PUSH1 0x20 PUSH1 0x4 DUP3 ADD MSTORE PUSH1 0x31 PUSH1 0x24 DUP3 ADD MSTORE PUSH32 0x436F6C6C61746572616C2070657263656E746167652073686F756C6420626520 PUSH1 0x44 DUP3 ADD MSTORE PUSH17 0x6265747765656E203120616E642031303 PUSH1 0x7C SHL PUSH1 0x64 DUP3 ADD MSTORE PUSH1 0x84 SWAP1 REVERT JUMPDEST POP PUSH1 0x64 DUP9 GT ISZERO PUSH2 0x136 JUMP JUMPDEST PUSH1 0x40 MLOAD PUSH3 0x461BCD PUSH1 0xE5 SHL DUP2 MSTORE PUSH1 0x20 PUSH1 0x4 DUP3 ADD MSTORE PUSH1 0x1B PUSH1 0x24 DUP3 ADD MSTORE PUSH32 0x5061727469636970616E747320636F756E74206D69736D617463680000000000 PUSH1 0x44 DUP3 ADD MSTORE PUSH1 0x64 SWAP1 REVERT JUMPDEST PUSH1 0x20 DUP1 SWAP2 PUSH2 0x55B DUP5 PUSH2 0x5A5 JUMP JUMPDEST DUP2 MSTORE ADD SWAP2 ADD SWAP1 PUSH2 0x115 JUMP JUMPDEST PUSH1 0x0 DUP1 REVERT JUMPDEST DUP1 PUSH1 0x20 DUP1 SWAP3 DUP5 ADD ADD MLOAD DUP3 DUP3 DUP9 ADD ADD MSTORE ADD PUSH2 0x8D JUMP JUMPDEST PUSH1 0x40 MLOAD SWAP2 SWAP1 PUSH1 0x1F ADD PUSH1 0x1F NOT AND DUP3 ADD PUSH1 0x1 PUSH1 0x1 PUSH1 0x40 SHL SUB DUP2 GT DUP4 DUP3 LT OR PUSH2 0x2FD JUMPI PUSH1 0x40 MSTORE JUMP JUMPDEST MLOAD SWAP1 PUSH1 0x1 PUSH1 0x1 PUSH1 0xA0 SHL SUB DUP3 AND DUP3 SUB PUSH2 0x566 JUMPI JUMP JUMPDEST DUP1 MLOAD DUP3 LT ISZERO PUSH2 0x5CD JUMPI PUSH1 0x20 SWAP2 PUSH1 0x5 SHL ADD ADD SWAP1 JUMP JUMPDEST PUSH4 0x4E487B71 PUSH1 0xE0 SHL PUSH1 0x0 MSTORE PUSH1 0x32 PUSH1 0x4 MSTORE PUSH1 0x24 PUSH1 0x0 REVERT JUMPDEST PUSH1 0xB SLOAD DUP2 LT ISZERO PUSH2 0x5CD JUMPI PUSH1 0xB PUSH1 0x0 MSTORE PUSH1 0x20 PUSH1 0x0 KECCAK256 ADD SWAP1 PUSH1 0x0 SWAP1 JUMP INVALID PUSH1 0x80 PUSH1 0x40 MSTORE PUSH1 0x4 CALLDATASIZE LT ISZERO PUSH2 0x12 JUMPI PUSH1 0x0 DUP1 REVERT JUMPDEST PUSH1 0x0 DUP1 CALLDATALOAD PUSH1 0xE0 SHR DUP1 PUSH4 0x6FDDE03 EQ PUSH2 0xEBF JUMPI DUP1 PUSH4 0x70FECB5 EQ PUSH2 0xCFD JUMPI DUP1 PUSH4 0x83B9137 EQ PUSH2 0xCBC JUMPI DUP1 PUSH4 0x271751DA EQ PUSH2 0xC9E JUMPI DUP1 PUSH4 0x308352E8 EQ PUSH2 0xC80 JUMPI DUP1 PUSH4 0x35C1D349 EQ PUSH2 0xC1B JUMPI DUP1 PUSH4 0x399CD250 EQ PUSH2 0x192 JUMPI DUP1 PUSH4 0x44E0B8C1 EQ PUSH2 0xBD1 JUMPI DUP1 PUSH4 0x4A9829CD EQ PUSH2 0xBA0 JUMPI DUP1 PUSH4 0x4E71D92D EQ PUSH2 0x899 JUMPI DUP1 PUSH4 0x5428197C EQ PUSH2 0x6F3 JUMPI DUP1 PUSH4 0x5BEC4CB4 EQ PUSH2 0x6D5 JUMPI DUP1 PUSH4 0x5FA0B65F EQ PUSH2 0x6B7 JUMPI DUP1 PUSH4 0x61203265 EQ PUSH2 0x690 JUMPI DUP1 PUSH4 0x65D68E4E EQ PUSH2 0x5D5 JUMPI DUP1 PUSH4 0x78E97925 EQ PUSH2 0x5B7 JUMPI DUP1 PUSH4 0x929066F5 EQ PUSH2 0x57C JUMPI DUP1 PUSH4 0x92D09CEB EQ PUSH2 0x55E JUMPI DUP1 PUSH4 0xA1657681 EQ PUSH2 0x540 JUMPI DUP1 PUSH4 0xA26DBF26 EQ PUSH2 0x522 JUMPI DUP1 PUSH4 0xAF2D0A31 EQ PUSH2 0x503 JUMPI DUP1 PUSH4 0xBAB2F552 EQ PUSH2 0x4E5 JUMPI DUP1 PUSH4 0xBBB48445 EQ PUSH2 0x4BB JUMPI DUP1 PUSH4 0xCBC3CECB EQ PUSH2 0x345 JUMPI DUP1 PUSH4 0xD7BB99BA EQ PUSH2 0x1BF JUMPI DUP1 PUSH4 0xD94C7C27 EQ PUSH2 0x192 JUMPI DUP1 PUSH4 0xF54A36CC EQ PUSH2 0x16F JUMPI PUSH4 0xFD379A31 EQ PUSH2 0x151 JUMPI PUSH1 0x0 DUP1 REVERT JUMPDEST CALLVALUE PUSH2 0x16C JUMPI DUP1 PUSH1 0x3 NOT CALLDATASIZE ADD SLT PUSH2 0x16C JUMPI PUSH2 0x169 PUSH2 0x13E1 JUMP JUMPDEST DUP1 RETURN JUMPDEST DUP1 REVERT JUMPDEST POP CALLVALUE PUSH2 0x16C JUMPI DUP1 PUSH1 0x3 NOT CALLDATASIZE ADD SLT PUSH2 0x16C JUMPI PUSH1 0x20 PUSH1 0xFF PUSH1 0xA SLOAD AND PUSH1 0x40 MLOAD SWAP1 ISZERO ISZERO DUP2 MSTORE RETURN JUMPDEST POP CALLVALUE PUSH2 0x16C JUMPI DUP1 PUSH1 0x3 NOT CALLDATASIZE ADD SLT PUSH2 0x16C JUMPI PUSH1 0xA SLOAD PUSH1 0x40 MLOAD PUSH1 0x10 SWAP2 SWAP1 SWAP2 SHR PUSH1 0x1 PUSH1 0x1 PUSH1 0xA0 SHL SUB AND DUP2 MSTORE PUSH1 0x20 SWAP1 RETURN JUMPDEST POP DUP1 PUSH1 0x3 NOT CALLDATASIZE ADD SLT PUSH2 0x16C JUMPI PUSH2 0x1DC PUSH2 0x1D7 CALLER PUSH2 0x12EB JUMP JUMPDEST PUSH2 0x1081 JUMP JUMPDEST PUSH2 0x1EA PUSH1 0xFF PUSH1 0xA SLOAD AND PUSH2 0x1213 JUMP JUMPDEST PUSH1 0x4 SLOAD PUSH1 0x5 SLOAD LT PUSH2 0x309 JUMPI PUSH2 0x204 PUSH1 0x2 SLOAD PUSH1 0x3 SLOAD SWAP1 PUSH2 0x139A JUMP JUMPDEST CALLVALUE SUB PUSH2 0x2C4 JUMPI CALLER DUP2 MSTORE PUSH1 0xC PUSH1 0x20 MSTORE PUSH2 0x21F PUSH1 0x40 DUP3 KECCAK256 SLOAD PUSH2 0x1050 JUMP JUMPDEST POP DUP1 SLOAD PUSH1 0xFF DUP2 PUSH1 0xA0 SHR AND PUSH2 0x27F JUMPI PUSH1 0x1 PUSH1 0xA0 SHL SWAP1 PUSH1 0xFF PUSH1 0xA0 SHL NOT AND OR SWAP1 SSTORE PUSH32 0x4D26C2FE8F421A52E199F32EE4FC57172D01659BF57A1A39C4397B2BB07F539A PUSH1 0x80 PUSH1 0x4 SLOAD PUSH1 0x40 MLOAD SWAP1 ADDRESS DUP3 MSTORE CALLER PUSH1 0x20 DUP4 ADD MSTORE CALLVALUE PUSH1 0x40 DUP4 ADD MSTORE PUSH1 0x60 DUP3 ADD MSTORE LOG1 DUP1 RETURN JUMPDEST PUSH1 0x40 MLOAD PUSH3 0x461BCD PUSH1 0xE5 SHL DUP2 MSTORE PUSH1 0x20 PUSH1 0x4 DUP3 ADD MSTORE PUSH1 0x1E PUSH1 0x24 DUP3 ADD MSTORE PUSH32 0x416C726561647920636F6E74726962757465642074686973206379636C650000 PUSH1 0x44 DUP3 ADD MSTORE PUSH1 0x64 SWAP1 REVERT JUMPDEST PUSH1 0x40 MLOAD PUSH3 0x461BCD PUSH1 0xE5 SHL DUP2 MSTORE PUSH1 0x20 PUSH1 0x4 DUP3 ADD MSTORE PUSH1 0x1D PUSH1 0x24 DUP3 ADD MSTORE PUSH32 0x496E636F727265637420636F6E747269627574696F6E20616D6F756E74000000 PUSH1 0x44 DUP3 ADD MSTORE PUSH1 0x64 SWAP1 REVERT JUMPDEST PUSH1 0x40 MLOAD PUSH3 0x461BCD PUSH1 0xE5 SHL DUP2 MSTORE PUSH1 0x20 PUSH1 0x4 DUP3 ADD MSTORE PUSH1 0x14 PUSH1 0x24 DUP3 ADD MSTORE PUSH20 0x105B1B0818DE58DB195CC818DBDB5C1B195D1959 PUSH1 0x62 SHL PUSH1 0x44 DUP3 ADD MSTORE PUSH1 0x64 SWAP1 REVERT JUMPDEST POP CALLVALUE PUSH2 0x16C JUMPI DUP1 PUSH1 0x3 NOT CALLDATASIZE ADD SLT PUSH2 0x16C JUMPI DUP1 PUSH2 0x362 PUSH1 0x4 SLOAD PUSH2 0x132E JUMP JUMPDEST PUSH1 0x3 SLOAD SWAP2 SWAP1 DUP4 JUMPDEST DUP4 DUP2 LT PUSH2 0x479 JUMPI POP PUSH2 0x393 PUSH2 0x37D DUP4 PUSH2 0x13C9 JUMP JUMPDEST SWAP3 PUSH2 0x38B PUSH1 0x40 MLOAD SWAP5 DUP6 PUSH2 0xEF3 JUMP JUMPDEST DUP1 DUP5 MSTORE PUSH2 0x13C9 JUMP JUMPDEST PUSH1 0x20 DUP4 ADD SWAP4 SWAP1 PUSH1 0x1F NOT ADD CALLDATASIZE DUP6 CALLDATACOPY DUP5 SWAP2 DUP6 JUMPDEST DUP3 DUP2 LT PUSH2 0x3F8 JUMPI DUP7 DUP6 DUP8 PUSH1 0x40 MLOAD SWAP3 DUP4 SWAP3 PUSH1 0x20 DUP5 ADD SWAP1 PUSH1 0x20 DUP6 MSTORE MLOAD DUP1 SWAP2 MSTORE PUSH1 0x40 DUP5 ADD SWAP3 SWAP2 JUMPDEST DUP2 DUP2 LT PUSH2 0x3D6 JUMPI POP POP POP SUB SWAP1 RETURN JUMPDEST DUP3 MLOAD PUSH1 0x1 PUSH1 0x1 PUSH1 0xA0 SHL SUB AND DUP5 MSTORE DUP6 SWAP5 POP PUSH1 0x20 SWAP4 DUP5 ADD SWAP4 SWAP1 SWAP3 ADD SWAP2 PUSH1 0x1 ADD PUSH2 0x3C8 JUMP JUMPDEST PUSH1 0xFF PUSH2 0x403 DUP3 PUSH2 0x1050 JUMP JUMPDEST POP SLOAD PUSH1 0xA0 SHR AND ISZERO DUP1 PUSH2 0x470 JUMPI JUMPDEST PUSH2 0x41D JUMPI JUMPDEST PUSH1 0x1 ADD PUSH2 0x3A4 JUMP JUMPDEST SWAP3 PUSH2 0x427 DUP5 PUSH2 0x1050 JUMP JUMPDEST POP SLOAD DUP6 MLOAD PUSH1 0x1 PUSH1 0x1 PUSH1 0xA0 SHL SUB SWAP1 SWAP2 AND SWAP1 DUP3 LT ISZERO PUSH2 0x45C JUMPI DUP2 PUSH2 0x454 SWAP2 PUSH1 0x20 PUSH1 0x1 SWAP5 PUSH1 0x5 SHL DUP10 ADD ADD MSTORE PUSH2 0x13BA JUMP JUMPDEST SWAP4 SWAP1 POP PUSH2 0x415 JUMP JUMPDEST PUSH4 0x4E487B71 PUSH1 0xE0 SHL DUP9 MSTORE PUSH1 0x32 PUSH1 0x4 MSTORE PUSH1 0x24 DUP9 REVERT JUMPDEST POP DUP2 TIMESTAMP GT PUSH2 0x410 JUMP JUMPDEST PUSH1 0xFF PUSH2 0x484 DUP3 PUSH2 0x1050 JUMP JUMPDEST POP SLOAD PUSH1 0xA0 SHR AND ISZERO DUP1 PUSH2 0x4B2 JUMPI JUMPDEST PUSH2 0x49E JUMPI JUMPDEST PUSH1 0x1 ADD PUSH2 0x369 JUMP JUMPDEST SWAP2 PUSH2 0x4AA PUSH1 0x1 SWAP2 PUSH2 0x13BA JUMP JUMPDEST SWAP3 SWAP1 POP PUSH2 0x496 JUMP JUMPDEST POP DUP2 TIMESTAMP GT PUSH2 0x491 JUMP JUMPDEST POP CALLVALUE PUSH2 0x16C JUMPI DUP1 PUSH1 0x3 NOT CALLDATASIZE ADD SLT PUSH2 0x16C JUMPI PUSH1 0x20 PUSH2 0x4DD PUSH1 0x2 SLOAD PUSH1 0x3 SLOAD SWAP1 PUSH2 0x139A JUMP JUMPDEST PUSH1 0x40 MLOAD SWAP1 DUP2 MSTORE RETURN JUMPDEST POP CALLVALUE PUSH2 0x16C JUMPI DUP1 PUSH1 0x3 NOT CALLDATASIZE ADD SLT PUSH2 0x16C JUMPI PUSH1 0x20 PUSH1 0x4 SLOAD PUSH1 0x40 MLOAD SWAP1 DUP2 MSTORE RETURN JUMPDEST POP CALLVALUE PUSH2 0x16C JUMPI PUSH1 0x20 CALLDATASIZE PUSH1 0x3 NOT ADD SLT PUSH2 0x16C JUMPI PUSH1 0x20 PUSH2 0x4DD PUSH1 0x4 CALLDATALOAD PUSH2 0x132E JUMP JUMPDEST POP CALLVALUE PUSH2 0x16C JUMPI DUP1 PUSH1 0x3 NOT CALLDATASIZE ADD SLT PUSH2 0x16C JUMPI PUSH1 0x20 PUSH1 0x3 SLOAD PUSH1 0x40 MLOAD SWAP1 DUP2 MSTORE RETURN JUMPDEST POP CALLVALUE PUSH2 0x16C JUMPI DUP1 PUSH1 0x3 NOT CALLDATASIZE ADD SLT PUSH2 0x16C JUMPI PUSH1 0x20 PUSH1 0x5 SLOAD PUSH1 0x40 MLOAD SWAP1 DUP2 MSTORE RETURN JUMPDEST POP CALLVALUE PUSH2 0x16C JUMPI DUP1 PUSH1 0x3 NOT CALLDATASIZE ADD SLT PUSH2 0x16C JUMPI PUSH1 0x20 PUSH1 0x9 SLOAD PUSH1 0x40 MLOAD SWAP1 DUP2 MSTORE RETURN JUMPDEST POP CALLVALUE PUSH2 0x16C JUMPI PUSH1 0x20 CALLDATASIZE PUSH1 0x3 NOT ADD SLT PUSH2 0x16C JUMPI PUSH1 0x4 CALLDATALOAD SWAP1 PUSH1 0x1 PUSH1 0x1 PUSH1 0xA0 SHL SUB DUP3 AND DUP3 SUB PUSH2 0x16C JUMPI PUSH1 0x20 PUSH2 0x5AD DUP4 PUSH2 0x12EB JUMP JUMPDEST PUSH1 0x40 MLOAD SWAP1 ISZERO ISZERO DUP2 MSTORE RETURN JUMPDEST POP CALLVALUE PUSH2 0x16C JUMPI DUP1 PUSH1 0x3 NOT CALLDATASIZE ADD SLT PUSH2 0x16C JUMPI PUSH1 0x20 PUSH1 0x7 SLOAD PUSH1 0x40 MLOAD SWAP1 DUP2 MSTORE RETURN JUMPDEST POP CALLVALUE PUSH2 0x16C JUMPI DUP1 PUSH1 0x3 NOT CALLDATASIZE ADD SLT PUSH2 0x16C JUMPI PUSH1 0x20 PUSH2 0x1A0 SWAP2 PUSH1 0x1 DUP1 PUSH1 0xA0 SHL SUB SWAP1 SLOAD AND PUSH1 0x2 SLOAD PUSH1 0x3 SLOAD SWAP1 PUSH1 0x4 SLOAD SWAP2 PUSH1 0x5 SLOAD SWAP3 PUSH1 0xA SLOAD SWAP4 PUSH1 0xD SLOAD SWAP1 PUSH1 0x6 SLOAD SWAP3 PUSH1 0x7 SLOAD SWAP5 PUSH1 0x9 SLOAD SWAP7 PUSH2 0x63B PUSH2 0x624 PUSH2 0xF2B JUMP JUMPDEST PUSH1 0x40 MLOAD SWAP14 DUP15 SWAP14 DUP15 ADDRESS DUP2 MSTORE ADD MSTORE PUSH2 0x1A0 DUP14 ADD SWAP1 PUSH2 0x100F JUMP JUMPDEST PUSH1 0x40 DUP13 ADD SWAP11 SWAP1 SWAP11 MSTORE PUSH1 0x60 DUP12 ADD MSTORE PUSH1 0x80 DUP11 ADD MSTORE PUSH1 0xA0 DUP10 ADD MSTORE PUSH1 0xC0 DUP9 ADD MSTORE PUSH1 0xFF DUP6 AND ISZERO ISZERO PUSH1 0xE0 DUP9 ADD MSTORE PUSH2 0x100 DUP8 ADD MSTORE PUSH2 0x120 DUP7 ADD MSTORE PUSH2 0x140 DUP6 ADD MSTORE PUSH2 0x160 DUP5 ADD MSTORE PUSH1 0x10 SHR PUSH1 0x1 PUSH1 0x1 PUSH1 0xA0 SHL SUB AND PUSH2 0x180 DUP4 ADD MSTORE SUB SWAP1 RETURN JUMPDEST POP CALLVALUE PUSH2 0x16C JUMPI DUP1 PUSH1 0x3 NOT CALLDATASIZE ADD SLT PUSH2 0x16C JUMPI SLOAD PUSH1 0x40 MLOAD PUSH1 0x1 PUSH1 0x1 PUSH1 0xA0 SHL SUB SWAP1 SWAP2 AND DUP2 MSTORE PUSH1 0x20 SWAP1 RETURN JUMPDEST POP CALLVALUE PUSH2 0x16C JUMPI DUP1 PUSH1 0x3 NOT CALLDATASIZE ADD SLT PUSH2 0x16C JUMPI PUSH1 0x20 PUSH1 0x2 SLOAD PUSH1 0x40 MLOAD SWAP1 DUP2 MSTORE RETURN JUMPDEST POP CALLVALUE PUSH2 0x16C JUMPI DUP1 PUSH1 0x3 NOT CALLDATASIZE ADD SLT PUSH2 0x16C JUMPI PUSH1 0x20 PUSH1 0x6 SLOAD PUSH1 0x40 MLOAD SWAP1 DUP2 MSTORE RETURN JUMPDEST POP CALLVALUE PUSH2 0x16C JUMPI DUP1 PUSH1 0x3 NOT CALLDATASIZE ADD SLT PUSH2 0x16C JUMPI PUSH2 0x100 PUSH1 0xA SLOAD PUSH2 0x71A PUSH1 0xFF DUP3 PUSH1 0x8 SHR AND ISZERO PUSH2 0x125F JUMP JUMPDEST PUSH2 0xFF00 NOT AND OR PUSH1 0xA SSTORE PUSH1 0x4 SLOAD PUSH1 0x5 SLOAD SUB PUSH2 0x85B JUMPI PUSH1 0xD SLOAD ISZERO PUSH2 0x816 JUMPI DUP1 JUMPDEST PUSH1 0x3 SLOAD DUP2 LT ISZERO PUSH2 0x805 JUMPI PUSH2 0x74B DUP2 PUSH2 0x1050 JUMP JUMPDEST POP DUP1 SLOAD PUSH1 0xFF DUP2 PUSH1 0xA8 SHR AND PUSH2 0x764 JUMPI JUMPDEST POP POP PUSH1 0x1 ADD PUSH2 0x738 JUMP JUMPDEST PUSH1 0xFF PUSH1 0xA8 SHL NOT AND DUP2 SSTORE PUSH1 0x9 SLOAD PUSH1 0xD SLOAD SWAP1 SWAP2 SWAP1 DUP3 DUP2 SUB SWAP1 DUP2 GT PUSH2 0x7F1 JUMPI PUSH1 0xD SSTORE SLOAD DUP4 SWAP2 DUP3 SWAP2 DUP3 SWAP2 DUP3 SWAP2 PUSH1 0x1 PUSH1 0x1 PUSH1 0xA0 SHL SUB AND GAS CALL PUSH2 0x79F PUSH2 0x12AB JUMP JUMPDEST POP ISZERO PUSH2 0x7AC JUMPI CODESIZE DUP1 PUSH2 0x75A JUMP JUMPDEST PUSH1 0x40 MLOAD PUSH3 0x461BCD PUSH1 0xE5 SHL DUP2 MSTORE PUSH1 0x20 PUSH1 0x4 DUP3 ADD MSTORE PUSH1 0x18 PUSH1 0x24 DUP3 ADD MSTORE PUSH32 0x436F6C6C61746572616C2072657475726E206661696C65640000000000000000 PUSH1 0x44 DUP3 ADD MSTORE PUSH1 0x64 SWAP1 REVERT JUMPDEST PUSH4 0x4E487B71 PUSH1 0xE0 SHL DUP6 MSTORE PUSH1 0x11 PUSH1 0x4 MSTORE PUSH1 0x24 DUP6 REVERT JUMPDEST POP PUSH1 0xD SSTORE PUSH1 0xA DUP1 SLOAD PUSH2 0xFF00 NOT AND SWAP1 SSTORE STOP JUMPDEST PUSH1 0x40 MLOAD PUSH3 0x461BCD PUSH1 0xE5 SHL DUP2 MSTORE PUSH1 0x20 PUSH1 0x4 DUP3 ADD MSTORE PUSH1 0x1B PUSH1 0x24 DUP3 ADD MSTORE PUSH32 0x436F6C6C61746572616C20616C72656164792072657475726E65640000000000 PUSH1 0x44 DUP3 ADD MSTORE PUSH1 0x64 SWAP1 REVERT JUMPDEST PUSH1 0x40 MLOAD PUSH3 0x461BCD PUSH1 0xE5 SHL DUP2 MSTORE PUSH1 0x20 PUSH1 0x4 DUP3 ADD MSTORE PUSH1 0x16 PUSH1 0x24 DUP3 ADD MSTORE PUSH22 0x119D5B99081B9BDD0818DBDB5C1B195D1959081E595D PUSH1 0x52 SHL PUSH1 0x44 DUP3 ADD MSTORE PUSH1 0x64 SWAP1 REVERT JUMPDEST POP CALLVALUE PUSH2 0x16C JUMPI DUP1 PUSH1 0x3 NOT CALLDATASIZE ADD SLT PUSH2 0x16C JUMPI PUSH1 0xA SLOAD CALLER PUSH1 0x10 DUP3 SWAP1 SHR PUSH1 0x1 PUSH1 0x1 PUSH1 0xA0 SHL SUB AND SUB PUSH2 0xB43 JUMPI PUSH2 0x8CD PUSH1 0xFF DUP3 AND PUSH2 0x1213 JUMP JUMPDEST PUSH2 0x8D5 PUSH2 0x1443 JUMP JUMPDEST ISZERO PUSH2 0xAFE JUMPI DUP1 PUSH2 0x8EE PUSH1 0xFF PUSH2 0x100 SWAP4 PUSH1 0x8 SHR AND ISZERO PUSH2 0x125F JUMP JUMPDEST PUSH2 0xFF00 NOT AND OR DUP1 PUSH1 0xA SSTORE PUSH2 0x900 PUSH2 0x1443 JUMP JUMPDEST ISZERO PUSH2 0xAAE JUMPI PUSH1 0x2 SLOAD PUSH1 0x10 SWAP2 SWAP1 SWAP2 SHR PUSH1 0x1 PUSH1 0x1 PUSH1 0xA0 SHL SUB AND SWAP1 DUP3 DUP1 DUP1 DUP1 DUP5 DUP7 GAS CALL PUSH2 0x928 PUSH2 0x12AB JUMP JUMPDEST POP ISZERO PUSH2 0xA72 JUMPI DUP2 PUSH1 0x80 SWAP2 PUSH32 0x6F93C0EEC5A091F9FAAA7530ED0BF04BA99E92D2D08C7D1B7642AC295B125795 SWAP4 DUP6 MSTORE PUSH1 0xC PUSH1 0x20 MSTORE PUSH2 0x968 PUSH1 0x40 DUP7 KECCAK256 SLOAD PUSH2 0x1050 JUMP JUMPDEST POP DUP1 SLOAD PUSH1 0xFF PUSH1 0xB0 SHL NOT AND PUSH1 0x1 PUSH1 0xB0 SHL OR SWAP1 SSTORE PUSH1 0x4 SLOAD PUSH1 0x40 DUP1 MLOAD ADDRESS DUP2 MSTORE PUSH1 0x20 DUP2 ADD SWAP5 SWAP1 SWAP5 MSTORE DUP4 ADD SWAP2 SWAP1 SWAP2 MSTORE PUSH1 0x60 DUP3 ADD MSTORE LOG1 DUP1 JUMPDEST PUSH1 0x3 SLOAD DUP2 LT ISZERO PUSH2 0x9C2 JUMPI DUP1 PUSH2 0x9B0 PUSH1 0x1 SWAP3 PUSH2 0x1050 JUMP JUMPDEST POP DUP1 SLOAD PUSH1 0xFF PUSH1 0xA0 SHL NOT AND SWAP1 SSTORE ADD PUSH2 0x99A JUMP JUMPDEST POP PUSH2 0x9CE PUSH1 0x4 SLOAD PUSH2 0x13BA JUMP JUMPDEST DUP1 PUSH1 0x4 SSTORE PUSH1 0x0 NOT DUP2 ADD SWAP1 DUP2 GT PUSH2 0xA5E JUMPI PUSH1 0x40 PUSH32 0x7A22242C42D1E94F110CB053B2CF343580C736816A22AC54EC7DD833BF0DBE63 SWAP2 DUP2 MLOAD SWAP1 ADDRESS DUP3 MSTORE PUSH1 0x20 DUP3 ADD MSTORE LOG1 PUSH1 0xA DUP1 SLOAD PUSH2 0xFF00 NOT AND SWAP1 SSTORE PUSH1 0x4 SLOAD PUSH1 0x40 DUP1 MLOAD ADDRESS DUP2 MSTORE CALLER PUSH1 0x20 DUP3 ADD MSTORE SWAP1 DUP2 ADD SWAP2 SWAP1 SWAP2 MSTORE PUSH32 0x8B5640BC6A70F4CEDABAF515FA266B322BF861AA1FDA7AC4AE261193EAA6CFA7 SWAP1 PUSH1 0x60 SWAP1 LOG1 PUSH2 0x169 PUSH2 0x13E1 JUMP JUMPDEST PUSH4 0x4E487B71 PUSH1 0xE0 SHL DUP3 MSTORE PUSH1 0x11 PUSH1 0x4 MSTORE PUSH1 0x24 DUP3 REVERT JUMPDEST PUSH1 0x40 MLOAD PUSH3 0x461BCD PUSH1 0xE5 SHL DUP2 MSTORE PUSH1 0x20 PUSH1 0x4 DUP3 ADD MSTORE PUSH1 0x14 PUSH1 0x24 DUP3 ADD MSTORE PUSH20 0x119D5B99081D1C985B9CD9995C8819985A5B1959 PUSH1 0x62 SHL PUSH1 0x44 DUP3 ADD MSTORE PUSH1 0x64 SWAP1 REVERT JUMPDEST PUSH1 0x40 MLOAD PUSH3 0x461BCD PUSH1 0xE5 SHL DUP2 MSTORE PUSH1 0x20 PUSH1 0x4 DUP3 ADD MSTORE PUSH1 0x22 PUSH1 0x24 DUP3 ADD MSTORE PUSH32 0x416C6C20636F6E747269627574696F6E73206E6F742072656365697665642079 PUSH1 0x44 DUP3 ADD MSTORE PUSH2 0x195D PUSH1 0xF2 SHL PUSH1 0x64 DUP3 ADD MSTORE PUSH1 0x84 SWAP1 REVERT JUMPDEST PUSH1 0x40 MLOAD PUSH3 0x461BCD PUSH1 0xE5 SHL DUP2 MSTORE PUSH1 0x20 PUSH1 0x4 DUP3 ADD MSTORE PUSH1 0x1E PUSH1 0x24 DUP3 ADD MSTORE PUSH32 0x4E6F7420616C6C20636F6E747269627574696F6E732072656365697665640000 PUSH1 0x44 DUP3 ADD MSTORE PUSH1 0x64 SWAP1 REVERT JUMPDEST PUSH1 0x40 MLOAD PUSH3 0x461BCD PUSH1 0xE5 SHL DUP2 MSTORE PUSH1 0x20 PUSH1 0x4 DUP3 ADD MSTORE PUSH1 0x2F PUSH1 0x24 DUP3 ADD MSTORE PUSH32 0x4F6E6C792074686520656C696769626C6520726563697069656E742063616E20 PUSH1 0x44 DUP3 ADD MSTORE PUSH15 0x636C61696D207468652066756E6473 PUSH1 0x88 SHL PUSH1 0x64 DUP3 ADD MSTORE PUSH1 0x84 SWAP1 REVERT JUMPDEST POP CALLVALUE PUSH2 0x16C JUMPI PUSH1 0x20 CALLDATASIZE PUSH1 0x3 NOT ADD SLT PUSH2 0x16C JUMPI PUSH1 0x4 CALLDATALOAD SWAP1 PUSH1 0x1 PUSH1 0x1 PUSH1 0xA0 SHL SUB DUP3 AND DUP3 SUB PUSH2 0x16C JUMPI PUSH1 0x20 PUSH2 0x5AD DUP4 PUSH2 0x116A JUMP JUMPDEST POP CALLVALUE PUSH2 0x16C JUMPI PUSH1 0x20 CALLDATASIZE PUSH1 0x3 NOT ADD SLT PUSH2 0x16C JUMPI PUSH1 0x4 CALLDATALOAD SWAP1 PUSH1 0x1 PUSH1 0x1 PUSH1 0xA0 SHL SUB DUP3 AND DUP3 SUB PUSH2 0x16C JUMPI PUSH1 0x60 PUSH2 0xC02 DUP4 PUSH2 0x1115 JUMP JUMPDEST SWAP1 PUSH1 0x40 MLOAD SWAP3 ISZERO ISZERO DUP4 MSTORE ISZERO ISZERO PUSH1 0x20 DUP4 ADD MSTORE ISZERO ISZERO PUSH1 0x40 DUP3 ADD MSTORE RETURN JUMPDEST POP CALLVALUE PUSH2 0x16C JUMPI PUSH1 0x20 CALLDATASIZE PUSH1 0x3 NOT ADD SLT PUSH2 0x16C JUMPI PUSH1 0x4 CALLDATALOAD SWAP1 PUSH1 0xB SLOAD DUP3 LT ISZERO PUSH2 0x16C JUMPI PUSH1 0x80 PUSH2 0xC46 DUP4 PUSH2 0x1050 JUMP JUMPDEST POP SLOAD PUSH1 0xFF PUSH1 0x40 MLOAD SWAP2 PUSH1 0x1 DUP1 PUSH1 0xA0 SHL SUB DUP2 AND DUP4 MSTORE DUP2 DUP2 PUSH1 0xA0 SHR AND ISZERO ISZERO PUSH1 0x20 DUP5 ADD MSTORE DUP2 DUP2 PUSH1 0xA8 SHR AND ISZERO ISZERO PUSH1 0x40 DUP5 ADD MSTORE PUSH1 0xB0 SHR AND ISZERO ISZERO PUSH1 0x60 DUP3 ADD MSTORE RETURN JUMPDEST POP CALLVALUE PUSH2 0x16C JUMPI DUP1 PUSH1 0x3 NOT CALLDATASIZE ADD SLT PUSH2 0x16C JUMPI PUSH1 0x20 PUSH1 0x8 SLOAD PUSH1 0x40 MLOAD SWAP1 DUP2 MSTORE RETURN JUMPDEST POP CALLVALUE PUSH2 0x16C JUMPI DUP1 PUSH1 0x3 NOT CALLDATASIZE ADD SLT PUSH2 0x16C JUMPI PUSH1 0x20 PUSH1 0xD SLOAD PUSH1 0x40 MLOAD SWAP1 DUP2 MSTORE RETURN JUMPDEST POP CALLVALUE PUSH2 0x16C JUMPI PUSH1 0x20 CALLDATASIZE PUSH1 0x3 NOT ADD SLT PUSH2 0x16C JUMPI PUSH1 0x4 CALLDATALOAD PUSH1 0x1 PUSH1 0x1 PUSH1 0xA0 SHL SUB DUP2 AND SWAP1 DUP2 SWAP1 SUB PUSH2 0xCF9 JUMPI DUP2 PUSH1 0x40 SWAP2 PUSH1 0x20 SWAP4 MSTORE PUSH1 0xC DUP4 MSTORE KECCAK256 SLOAD PUSH1 0x40 MLOAD SWAP1 DUP2 MSTORE RETURN JUMPDEST POP DUP1 REVERT JUMPDEST POP DUP1 PUSH1 0x3 NOT CALLDATASIZE ADD SLT PUSH2 0x16C JUMPI PUSH2 0xD15 PUSH2 0x1D7 CALLER PUSH2 0x12EB JUMP JUMPDEST PUSH1 0xFF PUSH1 0xA SLOAD AND PUSH2 0xE83 JUMPI PUSH1 0x9 SLOAD CALLVALUE SUB PUSH2 0xE3E JUMPI CALLER DUP2 MSTORE PUSH1 0xC PUSH1 0x20 MSTORE PUSH2 0xD3D PUSH1 0x40 DUP3 KECCAK256 SLOAD PUSH2 0x1050 JUMP JUMPDEST POP DUP1 SLOAD PUSH1 0xFF DUP2 PUSH1 0xA8 SHR AND PUSH2 0xDF9 JUMPI PUSH1 0xFF PUSH1 0xA8 SHL NOT AND PUSH1 0x1 PUSH1 0xA8 SHL OR SWAP1 SSTORE PUSH1 0xD SLOAD PUSH2 0xD68 SWAP1 CALLVALUE SWAP1 PUSH2 0x10DF JUMP JUMPDEST PUSH1 0xD DUP2 SWAP1 SSTORE PUSH1 0x40 DUP1 MLOAD ADDRESS DUP2 MSTORE CALLER PUSH1 0x20 DUP3 ADD MSTORE CALLVALUE SWAP2 DUP2 ADD SWAP2 SWAP1 SWAP2 MSTORE PUSH32 0xB43984808665DF1DB24188755E128600F9328714BF9E898378AAA7D273043934 SWAP1 PUSH1 0x60 SWAP1 LOG1 PUSH2 0xDB7 PUSH1 0x9 SLOAD PUSH1 0x3 SLOAD SWAP1 PUSH2 0x1102 JUMP JUMPDEST EQ PUSH2 0xDBF JUMPI DUP1 RETURN JUMPDEST PUSH1 0x1 PUSH1 0xFF NOT PUSH1 0xA SLOAD AND OR PUSH1 0xA SSTORE PUSH32 0xDC33CF22F590C5AB4976C2CE3291383F046AAC79B0C484500298D3D62F3118CA PUSH1 0x20 PUSH1 0x40 MLOAD ADDRESS DUP2 MSTORE LOG1 DUP1 RETURN JUMPDEST PUSH1 0x40 MLOAD PUSH3 0x461BCD PUSH1 0xE5 SHL DUP2 MSTORE PUSH1 0x20 PUSH1 0x4 DUP3 ADD MSTORE PUSH1 0x19 PUSH1 0x24 DUP3 ADD MSTORE PUSH32 0x416C7265616479207374616B656420636F6C6C61746572616C00000000000000 PUSH1 0x44 DUP3 ADD MSTORE PUSH1 0x64 SWAP1 REVERT JUMPDEST PUSH1 0x40 MLOAD PUSH3 0x461BCD PUSH1 0xE5 SHL DUP2 MSTORE PUSH1 0x20 PUSH1 0x4 DUP3 ADD MSTORE PUSH1 0x1B PUSH1 0x24 DUP3 ADD MSTORE PUSH32 0x496E636F727265637420636F6C6C61746572616C20616D6F756E740000000000 PUSH1 0x44 DUP3 ADD MSTORE PUSH1 0x64 SWAP1 REVERT JUMPDEST PUSH1 0x40 MLOAD PUSH3 0x461BCD PUSH1 0xE5 SHL DUP2 MSTORE PUSH1 0x20 PUSH1 0x4 DUP3 ADD MSTORE PUSH1 0x14 PUSH1 0x24 DUP3 ADD MSTORE PUSH20 0x119D5B9908185B1C9958591E481CDD185C9D1959 PUSH1 0x62 SHL PUSH1 0x44 DUP3 ADD MSTORE PUSH1 0x64 SWAP1 REVERT JUMPDEST POP CALLVALUE PUSH2 0x16C JUMPI DUP1 PUSH1 0x3 NOT CALLDATASIZE ADD SLT PUSH2 0x16C JUMPI PUSH2 0xEEF PUSH2 0xEDB PUSH2 0xF2B JUMP JUMPDEST PUSH1 0x40 MLOAD SWAP2 DUP3 SWAP2 PUSH1 0x20 DUP4 MSTORE PUSH1 0x20 DUP4 ADD SWAP1 PUSH2 0x100F JUMP JUMPDEST SUB SWAP1 RETURN JUMPDEST SWAP1 PUSH1 0x1F DUP1 NOT SWAP2 ADD AND DUP2 ADD SWAP1 DUP2 LT PUSH8 0xFFFFFFFFFFFFFFFF DUP3 GT OR PUSH2 0xF15 JUMPI PUSH1 0x40 MSTORE JUMP JUMPDEST PUSH4 0x4E487B71 PUSH1 0xE0 SHL PUSH1 0x0 MSTORE PUSH1 0x41 PUSH1 0x4 MSTORE PUSH1 0x24 PUSH1 0x0 REVERT JUMPDEST PUSH1 0x40 MLOAD SWAP1 PUSH1 0x0 PUSH1 0x1 SLOAD SWAP1 DUP2 PUSH1 0x1 SHR SWAP2 PUSH1 0x1 DUP2 AND DUP1 ISZERO PUSH2 0x1005 JUMPI JUMPDEST PUSH1 0x20 DUP5 LT DUP2 EQ PUSH2 0xFF1 JUMPI DUP4 DUP7 MSTORE DUP6 SWAP3 SWAP2 DUP2 ISZERO PUSH2 0xFD2 JUMPI POP PUSH1 0x1 EQ PUSH2 0xF72 JUMPI JUMPDEST PUSH2 0xF70 SWAP3 POP SUB DUP4 PUSH2 0xEF3 JUMP JUMPDEST JUMP JUMPDEST POP PUSH1 0x1 PUSH1 0x0 SWAP1 DUP2 MSTORE SWAP1 SWAP2 PUSH32 0xB10E2D527612073B26EECDFD717E6A320CF44B4AFAC2B0732D9FCBE2B7FA0CF6 JUMPDEST DUP2 DUP4 LT PUSH2 0xFB6 JUMPI POP POP SWAP1 PUSH1 0x20 PUSH2 0xF70 SWAP3 DUP3 ADD ADD PUSH2 0xF64 JUMP JUMPDEST PUSH1 0x20 SWAP2 SWAP4 POP DUP1 PUSH1 0x1 SWAP2 SLOAD DUP4 DUP6 DUP10 ADD ADD MSTORE ADD SWAP2 ADD SWAP1 SWAP2 DUP5 SWAP3 PUSH2 0xF9E JUMP JUMPDEST PUSH1 0x20 SWAP3 POP PUSH2 0xF70 SWAP5 SWAP2 POP PUSH1 0xFF NOT AND DUP3 DUP5 ADD MSTORE ISZERO ISZERO PUSH1 0x5 SHL DUP3 ADD ADD PUSH2 0xF64 JUMP JUMPDEST PUSH4 0x4E487B71 PUSH1 0xE0 SHL DUP4 MSTORE PUSH1 0x22 PUSH1 0x4 MSTORE PUSH1 0x24 DUP4 REVERT JUMPDEST SWAP3 PUSH1 0x7F AND SWAP3 PUSH2 0xF45 JUMP JUMPDEST SWAP2 SWAP1 DUP3 MLOAD SWAP3 DUP4 DUP3 MSTORE PUSH1 0x0 JUMPDEST DUP5 DUP2 LT PUSH2 0x103B JUMPI POP POP DUP3 PUSH1 0x0 PUSH1 0x20 DUP1 SWAP5 SWAP6 DUP5 ADD ADD MSTORE PUSH1 0x1F DUP1 NOT SWAP2 ADD AND ADD ADD SWAP1 JUMP JUMPDEST DUP1 PUSH1 0x20 DUP1 SWAP3 DUP5 ADD ADD MLOAD DUP3 DUP3 DUP7 ADD ADD MSTORE ADD PUSH2 0x101A JUMP JUMPDEST PUSH1 0xB SLOAD DUP2 LT ISZERO PUSH2 0x106B JUMPI PUSH1 0xB PUSH1 0x0 MSTORE PUSH1 0x20 PUSH1 0x0 KECCAK256 ADD SWAP1 PUSH1 0x0 SWAP1 JUMP JUMPDEST PUSH4 0x4E487B71 PUSH1 0xE0 SHL PUSH1 0x0 MSTORE PUSH1 0x32 PUSH1 0x4 MSTORE PUSH1 0x24 PUSH1 0x0 REVERT JUMPDEST ISZERO PUSH2 0x1088 JUMPI JUMP JUMPDEST PUSH1 0x40 MLOAD PUSH3 0x461BCD PUSH1 0xE5 SHL DUP2 MSTORE PUSH1 0x20 PUSH1 0x4 DUP3 ADD MSTORE PUSH1 0x29 PUSH1 0x24 DUP3 ADD MSTORE PUSH32 0x4F6E6C79207061727469636970616E74732063616E20706572666F726D207468 PUSH1 0x44 DUP3 ADD MSTORE PUSH9 0x34B99030B1BA34B7B7 PUSH1 0xB9 SHL PUSH1 0x64 DUP3 ADD MSTORE PUSH1 0x84 SWAP1 REVERT JUMPDEST SWAP2 SWAP1 DUP3 ADD DUP1 SWAP3 GT PUSH2 0x10EC JUMPI JUMP JUMPDEST PUSH4 0x4E487B71 PUSH1 0xE0 SHL PUSH1 0x0 MSTORE PUSH1 0x11 PUSH1 0x4 MSTORE PUSH1 0x24 PUSH1 0x0 REVERT JUMPDEST DUP2 DUP2 MUL SWAP3 SWAP2 DUP2 ISZERO SWAP2 DUP5 DIV EQ OR ISZERO PUSH2 0x10EC JUMPI JUMP JUMPDEST PUSH2 0x111E DUP2 PUSH2 0x12EB JUMP JUMPDEST ISZERO PUSH2 0x115E JUMPI PUSH1 0x1 PUSH1 0x1 PUSH1 0xA0 SHL SUB AND PUSH1 0x0 SWAP1 DUP2 MSTORE PUSH1 0xC PUSH1 0x20 MSTORE PUSH1 0x40 SWAP1 KECCAK256 SLOAD PUSH2 0x1144 SWAP1 PUSH2 0x1050 JUMP JUMPDEST POP SLOAD PUSH1 0xFF DUP2 PUSH1 0xA8 SHR AND SWAP2 PUSH1 0xFF DUP1 DUP4 PUSH1 0xA0 SHR AND SWAP3 PUSH1 0xB0 SHR AND SWAP1 JUMP JUMPDEST POP PUSH1 0x0 SWAP1 PUSH1 0x0 SWAP1 PUSH1 0x0 SWAP1 JUMP JUMPDEST PUSH2 0x1173 DUP2 PUSH2 0x12EB JUMP JUMPDEST ISZERO PUSH2 0x11CE JUMPI PUSH1 0x1 PUSH1 0x1 PUSH1 0xA0 SHL SUB AND PUSH1 0x0 SWAP1 DUP2 MSTORE PUSH1 0xC PUSH1 0x20 MSTORE PUSH1 0x40 SWAP1 KECCAK256 SLOAD PUSH2 0x1199 SWAP1 PUSH2 0x1050 JUMP JUMPDEST POP PUSH1 0xFF PUSH2 0x11A7 PUSH1 0x4 SLOAD PUSH2 0x132E JUMP JUMPDEST SWAP2 SLOAD PUSH1 0xA0 SHR AND ISZERO SWAP1 DUP2 PUSH2 0x11C4 JUMPI JUMPDEST POP PUSH2 0x11BF JUMPI PUSH1 0x0 SWAP1 JUMP JUMPDEST PUSH1 0x1 SWAP1 JUMP JUMPDEST SWAP1 POP TIMESTAMP GT CODESIZE PUSH2 0x11B5 JUMP JUMPDEST PUSH1 0x40 MLOAD PUSH3 0x461BCD PUSH1 0xE5 SHL DUP2 MSTORE PUSH1 0x20 PUSH1 0x4 DUP3 ADD MSTORE PUSH1 0x1C PUSH1 0x24 DUP3 ADD MSTORE PUSH32 0x41646472657373206973206E6F742061207061727469636970616E7400000000 PUSH1 0x44 DUP3 ADD MSTORE PUSH1 0x64 SWAP1 REVERT JUMPDEST ISZERO PUSH2 0x121A JUMPI JUMP JUMPDEST PUSH1 0x40 MLOAD PUSH3 0x461BCD PUSH1 0xE5 SHL DUP2 MSTORE PUSH1 0x20 PUSH1 0x4 DUP3 ADD MSTORE PUSH1 0x18 PUSH1 0x24 DUP3 ADD MSTORE PUSH32 0x46756E6420686173206E6F742073746172746564207965740000000000000000 PUSH1 0x44 DUP3 ADD MSTORE PUSH1 0x64 SWAP1 REVERT JUMPDEST ISZERO PUSH2 0x1266 JUMPI JUMP JUMPDEST PUSH1 0x40 MLOAD PUSH3 0x461BCD PUSH1 0xE5 SHL DUP2 MSTORE PUSH1 0x20 PUSH1 0x4 DUP3 ADD MSTORE PUSH1 0x1F PUSH1 0x24 DUP3 ADD MSTORE PUSH32 0x5265656E7472616E637947756172643A207265656E7472616E742063616C6C00 PUSH1 0x44 DUP3 ADD MSTORE PUSH1 0x64 SWAP1 REVERT JUMPDEST RETURNDATASIZE ISZERO PUSH2 0x12E6 JUMPI RETURNDATASIZE SWAP1 PUSH8 0xFFFFFFFFFFFFFFFF DUP3 GT PUSH2 0xF15 JUMPI PUSH1 0x40 MLOAD SWAP2 PUSH2 0x12DA PUSH1 0x1F DUP3 ADD PUSH1 0x1F NOT AND PUSH1 0x20 ADD DUP5 PUSH2 0xEF3 JUMP JUMPDEST DUP3 MSTORE RETURNDATASIZE PUSH1 0x0 PUSH1 0x20 DUP5 ADD RETURNDATACOPY JUMP JUMPDEST PUSH1 0x60 SWAP1 JUMP JUMPDEST PUSH1 0x1 PUSH1 0x1 PUSH1 0xA0 SHL SUB AND PUSH1 0x0 DUP2 DUP2 MSTORE PUSH1 0xC PUSH1 0x20 MSTORE PUSH1 0x40 SWAP1 KECCAK256 SLOAD PUSH1 0x3 SLOAD DUP2 LT SWAP2 SWAP1 DUP3 PUSH2 0x1314 JUMPI POP POP SWAP1 JUMP JUMPDEST PUSH2 0x131F SWAP2 SWAP3 POP PUSH2 0x1050 JUMP JUMPDEST POP SLOAD PUSH1 0x1 PUSH1 0x1 PUSH1 0xA0 SHL SUB AND EQ SWAP1 JUMP JUMPDEST PUSH1 0x5 SLOAD DUP2 GT PUSH2 0x135F JUMPI PUSH1 0x7 SLOAD PUSH1 0x0 NOT DUP3 ADD SWAP2 DUP3 GT PUSH2 0x10EC JUMPI PUSH2 0x1356 PUSH2 0x135C SWAP3 PUSH1 0x6 SLOAD SWAP1 PUSH2 0x1102 JUMP JUMPDEST SWAP1 PUSH2 0x10DF JUMP JUMPDEST SWAP1 JUMP JUMPDEST PUSH1 0x40 MLOAD PUSH3 0x461BCD PUSH1 0xE5 SHL DUP2 MSTORE PUSH1 0x20 PUSH1 0x4 DUP3 ADD MSTORE PUSH1 0x13 PUSH1 0x24 DUP3 ADD MSTORE PUSH19 0x4379636C65206F7574206F6620626F756E6473 PUSH1 0x68 SHL PUSH1 0x44 DUP3 ADD MSTORE PUSH1 0x64 SWAP1 REVERT JUMPDEST DUP2 ISZERO PUSH2 0x13A4 JUMPI DIV SWAP1 JUMP JUMPDEST PUSH4 0x4E487B71 PUSH1 0xE0 SHL PUSH1 0x0 MSTORE PUSH1 0x12 PUSH1 0x4 MSTORE PUSH1 0x24 PUSH1 0x0 REVERT JUMPDEST PUSH1 0x0 NOT DUP2 EQ PUSH2 0x10EC JUMPI PUSH1 0x1 ADD SWAP1 JUMP JUMPDEST PUSH8 0xFFFFFFFFFFFFFFFF DUP2 GT PUSH2 0xF15 JUMPI PUSH1 0x5 SHL PUSH1 0x20 ADD SWAP1 JUMP JUMPDEST PUSH1 0x0 JUMPDEST PUSH1 0x3 SLOAD DUP2 LT ISZERO PUSH2 0x1440 JUMPI PUSH1 0xFF PUSH2 0x13F9 DUP3 PUSH2 0x1050 JUMP JUMPDEST POP SLOAD PUSH1 0xB0 SHR AND ISZERO PUSH2 0x140C JUMPI PUSH1 0x1 ADD PUSH2 0x13E4 JUMP JUMPDEST PUSH2 0x1415 SWAP1 PUSH2 0x1050 JUMP JUMPDEST POP SLOAD PUSH1 0xA DUP1 SLOAD PUSH3 0x10000 PUSH1 0x1 PUSH1 0xB0 SHL SUB NOT AND PUSH1 0x10 SWAP3 SWAP1 SWAP3 SHL PUSH3 0x10000 PUSH1 0x1 PUSH1 0xB0 SHL SUB AND SWAP2 SWAP1 SWAP2 OR SWAP1 SSTORE JUMP JUMPDEST POP JUMP JUMPDEST PUSH1 0x3 SLOAD PUSH1 0x0 JUMPDEST DUP2 DUP2 LT PUSH2 0x1457 JUMPI POP POP PUSH1 0x1 SWAP1 JUMP JUMPDEST PUSH1 0xFF PUSH2 0x1462 DUP3 PUSH2 0x1050 JUMP JUMPDEST POP SLOAD PUSH1 0xA0 SHR AND ISZERO PUSH2 0x1475 JUMPI PUSH1 0x1 ADD PUSH2 0x1449 JUMP JUMPDEST POP POP PUSH1 0x0 SWAP1 JUMP INVALID LOG2 PUSH5 0x6970667358 0x22 SLT KECCAK256 PREVRANDAO 0xE5 MCOPY PUSH16 0x9C1013C553C3B29620FFB2C10A043083 CALLDATASIZE 0xB4 0x2B DELEGATECALL 0x24 PUSH10 0x3A837DDFF4A764736F6C PUSH4 0x4300081B STOP CALLER LOG2 PUSH5 0x6970667358 0x22 SLT KECCAK256 0xE6 0xC4 0xD1 PUSH25 0x90224086DB567271F535DAB3AD6B2F24D72BBEC35DA30CE874 DELEGATECALL 0xC ORIGIN PUSH5 0x736F6C6343 STOP ADDMOD SHL STOP CALLER "
        },
        "methodIdentifiers": {
          "chitFunds(uint256)": "85b03dba",
          "createChitFund(string,uint256,uint256,uint256,uint256,uint256,address[],uint256)": "2d0f9587",
          "getAllChitFunds()": "2c1d5a24",
          "getChitFundsForUser(address)": "4b2015d6",
          "userChitFunds(address,uint256)": "73e9a7f3"
        }
      }
    }
  }
}