{
  "contracts/ChitFund.sol": {
    "ChitFund": {
      "abi": [
        {
          "inputs": [
            {
              "internalType": "address",
              "name": "_organizer",
              "type": "address"
            },
            {
              "internalType": "string",
              "name": "_name",
              "type": "string"
            },
            {
              "internalType": "uint256",
              "name": "_contributionAmount",
              "type": "uint256"
            },
            {
              "internalType": "uint256",
              "name": "_totalParticipants",
              "type": "uint256"
            },
            {
              "internalType": "uint256",
              "name": "_totalCycles",
              "type": "uint256"
            },
            {
              "internalType": "uint256",
              "name": "_cycleDuration",
              "type": "uint256"
            },
            {
              "internalType": "uint256",
              "name": "_startTime",
              "type": "uint256"
            },
            {
              "internalType": "address[]",
              "name": "_participants",
              "type": "address[]"
            },
            {
              "internalType": "uint256",
              "name": "_collateralPercentage",
              "type": "uint256"
            }
          ],
          "stateMutability": "nonpayable",
          "type": "constructor"
        },
        {
          "anonymous": false,
          "inputs": [
            {
              "indexed": false,
              "internalType": "address",
              "name": "chitFundAddress",
              "type": "address"
            },
            {
              "indexed": false,
              "internalType": "address",
              "name": "participant",
              "type": "address"
            },
            {
              "indexed": false,
              "internalType": "uint256",
              "name": "amount",
              "type": "uint256"
            }
          ],
          "name": "CollateralReturned",
          "type": "event"
        },
        {
          "anonymous": false,
          "inputs": [
            {
              "indexed": false,
              "internalType": "address",
              "name": "chitFundAddress",
              "type": "address"
            },
            {
              "indexed": false,
              "internalType": "address",
              "name": "participant",
              "type": "address"
            },
            {
              "indexed": false,
              "internalType": "uint256",
              "name": "amount",
              "type": "uint256"
            }
          ],
          "name": "CollateralStaked",
          "type": "event"
        },
        {
          "anonymous": false,
          "inputs": [
            {
              "indexed": false,
              "internalType": "address",
              "name": "chitFundAddress",
              "type": "address"
            },
            {
              "indexed": false,
              "internalType": "address",
              "name": "participant",
              "type": "address"
            },
            {
              "indexed": false,
              "internalType": "uint256",
              "name": "amount",
              "type": "uint256"
            },
            {
              "indexed": false,
              "internalType": "uint256",
              "name": "cycle",
              "type": "uint256"
            }
          ],
          "name": "ContributionReceived",
          "type": "event"
        },
        {
          "anonymous": false,
          "inputs": [
            {
              "indexed": false,
              "internalType": "address",
              "name": "chitFundAddress",
              "type": "address"
            },
            {
              "indexed": false,
              "internalType": "uint256",
              "name": "cycle",
              "type": "uint256"
            }
          ],
          "name": "CycleCompleted",
          "type": "event"
        },
        {
          "anonymous": false,
          "inputs": [
            {
              "indexed": false,
              "internalType": "address",
              "name": "chitFundAddress",
              "type": "address"
            },
            {
              "indexed": false,
              "internalType": "address",
              "name": "recipient",
              "type": "address"
            },
            {
              "indexed": false,
              "internalType": "uint256",
              "name": "cycle",
              "type": "uint256"
            }
          ],
          "name": "FundClaimed",
          "type": "event"
        },
        {
          "anonymous": false,
          "inputs": [
            {
              "indexed": false,
              "internalType": "address",
              "name": "chitFundAddress",
              "type": "address"
            },
            {
              "indexed": false,
              "internalType": "address",
              "name": "recipient",
              "type": "address"
            },
            {
              "indexed": false,
              "internalType": "uint256",
              "name": "amount",
              "type": "uint256"
            },
            {
              "indexed": false,
              "internalType": "uint256",
              "name": "cycle",
              "type": "uint256"
            }
          ],
          "name": "FundDisbursed",
          "type": "event"
        },
        {
          "anonymous": false,
          "inputs": [
            {
              "indexed": false,
              "internalType": "address",
              "name": "chitFundAddress",
              "type": "address"
            }
          ],
          "name": "FundStarted",
          "type": "event"
        },
        {
          "inputs": [],
          "name": "claim",
          "outputs": [],
          "stateMutability": "nonpayable",
          "type": "function"
        },
        {
          "inputs": [],
          "name": "collateralAmount",
          "outputs": [
            {
              "internalType": "uint256",
              "name": "",
              "type": "uint256"
            }
          ],
          "stateMutability": "view",
          "type": "function"
        },
        {
          "inputs": [],
          "name": "collateralPercentage",
          "outputs": [
            {
              "internalType": "uint256",
              "name": "",
              "type": "uint256"
            }
          ],
          "stateMutability": "view",
          "type": "function"
        },
        {
          "inputs": [],
          "name": "contribute",
          "outputs": [],
          "stateMutability": "payable",
          "type": "function"
        },
        {
          "inputs": [],
          "name": "contributionAmount",
          "outputs": [
            {
              "internalType": "uint256",
              "name": "",
              "type": "uint256"
            }
          ],
          "stateMutability": "view",
          "type": "function"
        },
        {
          "inputs": [],
          "name": "currentCycle",
          "outputs": [
            {
              "internalType": "uint256",
              "name": "",
              "type": "uint256"
            }
          ],
          "stateMutability": "view",
          "type": "function"
        },
        {
          "inputs": [],
          "name": "cycleDuration",
          "outputs": [
            {
              "internalType": "uint256",
              "name": "",
              "type": "uint256"
            }
          ],
          "stateMutability": "view",
          "type": "function"
        },
        {
          "inputs": [],
          "name": "fundStarted",
          "outputs": [
            {
              "internalType": "bool",
              "name": "",
              "type": "bool"
            }
          ],
          "stateMutability": "view",
          "type": "function"
        },
        {
          "inputs": [],
          "name": "getChitFundDetails",
          "outputs": [
            {
              "internalType": "address",
              "name": "_fundAddress",
              "type": "address"
            },
            {
              "internalType": "string",
              "name": "_name",
              "type": "string"
            },
            {
              "internalType": "address",
              "name": "_organizer",
              "type": "address"
            },
            {
              "internalType": "uint256",
              "name": "_contributionAmount",
              "type": "uint256"
            },
            {
              "internalType": "uint256",
              "name": "_totalParticipants",
              "type": "uint256"
            },
            {
              "internalType": "uint256",
              "name": "_currentCycle",
              "type": "uint256"
            },
            {
              "internalType": "uint256",
              "name": "_totalCycles",
              "type": "uint256"
            },
            {
              "internalType": "bool",
              "name": "_fundStarted",
              "type": "bool"
            },
            {
              "internalType": "uint256",
              "name": "_totalCollateralStaked",
              "type": "uint256"
            },
            {
              "internalType": "uint256",
              "name": "_cycleDuration",
              "type": "uint256"
            },
            {
              "internalType": "uint256",
              "name": "_startTime",
              "type": "uint256"
            },
            {
              "internalType": "uint256",
              "name": "_collateralAmount",
              "type": "uint256"
            },
            {
              "internalType": "address",
              "name": "_nextRecipient",
              "type": "address"
            }
          ],
          "stateMutability": "view",
          "type": "function"
        },
        {
          "inputs": [],
          "name": "getContributionAmount",
          "outputs": [
            {
              "internalType": "uint256",
              "name": "",
              "type": "uint256"
            }
          ],
          "stateMutability": "view",
          "type": "function"
        },
        {
          "inputs": [
            {
              "internalType": "uint256",
              "name": "cycle",
              "type": "uint256"
            }
          ],
          "name": "getDeadlineForCycle",
          "outputs": [
            {
              "internalType": "uint256",
              "name": "",
              "type": "uint256"
            }
          ],
          "stateMutability": "view",
          "type": "function"
        },
        {
          "inputs": [],
          "name": "getNextRecipient",
          "outputs": [],
          "stateMutability": "nonpayable",
          "type": "function"
        },
        {
          "inputs": [],
          "name": "getNextRecipientAddress",
          "outputs": [
            {
              "internalType": "address",
              "name": "",
              "type": "address"
            }
          ],
          "stateMutability": "view",
          "type": "function"
        },
        {
          "inputs": [],
          "name": "getOverdueParticipants",
          "outputs": [
            {
              "internalType": "address[]",
              "name": "",
              "type": "address[]"
            }
          ],
          "stateMutability": "view",
          "type": "function"
        },
        {
          "inputs": [
            {
              "internalType": "address",
              "name": "_addr",
              "type": "address"
            }
          ],
          "name": "getParticipantDetails",
          "outputs": [
            {
              "internalType": "bool",
              "name": "hasStakedCollateral",
              "type": "bool"
            },
            {
              "internalType": "bool",
              "name": "hasContributed",
              "type": "bool"
            },
            {
              "internalType": "bool",
              "name": "hasReceivedFund",
              "type": "bool"
            }
          ],
          "stateMutability": "view",
          "type": "function"
        },
        {
          "inputs": [
            {
              "internalType": "address",
              "name": "_addr",
              "type": "address"
            }
          ],
          "name": "isParticipant",
          "outputs": [
            {
              "internalType": "bool",
              "name": "",
              "type": "bool"
            }
          ],
          "stateMutability": "view",
          "type": "function"
        },
        {
          "inputs": [
            {
              "internalType": "address",
              "name": "_participant",
              "type": "address"
            }
          ],
          "name": "isParticipantOverdue",
          "outputs": [
            {
              "internalType": "bool",
              "name": "",
              "type": "bool"
            }
          ],
          "stateMutability": "view",
          "type": "function"
        },
        {
          "inputs": [],
          "name": "name",
          "outputs": [
            {
              "internalType": "string",
              "name": "",
              "type": "string"
            }
          ],
          "stateMutability": "view",
          "type": "function"
        },
        {
          "inputs": [],
          "name": "nextRecipient",
          "outputs": [
            {
              "internalType": "address",
              "name": "",
              "type": "address"
            }
          ],
          "stateMutability": "view",
          "type": "function"
        },
        {
          "inputs": [],
          "name": "organizer",
          "outputs": [
            {
              "internalType": "address",
              "name": "",
              "type": "address"
            }
          ],
          "stateMutability": "view",
          "type": "function"
        },
        {
          "inputs": [
            {
              "internalType": "address",
              "name": "",
              "type": "address"
            }
          ],
          "name": "participantIndex",
          "outputs": [
            {
              "internalType": "uint256",
              "name": "",
              "type": "uint256"
            }
          ],
          "stateMutability": "view",
          "type": "function"
        },
        {
          "inputs": [
            {
              "internalType": "uint256",
              "name": "",
              "type": "uint256"
            }
          ],
          "name": "participants",
          "outputs": [
            {
              "internalType": "address payable",
              "name": "addr",
              "type": "address"
            },
            {
              "internalType": "bool",
              "name": "hasContributed",
              "type": "bool"
            },
            {
              "internalType": "bool",
              "name": "hasStakedCollateral",
              "type": "bool"
            },
            {
              "internalType": "bool",
              "name": "hasReceivedFund",
              "type": "bool"
            }
          ],
          "stateMutability": "view",
          "type": "function"
        },
        {
          "inputs": [],
          "name": "returnAllCollateral",
          "outputs": [],
          "stateMutability": "nonpayable",
          "type": "function"
        },
        {
          "inputs": [],
          "name": "stakeCollateral",
          "outputs": [],
          "stateMutability": "payable",
          "type": "function"
        },
        {
          "inputs": [],
          "name": "startTime",
          "outputs": [
            {
              "internalType": "uint256",
              "name": "",
              "type": "uint256"
            }
          ],
          "stateMutability": "view",
          "type": "function"
        },
        {
          "inputs": [],
          "name": "totalCollateralStaked",
          "outputs": [
            {
              "internalType": "uint256",
              "name": "",
              "type": "uint256"
            }
          ],
          "stateMutability": "view",
          "type": "function"
        },
        {
          "inputs": [],
          "name": "totalCycles",
          "outputs": [
            {
              "internalType": "uint256",
              "name": "",
              "type": "uint256"
            }
          ],
          "stateMutability": "view",
          "type": "function"
        },
        {
          "inputs": [],
          "name": "totalParticipants",
          "outputs": [
            {
              "internalType": "uint256",
              "name": "",
              "type": "uint256"
            }
          ],
          "stateMutability": "view",
          "type": "function"
        }
      ],
      "evm": {
        "bytecode": {
          "linkReferences": {},
          "object": "6080604052346105d857611ba880380380610019816105f2565b928339810190610120818303126105d85761003381610617565b60208201519091906001600160401b0381116105d85781019083601f830112156105d85781516001600160401b0381116102fd5761007a601f8201601f19166020016105f2565b9281845285602083830101116105d85760005b8281106105dd575050602060009184010152604081015191606082015160808301519060a08401519260c08501519460e081015160018060401b0381116105d85781019880601f8b0112156105d8578951996001600160401b038b116102fd578a60051b906020806101008185016105f2565b809e815201928201019283116105d857602001905b8282106105c0575050506101000151968289510361057b5787151580610570575b1561051157600080546001600160a01b0319166001600160a01b03929092169190911790558051906001600160401b0382116102fd5760015490600182811c92168015610507575b60208310146104f15781601f849311610481575b50602090601f83116001146104195760009261040e575b50508160011b916000199060031b1c1916176001555b84600255600355600555600655600755816008558181029181830414901517156103f85760649004600955600060045560005b8151811015610313576001600160a01b0361020d828461062b565b51604051929116608083016001600160401b038111848210176102fd576040528252602082016000815260408301600081526060840160008152600b54680100000000000000008110156102fd5780600161026b9201600b55610655565b9390936102e757945183549551925191516001600160b81b03199096166001600160a01b039182161792151560a01b60ff60a01b169290921790151560a81b60ff60a81b161793151560b01b60ff60b01b169390931790556001916102d0828561062b565b5116600052600c60205280604060002055016101f2565b634e487b7160e01b600052600060045260246000fd5b634e487b7160e01b600052604160045260246000fd5b6000805b6003548110156103f25760ff61032c82610655565b505460b01c161561033f57600101610317565b6103499150610655565b5054600a805462010000600160b01b03191660109290921b62010000600160b01b031691909117905560015b15806103e5575b61038f5760405161153790816106718239f35b60405162461bcd60e51b815260206004820152602860248201527f416c6c207061727469636970616e74732068617665207265636569766564207460448201526768652066756e642160c01b6064820152608490fd5b506004546005541061037c565b50610375565b634e487b7160e01b600052601160045260246000fd5b0151905038806101a9565b600160009081528281209350601f198516905b8181106104695750908460019594939210610450575b505050811b016001556101bf565b015160001960f88460031b161c19169055388080610442565b9293602060018192878601518155019501930161042c565b60016000529091507fb10e2d527612073b26eecdfd717e6a320cf44b4afac2b0732d9fcbe2b7fa0cf6601f840160051c810191602085106104e7575b90601f859493920160051c01905b8181106104d85750610192565b600081558493506001016104cb565b90915081906104bd565b634e487b7160e01b600052602260045260246000fd5b91607f169161017e565b60405162461bcd60e51b815260206004820152603160248201527f436f6c6c61746572616c2070657263656e746167652073686f756c642062652060448201527006265747765656e203120616e642031303607c1b6064820152608490fd5b506064881115610136565b60405162461bcd60e51b815260206004820152601b60248201527f5061727469636970616e747320636f756e74206d69736d6174636800000000006044820152606490fd5b602080916105cd84610617565b815201910190610115565b600080fd5b8060208092840101518282880101520161008d565b6040519190601f01601f191682016001600160401b038111838210176102fd57604052565b51906001600160a01b03821682036105d857565b805182101561063f5760209160051b010190565b634e487b7160e01b600052603260045260246000fd5b600b5481101561063f57600b6000526020600020019060009056fe6080604052600436101561001257600080fd5b60003560e01c806306fdde0314610efa578063070fecb514610d38578063083b913714610cfa578063271751da14610cdc578063308352e814610cbe57806335c1d34914610c5b578063399cd2501461019357806344e0b8c114610c135780634a9829cd14610be45780634e71d92d146108ee5780635428197c146106f95780635bec4cb4146106db5780635fa0b65f146106bd578063612032651461069457806365d68e4e146105d957806378e97925146105bb578063929066f51461058257806392d09ceb14610564578063a165768114610546578063a26dbf2614610528578063af2d0a311461050a578063bab2f552146104ec578063bbb48445146104c2578063cbc3cecb14610347578063d7bb99ba146101c0578063d94c7c2714610193578063f54a36cc146101705763fd379a311461015057600080fd5b3461016b57600036600319011261016b576101696113f0565b005b600080fd5b3461016b57600036600319011261016b57602060ff600a54166040519015158152f35b3461016b57600036600319011261016b57600a5460405160109190911c6001600160a01b03168152602090f35b600036600319011261016b576101dd6101d8336112fa565b6110a6565b6101eb60ff600a5416611222565b6004546005541061030b57610205600254600354906113a9565b34036102c65733600052600c60205261022260406000205461108b565b50805460ff8160a01c1661028157600160a01b9060ff60a01b19161790557f4d26c2fe8f421a52e199f32ee4fc57172d01659bf57a1a39c4397b2bb07f539a6080600454604051903082523360208301523460408301526060820152a1005b60405162461bcd60e51b815260206004820152601e60248201527f416c726561647920636f6e74726962757465642074686973206379636c6500006044820152606490fd5b60405162461bcd60e51b815260206004820152601d60248201527f496e636f727265637420636f6e747269627574696f6e20616d6f756e740000006044820152606490fd5b60405162461bcd60e51b8152602060048201526014602482015273105b1b0818de58db195cc818dbdb5c1b195d195960621b6044820152606490fd5b3461016b57600036600319011261016b57600061036560045461133d565b60035490825b828110610480575061039561037f846113d8565b9361038d6040519586610f2e565b8085526113d8565b602084019290601f190136843760009160005b8281106103fd5784866040519182916020830190602084525180915260408301919060005b8181106103db575050500390f35b82516001600160a01b03168452859450602093840193909201916001016103cd565b60ff6104088261108b565b505460a01c161580610477575b610422575b6001016103a8565b9261042c8461108b565b505486516001600160a01b0390911690821015610461578161045991602060019460051b8a0101526113c9565b93905061041a565b634e487b7160e01b600052603260045260246000fd5b50814211610415565b60ff61048b8261108b565b505460a01c1615806104b9575b6104a5575b60010161036b565b926104b16001916113c9565b93905061049d565b50814211610498565b3461016b57600036600319011261016b5760206104e4600254600354906113a9565b604051908152f35b3461016b57600036600319011261016b576020600454604051908152f35b3461016b57602036600319011261016b5760206104e460043561133d565b3461016b57600036600319011261016b576020600354604051908152f35b3461016b57600036600319011261016b576020600554604051908152f35b3461016b57600036600319011261016b576020600954604051908152f35b3461016b57602036600319011261016b576004356001600160a01b038116810361016b576105b16020916112fa565b6040519015158152f35b3461016b57600036600319011261016b576020600754604051908152f35b3461016b57600036600319011261016b576101a0602060018060a01b0360005416600254600354906004549160055492600a5493600d549060065492600754946009549661063f610628610f66565b6040519d8e9d8e30815201526101a08d019061104a565b60408c019a909a5260608b015260808a015260a089015260c088015260ff8516151560e088015261010087015261012086015261014085015261016084015260101c6001600160a01b03166101808301520390f35b3461016b57600036600319011261016b576000546040516001600160a01b039091168152602090f35b3461016b57600036600319011261016b576020600254604051908152f35b3461016b57600036600319011261016b576020600654604051908152f35b3461016b57600036600319011261016b57610100600a5461072060ff8260081c161561126e565b61ff00191617600a5560045460055410156108b057600d541561086b5760005b600354811015610812576107538161108b565b50805460ff8160a81c1661076c575b5050600101610740565b60ff60a81b19168155600954600d54818103929083116107fc57600d9290925590546000918291829182916001600160a01b03165af16107aa6112ba565b50156107b7578180610762565b60405162461bcd60e51b815260206004820152601860248201527f436f6c6c61746572616c2072657475726e206661696c656400000000000000006044820152606490fd5b634e487b7160e01b600052601160045260246000fd5b600d5461082657600a805461ff0019169055005b60405162461bcd60e51b815260206004820152601c60248201527f436f6c6c61746572616c2072657475726e20696e636f6d706c657465000000006044820152606490fd5b60405162461bcd60e51b815260206004820152601b60248201527f436f6c6c61746572616c20616c72656164792072657475726e656400000000006044820152606490fd5b60405162461bcd60e51b8152602060048201526016602482015275119d5b99081b9bdd0818dbdb5c1b195d1959081e595d60521b6044820152606490fd5b3461016b57600036600319011261016b57600a5433601082901c6001600160a01b031603610b875761092260ff8216611222565b61092a6114c8565b15610b42578061094360ff6101009360081c161561126e565b61ff0019161780600a556109556114c8565b15610af25760025460109190911c6001600160a01b031690600080808084865af161097e6112ba565b5015610ab657816080917f6f93c0eec5a091f9faaa7530ed0bf04ba99e92d2d08c7d1b7642ac295b12579593600052600c6020526109c060406000205461108b565b50805460ff60b01b1916600160b01b1790556004546040805130815260208101949094528301919091526060820152a160005b600354811015610a1b5780610a0960019261108b565b50805460ff60a01b19169055016109f3565b610a266004546113c9565b8060045560001981019081116107fc5760407f7a22242c42d1e94f110cb053b2cf343580c736816a22ac54ec7dd833bf0dbe63918151903082526020820152a1600a805461ff001916905560045460408051308152336020820152908101919091527f8b5640bc6a70f4cedabaf515fa266b322bf861aa1fda7ac4ae261193eaa6cfa790606090a16101696113f0565b60405162461bcd60e51b8152602060048201526014602482015273119d5b99081d1c985b9cd9995c8819985a5b195960621b6044820152606490fd5b60405162461bcd60e51b815260206004820152602260248201527f416c6c20636f6e747269627574696f6e73206e6f742072656365697665642079604482015261195d60f21b6064820152608490fd5b60405162461bcd60e51b815260206004820152601e60248201527f4e6f7420616c6c20636f6e747269627574696f6e7320726563656976656400006044820152606490fd5b60405162461bcd60e51b815260206004820152602f60248201527f4f6e6c792074686520656c696769626c6520726563697069656e742063616e2060448201526e636c61696d207468652066756e647360881b6064820152608490fd5b3461016b57602036600319011261016b576004356001600160a01b038116810361016b576105b1602091611179565b3461016b57602036600319011261016b576004356001600160a01b038116810361016b57610c42606091611124565b9060405192151583521515602083015215156040820152f35b3461016b57602036600319011261016b57600435600b5481101561016b57610c8460809161108b565b505460ff6040519160018060a01b0381168352818160a01c1615156020840152818160a81c161515604084015260b01c1615156060820152f35b3461016b57600036600319011261016b576020600854604051908152f35b3461016b57600036600319011261016b576020600d54604051908152f35b3461016b57602036600319011261016b576004356001600160a01b0381169081900361016b57600052600c6020526020604060002054604051908152f35b600036600319011261016b57610d506101d8336112fa565b60ff600a5416610ebe576009543403610e795733600052600c602052610d7a60406000205461108b565b50805460ff8160a81c16610e345760ff60a81b1916600160a81b179055600d54610da5903490611104565b600d8190556040805130815233602082015234918101919091527fb43984808665df1db24188755e128600f9328714bf9e898378aaa7d27304393490606090a1610df460095460035490611111565b14610dfb57005b600160ff19600a541617600a557fdc33cf22f590c5ab4976c2ce3291383f046aac79b0c484500298d3d62f3118ca6020604051308152a1005b60405162461bcd60e51b815260206004820152601960248201527f416c7265616479207374616b656420636f6c6c61746572616c000000000000006044820152606490fd5b60405162461bcd60e51b815260206004820152601b60248201527f496e636f727265637420636f6c6c61746572616c20616d6f756e7400000000006044820152606490fd5b60405162461bcd60e51b8152602060048201526014602482015273119d5b9908185b1c9958591e481cdd185c9d195960621b6044820152606490fd5b3461016b57600036600319011261016b57610f2a610f16610f66565b60405191829160208352602083019061104a565b0390f35b90601f8019910116810190811067ffffffffffffffff821117610f5057604052565b634e487b7160e01b600052604160045260246000fd5b604051906000600154908160011c91600181168015611040575b60208410811461102c57838652859291811561100d5750600114610fad575b610fab92500383610f2e565b565b506001600090815290917fb10e2d527612073b26eecdfd717e6a320cf44b4afac2b0732d9fcbe2b7fa0cf65b818310610ff1575050906020610fab92820101610f9f565b6020919350806001915483858901015201910190918492610fd9565b60209250610fab94915060ff191682840152151560051b820101610f9f565b634e487b7160e01b83526022600452602483fd5b92607f1692610f80565b919082519283825260005b848110611076575050826000602080949584010152601f8019910116010190565b80602080928401015182828601015201611055565b600b5481101561046157600b60005260206000200190600090565b156110ad57565b60405162461bcd60e51b815260206004820152602960248201527f4f6e6c79207061727469636970616e74732063616e20706572666f726d20746860448201526834b99030b1ba34b7b760b91b6064820152608490fd5b919082018092116107fc57565b818102929181159184041417156107fc57565b61112d816112fa565b1561116d576001600160a01b03166000908152600c60205260409020546111539061108b565b505460ff8160a81c169160ff808360a01c169260b01c1690565b50600090600090600090565b611182816112fa565b156111dd576001600160a01b03166000908152600c60205260409020546111a89061108b565b5060ff6111b660045461133d565b915460a01c161590816111d3575b506111ce57600090565b600190565b90504211386111c4565b60405162461bcd60e51b815260206004820152601c60248201527f41646472657373206973206e6f742061207061727469636970616e74000000006044820152606490fd5b1561122957565b60405162461bcd60e51b815260206004820152601860248201527f46756e6420686173206e6f7420737461727465642079657400000000000000006044820152606490fd5b1561127557565b60405162461bcd60e51b815260206004820152601f60248201527f5265656e7472616e637947756172643a207265656e7472616e742063616c6c006044820152606490fd5b3d156112f5573d9067ffffffffffffffff8211610f5057604051916112e9601f8201601f191660200184610f2e565b82523d6000602084013e565b606090565b6001600160a01b03166000818152600c6020526040902054600354811091908261132357505090565b61132e91925061108b565b50546001600160a01b03161490565b600554811161136e5760075460001982019182116107fc5761136561136b9260065490611111565b90611104565b90565b60405162461bcd60e51b81526020600482015260136024820152724379636c65206f7574206f6620626f756e647360681b6044820152606490fd5b81156113b3570490565b634e487b7160e01b600052601260045260246000fd5b60001981146107fc5760010190565b67ffffffffffffffff8111610f505760051b60200190565b6000805b6003548110156114c25760ff6114098261108b565b505460b01c161561141c576001016113f4565b611426915061108b565b5054600a805462010000600160b01b03191660109290921b62010000600160b01b031691909117905560015b15806114b5575b61145f57565b60405162461bcd60e51b815260206004820152602860248201527f416c6c207061727469636970616e74732068617665207265636569766564207460448201526768652066756e642160c01b6064820152608490fd5b5060045460055410611459565b50611452565b60035460005b8181106114dc575050600190565b60ff6114e78261108b565b505460a01c16156114fa576001016114ce565b505060009056fea2646970667358221220fd0fbfac7562be92510941a581a2f707d58ab25a8a95aaa17a85b594490f26e264736f6c634300081b0033",
          "opcodes": "PUSH1 0x80 PUSH1 0x40 MSTORE CALLVALUE PUSH2 0x5D8 JUMPI PUSH2 0x1BA8 DUP1 CODESIZE SUB DUP1 PUSH2 0x19 DUP2 PUSH2 0x5F2 JUMP JUMPDEST SWAP3 DUP4 CODECOPY DUP2 ADD SWAP1 PUSH2 0x120 DUP2 DUP4 SUB SLT PUSH2 0x5D8 JUMPI PUSH2 0x33 DUP2 PUSH2 0x617 JUMP JUMPDEST PUSH1 0x20 DUP3 ADD MLOAD SWAP1 SWAP2 SWAP1 PUSH1 0x1 PUSH1 0x1 PUSH1 0x40 SHL SUB DUP2 GT PUSH2 0x5D8 JUMPI DUP2 ADD SWAP1 DUP4 PUSH1 0x1F DUP4 ADD SLT ISZERO PUSH2 0x5D8 JUMPI DUP2 MLOAD PUSH1 0x1 PUSH1 0x1 PUSH1 0x40 SHL SUB DUP2 GT PUSH2 0x2FD JUMPI PUSH2 0x7A PUSH1 0x1F DUP3 ADD PUSH1 0x1F NOT AND PUSH1 0x20 ADD PUSH2 0x5F2 JUMP JUMPDEST SWAP3 DUP2 DUP5 MSTORE DUP6 PUSH1 0x20 DUP4 DUP4 ADD ADD GT PUSH2 0x5D8 JUMPI PUSH1 0x0 JUMPDEST DUP3 DUP2 LT PUSH2 0x5DD JUMPI POP POP PUSH1 0x20 PUSH1 0x0 SWAP2 DUP5 ADD ADD MSTORE PUSH1 0x40 DUP2 ADD MLOAD SWAP2 PUSH1 0x60 DUP3 ADD MLOAD PUSH1 0x80 DUP4 ADD MLOAD SWAP1 PUSH1 0xA0 DUP5 ADD MLOAD SWAP3 PUSH1 0xC0 DUP6 ADD MLOAD SWAP5 PUSH1 0xE0 DUP2 ADD MLOAD PUSH1 0x1 DUP1 PUSH1 0x40 SHL SUB DUP2 GT PUSH2 0x5D8 JUMPI DUP2 ADD SWAP9 DUP1 PUSH1 0x1F DUP12 ADD SLT ISZERO PUSH2 0x5D8 JUMPI DUP10 MLOAD SWAP10 PUSH1 0x1 PUSH1 0x1 PUSH1 0x40 SHL SUB DUP12 GT PUSH2 0x2FD JUMPI DUP11 PUSH1 0x5 SHL SWAP1 PUSH1 0x20 DUP1 PUSH2 0x100 DUP2 DUP6 ADD PUSH2 0x5F2 JUMP JUMPDEST DUP1 SWAP15 DUP2 MSTORE ADD SWAP3 DUP3 ADD ADD SWAP3 DUP4 GT PUSH2 0x5D8 JUMPI PUSH1 0x20 ADD SWAP1 JUMPDEST DUP3 DUP3 LT PUSH2 0x5C0 JUMPI POP POP POP PUSH2 0x100 ADD MLOAD SWAP7 DUP3 DUP10 MLOAD SUB PUSH2 0x57B JUMPI DUP8 ISZERO ISZERO DUP1 PUSH2 0x570 JUMPI JUMPDEST ISZERO PUSH2 0x511 JUMPI PUSH1 0x0 DUP1 SLOAD PUSH1 0x1 PUSH1 0x1 PUSH1 0xA0 SHL SUB NOT AND PUSH1 0x1 PUSH1 0x1 PUSH1 0xA0 SHL SUB SWAP3 SWAP1 SWAP3 AND SWAP2 SWAP1 SWAP2 OR SWAP1 SSTORE DUP1 MLOAD SWAP1 PUSH1 0x1 PUSH1 0x1 PUSH1 0x40 SHL SUB DUP3 GT PUSH2 0x2FD JUMPI PUSH1 0x1 SLOAD SWAP1 PUSH1 0x1 DUP3 DUP2 SHR SWAP3 AND DUP1 ISZERO PUSH2 0x507 JUMPI JUMPDEST PUSH1 0x20 DUP4 LT EQ PUSH2 0x4F1 JUMPI DUP2 PUSH1 0x1F DUP5 SWAP4 GT PUSH2 0x481 JUMPI JUMPDEST POP PUSH1 0x20 SWAP1 PUSH1 0x1F DUP4 GT PUSH1 0x1 EQ PUSH2 0x419 JUMPI PUSH1 0x0 SWAP3 PUSH2 0x40E JUMPI JUMPDEST POP POP DUP2 PUSH1 0x1 SHL SWAP2 PUSH1 0x0 NOT SWAP1 PUSH1 0x3 SHL SHR NOT AND OR PUSH1 0x1 SSTORE JUMPDEST DUP5 PUSH1 0x2 SSTORE PUSH1 0x3 SSTORE PUSH1 0x5 SSTORE PUSH1 0x6 SSTORE PUSH1 0x7 SSTORE DUP2 PUSH1 0x8 SSTORE DUP2 DUP2 MUL SWAP2 DUP2 DUP4 DIV EQ SWAP1 ISZERO OR ISZERO PUSH2 0x3F8 JUMPI PUSH1 0x64 SWAP1 DIV PUSH1 0x9 SSTORE PUSH1 0x0 PUSH1 0x4 SSTORE PUSH1 0x0 JUMPDEST DUP2 MLOAD DUP2 LT ISZERO PUSH2 0x313 JUMPI PUSH1 0x1 PUSH1 0x1 PUSH1 0xA0 SHL SUB PUSH2 0x20D DUP3 DUP5 PUSH2 0x62B JUMP JUMPDEST MLOAD PUSH1 0x40 MLOAD SWAP3 SWAP2 AND PUSH1 0x80 DUP4 ADD PUSH1 0x1 PUSH1 0x1 PUSH1 0x40 SHL SUB DUP2 GT DUP5 DUP3 LT OR PUSH2 0x2FD JUMPI PUSH1 0x40 MSTORE DUP3 MSTORE PUSH1 0x20 DUP3 ADD PUSH1 0x0 DUP2 MSTORE PUSH1 0x40 DUP4 ADD PUSH1 0x0 DUP2 MSTORE PUSH1 0x60 DUP5 ADD PUSH1 0x0 DUP2 MSTORE PUSH1 0xB SLOAD PUSH9 0x10000000000000000 DUP2 LT ISZERO PUSH2 0x2FD JUMPI DUP1 PUSH1 0x1 PUSH2 0x26B SWAP3 ADD PUSH1 0xB SSTORE PUSH2 0x655 JUMP JUMPDEST SWAP4 SWAP1 SWAP4 PUSH2 0x2E7 JUMPI SWAP5 MLOAD DUP4 SLOAD SWAP6 MLOAD SWAP3 MLOAD SWAP2 MLOAD PUSH1 0x1 PUSH1 0x1 PUSH1 0xB8 SHL SUB NOT SWAP1 SWAP7 AND PUSH1 0x1 PUSH1 0x1 PUSH1 0xA0 SHL SUB SWAP2 DUP3 AND OR SWAP3 ISZERO ISZERO PUSH1 0xA0 SHL PUSH1 0xFF PUSH1 0xA0 SHL AND SWAP3 SWAP1 SWAP3 OR SWAP1 ISZERO ISZERO PUSH1 0xA8 SHL PUSH1 0xFF PUSH1 0xA8 SHL AND OR SWAP4 ISZERO ISZERO PUSH1 0xB0 SHL PUSH1 0xFF PUSH1 0xB0 SHL AND SWAP4 SWAP1 SWAP4 OR SWAP1 SSTORE PUSH1 0x1 SWAP2 PUSH2 0x2D0 DUP3 DUP6 PUSH2 0x62B JUMP JUMPDEST MLOAD AND PUSH1 0x0 MSTORE PUSH1 0xC PUSH1 0x20 MSTORE DUP1 PUSH1 0x40 PUSH1 0x0 KECCAK256 SSTORE ADD PUSH2 0x1F2 JUMP JUMPDEST PUSH4 0x4E487B71 PUSH1 0xE0 SHL PUSH1 0x0 MSTORE PUSH1 0x0 PUSH1 0x4 MSTORE PUSH1 0x24 PUSH1 0x0 REVERT JUMPDEST PUSH4 0x4E487B71 PUSH1 0xE0 SHL PUSH1 0x0 MSTORE PUSH1 0x41 PUSH1 0x4 MSTORE PUSH1 0x24 PUSH1 0x0 REVERT JUMPDEST PUSH1 0x0 DUP1 JUMPDEST PUSH1 0x3 SLOAD DUP2 LT ISZERO PUSH2 0x3F2 JUMPI PUSH1 0xFF PUSH2 0x32C DUP3 PUSH2 0x655 JUMP JUMPDEST POP SLOAD PUSH1 0xB0 SHR AND ISZERO PUSH2 0x33F JUMPI PUSH1 0x1 ADD PUSH2 0x317 JUMP JUMPDEST PUSH2 0x349 SWAP2 POP PUSH2 0x655 JUMP JUMPDEST POP SLOAD PUSH1 0xA DUP1 SLOAD PUSH3 0x10000 PUSH1 0x1 PUSH1 0xB0 SHL SUB NOT AND PUSH1 0x10 SWAP3 SWAP1 SWAP3 SHL PUSH3 0x10000 PUSH1 0x1 PUSH1 0xB0 SHL SUB AND SWAP2 SWAP1 SWAP2 OR SWAP1 SSTORE PUSH1 0x1 JUMPDEST ISZERO DUP1 PUSH2 0x3E5 JUMPI JUMPDEST PUSH2 0x38F JUMPI PUSH1 0x40 MLOAD PUSH2 0x1537 SWAP1 DUP2 PUSH2 0x671 DUP3 CODECOPY RETURN JUMPDEST PUSH1 0x40 MLOAD PUSH3 0x461BCD PUSH1 0xE5 SHL DUP2 MSTORE PUSH1 0x20 PUSH1 0x4 DUP3 ADD MSTORE PUSH1 0x28 PUSH1 0x24 DUP3 ADD MSTORE PUSH32 0x416C6C207061727469636970616E747320686176652072656365697665642074 PUSH1 0x44 DUP3 ADD MSTORE PUSH8 0x68652066756E6421 PUSH1 0xC0 SHL PUSH1 0x64 DUP3 ADD MSTORE PUSH1 0x84 SWAP1 REVERT JUMPDEST POP PUSH1 0x4 SLOAD PUSH1 0x5 SLOAD LT PUSH2 0x37C JUMP JUMPDEST POP PUSH2 0x375 JUMP JUMPDEST PUSH4 0x4E487B71 PUSH1 0xE0 SHL PUSH1 0x0 MSTORE PUSH1 0x11 PUSH1 0x4 MSTORE PUSH1 0x24 PUSH1 0x0 REVERT JUMPDEST ADD MLOAD SWAP1 POP CODESIZE DUP1 PUSH2 0x1A9 JUMP JUMPDEST PUSH1 0x1 PUSH1 0x0 SWAP1 DUP2 MSTORE DUP3 DUP2 KECCAK256 SWAP4 POP PUSH1 0x1F NOT DUP6 AND SWAP1 JUMPDEST DUP2 DUP2 LT PUSH2 0x469 JUMPI POP SWAP1 DUP5 PUSH1 0x1 SWAP6 SWAP5 SWAP4 SWAP3 LT PUSH2 0x450 JUMPI JUMPDEST POP POP POP DUP2 SHL ADD PUSH1 0x1 SSTORE PUSH2 0x1BF JUMP JUMPDEST ADD MLOAD PUSH1 0x0 NOT PUSH1 0xF8 DUP5 PUSH1 0x3 SHL AND SHR NOT AND SWAP1 SSTORE CODESIZE DUP1 DUP1 PUSH2 0x442 JUMP JUMPDEST SWAP3 SWAP4 PUSH1 0x20 PUSH1 0x1 DUP2 SWAP3 DUP8 DUP7 ADD MLOAD DUP2 SSTORE ADD SWAP6 ADD SWAP4 ADD PUSH2 0x42C JUMP JUMPDEST PUSH1 0x1 PUSH1 0x0 MSTORE SWAP1 SWAP2 POP PUSH32 0xB10E2D527612073B26EECDFD717E6A320CF44B4AFAC2B0732D9FCBE2B7FA0CF6 PUSH1 0x1F DUP5 ADD PUSH1 0x5 SHR DUP2 ADD SWAP2 PUSH1 0x20 DUP6 LT PUSH2 0x4E7 JUMPI JUMPDEST SWAP1 PUSH1 0x1F DUP6 SWAP5 SWAP4 SWAP3 ADD PUSH1 0x5 SHR ADD SWAP1 JUMPDEST DUP2 DUP2 LT PUSH2 0x4D8 JUMPI POP PUSH2 0x192 JUMP JUMPDEST PUSH1 0x0 DUP2 SSTORE DUP5 SWAP4 POP PUSH1 0x1 ADD PUSH2 0x4CB JUMP JUMPDEST SWAP1 SWAP2 POP DUP2 SWAP1 PUSH2 0x4BD JUMP JUMPDEST PUSH4 0x4E487B71 PUSH1 0xE0 SHL PUSH1 0x0 MSTORE PUSH1 0x22 PUSH1 0x4 MSTORE PUSH1 0x24 PUSH1 0x0 REVERT JUMPDEST SWAP2 PUSH1 0x7F AND SWAP2 PUSH2 0x17E JUMP JUMPDEST PUSH1 0x40 MLOAD PUSH3 0x461BCD PUSH1 0xE5 SHL DUP2 MSTORE PUSH1 0x20 PUSH1 0x4 DUP3 ADD MSTORE PUSH1 0x31 PUSH1 0x24 DUP3 ADD MSTORE PUSH32 0x436F6C6C61746572616C2070657263656E746167652073686F756C6420626520 PUSH1 0x44 DUP3 ADD MSTORE PUSH17 0x6265747765656E203120616E642031303 PUSH1 0x7C SHL PUSH1 0x64 DUP3 ADD MSTORE PUSH1 0x84 SWAP1 REVERT JUMPDEST POP PUSH1 0x64 DUP9 GT ISZERO PUSH2 0x136 JUMP JUMPDEST PUSH1 0x40 MLOAD PUSH3 0x461BCD PUSH1 0xE5 SHL DUP2 MSTORE PUSH1 0x20 PUSH1 0x4 DUP3 ADD MSTORE PUSH1 0x1B PUSH1 0x24 DUP3 ADD MSTORE PUSH32 0x5061727469636970616E747320636F756E74206D69736D617463680000000000 PUSH1 0x44 DUP3 ADD MSTORE PUSH1 0x64 SWAP1 REVERT JUMPDEST PUSH1 0x20 DUP1 SWAP2 PUSH2 0x5CD DUP5 PUSH2 0x617 JUMP JUMPDEST DUP2 MSTORE ADD SWAP2 ADD SWAP1 PUSH2 0x115 JUMP JUMPDEST PUSH1 0x0 DUP1 REVERT JUMPDEST DUP1 PUSH1 0x20 DUP1 SWAP3 DUP5 ADD ADD MLOAD DUP3 DUP3 DUP9 ADD ADD MSTORE ADD PUSH2 0x8D JUMP JUMPDEST PUSH1 0x40 MLOAD SWAP2 SWAP1 PUSH1 0x1F ADD PUSH1 0x1F NOT AND DUP3 ADD PUSH1 0x1 PUSH1 0x1 PUSH1 0x40 SHL SUB DUP2 GT DUP4 DUP3 LT OR PUSH2 0x2FD JUMPI PUSH1 0x40 MSTORE JUMP JUMPDEST MLOAD SWAP1 PUSH1 0x1 PUSH1 0x1 PUSH1 0xA0 SHL SUB DUP3 AND DUP3 SUB PUSH2 0x5D8 JUMPI JUMP JUMPDEST DUP1 MLOAD DUP3 LT ISZERO PUSH2 0x63F JUMPI PUSH1 0x20 SWAP2 PUSH1 0x5 SHL ADD ADD SWAP1 JUMP JUMPDEST PUSH4 0x4E487B71 PUSH1 0xE0 SHL PUSH1 0x0 MSTORE PUSH1 0x32 PUSH1 0x4 MSTORE PUSH1 0x24 PUSH1 0x0 REVERT JUMPDEST PUSH1 0xB SLOAD DUP2 LT ISZERO PUSH2 0x63F JUMPI PUSH1 0xB PUSH1 0x0 MSTORE PUSH1 0x20 PUSH1 0x0 KECCAK256 ADD SWAP1 PUSH1 0x0 SWAP1 JUMP INVALID PUSH1 0x80 PUSH1 0x40 MSTORE PUSH1 0x4 CALLDATASIZE LT ISZERO PUSH2 0x12 JUMPI PUSH1 0x0 DUP1 REVERT JUMPDEST PUSH1 0x0 CALLDATALOAD PUSH1 0xE0 SHR DUP1 PUSH4 0x6FDDE03 EQ PUSH2 0xEFA JUMPI DUP1 PUSH4 0x70FECB5 EQ PUSH2 0xD38 JUMPI DUP1 PUSH4 0x83B9137 EQ PUSH2 0xCFA JUMPI DUP1 PUSH4 0x271751DA EQ PUSH2 0xCDC JUMPI DUP1 PUSH4 0x308352E8 EQ PUSH2 0xCBE JUMPI DUP1 PUSH4 0x35C1D349 EQ PUSH2 0xC5B JUMPI DUP1 PUSH4 0x399CD250 EQ PUSH2 0x193 JUMPI DUP1 PUSH4 0x44E0B8C1 EQ PUSH2 0xC13 JUMPI DUP1 PUSH4 0x4A9829CD EQ PUSH2 0xBE4 JUMPI DUP1 PUSH4 0x4E71D92D EQ PUSH2 0x8EE JUMPI DUP1 PUSH4 0x5428197C EQ PUSH2 0x6F9 JUMPI DUP1 PUSH4 0x5BEC4CB4 EQ PUSH2 0x6DB JUMPI DUP1 PUSH4 0x5FA0B65F EQ PUSH2 0x6BD JUMPI DUP1 PUSH4 0x61203265 EQ PUSH2 0x694 JUMPI DUP1 PUSH4 0x65D68E4E EQ PUSH2 0x5D9 JUMPI DUP1 PUSH4 0x78E97925 EQ PUSH2 0x5BB JUMPI DUP1 PUSH4 0x929066F5 EQ PUSH2 0x582 JUMPI DUP1 PUSH4 0x92D09CEB EQ PUSH2 0x564 JUMPI DUP1 PUSH4 0xA1657681 EQ PUSH2 0x546 JUMPI DUP1 PUSH4 0xA26DBF26 EQ PUSH2 0x528 JUMPI DUP1 PUSH4 0xAF2D0A31 EQ PUSH2 0x50A JUMPI DUP1 PUSH4 0xBAB2F552 EQ PUSH2 0x4EC JUMPI DUP1 PUSH4 0xBBB48445 EQ PUSH2 0x4C2 JUMPI DUP1 PUSH4 0xCBC3CECB EQ PUSH2 0x347 JUMPI DUP1 PUSH4 0xD7BB99BA EQ PUSH2 0x1C0 JUMPI DUP1 PUSH4 0xD94C7C27 EQ PUSH2 0x193 JUMPI DUP1 PUSH4 0xF54A36CC EQ PUSH2 0x170 JUMPI PUSH4 0xFD379A31 EQ PUSH2 0x150 JUMPI PUSH1 0x0 DUP1 REVERT JUMPDEST CALLVALUE PUSH2 0x16B JUMPI PUSH1 0x0 CALLDATASIZE PUSH1 0x3 NOT ADD SLT PUSH2 0x16B JUMPI PUSH2 0x169 PUSH2 0x13F0 JUMP JUMPDEST STOP JUMPDEST PUSH1 0x0 DUP1 REVERT JUMPDEST CALLVALUE PUSH2 0x16B JUMPI PUSH1 0x0 CALLDATASIZE PUSH1 0x3 NOT ADD SLT PUSH2 0x16B JUMPI PUSH1 0x20 PUSH1 0xFF PUSH1 0xA SLOAD AND PUSH1 0x40 MLOAD SWAP1 ISZERO ISZERO DUP2 MSTORE RETURN JUMPDEST CALLVALUE PUSH2 0x16B JUMPI PUSH1 0x0 CALLDATASIZE PUSH1 0x3 NOT ADD SLT PUSH2 0x16B JUMPI PUSH1 0xA SLOAD PUSH1 0x40 MLOAD PUSH1 0x10 SWAP2 SWAP1 SWAP2 SHR PUSH1 0x1 PUSH1 0x1 PUSH1 0xA0 SHL SUB AND DUP2 MSTORE PUSH1 0x20 SWAP1 RETURN JUMPDEST PUSH1 0x0 CALLDATASIZE PUSH1 0x3 NOT ADD SLT PUSH2 0x16B JUMPI PUSH2 0x1DD PUSH2 0x1D8 CALLER PUSH2 0x12FA JUMP JUMPDEST PUSH2 0x10A6 JUMP JUMPDEST PUSH2 0x1EB PUSH1 0xFF PUSH1 0xA SLOAD AND PUSH2 0x1222 JUMP JUMPDEST PUSH1 0x4 SLOAD PUSH1 0x5 SLOAD LT PUSH2 0x30B JUMPI PUSH2 0x205 PUSH1 0x2 SLOAD PUSH1 0x3 SLOAD SWAP1 PUSH2 0x13A9 JUMP JUMPDEST CALLVALUE SUB PUSH2 0x2C6 JUMPI CALLER PUSH1 0x0 MSTORE PUSH1 0xC PUSH1 0x20 MSTORE PUSH2 0x222 PUSH1 0x40 PUSH1 0x0 KECCAK256 SLOAD PUSH2 0x108B JUMP JUMPDEST POP DUP1 SLOAD PUSH1 0xFF DUP2 PUSH1 0xA0 SHR AND PUSH2 0x281 JUMPI PUSH1 0x1 PUSH1 0xA0 SHL SWAP1 PUSH1 0xFF PUSH1 0xA0 SHL NOT AND OR SWAP1 SSTORE PUSH32 0x4D26C2FE8F421A52E199F32EE4FC57172D01659BF57A1A39C4397B2BB07F539A PUSH1 0x80 PUSH1 0x4 SLOAD PUSH1 0x40 MLOAD SWAP1 ADDRESS DUP3 MSTORE CALLER PUSH1 0x20 DUP4 ADD MSTORE CALLVALUE PUSH1 0x40 DUP4 ADD MSTORE PUSH1 0x60 DUP3 ADD MSTORE LOG1 STOP JUMPDEST PUSH1 0x40 MLOAD PUSH3 0x461BCD PUSH1 0xE5 SHL DUP2 MSTORE PUSH1 0x20 PUSH1 0x4 DUP3 ADD MSTORE PUSH1 0x1E PUSH1 0x24 DUP3 ADD MSTORE PUSH32 0x416C726561647920636F6E74726962757465642074686973206379636C650000 PUSH1 0x44 DUP3 ADD MSTORE PUSH1 0x64 SWAP1 REVERT JUMPDEST PUSH1 0x40 MLOAD PUSH3 0x461BCD PUSH1 0xE5 SHL DUP2 MSTORE PUSH1 0x20 PUSH1 0x4 DUP3 ADD MSTORE PUSH1 0x1D PUSH1 0x24 DUP3 ADD MSTORE PUSH32 0x496E636F727265637420636F6E747269627574696F6E20616D6F756E74000000 PUSH1 0x44 DUP3 ADD MSTORE PUSH1 0x64 SWAP1 REVERT JUMPDEST PUSH1 0x40 MLOAD PUSH3 0x461BCD PUSH1 0xE5 SHL DUP2 MSTORE PUSH1 0x20 PUSH1 0x4 DUP3 ADD MSTORE PUSH1 0x14 PUSH1 0x24 DUP3 ADD MSTORE PUSH20 0x105B1B0818DE58DB195CC818DBDB5C1B195D1959 PUSH1 0x62 SHL PUSH1 0x44 DUP3 ADD MSTORE PUSH1 0x64 SWAP1 REVERT JUMPDEST CALLVALUE PUSH2 0x16B JUMPI PUSH1 0x0 CALLDATASIZE PUSH1 0x3 NOT ADD SLT PUSH2 0x16B JUMPI PUSH1 0x0 PUSH2 0x365 PUSH1 0x4 SLOAD PUSH2 0x133D JUMP JUMPDEST PUSH1 0x3 SLOAD SWAP1 DUP3 JUMPDEST DUP3 DUP2 LT PUSH2 0x480 JUMPI POP PUSH2 0x395 PUSH2 0x37F DUP5 PUSH2 0x13D8 JUMP JUMPDEST SWAP4 PUSH2 0x38D PUSH1 0x40 MLOAD SWAP6 DUP7 PUSH2 0xF2E JUMP JUMPDEST DUP1 DUP6 MSTORE PUSH2 0x13D8 JUMP JUMPDEST PUSH1 0x20 DUP5 ADD SWAP3 SWAP1 PUSH1 0x1F NOT ADD CALLDATASIZE DUP5 CALLDATACOPY PUSH1 0x0 SWAP2 PUSH1 0x0 JUMPDEST DUP3 DUP2 LT PUSH2 0x3FD JUMPI DUP5 DUP7 PUSH1 0x40 MLOAD SWAP2 DUP3 SWAP2 PUSH1 0x20 DUP4 ADD SWAP1 PUSH1 0x20 DUP5 MSTORE MLOAD DUP1 SWAP2 MSTORE PUSH1 0x40 DUP4 ADD SWAP2 SWAP1 PUSH1 0x0 JUMPDEST DUP2 DUP2 LT PUSH2 0x3DB JUMPI POP POP POP SUB SWAP1 RETURN JUMPDEST DUP3 MLOAD PUSH1 0x1 PUSH1 0x1 PUSH1 0xA0 SHL SUB AND DUP5 MSTORE DUP6 SWAP5 POP PUSH1 0x20 SWAP4 DUP5 ADD SWAP4 SWAP1 SWAP3 ADD SWAP2 PUSH1 0x1 ADD PUSH2 0x3CD JUMP JUMPDEST PUSH1 0xFF PUSH2 0x408 DUP3 PUSH2 0x108B JUMP JUMPDEST POP SLOAD PUSH1 0xA0 SHR AND ISZERO DUP1 PUSH2 0x477 JUMPI JUMPDEST PUSH2 0x422 JUMPI JUMPDEST PUSH1 0x1 ADD PUSH2 0x3A8 JUMP JUMPDEST SWAP3 PUSH2 0x42C DUP5 PUSH2 0x108B JUMP JUMPDEST POP SLOAD DUP7 MLOAD PUSH1 0x1 PUSH1 0x1 PUSH1 0xA0 SHL SUB SWAP1 SWAP2 AND SWAP1 DUP3 LT ISZERO PUSH2 0x461 JUMPI DUP2 PUSH2 0x459 SWAP2 PUSH1 0x20 PUSH1 0x1 SWAP5 PUSH1 0x5 SHL DUP11 ADD ADD MSTORE PUSH2 0x13C9 JUMP JUMPDEST SWAP4 SWAP1 POP PUSH2 0x41A JUMP JUMPDEST PUSH4 0x4E487B71 PUSH1 0xE0 SHL PUSH1 0x0 MSTORE PUSH1 0x32 PUSH1 0x4 MSTORE PUSH1 0x24 PUSH1 0x0 REVERT JUMPDEST POP DUP2 TIMESTAMP GT PUSH2 0x415 JUMP JUMPDEST PUSH1 0xFF PUSH2 0x48B DUP3 PUSH2 0x108B JUMP JUMPDEST POP SLOAD PUSH1 0xA0 SHR AND ISZERO DUP1 PUSH2 0x4B9 JUMPI JUMPDEST PUSH2 0x4A5 JUMPI JUMPDEST PUSH1 0x1 ADD PUSH2 0x36B JUMP JUMPDEST SWAP3 PUSH2 0x4B1 PUSH1 0x1 SWAP2 PUSH2 0x13C9 JUMP JUMPDEST SWAP4 SWAP1 POP PUSH2 0x49D JUMP JUMPDEST POP DUP2 TIMESTAMP GT PUSH2 0x498 JUMP JUMPDEST CALLVALUE PUSH2 0x16B JUMPI PUSH1 0x0 CALLDATASIZE PUSH1 0x3 NOT ADD SLT PUSH2 0x16B JUMPI PUSH1 0x20 PUSH2 0x4E4 PUSH1 0x2 SLOAD PUSH1 0x3 SLOAD SWAP1 PUSH2 0x13A9 JUMP JUMPDEST PUSH1 0x40 MLOAD SWAP1 DUP2 MSTORE RETURN JUMPDEST CALLVALUE PUSH2 0x16B JUMPI PUSH1 0x0 CALLDATASIZE PUSH1 0x3 NOT ADD SLT PUSH2 0x16B JUMPI PUSH1 0x20 PUSH1 0x4 SLOAD PUSH1 0x40 MLOAD SWAP1 DUP2 MSTORE RETURN JUMPDEST CALLVALUE PUSH2 0x16B JUMPI PUSH1 0x20 CALLDATASIZE PUSH1 0x3 NOT ADD SLT PUSH2 0x16B JUMPI PUSH1 0x20 PUSH2 0x4E4 PUSH1 0x4 CALLDATALOAD PUSH2 0x133D JUMP JUMPDEST CALLVALUE PUSH2 0x16B JUMPI PUSH1 0x0 CALLDATASIZE PUSH1 0x3 NOT ADD SLT PUSH2 0x16B JUMPI PUSH1 0x20 PUSH1 0x3 SLOAD PUSH1 0x40 MLOAD SWAP1 DUP2 MSTORE RETURN JUMPDEST CALLVALUE PUSH2 0x16B JUMPI PUSH1 0x0 CALLDATASIZE PUSH1 0x3 NOT ADD SLT PUSH2 0x16B JUMPI PUSH1 0x20 PUSH1 0x5 SLOAD PUSH1 0x40 MLOAD SWAP1 DUP2 MSTORE RETURN JUMPDEST CALLVALUE PUSH2 0x16B JUMPI PUSH1 0x0 CALLDATASIZE PUSH1 0x3 NOT ADD SLT PUSH2 0x16B JUMPI PUSH1 0x20 PUSH1 0x9 SLOAD PUSH1 0x40 MLOAD SWAP1 DUP2 MSTORE RETURN JUMPDEST CALLVALUE PUSH2 0x16B JUMPI PUSH1 0x20 CALLDATASIZE PUSH1 0x3 NOT ADD SLT PUSH2 0x16B JUMPI PUSH1 0x4 CALLDATALOAD PUSH1 0x1 PUSH1 0x1 PUSH1 0xA0 SHL SUB DUP2 AND DUP2 SUB PUSH2 0x16B JUMPI PUSH2 0x5B1 PUSH1 0x20 SWAP2 PUSH2 0x12FA JUMP JUMPDEST PUSH1 0x40 MLOAD SWAP1 ISZERO ISZERO DUP2 MSTORE RETURN JUMPDEST CALLVALUE PUSH2 0x16B JUMPI PUSH1 0x0 CALLDATASIZE PUSH1 0x3 NOT ADD SLT PUSH2 0x16B JUMPI PUSH1 0x20 PUSH1 0x7 SLOAD PUSH1 0x40 MLOAD SWAP1 DUP2 MSTORE RETURN JUMPDEST CALLVALUE PUSH2 0x16B JUMPI PUSH1 0x0 CALLDATASIZE PUSH1 0x3 NOT ADD SLT PUSH2 0x16B JUMPI PUSH2 0x1A0 PUSH1 0x20 PUSH1 0x1 DUP1 PUSH1 0xA0 SHL SUB PUSH1 0x0 SLOAD AND PUSH1 0x2 SLOAD PUSH1 0x3 SLOAD SWAP1 PUSH1 0x4 SLOAD SWAP2 PUSH1 0x5 SLOAD SWAP3 PUSH1 0xA SLOAD SWAP4 PUSH1 0xD SLOAD SWAP1 PUSH1 0x6 SLOAD SWAP3 PUSH1 0x7 SLOAD SWAP5 PUSH1 0x9 SLOAD SWAP7 PUSH2 0x63F PUSH2 0x628 PUSH2 0xF66 JUMP JUMPDEST PUSH1 0x40 MLOAD SWAP14 DUP15 SWAP14 DUP15 ADDRESS DUP2 MSTORE ADD MSTORE PUSH2 0x1A0 DUP14 ADD SWAP1 PUSH2 0x104A JUMP JUMPDEST PUSH1 0x40 DUP13 ADD SWAP11 SWAP1 SWAP11 MSTORE PUSH1 0x60 DUP12 ADD MSTORE PUSH1 0x80 DUP11 ADD MSTORE PUSH1 0xA0 DUP10 ADD MSTORE PUSH1 0xC0 DUP9 ADD MSTORE PUSH1 0xFF DUP6 AND ISZERO ISZERO PUSH1 0xE0 DUP9 ADD MSTORE PUSH2 0x100 DUP8 ADD MSTORE PUSH2 0x120 DUP7 ADD MSTORE PUSH2 0x140 DUP6 ADD MSTORE PUSH2 0x160 DUP5 ADD MSTORE PUSH1 0x10 SHR PUSH1 0x1 PUSH1 0x1 PUSH1 0xA0 SHL SUB AND PUSH2 0x180 DUP4 ADD MSTORE SUB SWAP1 RETURN JUMPDEST CALLVALUE PUSH2 0x16B JUMPI PUSH1 0x0 CALLDATASIZE PUSH1 0x3 NOT ADD SLT PUSH2 0x16B JUMPI PUSH1 0x0 SLOAD PUSH1 0x40 MLOAD PUSH1 0x1 PUSH1 0x1 PUSH1 0xA0 SHL SUB SWAP1 SWAP2 AND DUP2 MSTORE PUSH1 0x20 SWAP1 RETURN JUMPDEST CALLVALUE PUSH2 0x16B JUMPI PUSH1 0x0 CALLDATASIZE PUSH1 0x3 NOT ADD SLT PUSH2 0x16B JUMPI PUSH1 0x20 PUSH1 0x2 SLOAD PUSH1 0x40 MLOAD SWAP1 DUP2 MSTORE RETURN JUMPDEST CALLVALUE PUSH2 0x16B JUMPI PUSH1 0x0 CALLDATASIZE PUSH1 0x3 NOT ADD SLT PUSH2 0x16B JUMPI PUSH1 0x20 PUSH1 0x6 SLOAD PUSH1 0x40 MLOAD SWAP1 DUP2 MSTORE RETURN JUMPDEST CALLVALUE PUSH2 0x16B JUMPI PUSH1 0x0 CALLDATASIZE PUSH1 0x3 NOT ADD SLT PUSH2 0x16B JUMPI PUSH2 0x100 PUSH1 0xA SLOAD PUSH2 0x720 PUSH1 0xFF DUP3 PUSH1 0x8 SHR AND ISZERO PUSH2 0x126E JUMP JUMPDEST PUSH2 0xFF00 NOT AND OR PUSH1 0xA SSTORE PUSH1 0x4 SLOAD PUSH1 0x5 SLOAD LT ISZERO PUSH2 0x8B0 JUMPI PUSH1 0xD SLOAD ISZERO PUSH2 0x86B JUMPI PUSH1 0x0 JUMPDEST PUSH1 0x3 SLOAD DUP2 LT ISZERO PUSH2 0x812 JUMPI PUSH2 0x753 DUP2 PUSH2 0x108B JUMP JUMPDEST POP DUP1 SLOAD PUSH1 0xFF DUP2 PUSH1 0xA8 SHR AND PUSH2 0x76C JUMPI JUMPDEST POP POP PUSH1 0x1 ADD PUSH2 0x740 JUMP JUMPDEST PUSH1 0xFF PUSH1 0xA8 SHL NOT AND DUP2 SSTORE PUSH1 0x9 SLOAD PUSH1 0xD SLOAD DUP2 DUP2 SUB SWAP3 SWAP1 DUP4 GT PUSH2 0x7FC JUMPI PUSH1 0xD SWAP3 SWAP1 SWAP3 SSTORE SWAP1 SLOAD PUSH1 0x0 SWAP2 DUP3 SWAP2 DUP3 SWAP2 DUP3 SWAP2 PUSH1 0x1 PUSH1 0x1 PUSH1 0xA0 SHL SUB AND GAS CALL PUSH2 0x7AA PUSH2 0x12BA JUMP JUMPDEST POP ISZERO PUSH2 0x7B7 JUMPI DUP2 DUP1 PUSH2 0x762 JUMP JUMPDEST PUSH1 0x40 MLOAD PUSH3 0x461BCD PUSH1 0xE5 SHL DUP2 MSTORE PUSH1 0x20 PUSH1 0x4 DUP3 ADD MSTORE PUSH1 0x18 PUSH1 0x24 DUP3 ADD MSTORE PUSH32 0x436F6C6C61746572616C2072657475726E206661696C65640000000000000000 PUSH1 0x44 DUP3 ADD MSTORE PUSH1 0x64 SWAP1 REVERT JUMPDEST PUSH4 0x4E487B71 PUSH1 0xE0 SHL PUSH1 0x0 MSTORE PUSH1 0x11 PUSH1 0x4 MSTORE PUSH1 0x24 PUSH1 0x0 REVERT JUMPDEST PUSH1 0xD SLOAD PUSH2 0x826 JUMPI PUSH1 0xA DUP1 SLOAD PUSH2 0xFF00 NOT AND SWAP1 SSTORE STOP JUMPDEST PUSH1 0x40 MLOAD PUSH3 0x461BCD PUSH1 0xE5 SHL DUP2 MSTORE PUSH1 0x20 PUSH1 0x4 DUP3 ADD MSTORE PUSH1 0x1C PUSH1 0x24 DUP3 ADD MSTORE PUSH32 0x436F6C6C61746572616C2072657475726E20696E636F6D706C65746500000000 PUSH1 0x44 DUP3 ADD MSTORE PUSH1 0x64 SWAP1 REVERT JUMPDEST PUSH1 0x40 MLOAD PUSH3 0x461BCD PUSH1 0xE5 SHL DUP2 MSTORE PUSH1 0x20 PUSH1 0x4 DUP3 ADD MSTORE PUSH1 0x1B PUSH1 0x24 DUP3 ADD MSTORE PUSH32 0x436F6C6C61746572616C20616C72656164792072657475726E65640000000000 PUSH1 0x44 DUP3 ADD MSTORE PUSH1 0x64 SWAP1 REVERT JUMPDEST PUSH1 0x40 MLOAD PUSH3 0x461BCD PUSH1 0xE5 SHL DUP2 MSTORE PUSH1 0x20 PUSH1 0x4 DUP3 ADD MSTORE PUSH1 0x16 PUSH1 0x24 DUP3 ADD MSTORE PUSH22 0x119D5B99081B9BDD0818DBDB5C1B195D1959081E595D PUSH1 0x52 SHL PUSH1 0x44 DUP3 ADD MSTORE PUSH1 0x64 SWAP1 REVERT JUMPDEST CALLVALUE PUSH2 0x16B JUMPI PUSH1 0x0 CALLDATASIZE PUSH1 0x3 NOT ADD SLT PUSH2 0x16B JUMPI PUSH1 0xA SLOAD CALLER PUSH1 0x10 DUP3 SWAP1 SHR PUSH1 0x1 PUSH1 0x1 PUSH1 0xA0 SHL SUB AND SUB PUSH2 0xB87 JUMPI PUSH2 0x922 PUSH1 0xFF DUP3 AND PUSH2 0x1222 JUMP JUMPDEST PUSH2 0x92A PUSH2 0x14C8 JUMP JUMPDEST ISZERO PUSH2 0xB42 JUMPI DUP1 PUSH2 0x943 PUSH1 0xFF PUSH2 0x100 SWAP4 PUSH1 0x8 SHR AND ISZERO PUSH2 0x126E JUMP JUMPDEST PUSH2 0xFF00 NOT AND OR DUP1 PUSH1 0xA SSTORE PUSH2 0x955 PUSH2 0x14C8 JUMP JUMPDEST ISZERO PUSH2 0xAF2 JUMPI PUSH1 0x2 SLOAD PUSH1 0x10 SWAP2 SWAP1 SWAP2 SHR PUSH1 0x1 PUSH1 0x1 PUSH1 0xA0 SHL SUB AND SWAP1 PUSH1 0x0 DUP1 DUP1 DUP1 DUP5 DUP7 GAS CALL PUSH2 0x97E PUSH2 0x12BA JUMP JUMPDEST POP ISZERO PUSH2 0xAB6 JUMPI DUP2 PUSH1 0x80 SWAP2 PUSH32 0x6F93C0EEC5A091F9FAAA7530ED0BF04BA99E92D2D08C7D1B7642AC295B125795 SWAP4 PUSH1 0x0 MSTORE PUSH1 0xC PUSH1 0x20 MSTORE PUSH2 0x9C0 PUSH1 0x40 PUSH1 0x0 KECCAK256 SLOAD PUSH2 0x108B JUMP JUMPDEST POP DUP1 SLOAD PUSH1 0xFF PUSH1 0xB0 SHL NOT AND PUSH1 0x1 PUSH1 0xB0 SHL OR SWAP1 SSTORE PUSH1 0x4 SLOAD PUSH1 0x40 DUP1 MLOAD ADDRESS DUP2 MSTORE PUSH1 0x20 DUP2 ADD SWAP5 SWAP1 SWAP5 MSTORE DUP4 ADD SWAP2 SWAP1 SWAP2 MSTORE PUSH1 0x60 DUP3 ADD MSTORE LOG1 PUSH1 0x0 JUMPDEST PUSH1 0x3 SLOAD DUP2 LT ISZERO PUSH2 0xA1B JUMPI DUP1 PUSH2 0xA09 PUSH1 0x1 SWAP3 PUSH2 0x108B JUMP JUMPDEST POP DUP1 SLOAD PUSH1 0xFF PUSH1 0xA0 SHL NOT AND SWAP1 SSTORE ADD PUSH2 0x9F3 JUMP JUMPDEST PUSH2 0xA26 PUSH1 0x4 SLOAD PUSH2 0x13C9 JUMP JUMPDEST DUP1 PUSH1 0x4 SSTORE PUSH1 0x0 NOT DUP2 ADD SWAP1 DUP2 GT PUSH2 0x7FC JUMPI PUSH1 0x40 PUSH32 0x7A22242C42D1E94F110CB053B2CF343580C736816A22AC54EC7DD833BF0DBE63 SWAP2 DUP2 MLOAD SWAP1 ADDRESS DUP3 MSTORE PUSH1 0x20 DUP3 ADD MSTORE LOG1 PUSH1 0xA DUP1 SLOAD PUSH2 0xFF00 NOT AND SWAP1 SSTORE PUSH1 0x4 SLOAD PUSH1 0x40 DUP1 MLOAD ADDRESS DUP2 MSTORE CALLER PUSH1 0x20 DUP3 ADD MSTORE SWAP1 DUP2 ADD SWAP2 SWAP1 SWAP2 MSTORE PUSH32 0x8B5640BC6A70F4CEDABAF515FA266B322BF861AA1FDA7AC4AE261193EAA6CFA7 SWAP1 PUSH1 0x60 SWAP1 LOG1 PUSH2 0x169 PUSH2 0x13F0 JUMP JUMPDEST PUSH1 0x40 MLOAD PUSH3 0x461BCD PUSH1 0xE5 SHL DUP2 MSTORE PUSH1 0x20 PUSH1 0x4 DUP3 ADD MSTORE PUSH1 0x14 PUSH1 0x24 DUP3 ADD MSTORE PUSH20 0x119D5B99081D1C985B9CD9995C8819985A5B1959 PUSH1 0x62 SHL PUSH1 0x44 DUP3 ADD MSTORE PUSH1 0x64 SWAP1 REVERT JUMPDEST PUSH1 0x40 MLOAD PUSH3 0x461BCD PUSH1 0xE5 SHL DUP2 MSTORE PUSH1 0x20 PUSH1 0x4 DUP3 ADD MSTORE PUSH1 0x22 PUSH1 0x24 DUP3 ADD MSTORE PUSH32 0x416C6C20636F6E747269627574696F6E73206E6F742072656365697665642079 PUSH1 0x44 DUP3 ADD MSTORE PUSH2 0x195D PUSH1 0xF2 SHL PUSH1 0x64 DUP3 ADD MSTORE PUSH1 0x84 SWAP1 REVERT JUMPDEST PUSH1 0x40 MLOAD PUSH3 0x461BCD PUSH1 0xE5 SHL DUP2 MSTORE PUSH1 0x20 PUSH1 0x4 DUP3 ADD MSTORE PUSH1 0x1E PUSH1 0x24 DUP3 ADD MSTORE PUSH32 0x4E6F7420616C6C20636F6E747269627574696F6E732072656365697665640000 PUSH1 0x44 DUP3 ADD MSTORE PUSH1 0x64 SWAP1 REVERT JUMPDEST PUSH1 0x40 MLOAD PUSH3 0x461BCD PUSH1 0xE5 SHL DUP2 MSTORE PUSH1 0x20 PUSH1 0x4 DUP3 ADD MSTORE PUSH1 0x2F PUSH1 0x24 DUP3 ADD MSTORE PUSH32 0x4F6E6C792074686520656C696769626C6520726563697069656E742063616E20 PUSH1 0x44 DUP3 ADD MSTORE PUSH15 0x636C61696D207468652066756E6473 PUSH1 0x88 SHL PUSH1 0x64 DUP3 ADD MSTORE PUSH1 0x84 SWAP1 REVERT JUMPDEST CALLVALUE PUSH2 0x16B JUMPI PUSH1 0x20 CALLDATASIZE PUSH1 0x3 NOT ADD SLT PUSH2 0x16B JUMPI PUSH1 0x4 CALLDATALOAD PUSH1 0x1 PUSH1 0x1 PUSH1 0xA0 SHL SUB DUP2 AND DUP2 SUB PUSH2 0x16B JUMPI PUSH2 0x5B1 PUSH1 0x20 SWAP2 PUSH2 0x1179 JUMP JUMPDEST CALLVALUE PUSH2 0x16B JUMPI PUSH1 0x20 CALLDATASIZE PUSH1 0x3 NOT ADD SLT PUSH2 0x16B JUMPI PUSH1 0x4 CALLDATALOAD PUSH1 0x1 PUSH1 0x1 PUSH1 0xA0 SHL SUB DUP2 AND DUP2 SUB PUSH2 0x16B JUMPI PUSH2 0xC42 PUSH1 0x60 SWAP2 PUSH2 0x1124 JUMP JUMPDEST SWAP1 PUSH1 0x40 MLOAD SWAP3 ISZERO ISZERO DUP4 MSTORE ISZERO ISZERO PUSH1 0x20 DUP4 ADD MSTORE ISZERO ISZERO PUSH1 0x40 DUP3 ADD MSTORE RETURN JUMPDEST CALLVALUE PUSH2 0x16B JUMPI PUSH1 0x20 CALLDATASIZE PUSH1 0x3 NOT ADD SLT PUSH2 0x16B JUMPI PUSH1 0x4 CALLDATALOAD PUSH1 0xB SLOAD DUP2 LT ISZERO PUSH2 0x16B JUMPI PUSH2 0xC84 PUSH1 0x80 SWAP2 PUSH2 0x108B JUMP JUMPDEST POP SLOAD PUSH1 0xFF PUSH1 0x40 MLOAD SWAP2 PUSH1 0x1 DUP1 PUSH1 0xA0 SHL SUB DUP2 AND DUP4 MSTORE DUP2 DUP2 PUSH1 0xA0 SHR AND ISZERO ISZERO PUSH1 0x20 DUP5 ADD MSTORE DUP2 DUP2 PUSH1 0xA8 SHR AND ISZERO ISZERO PUSH1 0x40 DUP5 ADD MSTORE PUSH1 0xB0 SHR AND ISZERO ISZERO PUSH1 0x60 DUP3 ADD MSTORE RETURN JUMPDEST CALLVALUE PUSH2 0x16B JUMPI PUSH1 0x0 CALLDATASIZE PUSH1 0x3 NOT ADD SLT PUSH2 0x16B JUMPI PUSH1 0x20 PUSH1 0x8 SLOAD PUSH1 0x40 MLOAD SWAP1 DUP2 MSTORE RETURN JUMPDEST CALLVALUE PUSH2 0x16B JUMPI PUSH1 0x0 CALLDATASIZE PUSH1 0x3 NOT ADD SLT PUSH2 0x16B JUMPI PUSH1 0x20 PUSH1 0xD SLOAD PUSH1 0x40 MLOAD SWAP1 DUP2 MSTORE RETURN JUMPDEST CALLVALUE PUSH2 0x16B JUMPI PUSH1 0x20 CALLDATASIZE PUSH1 0x3 NOT ADD SLT PUSH2 0x16B JUMPI PUSH1 0x4 CALLDATALOAD PUSH1 0x1 PUSH1 0x1 PUSH1 0xA0 SHL SUB DUP2 AND SWAP1 DUP2 SWAP1 SUB PUSH2 0x16B JUMPI PUSH1 0x0 MSTORE PUSH1 0xC PUSH1 0x20 MSTORE PUSH1 0x20 PUSH1 0x40 PUSH1 0x0 KECCAK256 SLOAD PUSH1 0x40 MLOAD SWAP1 DUP2 MSTORE RETURN JUMPDEST PUSH1 0x0 CALLDATASIZE PUSH1 0x3 NOT ADD SLT PUSH2 0x16B JUMPI PUSH2 0xD50 PUSH2 0x1D8 CALLER PUSH2 0x12FA JUMP JUMPDEST PUSH1 0xFF PUSH1 0xA SLOAD AND PUSH2 0xEBE JUMPI PUSH1 0x9 SLOAD CALLVALUE SUB PUSH2 0xE79 JUMPI CALLER PUSH1 0x0 MSTORE PUSH1 0xC PUSH1 0x20 MSTORE PUSH2 0xD7A PUSH1 0x40 PUSH1 0x0 KECCAK256 SLOAD PUSH2 0x108B JUMP JUMPDEST POP DUP1 SLOAD PUSH1 0xFF DUP2 PUSH1 0xA8 SHR AND PUSH2 0xE34 JUMPI PUSH1 0xFF PUSH1 0xA8 SHL NOT AND PUSH1 0x1 PUSH1 0xA8 SHL OR SWAP1 SSTORE PUSH1 0xD SLOAD PUSH2 0xDA5 SWAP1 CALLVALUE SWAP1 PUSH2 0x1104 JUMP JUMPDEST PUSH1 0xD DUP2 SWAP1 SSTORE PUSH1 0x40 DUP1 MLOAD ADDRESS DUP2 MSTORE CALLER PUSH1 0x20 DUP3 ADD MSTORE CALLVALUE SWAP2 DUP2 ADD SWAP2 SWAP1 SWAP2 MSTORE PUSH32 0xB43984808665DF1DB24188755E128600F9328714BF9E898378AAA7D273043934 SWAP1 PUSH1 0x60 SWAP1 LOG1 PUSH2 0xDF4 PUSH1 0x9 SLOAD PUSH1 0x3 SLOAD SWAP1 PUSH2 0x1111 JUMP JUMPDEST EQ PUSH2 0xDFB JUMPI STOP JUMPDEST PUSH1 0x1 PUSH1 0xFF NOT PUSH1 0xA SLOAD AND OR PUSH1 0xA SSTORE PUSH32 0xDC33CF22F590C5AB4976C2CE3291383F046AAC79B0C484500298D3D62F3118CA PUSH1 0x20 PUSH1 0x40 MLOAD ADDRESS DUP2 MSTORE LOG1 STOP JUMPDEST PUSH1 0x40 MLOAD PUSH3 0x461BCD PUSH1 0xE5 SHL DUP2 MSTORE PUSH1 0x20 PUSH1 0x4 DUP3 ADD MSTORE PUSH1 0x19 PUSH1 0x24 DUP3 ADD MSTORE PUSH32 0x416C7265616479207374616B656420636F6C6C61746572616C00000000000000 PUSH1 0x44 DUP3 ADD MSTORE PUSH1 0x64 SWAP1 REVERT JUMPDEST PUSH1 0x40 MLOAD PUSH3 0x461BCD PUSH1 0xE5 SHL DUP2 MSTORE PUSH1 0x20 PUSH1 0x4 DUP3 ADD MSTORE PUSH1 0x1B PUSH1 0x24 DUP3 ADD MSTORE PUSH32 0x496E636F727265637420636F6C6C61746572616C20616D6F756E740000000000 PUSH1 0x44 DUP3 ADD MSTORE PUSH1 0x64 SWAP1 REVERT JUMPDEST PUSH1 0x40 MLOAD PUSH3 0x461BCD PUSH1 0xE5 SHL DUP2 MSTORE PUSH1 0x20 PUSH1 0x4 DUP3 ADD MSTORE PUSH1 0x14 PUSH1 0x24 DUP3 ADD MSTORE PUSH20 0x119D5B9908185B1C9958591E481CDD185C9D1959 PUSH1 0x62 SHL PUSH1 0x44 DUP3 ADD MSTORE PUSH1 0x64 SWAP1 REVERT JUMPDEST CALLVALUE PUSH2 0x16B JUMPI PUSH1 0x0 CALLDATASIZE PUSH1 0x3 NOT ADD SLT PUSH2 0x16B JUMPI PUSH2 0xF2A PUSH2 0xF16 PUSH2 0xF66 JUMP JUMPDEST PUSH1 0x40 MLOAD SWAP2 DUP3 SWAP2 PUSH1 0x20 DUP4 MSTORE PUSH1 0x20 DUP4 ADD SWAP1 PUSH2 0x104A JUMP JUMPDEST SUB SWAP1 RETURN JUMPDEST SWAP1 PUSH1 0x1F DUP1 NOT SWAP2 ADD AND DUP2 ADD SWAP1 DUP2 LT PUSH8 0xFFFFFFFFFFFFFFFF DUP3 GT OR PUSH2 0xF50 JUMPI PUSH1 0x40 MSTORE JUMP JUMPDEST PUSH4 0x4E487B71 PUSH1 0xE0 SHL PUSH1 0x0 MSTORE PUSH1 0x41 PUSH1 0x4 MSTORE PUSH1 0x24 PUSH1 0x0 REVERT JUMPDEST PUSH1 0x40 MLOAD SWAP1 PUSH1 0x0 PUSH1 0x1 SLOAD SWAP1 DUP2 PUSH1 0x1 SHR SWAP2 PUSH1 0x1 DUP2 AND DUP1 ISZERO PUSH2 0x1040 JUMPI JUMPDEST PUSH1 0x20 DUP5 LT DUP2 EQ PUSH2 0x102C JUMPI DUP4 DUP7 MSTORE DUP6 SWAP3 SWAP2 DUP2 ISZERO PUSH2 0x100D JUMPI POP PUSH1 0x1 EQ PUSH2 0xFAD JUMPI JUMPDEST PUSH2 0xFAB SWAP3 POP SUB DUP4 PUSH2 0xF2E JUMP JUMPDEST JUMP JUMPDEST POP PUSH1 0x1 PUSH1 0x0 SWAP1 DUP2 MSTORE SWAP1 SWAP2 PUSH32 0xB10E2D527612073B26EECDFD717E6A320CF44B4AFAC2B0732D9FCBE2B7FA0CF6 JUMPDEST DUP2 DUP4 LT PUSH2 0xFF1 JUMPI POP POP SWAP1 PUSH1 0x20 PUSH2 0xFAB SWAP3 DUP3 ADD ADD PUSH2 0xF9F JUMP JUMPDEST PUSH1 0x20 SWAP2 SWAP4 POP DUP1 PUSH1 0x1 SWAP2 SLOAD DUP4 DUP6 DUP10 ADD ADD MSTORE ADD SWAP2 ADD SWAP1 SWAP2 DUP5 SWAP3 PUSH2 0xFD9 JUMP JUMPDEST PUSH1 0x20 SWAP3 POP PUSH2 0xFAB SWAP5 SWAP2 POP PUSH1 0xFF NOT AND DUP3 DUP5 ADD MSTORE ISZERO ISZERO PUSH1 0x5 SHL DUP3 ADD ADD PUSH2 0xF9F JUMP JUMPDEST PUSH4 0x4E487B71 PUSH1 0xE0 SHL DUP4 MSTORE PUSH1 0x22 PUSH1 0x4 MSTORE PUSH1 0x24 DUP4 REVERT JUMPDEST SWAP3 PUSH1 0x7F AND SWAP3 PUSH2 0xF80 JUMP JUMPDEST SWAP2 SWAP1 DUP3 MLOAD SWAP3 DUP4 DUP3 MSTORE PUSH1 0x0 JUMPDEST DUP5 DUP2 LT PUSH2 0x1076 JUMPI POP POP DUP3 PUSH1 0x0 PUSH1 0x20 DUP1 SWAP5 SWAP6 DUP5 ADD ADD MSTORE PUSH1 0x1F DUP1 NOT SWAP2 ADD AND ADD ADD SWAP1 JUMP JUMPDEST DUP1 PUSH1 0x20 DUP1 SWAP3 DUP5 ADD ADD MLOAD DUP3 DUP3 DUP7 ADD ADD MSTORE ADD PUSH2 0x1055 JUMP JUMPDEST PUSH1 0xB SLOAD DUP2 LT ISZERO PUSH2 0x461 JUMPI PUSH1 0xB PUSH1 0x0 MSTORE PUSH1 0x20 PUSH1 0x0 KECCAK256 ADD SWAP1 PUSH1 0x0 SWAP1 JUMP JUMPDEST ISZERO PUSH2 0x10AD JUMPI JUMP JUMPDEST PUSH1 0x40 MLOAD PUSH3 0x461BCD PUSH1 0xE5 SHL DUP2 MSTORE PUSH1 0x20 PUSH1 0x4 DUP3 ADD MSTORE PUSH1 0x29 PUSH1 0x24 DUP3 ADD MSTORE PUSH32 0x4F6E6C79207061727469636970616E74732063616E20706572666F726D207468 PUSH1 0x44 DUP3 ADD MSTORE PUSH9 0x34B99030B1BA34B7B7 PUSH1 0xB9 SHL PUSH1 0x64 DUP3 ADD MSTORE PUSH1 0x84 SWAP1 REVERT JUMPDEST SWAP2 SWAP1 DUP3 ADD DUP1 SWAP3 GT PUSH2 0x7FC JUMPI JUMP JUMPDEST DUP2 DUP2 MUL SWAP3 SWAP2 DUP2 ISZERO SWAP2 DUP5 DIV EQ OR ISZERO PUSH2 0x7FC JUMPI JUMP JUMPDEST PUSH2 0x112D DUP2 PUSH2 0x12FA JUMP JUMPDEST ISZERO PUSH2 0x116D JUMPI PUSH1 0x1 PUSH1 0x1 PUSH1 0xA0 SHL SUB AND PUSH1 0x0 SWAP1 DUP2 MSTORE PUSH1 0xC PUSH1 0x20 MSTORE PUSH1 0x40 SWAP1 KECCAK256 SLOAD PUSH2 0x1153 SWAP1 PUSH2 0x108B JUMP JUMPDEST POP SLOAD PUSH1 0xFF DUP2 PUSH1 0xA8 SHR AND SWAP2 PUSH1 0xFF DUP1 DUP4 PUSH1 0xA0 SHR AND SWAP3 PUSH1 0xB0 SHR AND SWAP1 JUMP JUMPDEST POP PUSH1 0x0 SWAP1 PUSH1 0x0 SWAP1 PUSH1 0x0 SWAP1 JUMP JUMPDEST PUSH2 0x1182 DUP2 PUSH2 0x12FA JUMP JUMPDEST ISZERO PUSH2 0x11DD JUMPI PUSH1 0x1 PUSH1 0x1 PUSH1 0xA0 SHL SUB AND PUSH1 0x0 SWAP1 DUP2 MSTORE PUSH1 0xC PUSH1 0x20 MSTORE PUSH1 0x40 SWAP1 KECCAK256 SLOAD PUSH2 0x11A8 SWAP1 PUSH2 0x108B JUMP JUMPDEST POP PUSH1 0xFF PUSH2 0x11B6 PUSH1 0x4 SLOAD PUSH2 0x133D JUMP JUMPDEST SWAP2 SLOAD PUSH1 0xA0 SHR AND ISZERO SWAP1 DUP2 PUSH2 0x11D3 JUMPI JUMPDEST POP PUSH2 0x11CE JUMPI PUSH1 0x0 SWAP1 JUMP JUMPDEST PUSH1 0x1 SWAP1 JUMP JUMPDEST SWAP1 POP TIMESTAMP GT CODESIZE PUSH2 0x11C4 JUMP JUMPDEST PUSH1 0x40 MLOAD PUSH3 0x461BCD PUSH1 0xE5 SHL DUP2 MSTORE PUSH1 0x20 PUSH1 0x4 DUP3 ADD MSTORE PUSH1 0x1C PUSH1 0x24 DUP3 ADD MSTORE PUSH32 0x41646472657373206973206E6F742061207061727469636970616E7400000000 PUSH1 0x44 DUP3 ADD MSTORE PUSH1 0x64 SWAP1 REVERT JUMPDEST ISZERO PUSH2 0x1229 JUMPI JUMP JUMPDEST PUSH1 0x40 MLOAD PUSH3 0x461BCD PUSH1 0xE5 SHL DUP2 MSTORE PUSH1 0x20 PUSH1 0x4 DUP3 ADD MSTORE PUSH1 0x18 PUSH1 0x24 DUP3 ADD MSTORE PUSH32 0x46756E6420686173206E6F742073746172746564207965740000000000000000 PUSH1 0x44 DUP3 ADD MSTORE PUSH1 0x64 SWAP1 REVERT JUMPDEST ISZERO PUSH2 0x1275 JUMPI JUMP JUMPDEST PUSH1 0x40 MLOAD PUSH3 0x461BCD PUSH1 0xE5 SHL DUP2 MSTORE PUSH1 0x20 PUSH1 0x4 DUP3 ADD MSTORE PUSH1 0x1F PUSH1 0x24 DUP3 ADD MSTORE PUSH32 0x5265656E7472616E637947756172643A207265656E7472616E742063616C6C00 PUSH1 0x44 DUP3 ADD MSTORE PUSH1 0x64 SWAP1 REVERT JUMPDEST RETURNDATASIZE ISZERO PUSH2 0x12F5 JUMPI RETURNDATASIZE SWAP1 PUSH8 0xFFFFFFFFFFFFFFFF DUP3 GT PUSH2 0xF50 JUMPI PUSH1 0x40 MLOAD SWAP2 PUSH2 0x12E9 PUSH1 0x1F DUP3 ADD PUSH1 0x1F NOT AND PUSH1 0x20 ADD DUP5 PUSH2 0xF2E JUMP JUMPDEST DUP3 MSTORE RETURNDATASIZE PUSH1 0x0 PUSH1 0x20 DUP5 ADD RETURNDATACOPY JUMP JUMPDEST PUSH1 0x60 SWAP1 JUMP JUMPDEST PUSH1 0x1 PUSH1 0x1 PUSH1 0xA0 SHL SUB AND PUSH1 0x0 DUP2 DUP2 MSTORE PUSH1 0xC PUSH1 0x20 MSTORE PUSH1 0x40 SWAP1 KECCAK256 SLOAD PUSH1 0x3 SLOAD DUP2 LT SWAP2 SWAP1 DUP3 PUSH2 0x1323 JUMPI POP POP SWAP1 JUMP JUMPDEST PUSH2 0x132E SWAP2 SWAP3 POP PUSH2 0x108B JUMP JUMPDEST POP SLOAD PUSH1 0x1 PUSH1 0x1 PUSH1 0xA0 SHL SUB AND EQ SWAP1 JUMP JUMPDEST PUSH1 0x5 SLOAD DUP2 GT PUSH2 0x136E JUMPI PUSH1 0x7 SLOAD PUSH1 0x0 NOT DUP3 ADD SWAP2 DUP3 GT PUSH2 0x7FC JUMPI PUSH2 0x1365 PUSH2 0x136B SWAP3 PUSH1 0x6 SLOAD SWAP1 PUSH2 0x1111 JUMP JUMPDEST SWAP1 PUSH2 0x1104 JUMP JUMPDEST SWAP1 JUMP JUMPDEST PUSH1 0x40 MLOAD PUSH3 0x461BCD PUSH1 0xE5 SHL DUP2 MSTORE PUSH1 0x20 PUSH1 0x4 DUP3 ADD MSTORE PUSH1 0x13 PUSH1 0x24 DUP3 ADD MSTORE PUSH19 0x4379636C65206F7574206F6620626F756E6473 PUSH1 0x68 SHL PUSH1 0x44 DUP3 ADD MSTORE PUSH1 0x64 SWAP1 REVERT JUMPDEST DUP2 ISZERO PUSH2 0x13B3 JUMPI DIV SWAP1 JUMP JUMPDEST PUSH4 0x4E487B71 PUSH1 0xE0 SHL PUSH1 0x0 MSTORE PUSH1 0x12 PUSH1 0x4 MSTORE PUSH1 0x24 PUSH1 0x0 REVERT JUMPDEST PUSH1 0x0 NOT DUP2 EQ PUSH2 0x7FC JUMPI PUSH1 0x1 ADD SWAP1 JUMP JUMPDEST PUSH8 0xFFFFFFFFFFFFFFFF DUP2 GT PUSH2 0xF50 JUMPI PUSH1 0x5 SHL PUSH1 0x20 ADD SWAP1 JUMP JUMPDEST PUSH1 0x0 DUP1 JUMPDEST PUSH1 0x3 SLOAD DUP2 LT ISZERO PUSH2 0x14C2 JUMPI PUSH1 0xFF PUSH2 0x1409 DUP3 PUSH2 0x108B JUMP JUMPDEST POP SLOAD PUSH1 0xB0 SHR AND ISZERO PUSH2 0x141C JUMPI PUSH1 0x1 ADD PUSH2 0x13F4 JUMP JUMPDEST PUSH2 0x1426 SWAP2 POP PUSH2 0x108B JUMP JUMPDEST POP SLOAD PUSH1 0xA DUP1 SLOAD PUSH3 0x10000 PUSH1 0x1 PUSH1 0xB0 SHL SUB NOT AND PUSH1 0x10 SWAP3 SWAP1 SWAP3 SHL PUSH3 0x10000 PUSH1 0x1 PUSH1 0xB0 SHL SUB AND SWAP2 SWAP1 SWAP2 OR SWAP1 SSTORE PUSH1 0x1 JUMPDEST ISZERO DUP1 PUSH2 0x14B5 JUMPI JUMPDEST PUSH2 0x145F JUMPI JUMP JUMPDEST PUSH1 0x40 MLOAD PUSH3 0x461BCD PUSH1 0xE5 SHL DUP2 MSTORE PUSH1 0x20 PUSH1 0x4 DUP3 ADD MSTORE PUSH1 0x28 PUSH1 0x24 DUP3 ADD MSTORE PUSH32 0x416C6C207061727469636970616E747320686176652072656365697665642074 PUSH1 0x44 DUP3 ADD MSTORE PUSH8 0x68652066756E6421 PUSH1 0xC0 SHL PUSH1 0x64 DUP3 ADD MSTORE PUSH1 0x84 SWAP1 REVERT JUMPDEST POP PUSH1 0x4 SLOAD PUSH1 0x5 SLOAD LT PUSH2 0x1459 JUMP JUMPDEST POP PUSH2 0x1452 JUMP JUMPDEST PUSH1 0x3 SLOAD PUSH1 0x0 JUMPDEST DUP2 DUP2 LT PUSH2 0x14DC JUMPI POP POP PUSH1 0x1 SWAP1 JUMP JUMPDEST PUSH1 0xFF PUSH2 0x14E7 DUP3 PUSH2 0x108B JUMP JUMPDEST POP SLOAD PUSH1 0xA0 SHR AND ISZERO PUSH2 0x14FA JUMPI PUSH1 0x1 ADD PUSH2 0x14CE JUMP JUMPDEST POP POP PUSH1 0x0 SWAP1 JUMP INVALID LOG2 PUSH5 0x6970667358 0x22 SLT KECCAK256 REVERT 0xF 0xBF 0xAC PUSH22 0x62BE92510941A581A2F707D58AB25A8A95AAA17A85B5 SWAP5 BLOBHASH 0xF 0x26 0xE2 PUSH5 0x736F6C6343 STOP ADDMOD SHL STOP CALLER "
        },
        "methodIdentifiers": {
          "claim()": "4e71d92d",
          "collateralAmount()": "92d09ceb",
          "collateralPercentage()": "308352e8",
          "contribute()": "d7bb99ba",
          "contributionAmount()": "5fa0b65f",
          "currentCycle()": "bab2f552",
          "cycleDuration()": "5bec4cb4",
          "fundStarted()": "f54a36cc",
          "getChitFundDetails()": "65d68e4e",
          "getContributionAmount()": "bbb48445",
          "getDeadlineForCycle(uint256)": "af2d0a31",
          "getNextRecipient()": "fd379a31",
          "getNextRecipientAddress()": "399cd250",
          "getOverdueParticipants()": "cbc3cecb",
          "getParticipantDetails(address)": "44e0b8c1",
          "isParticipant(address)": "929066f5",
          "isParticipantOverdue(address)": "4a9829cd",
          "name()": "06fdde03",
          "nextRecipient()": "d94c7c27",
          "organizer()": "61203265",
          "participantIndex(address)": "083b9137",
          "participants(uint256)": "35c1d349",
          "returnAllCollateral()": "5428197c",
          "stakeCollateral()": "070fecb5",
          "startTime()": "78e97925",
          "totalCollateralStaked()": "271751da",
          "totalCycles()": "a1657681",
          "totalParticipants()": "a26dbf26"
        }
      }
    }
  }
}