{
  "contracts/ChitFund.sol": {
    "ChitFund": {
      "abi": [
        {
          "inputs": [
            {
              "internalType": "address",
              "name": "_organizer",
              "type": "address"
            },
            {
              "internalType": "string",
              "name": "_name",
              "type": "string"
            },
            {
              "internalType": "uint256",
              "name": "_contributionAmount",
              "type": "uint256"
            },
            {
              "internalType": "uint256",
              "name": "_totalParticipants",
              "type": "uint256"
            },
            {
              "internalType": "uint256",
              "name": "_totalCycles",
              "type": "uint256"
            },
            {
              "internalType": "uint256",
              "name": "_cycleDuration",
              "type": "uint256"
            },
            {
              "internalType": "uint256",
              "name": "_startTime",
              "type": "uint256"
            },
            {
              "internalType": "address[]",
              "name": "_participants",
              "type": "address[]"
            },
            {
              "internalType": "uint256",
              "name": "_collateralPercentage",
              "type": "uint256"
            }
          ],
          "stateMutability": "nonpayable",
          "type": "constructor"
        },
        {
          "anonymous": false,
          "inputs": [
            {
              "indexed": false,
              "internalType": "address",
              "name": "participant",
              "type": "address"
            },
            {
              "indexed": false,
              "internalType": "uint256",
              "name": "amount",
              "type": "uint256"
            }
          ],
          "name": "CollateralStaked",
          "type": "event"
        },
        {
          "anonymous": false,
          "inputs": [
            {
              "indexed": false,
              "internalType": "address",
              "name": "participant",
              "type": "address"
            },
            {
              "indexed": false,
              "internalType": "uint256",
              "name": "amount",
              "type": "uint256"
            },
            {
              "indexed": false,
              "internalType": "uint256",
              "name": "cycle",
              "type": "uint256"
            }
          ],
          "name": "ContributionReceived",
          "type": "event"
        },
        {
          "anonymous": false,
          "inputs": [
            {
              "indexed": false,
              "internalType": "address",
              "name": "recipient",
              "type": "address"
            },
            {
              "indexed": false,
              "internalType": "uint256",
              "name": "cycle",
              "type": "uint256"
            }
          ],
          "name": "FundClaimed",
          "type": "event"
        },
        {
          "anonymous": false,
          "inputs": [
            {
              "indexed": false,
              "internalType": "address",
              "name": "recipient",
              "type": "address"
            },
            {
              "indexed": false,
              "internalType": "uint256",
              "name": "amount",
              "type": "uint256"
            },
            {
              "indexed": false,
              "internalType": "uint256",
              "name": "cycle",
              "type": "uint256"
            }
          ],
          "name": "FundDisbursed",
          "type": "event"
        },
        {
          "anonymous": false,
          "inputs": [],
          "name": "FundStarted",
          "type": "event"
        },
        {
          "inputs": [],
          "name": "claim",
          "outputs": [],
          "stateMutability": "nonpayable",
          "type": "function"
        },
        {
          "inputs": [],
          "name": "collateralAmount",
          "outputs": [
            {
              "internalType": "uint256",
              "name": "",
              "type": "uint256"
            }
          ],
          "stateMutability": "view",
          "type": "function"
        },
        {
          "inputs": [],
          "name": "collateralPercentage",
          "outputs": [
            {
              "internalType": "uint256",
              "name": "",
              "type": "uint256"
            }
          ],
          "stateMutability": "view",
          "type": "function"
        },
        {
          "inputs": [],
          "name": "contribute",
          "outputs": [],
          "stateMutability": "payable",
          "type": "function"
        },
        {
          "inputs": [],
          "name": "contributionAmount",
          "outputs": [
            {
              "internalType": "uint256",
              "name": "",
              "type": "uint256"
            }
          ],
          "stateMutability": "view",
          "type": "function"
        },
        {
          "inputs": [],
          "name": "currentCycle",
          "outputs": [
            {
              "internalType": "uint256",
              "name": "",
              "type": "uint256"
            }
          ],
          "stateMutability": "view",
          "type": "function"
        },
        {
          "inputs": [],
          "name": "cycleDuration",
          "outputs": [
            {
              "internalType": "uint256",
              "name": "",
              "type": "uint256"
            }
          ],
          "stateMutability": "view",
          "type": "function"
        },
        {
          "inputs": [],
          "name": "fundStarted",
          "outputs": [
            {
              "internalType": "bool",
              "name": "",
              "type": "bool"
            }
          ],
          "stateMutability": "view",
          "type": "function"
        },
        {
          "inputs": [],
          "name": "getChitFundDetails",
          "outputs": [
            {
              "internalType": "address",
              "name": "_fundAddress",
              "type": "address"
            },
            {
              "internalType": "string",
              "name": "_name",
              "type": "string"
            },
            {
              "internalType": "address",
              "name": "_organizer",
              "type": "address"
            },
            {
              "internalType": "uint256",
              "name": "_contributionAmount",
              "type": "uint256"
            },
            {
              "internalType": "uint256",
              "name": "_totalParticipants",
              "type": "uint256"
            },
            {
              "internalType": "uint256",
              "name": "_currentCycle",
              "type": "uint256"
            },
            {
              "internalType": "uint256",
              "name": "_totalCycles",
              "type": "uint256"
            },
            {
              "internalType": "bool",
              "name": "_fundStarted",
              "type": "bool"
            },
            {
              "internalType": "uint256",
              "name": "_totalCollateralStaked",
              "type": "uint256"
            },
            {
              "internalType": "uint256",
              "name": "_cycleDuration",
              "type": "uint256"
            },
            {
              "internalType": "uint256",
              "name": "_startTime",
              "type": "uint256"
            },
            {
              "internalType": "uint256",
              "name": "_collateralAmount",
              "type": "uint256"
            }
          ],
          "stateMutability": "view",
          "type": "function"
        },
        {
          "inputs": [],
          "name": "getContributionAmount",
          "outputs": [
            {
              "internalType": "uint256",
              "name": "",
              "type": "uint256"
            }
          ],
          "stateMutability": "view",
          "type": "function"
        },
        {
          "inputs": [
            {
              "internalType": "uint256",
              "name": "cycle",
              "type": "uint256"
            }
          ],
          "name": "getDeadlineForCycle",
          "outputs": [
            {
              "internalType": "uint256",
              "name": "",
              "type": "uint256"
            }
          ],
          "stateMutability": "view",
          "type": "function"
        },
        {
          "inputs": [],
          "name": "getNextRecipient",
          "outputs": [
            {
              "internalType": "address",
              "name": "",
              "type": "address"
            }
          ],
          "stateMutability": "view",
          "type": "function"
        },
        {
          "inputs": [],
          "name": "getOverdueParticipants",
          "outputs": [
            {
              "internalType": "address[]",
              "name": "",
              "type": "address[]"
            }
          ],
          "stateMutability": "view",
          "type": "function"
        },
        {
          "inputs": [
            {
              "internalType": "address",
              "name": "_addr",
              "type": "address"
            }
          ],
          "name": "getParticipantDetails",
          "outputs": [
            {
              "internalType": "bool",
              "name": "hasStakedCollateral",
              "type": "bool"
            },
            {
              "internalType": "bool",
              "name": "hasContributed",
              "type": "bool"
            },
            {
              "internalType": "bool",
              "name": "hasReceivedFund",
              "type": "bool"
            }
          ],
          "stateMutability": "view",
          "type": "function"
        },
        {
          "inputs": [
            {
              "internalType": "address",
              "name": "_addr",
              "type": "address"
            }
          ],
          "name": "isParticipant",
          "outputs": [
            {
              "internalType": "bool",
              "name": "",
              "type": "bool"
            }
          ],
          "stateMutability": "view",
          "type": "function"
        },
        {
          "inputs": [
            {
              "internalType": "address",
              "name": "_participant",
              "type": "address"
            }
          ],
          "name": "isParticipantOverdue",
          "outputs": [
            {
              "internalType": "bool",
              "name": "",
              "type": "bool"
            }
          ],
          "stateMutability": "view",
          "type": "function"
        },
        {
          "inputs": [],
          "name": "name",
          "outputs": [
            {
              "internalType": "string",
              "name": "",
              "type": "string"
            }
          ],
          "stateMutability": "view",
          "type": "function"
        },
        {
          "inputs": [],
          "name": "organizer",
          "outputs": [
            {
              "internalType": "address",
              "name": "",
              "type": "address"
            }
          ],
          "stateMutability": "view",
          "type": "function"
        },
        {
          "inputs": [
            {
              "internalType": "address",
              "name": "",
              "type": "address"
            }
          ],
          "name": "participantIndex",
          "outputs": [
            {
              "internalType": "uint256",
              "name": "",
              "type": "uint256"
            }
          ],
          "stateMutability": "view",
          "type": "function"
        },
        {
          "inputs": [
            {
              "internalType": "uint256",
              "name": "",
              "type": "uint256"
            }
          ],
          "name": "participants",
          "outputs": [
            {
              "internalType": "address payable",
              "name": "addr",
              "type": "address"
            },
            {
              "internalType": "bool",
              "name": "hasContributed",
              "type": "bool"
            },
            {
              "internalType": "bool",
              "name": "hasStakedCollateral",
              "type": "bool"
            },
            {
              "internalType": "bool",
              "name": "hasReceivedFund",
              "type": "bool"
            }
          ],
          "stateMutability": "view",
          "type": "function"
        },
        {
          "inputs": [],
          "name": "stakeCollateral",
          "outputs": [],
          "stateMutability": "payable",
          "type": "function"
        },
        {
          "inputs": [],
          "name": "startTime",
          "outputs": [
            {
              "internalType": "uint256",
              "name": "",
              "type": "uint256"
            }
          ],
          "stateMutability": "view",
          "type": "function"
        },
        {
          "inputs": [],
          "name": "totalCollateralStaked",
          "outputs": [
            {
              "internalType": "uint256",
              "name": "",
              "type": "uint256"
            }
          ],
          "stateMutability": "view",
          "type": "function"
        },
        {
          "inputs": [],
          "name": "totalCycles",
          "outputs": [
            {
              "internalType": "uint256",
              "name": "",
              "type": "uint256"
            }
          ],
          "stateMutability": "view",
          "type": "function"
        },
        {
          "inputs": [],
          "name": "totalParticipants",
          "outputs": [
            {
              "internalType": "uint256",
              "name": "",
              "type": "uint256"
            }
          ],
          "stateMutability": "view",
          "type": "function"
        }
      ],
      "evm": {
        "bytecode": {
          "linkReferences": {},
          "object": "608060405234801561001057600080fd5b506040516131c43803806131c4833981810160405281019061003291906105ea565b85825114610075576040517f08c379a000000000000000000000000000000000000000000000000000000000815260040161006c90610749565b60405180910390fd5b600081118015610086575060648111155b6100c5576040517f08c379a00000000000000000000000000000000000000000000000000000000081526004016100bc906107db565b60405180910390fd5b886000806101000a81548173ffffffffffffffffffffffffffffffffffffffff021916908373ffffffffffffffffffffffffffffffffffffffff16021790555087600190816101149190610a12565b5086600281905550856003819055508460058190555083600681905550826007819055508060088190555060646008546002546101519190610b13565b61015b9190610b84565b600981905550600160048190555060005b825181101561030a57600b604051806080016040528085848151811061019557610194610bb5565b5b602002602001015173ffffffffffffffffffffffffffffffffffffffff168152602001600015158152602001600015158152602001600015158152509080600181540180825580915050600190039060005260206000200160009091909190915060008201518160000160006101000a81548173ffffffffffffffffffffffffffffffffffffffff021916908373ffffffffffffffffffffffffffffffffffffffff16021790555060208201518160000160146101000a81548160ff02191690831515021790555060408201518160000160156101000a81548160ff02191690831515021790555060608201518160000160166101000a81548160ff021916908315150217905550505080600c60008584815181106102b7576102b6610bb5565b5b602002602001015173ffffffffffffffffffffffffffffffffffffffff1673ffffffffffffffffffffffffffffffffffffffff16815260200190815260200160002081905550808060010191505061016c565b50505050505050505050610be4565b6000604051905090565b600080fd5b600080fd5b600073ffffffffffffffffffffffffffffffffffffffff82169050919050565b60006103588261032d565b9050919050565b6103688161034d565b811461037357600080fd5b50565b6000815190506103858161035f565b92915050565b600080fd5b600080fd5b6000601f19601f8301169050919050565b7f4e487b7100000000000000000000000000000000000000000000000000000000600052604160045260246000fd5b6103de82610395565b810181811067ffffffffffffffff821117156103fd576103fc6103a6565b5b80604052505050565b6000610410610319565b905061041c82826103d5565b919050565b600067ffffffffffffffff82111561043c5761043b6103a6565b5b61044582610395565b9050602081019050919050565b60005b83811015610470578082015181840152602081019050610455565b60008484015250505050565b600061048f61048a84610421565b610406565b9050828152602081018484840111156104ab576104aa610390565b5b6104b6848285610452565b509392505050565b600082601f8301126104d3576104d261038b565b5b81516104e384826020860161047c565b91505092915050565b6000819050919050565b6104ff816104ec565b811461050a57600080fd5b50565b60008151905061051c816104f6565b92915050565b600067ffffffffffffffff82111561053d5761053c6103a6565b5b602082029050602081019050919050565b600080fd5b600061056661056184610522565b610406565b905080838252602082019050602084028301858111156105895761058861054e565b5b835b818110156105b2578061059e8882610376565b84526020840193505060208101905061058b565b5050509392505050565b600082601f8301126105d1576105d061038b565b5b81516105e1848260208601610553565b91505092915050565b60008060008060008060008060006101208a8c03121561060d5761060c610323565b5b600061061b8c828d01610376565b99505060208a015167ffffffffffffffff81111561063c5761063b610328565b5b6106488c828d016104be565b98505060406106598c828d0161050d565b975050606061066a8c828d0161050d565b965050608061067b8c828d0161050d565b95505060a061068c8c828d0161050d565b94505060c061069d8c828d0161050d565b93505060e08a015167ffffffffffffffff8111156106be576106bd610328565b5b6106ca8c828d016105bc565b9250506101006106dc8c828d0161050d565b9150509295985092959850929598565b600082825260208201905092915050565b7f5061727469636970616e747320636f756e74206d69736d617463680000000000600082015250565b6000610733601b836106ec565b915061073e826106fd565b602082019050919050565b6000602082019050818103600083015261076281610726565b9050919050565b7f436f6c6c61746572616c2070657263656e746167652073686f756c642062652060008201527f6265747765656e203120616e6420313030000000000000000000000000000000602082015250565b60006107c56031836106ec565b91506107d082610769565b604082019050919050565b600060208201905081810360008301526107f4816107b8565b9050919050565b600081519050919050565b7f4e487b7100000000000000000000000000000000000000000000000000000000600052602260045260246000fd5b6000600282049050600182168061084d57607f821691505b6020821081036108605761085f610806565b5b50919050565b60008190508160005260206000209050919050565b60006020601f8301049050919050565b600082821b905092915050565b6000600883026108c87fffffffffffffffffffffffffffffffffffffffffffffffffffffffffffffffff8261088b565b6108d2868361088b565b95508019841693508086168417925050509392505050565b6000819050919050565b600061090f61090a610905846104ec565b6108ea565b6104ec565b9050919050565b6000819050919050565b610929836108f4565b61093d61093582610916565b848454610898565b825550505050565b600090565b610952610945565b61095d818484610920565b505050565b5b818110156109815761097660008261094a565b600181019050610963565b5050565b601f8211156109c65761099781610866565b6109a08461087b565b810160208510156109af578190505b6109c36109bb8561087b565b830182610962565b50505b505050565b600082821c905092915050565b60006109e9600019846008026109cb565b1980831691505092915050565b6000610a0283836109d8565b9150826002028217905092915050565b610a1b826107fb565b67ffffffffffffffff811115610a3457610a336103a6565b5b610a3e8254610835565b610a49828285610985565b600060209050601f831160018114610a7c5760008415610a6a578287015190505b610a7485826109f6565b865550610adc565b601f198416610a8a86610866565b60005b82811015610ab257848901518255600182019150602085019450602081019050610a8d565b86831015610acf5784890151610acb601f8916826109d8565b8355505b6001600288020188555050505b505050505050565b7f4e487b7100000000000000000000000000000000000000000000000000000000600052601160045260246000fd5b6000610b1e826104ec565b9150610b29836104ec565b9250828202610b37816104ec565b91508282048414831517610b4e57610b4d610ae4565b5b5092915050565b7f4e487b7100000000000000000000000000000000000000000000000000000000600052601260045260246000fd5b6000610b8f826104ec565b9150610b9a836104ec565b925082610baa57610ba9610b55565b5b828204905092915050565b7f4e487b7100000000000000000000000000000000000000000000000000000000600052603260045260246000fd5b6125d180610bf36000396000f3fe6080604052600436106101665760003560e01c806365d68e4e116100d1578063af2d0a311161008a578063cbc3cecb11610064578063cbc3cecb14610539578063d7bb99ba14610564578063f54a36cc1461056e578063fd379a311461059957610166565b8063af2d0a31146104a6578063bab2f552146104e3578063bbb484451461050e57610166565b806365d68e4e1461038757806378e97925146103bd578063929066f5146103e857806392d09ceb14610425578063a165768114610450578063a26dbf261461047b57610166565b806344e0b8c11161012357806344e0b8c1146102735780634a9829cd146102b25780634e71d92d146102ef5780635bec4cb4146103065780635fa0b65f14610331578063612032651461035c57610166565b806306fdde031461016b578063070fecb514610196578063083b9137146101a0578063271751da146101dd578063308352e81461020857806335c1d34914610233575b600080fd5b34801561017757600080fd5b506101806105c4565b60405161018d9190611777565b60405180910390f35b61019e610652565b005b3480156101ac57600080fd5b506101c760048036038101906101c291906117fc565b6108b9565b6040516101d49190611842565b60405180910390f35b3480156101e957600080fd5b506101f26108d1565b6040516101ff9190611842565b60405180910390f35b34801561021457600080fd5b5061021d6108d7565b60405161022a9190611842565b60405180910390f35b34801561023f57600080fd5b5061025a60048036038101906102559190611889565b6108dd565b60405161026a94939291906118f2565b60405180910390f35b34801561027f57600080fd5b5061029a600480360381019061029591906117fc565b610960565b6040516102a993929190611937565b60405180910390f35b3480156102be57600080fd5b506102d960048036038101906102d491906117fc565b610a2e565b6040516102e6919061196e565b60405180910390f35b3480156102fb57600080fd5b50610304610b29565b005b34801561031257600080fd5b5061031b610c79565b6040516103289190611842565b60405180910390f35b34801561033d57600080fd5b50610346610c7f565b6040516103539190611842565b60405180910390f35b34801561036857600080fd5b50610371610c85565b60405161037e9190611998565b60405180910390f35b34801561039357600080fd5b5061039c610ca9565b6040516103b49c9b9a999897969594939291906119b3565b60405180910390f35b3480156103c957600080fd5b506103d2610dba565b6040516103df9190611842565b60405180910390f35b3480156103f457600080fd5b5061040f600480360381019061040a91906117fc565b610dc0565b60405161041c919061196e565b60405180910390f35b34801561043157600080fd5b5061043a610e8d565b6040516104479190611842565b60405180910390f35b34801561045c57600080fd5b50610465610e93565b6040516104729190611842565b60405180910390f35b34801561048757600080fd5b50610490610e99565b60405161049d9190611842565b60405180910390f35b3480156104b257600080fd5b506104cd60048036038101906104c89190611889565b610e9f565b6040516104da9190611842565b60405180910390f35b3480156104ef57600080fd5b506104f8610f14565b6040516105059190611842565b60405180910390f35b34801561051a57600080fd5b50610523610f1a565b6040516105309190611842565b60405180910390f35b34801561054557600080fd5b5061054e610f31565b60405161055b9190611b32565b60405180910390f35b61056c611104565b005b34801561057a57600080fd5b506105836113a2565b604051610590919061196e565b60405180910390f35b3480156105a557600080fd5b506105ae6113b5565b6040516105bb9190611998565b60405180910390f35b600180546105d190611b83565b80601f01602080910402602001604051908101604052809291908181526020018280546105fd90611b83565b801561064a5780601f1061061f5761010080835404028352916020019161064a565b820191906000526020600020905b81548152906001019060200180831161062d57829003601f168201915b505050505081565b61065b33610dc0565b61069a576040517f08c379a000000000000000000000000000000000000000000000000000000000815260040161069190611c26565b60405180910390fd5b600a60009054906101000a900460ff16156106ea576040517f08c379a00000000000000000000000000000000000000000000000000000000081526004016106e190611c92565b60405180910390fd5b600954341461072e576040517f08c379a000000000000000000000000000000000000000000000000000000000815260040161072590611cfe565b60405180910390fd5b6000600c60003373ffffffffffffffffffffffffffffffffffffffff1673ffffffffffffffffffffffffffffffffffffffff1681526020019081526020016000205490506000600b828154811061078857610787611d1e565b5b9060005260206000200190508060000160159054906101000a900460ff16156107e6576040517f08c379a00000000000000000000000000000000000000000000000000000000081526004016107dd90611d99565b60405180910390fd5b60018160000160156101000a81548160ff02191690831515021790555034600d60008282546108159190611de8565b925050819055507fe9b0699bffdb73d59bcd6347dfd5172f6d708c11e0b056c5a76d7c231d402ffb333460405161084d929190611e1c565b60405180910390a16003546009546108659190611e45565b600d54036108b5576001600a60006101000a81548160ff0219169083151502179055507f041ddb0bda597672859a3817681cdb372a435e94fe5a68a5651eee0fbdf4664b60405160405180910390a15b5050565b600c6020528060005260406000206000915090505481565b600d5481565b60085481565b600b81815481106108ed57600080fd5b906000526020600020016000915090508060000160009054906101000a900473ffffffffffffffffffffffffffffffffffffffff16908060000160149054906101000a900460ff16908060000160159054906101000a900460ff16908060000160169054906101000a900460ff16905084565b600080600061096e84610dc0565b610982576000806000925092509250610a27565b6000600c60008673ffffffffffffffffffffffffffffffffffffffff1673ffffffffffffffffffffffffffffffffffffffff1681526020019081526020016000205490506000600b82815481106109dc576109db611d1e565b5b9060005260206000200190508060000160159054906101000a900460ff168160000160149054906101000a900460ff168260000160169054906101000a900460ff1694509450945050505b9193909250565b6000610a3982610dc0565b610a78576040517f08c379a0000000000000000000000000000000000000000000000000000000008152600401610a6f90611ed3565b60405180910390fd5b6000600c60008473ffffffffffffffffffffffffffffffffffffffff1673ffffffffffffffffffffffffffffffffffffffff1681526020019081526020016000205490506000600b8281548110610ad257610ad1611d1e565b5b9060005260206000200190506000610aeb600454610e9f565b90508160000160149054906101000a900460ff16158015610b0b57508042115b15610b1c5760019350505050610b24565b600093505050505b919050565b3373ffffffffffffffffffffffffffffffffffffffff16610b486113b5565b73ffffffffffffffffffffffffffffffffffffffff1614610b9e576040517f08c379a0000000000000000000000000000000000000000000000000000000008152600401610b9590611f65565b60405180910390fd5b600a60009054906101000a900460ff16610bed576040517f08c379a0000000000000000000000000000000000000000000000000000000008152600401610be490611fd1565b60405180910390fd5b610bf5611493565b610c34576040517f08c379a0000000000000000000000000000000000000000000000000000000008152600401610c2b9061203d565b60405180910390fd5b610c3c6114fb565b7fc8dc8699e66727a0166ccf48d03b81c15c44f6106437b58b71708ee620b6dcf633600454604051610c6f929190611e1c565b60405180910390a1565b60065481565b60025481565b60008054906101000a900473ffffffffffffffffffffffffffffffffffffffff1681565b6000606060008060008060008060008060008030600160008054906101000a900473ffffffffffffffffffffffffffffffffffffffff16600254600354600454600554600a60009054906101000a900460ff16600d546006546007546009548a8054610d1490611b83565b80601f0160208091040260200160405190810160405280929190818152602001828054610d4090611b83565b8015610d8d5780601f10610d6257610100808354040283529160200191610d8d565b820191906000526020600020905b815481529060010190602001808311610d7057829003601f168201915b50505050509a509b509b509b509b509b509b509b509b509b509b509b509b50909192939495969798999a9b565b60075481565b600080600c60008473ffffffffffffffffffffffffffffffffffffffff1673ffffffffffffffffffffffffffffffffffffffff16815260200190815260200160002054905080600b80549050118015610e8557508273ffffffffffffffffffffffffffffffffffffffff16600b8281548110610e3f57610e3e611d1e565b5b9060005260206000200160000160009054906101000a900473ffffffffffffffffffffffffffffffffffffffff1673ffffffffffffffffffffffffffffffffffffffff16145b915050919050565b60095481565b60055481565b60035481565b6000600554821115610ee6576040517f08c379a0000000000000000000000000000000000000000000000000000000008152600401610edd906120a9565b60405180910390fd5b600654600183610ef691906120c9565b610f009190611e45565b600754610f0d9190611de8565b9050919050565b60045481565b6000600354600254610f2c919061212c565b905090565b6060600080610f41600454610e9f565b905060005b600b80549050811015610faf57600b8181548110610f6757610f66611d1e565b5b9060005260206000200160000160149054906101000a900460ff16158015610f8e57508142115b15610fa2578280610f9e9061215d565b9350505b8080600101915050610f46565b5060008267ffffffffffffffff811115610fcc57610fcb6121a5565b5b604051908082528060200260200182016040528015610ffa5781602001602082028036833780820191505090505b5090506000805b600b805490508110156110f957600b818154811061102257611021611d1e565b5b9060005260206000200160000160149054906101000a900460ff1615801561104957508342115b156110ec57600b818154811061106257611061611d1e565b5b9060005260206000200160000160009054906101000a900473ffffffffffffffffffffffffffffffffffffffff168383815181106110a3576110a2611d1e565b5b602002602001019073ffffffffffffffffffffffffffffffffffffffff16908173ffffffffffffffffffffffffffffffffffffffff168152505081806110e89061215d565b9250505b8080600101915050611001565b508194505050505090565b61110d33610dc0565b61114c576040517f08c379a000000000000000000000000000000000000000000000000000000000815260040161114390611c26565b60405180910390fd5b600a60009054906101000a900460ff1661119b576040517f08c379a000000000000000000000000000000000000000000000000000000000815260040161119290611fd1565b60405180910390fd5b60055460045411156111e2576040517f08c379a00000000000000000000000000000000000000000000000000000000081526004016111d990612220565b60405180910390fd5b60006003546002546111f4919061212c565b90506000611203600454610e9f565b905080421115611248576040517f08c379a000000000000000000000000000000000000000000000000000000000815260040161123f906122b2565b60405180910390fd5b81341461128a576040517f08c379a00000000000000000000000000000000000000000000000000000000081526004016112819061231e565b60405180910390fd5b6000600c60003373ffffffffffffffffffffffffffffffffffffffff1673ffffffffffffffffffffffffffffffffffffffff1681526020019081526020016000205490506000600b82815481106112e4576112e3611d1e565b5b9060005260206000200190508060000160149054906101000a900460ff1615611342576040517f08c379a00000000000000000000000000000000000000000000000000000000081526004016113399061238a565b60405180910390fd5b60018160000160146101000a81548160ff0219169083151502179055507fd2dff949d20e874cc6ba1dcefb840fb8cf6000a4197bfb69accfea5a32443ff53334600454604051611394939291906123aa565b60405180910390a150505050565b600a60009054906101000a900460ff1681565b600080600090505b600b8054905081101561145457600b81815481106113de576113dd611d1e565b5b9060005260206000200160000160169054906101000a900460ff1661144757600b818154811061141157611410611d1e565b5b9060005260206000200160000160009054906101000a900473ffffffffffffffffffffffffffffffffffffffff16915050611490565b80806001019150506113bd565b506040517f08c379a000000000000000000000000000000000000000000000000000000000815260040161148790612453565b60405180910390fd5b90565b600080600090505b600b805490508110156114f257600b81815481106114bc576114bb611d1e565b5b9060005260206000200160000160149054906101000a900460ff166114e55760009150506114f8565b808060010191505061149b565b50600190505b90565b611503611493565b611542576040517f08c379a0000000000000000000000000000000000000000000000000000000008152600401611539906124e5565b60405180910390fd5b600080600090505b600b805490508110156115e7576000600b828154811061156d5761156c611d1e565b5b9060005260206000200190508060000160169054906101000a900460ff166115d9578060000160009054906101000a900473ffffffffffffffffffffffffffffffffffffffff16925060018160000160166101000a81548160ff021916908315150217905550506115e7565b50808060010191505061154a565b50600060025490508173ffffffffffffffffffffffffffffffffffffffff166108fc829081150290604051600060405180830381858888f19350505050158015611635573d6000803e3d6000fd5b507fba47a90c5497941f5c8a80cb50e75a6739149c92483dcc0648eb1f37c129c36d828260045460405161166b93929190612564565b60405180910390a160005b600b805490508110156116ca576000600b828154811061169957611698611d1e565b5b9060005260206000200160000160146101000a81548160ff0219169083151502179055508080600101915050611676565b50600460008154809291906116de9061215d565b91905055505050565b600081519050919050565b600082825260208201905092915050565b60005b83811015611721578082015181840152602081019050611706565b60008484015250505050565b6000601f19601f8301169050919050565b6000611749826116e7565b61175381856116f2565b9350611763818560208601611703565b61176c8161172d565b840191505092915050565b60006020820190508181036000830152611791818461173e565b905092915050565b600080fd5b600073ffffffffffffffffffffffffffffffffffffffff82169050919050565b60006117c98261179e565b9050919050565b6117d9816117be565b81146117e457600080fd5b50565b6000813590506117f6816117d0565b92915050565b60006020828403121561181257611811611799565b5b6000611820848285016117e7565b91505092915050565b6000819050919050565b61183c81611829565b82525050565b60006020820190506118576000830184611833565b92915050565b61186681611829565b811461187157600080fd5b50565b6000813590506118838161185d565b92915050565b60006020828403121561189f5761189e611799565b5b60006118ad84828501611874565b91505092915050565b60006118c18261179e565b9050919050565b6118d1816118b6565b82525050565b60008115159050919050565b6118ec816118d7565b82525050565b600060808201905061190760008301876118c8565b61191460208301866118e3565b61192160408301856118e3565b61192e60608301846118e3565b95945050505050565b600060608201905061194c60008301866118e3565b61195960208301856118e3565b61196660408301846118e3565b949350505050565b600060208201905061198360008301846118e3565b92915050565b611992816117be565b82525050565b60006020820190506119ad6000830184611989565b92915050565b6000610180820190506119c9600083018f611989565b81810360208301526119db818e61173e565b90506119ea604083018d611989565b6119f7606083018c611833565b611a04608083018b611833565b611a1160a083018a611833565b611a1e60c0830189611833565b611a2b60e08301886118e3565b611a39610100830187611833565b611a47610120830186611833565b611a55610140830185611833565b611a63610160830184611833565b9d9c50505050505050505050505050565b600081519050919050565b600082825260208201905092915050565b6000819050602082019050919050565b611aa9816117be565b82525050565b6000611abb8383611aa0565b60208301905092915050565b6000602082019050919050565b6000611adf82611a74565b611ae98185611a7f565b9350611af483611a90565b8060005b83811015611b25578151611b0c8882611aaf565b9750611b1783611ac7565b925050600181019050611af8565b5085935050505092915050565b60006020820190508181036000830152611b4c8184611ad4565b905092915050565b7f4e487b7100000000000000000000000000000000000000000000000000000000600052602260045260246000fd5b60006002820490506001821680611b9b57607f821691505b602082108103611bae57611bad611b54565b5b50919050565b7f4f6e6c79207061727469636970616e74732063616e20706572666f726d20746860008201527f697320616374696f6e0000000000000000000000000000000000000000000000602082015250565b6000611c106029836116f2565b9150611c1b82611bb4565b604082019050919050565b60006020820190508181036000830152611c3f81611c03565b9050919050565b7f46756e6420616c72656164792073746172746564000000000000000000000000600082015250565b6000611c7c6014836116f2565b9150611c8782611c46565b602082019050919050565b60006020820190508181036000830152611cab81611c6f565b9050919050565b7f496e636f727265637420636f6c6c61746572616c20616d6f756e740000000000600082015250565b6000611ce8601b836116f2565b9150611cf382611cb2565b602082019050919050565b60006020820190508181036000830152611d1781611cdb565b9050919050565b7f4e487b7100000000000000000000000000000000000000000000000000000000600052603260045260246000fd5b7f416c7265616479207374616b656420636f6c6c61746572616c00000000000000600082015250565b6000611d836019836116f2565b9150611d8e82611d4d565b602082019050919050565b60006020820190508181036000830152611db281611d76565b9050919050565b7f4e487b7100000000000000000000000000000000000000000000000000000000600052601160045260246000fd5b6000611df382611829565b9150611dfe83611829565b9250828201905080821115611e1657611e15611db9565b5b92915050565b6000604082019050611e316000830185611989565b611e3e6020830184611833565b9392505050565b6000611e5082611829565b9150611e5b83611829565b9250828202611e6981611829565b91508282048414831517611e8057611e7f611db9565b5b5092915050565b7f41646472657373206973206e6f742061207061727469636970616e7400000000600082015250565b6000611ebd601c836116f2565b9150611ec882611e87565b602082019050919050565b60006020820190508181036000830152611eec81611eb0565b9050919050565b7f4f6e6c792074686520656c696769626c6520726563697069656e742063616e2060008201527f636c61696d207468652066756e64730000000000000000000000000000000000602082015250565b6000611f4f602f836116f2565b9150611f5a82611ef3565b604082019050919050565b60006020820190508181036000830152611f7e81611f42565b9050919050565b7f46756e6420686173206e6f742073746172746564207965740000000000000000600082015250565b6000611fbb6018836116f2565b9150611fc682611f85565b602082019050919050565b60006020820190508181036000830152611fea81611fae565b9050919050565b7f4e6f7420616c6c20636f6e747269627574696f6e732072656365697665640000600082015250565b6000612027601e836116f2565b915061203282611ff1565b602082019050919050565b600060208201905081810360008301526120568161201a565b9050919050565b7f4379636c65206f7574206f6620626f756e647300000000000000000000000000600082015250565b60006120936013836116f2565b915061209e8261205d565b602082019050919050565b600060208201905081810360008301526120c281612086565b9050919050565b60006120d482611829565b91506120df83611829565b92508282039050818111156120f7576120f6611db9565b5b92915050565b7f4e487b7100000000000000000000000000000000000000000000000000000000600052601260045260246000fd5b600061213782611829565b915061214283611829565b925082612152576121516120fd565b5b828204905092915050565b600061216882611829565b91507fffffffffffffffffffffffffffffffffffffffffffffffffffffffffffffffff820361219a57612199611db9565b5b600182019050919050565b7f4e487b7100000000000000000000000000000000000000000000000000000000600052604160045260246000fd5b7f416c6c206379636c657320636f6d706c65746564000000000000000000000000600082015250565b600061220a6014836116f2565b9150612215826121d4565b602082019050919050565b60006020820190508181036000830152612239816121fd565b9050919050565b7f436f6e747269627574696f6e20706572696f6420656e64656420666f7220746860008201527f6973206379636c65000000000000000000000000000000000000000000000000602082015250565b600061229c6028836116f2565b91506122a782612240565b604082019050919050565b600060208201905081810360008301526122cb8161228f565b9050919050565b7f496e636f727265637420636f6e747269627574696f6e20616d6f756e74000000600082015250565b6000612308601d836116f2565b9150612313826122d2565b602082019050919050565b60006020820190508181036000830152612337816122fb565b9050919050565b7f416c726561647920636f6e74726962757465642074686973206379636c650000600082015250565b6000612374601e836116f2565b915061237f8261233e565b602082019050919050565b600060208201905081810360008301526123a381612367565b9050919050565b60006060820190506123bf6000830186611989565b6123cc6020830185611833565b6123d96040830184611833565b949350505050565b7f416c6c207061727469636970616e74732068617665207265636569766564207460008201527f68652066756e6420666f722074686973206379636c652e000000000000000000602082015250565b600061243d6037836116f2565b9150612448826123e1565b604082019050919050565b6000602082019050818103600083015261246c81612430565b9050919050565b7f416c6c20636f6e747269627574696f6e73206e6f74207265636569766564207960008201527f6574000000000000000000000000000000000000000000000000000000000000602082015250565b60006124cf6022836116f2565b91506124da82612473565b604082019050919050565b600060208201905081810360008301526124fe816124c2565b9050919050565b6000819050919050565b600061252a6125256125208461179e565b612505565b61179e565b9050919050565b600061253c8261250f565b9050919050565b600061254e82612531565b9050919050565b61255e81612543565b82525050565b60006060820190506125796000830186612555565b6125866020830185611833565b6125936040830184611833565b94935050505056fea2646970667358221220bb9caad99211edec6926c4afcb7d4f1d8dac1bed63f9d0e789823ea2f271d4ee64736f6c634300081b0033",
          "opcodes": "PUSH1 0x80 PUSH1 0x40 MSTORE CALLVALUE DUP1 ISZERO PUSH2 0x10 JUMPI PUSH1 0x0 DUP1 REVERT JUMPDEST POP PUSH1 0x40 MLOAD PUSH2 0x31C4 CODESIZE SUB DUP1 PUSH2 0x31C4 DUP4 CODECOPY DUP2 DUP2 ADD PUSH1 0x40 MSTORE DUP2 ADD SWAP1 PUSH2 0x32 SWAP2 SWAP1 PUSH2 0x5EA JUMP JUMPDEST DUP6 DUP3 MLOAD EQ PUSH2 0x75 JUMPI PUSH1 0x40 MLOAD PUSH32 0x8C379A000000000000000000000000000000000000000000000000000000000 DUP2 MSTORE PUSH1 0x4 ADD PUSH2 0x6C SWAP1 PUSH2 0x749 JUMP JUMPDEST PUSH1 0x40 MLOAD DUP1 SWAP2 SUB SWAP1 REVERT JUMPDEST PUSH1 0x0 DUP2 GT DUP1 ISZERO PUSH2 0x86 JUMPI POP PUSH1 0x64 DUP2 GT ISZERO JUMPDEST PUSH2 0xC5 JUMPI PUSH1 0x40 MLOAD PUSH32 0x8C379A000000000000000000000000000000000000000000000000000000000 DUP2 MSTORE PUSH1 0x4 ADD PUSH2 0xBC SWAP1 PUSH2 0x7DB JUMP JUMPDEST PUSH1 0x40 MLOAD DUP1 SWAP2 SUB SWAP1 REVERT JUMPDEST DUP9 PUSH1 0x0 DUP1 PUSH2 0x100 EXP DUP2 SLOAD DUP2 PUSH20 0xFFFFFFFFFFFFFFFFFFFFFFFFFFFFFFFFFFFFFFFF MUL NOT AND SWAP1 DUP4 PUSH20 0xFFFFFFFFFFFFFFFFFFFFFFFFFFFFFFFFFFFFFFFF AND MUL OR SWAP1 SSTORE POP DUP8 PUSH1 0x1 SWAP1 DUP2 PUSH2 0x114 SWAP2 SWAP1 PUSH2 0xA12 JUMP JUMPDEST POP DUP7 PUSH1 0x2 DUP2 SWAP1 SSTORE POP DUP6 PUSH1 0x3 DUP2 SWAP1 SSTORE POP DUP5 PUSH1 0x5 DUP2 SWAP1 SSTORE POP DUP4 PUSH1 0x6 DUP2 SWAP1 SSTORE POP DUP3 PUSH1 0x7 DUP2 SWAP1 SSTORE POP DUP1 PUSH1 0x8 DUP2 SWAP1 SSTORE POP PUSH1 0x64 PUSH1 0x8 SLOAD PUSH1 0x2 SLOAD PUSH2 0x151 SWAP2 SWAP1 PUSH2 0xB13 JUMP JUMPDEST PUSH2 0x15B SWAP2 SWAP1 PUSH2 0xB84 JUMP JUMPDEST PUSH1 0x9 DUP2 SWAP1 SSTORE POP PUSH1 0x1 PUSH1 0x4 DUP2 SWAP1 SSTORE POP PUSH1 0x0 JUMPDEST DUP3 MLOAD DUP2 LT ISZERO PUSH2 0x30A JUMPI PUSH1 0xB PUSH1 0x40 MLOAD DUP1 PUSH1 0x80 ADD PUSH1 0x40 MSTORE DUP1 DUP6 DUP5 DUP2 MLOAD DUP2 LT PUSH2 0x195 JUMPI PUSH2 0x194 PUSH2 0xBB5 JUMP JUMPDEST JUMPDEST PUSH1 0x20 MUL PUSH1 0x20 ADD ADD MLOAD PUSH20 0xFFFFFFFFFFFFFFFFFFFFFFFFFFFFFFFFFFFFFFFF AND DUP2 MSTORE PUSH1 0x20 ADD PUSH1 0x0 ISZERO ISZERO DUP2 MSTORE PUSH1 0x20 ADD PUSH1 0x0 ISZERO ISZERO DUP2 MSTORE PUSH1 0x20 ADD PUSH1 0x0 ISZERO ISZERO DUP2 MSTORE POP SWAP1 DUP1 PUSH1 0x1 DUP2 SLOAD ADD DUP1 DUP3 SSTORE DUP1 SWAP2 POP POP PUSH1 0x1 SWAP1 SUB SWAP1 PUSH1 0x0 MSTORE PUSH1 0x20 PUSH1 0x0 KECCAK256 ADD PUSH1 0x0 SWAP1 SWAP2 SWAP1 SWAP2 SWAP1 SWAP2 POP PUSH1 0x0 DUP3 ADD MLOAD DUP2 PUSH1 0x0 ADD PUSH1 0x0 PUSH2 0x100 EXP DUP2 SLOAD DUP2 PUSH20 0xFFFFFFFFFFFFFFFFFFFFFFFFFFFFFFFFFFFFFFFF MUL NOT AND SWAP1 DUP4 PUSH20 0xFFFFFFFFFFFFFFFFFFFFFFFFFFFFFFFFFFFFFFFF AND MUL OR SWAP1 SSTORE POP PUSH1 0x20 DUP3 ADD MLOAD DUP2 PUSH1 0x0 ADD PUSH1 0x14 PUSH2 0x100 EXP DUP2 SLOAD DUP2 PUSH1 0xFF MUL NOT AND SWAP1 DUP4 ISZERO ISZERO MUL OR SWAP1 SSTORE POP PUSH1 0x40 DUP3 ADD MLOAD DUP2 PUSH1 0x0 ADD PUSH1 0x15 PUSH2 0x100 EXP DUP2 SLOAD DUP2 PUSH1 0xFF MUL NOT AND SWAP1 DUP4 ISZERO ISZERO MUL OR SWAP1 SSTORE POP PUSH1 0x60 DUP3 ADD MLOAD DUP2 PUSH1 0x0 ADD PUSH1 0x16 PUSH2 0x100 EXP DUP2 SLOAD DUP2 PUSH1 0xFF MUL NOT AND SWAP1 DUP4 ISZERO ISZERO MUL OR SWAP1 SSTORE POP POP POP DUP1 PUSH1 0xC PUSH1 0x0 DUP6 DUP5 DUP2 MLOAD DUP2 LT PUSH2 0x2B7 JUMPI PUSH2 0x2B6 PUSH2 0xBB5 JUMP JUMPDEST JUMPDEST PUSH1 0x20 MUL PUSH1 0x20 ADD ADD MLOAD PUSH20 0xFFFFFFFFFFFFFFFFFFFFFFFFFFFFFFFFFFFFFFFF AND PUSH20 0xFFFFFFFFFFFFFFFFFFFFFFFFFFFFFFFFFFFFFFFF AND DUP2 MSTORE PUSH1 0x20 ADD SWAP1 DUP2 MSTORE PUSH1 0x20 ADD PUSH1 0x0 KECCAK256 DUP2 SWAP1 SSTORE POP DUP1 DUP1 PUSH1 0x1 ADD SWAP2 POP POP PUSH2 0x16C JUMP JUMPDEST POP POP POP POP POP POP POP POP POP POP PUSH2 0xBE4 JUMP JUMPDEST PUSH1 0x0 PUSH1 0x40 MLOAD SWAP1 POP SWAP1 JUMP JUMPDEST PUSH1 0x0 DUP1 REVERT JUMPDEST PUSH1 0x0 DUP1 REVERT JUMPDEST PUSH1 0x0 PUSH20 0xFFFFFFFFFFFFFFFFFFFFFFFFFFFFFFFFFFFFFFFF DUP3 AND SWAP1 POP SWAP2 SWAP1 POP JUMP JUMPDEST PUSH1 0x0 PUSH2 0x358 DUP3 PUSH2 0x32D JUMP JUMPDEST SWAP1 POP SWAP2 SWAP1 POP JUMP JUMPDEST PUSH2 0x368 DUP2 PUSH2 0x34D JUMP JUMPDEST DUP2 EQ PUSH2 0x373 JUMPI PUSH1 0x0 DUP1 REVERT JUMPDEST POP JUMP JUMPDEST PUSH1 0x0 DUP2 MLOAD SWAP1 POP PUSH2 0x385 DUP2 PUSH2 0x35F JUMP JUMPDEST SWAP3 SWAP2 POP POP JUMP JUMPDEST PUSH1 0x0 DUP1 REVERT JUMPDEST PUSH1 0x0 DUP1 REVERT JUMPDEST PUSH1 0x0 PUSH1 0x1F NOT PUSH1 0x1F DUP4 ADD AND SWAP1 POP SWAP2 SWAP1 POP JUMP JUMPDEST PUSH32 0x4E487B7100000000000000000000000000000000000000000000000000000000 PUSH1 0x0 MSTORE PUSH1 0x41 PUSH1 0x4 MSTORE PUSH1 0x24 PUSH1 0x0 REVERT JUMPDEST PUSH2 0x3DE DUP3 PUSH2 0x395 JUMP JUMPDEST DUP2 ADD DUP2 DUP2 LT PUSH8 0xFFFFFFFFFFFFFFFF DUP3 GT OR ISZERO PUSH2 0x3FD JUMPI PUSH2 0x3FC PUSH2 0x3A6 JUMP JUMPDEST JUMPDEST DUP1 PUSH1 0x40 MSTORE POP POP POP JUMP JUMPDEST PUSH1 0x0 PUSH2 0x410 PUSH2 0x319 JUMP JUMPDEST SWAP1 POP PUSH2 0x41C DUP3 DUP3 PUSH2 0x3D5 JUMP JUMPDEST SWAP2 SWAP1 POP JUMP JUMPDEST PUSH1 0x0 PUSH8 0xFFFFFFFFFFFFFFFF DUP3 GT ISZERO PUSH2 0x43C JUMPI PUSH2 0x43B PUSH2 0x3A6 JUMP JUMPDEST JUMPDEST PUSH2 0x445 DUP3 PUSH2 0x395 JUMP JUMPDEST SWAP1 POP PUSH1 0x20 DUP2 ADD SWAP1 POP SWAP2 SWAP1 POP JUMP JUMPDEST PUSH1 0x0 JUMPDEST DUP4 DUP2 LT ISZERO PUSH2 0x470 JUMPI DUP1 DUP3 ADD MLOAD DUP2 DUP5 ADD MSTORE PUSH1 0x20 DUP2 ADD SWAP1 POP PUSH2 0x455 JUMP JUMPDEST PUSH1 0x0 DUP5 DUP5 ADD MSTORE POP POP POP POP JUMP JUMPDEST PUSH1 0x0 PUSH2 0x48F PUSH2 0x48A DUP5 PUSH2 0x421 JUMP JUMPDEST PUSH2 0x406 JUMP JUMPDEST SWAP1 POP DUP3 DUP2 MSTORE PUSH1 0x20 DUP2 ADD DUP5 DUP5 DUP5 ADD GT ISZERO PUSH2 0x4AB JUMPI PUSH2 0x4AA PUSH2 0x390 JUMP JUMPDEST JUMPDEST PUSH2 0x4B6 DUP5 DUP3 DUP6 PUSH2 0x452 JUMP JUMPDEST POP SWAP4 SWAP3 POP POP POP JUMP JUMPDEST PUSH1 0x0 DUP3 PUSH1 0x1F DUP4 ADD SLT PUSH2 0x4D3 JUMPI PUSH2 0x4D2 PUSH2 0x38B JUMP JUMPDEST JUMPDEST DUP2 MLOAD PUSH2 0x4E3 DUP5 DUP3 PUSH1 0x20 DUP7 ADD PUSH2 0x47C JUMP JUMPDEST SWAP2 POP POP SWAP3 SWAP2 POP POP JUMP JUMPDEST PUSH1 0x0 DUP2 SWAP1 POP SWAP2 SWAP1 POP JUMP JUMPDEST PUSH2 0x4FF DUP2 PUSH2 0x4EC JUMP JUMPDEST DUP2 EQ PUSH2 0x50A JUMPI PUSH1 0x0 DUP1 REVERT JUMPDEST POP JUMP JUMPDEST PUSH1 0x0 DUP2 MLOAD SWAP1 POP PUSH2 0x51C DUP2 PUSH2 0x4F6 JUMP JUMPDEST SWAP3 SWAP2 POP POP JUMP JUMPDEST PUSH1 0x0 PUSH8 0xFFFFFFFFFFFFFFFF DUP3 GT ISZERO PUSH2 0x53D JUMPI PUSH2 0x53C PUSH2 0x3A6 JUMP JUMPDEST JUMPDEST PUSH1 0x20 DUP3 MUL SWAP1 POP PUSH1 0x20 DUP2 ADD SWAP1 POP SWAP2 SWAP1 POP JUMP JUMPDEST PUSH1 0x0 DUP1 REVERT JUMPDEST PUSH1 0x0 PUSH2 0x566 PUSH2 0x561 DUP5 PUSH2 0x522 JUMP JUMPDEST PUSH2 0x406 JUMP JUMPDEST SWAP1 POP DUP1 DUP4 DUP3 MSTORE PUSH1 0x20 DUP3 ADD SWAP1 POP PUSH1 0x20 DUP5 MUL DUP4 ADD DUP6 DUP2 GT ISZERO PUSH2 0x589 JUMPI PUSH2 0x588 PUSH2 0x54E JUMP JUMPDEST JUMPDEST DUP4 JUMPDEST DUP2 DUP2 LT ISZERO PUSH2 0x5B2 JUMPI DUP1 PUSH2 0x59E DUP9 DUP3 PUSH2 0x376 JUMP JUMPDEST DUP5 MSTORE PUSH1 0x20 DUP5 ADD SWAP4 POP POP PUSH1 0x20 DUP2 ADD SWAP1 POP PUSH2 0x58B JUMP JUMPDEST POP POP POP SWAP4 SWAP3 POP POP POP JUMP JUMPDEST PUSH1 0x0 DUP3 PUSH1 0x1F DUP4 ADD SLT PUSH2 0x5D1 JUMPI PUSH2 0x5D0 PUSH2 0x38B JUMP JUMPDEST JUMPDEST DUP2 MLOAD PUSH2 0x5E1 DUP5 DUP3 PUSH1 0x20 DUP7 ADD PUSH2 0x553 JUMP JUMPDEST SWAP2 POP POP SWAP3 SWAP2 POP POP JUMP JUMPDEST PUSH1 0x0 DUP1 PUSH1 0x0 DUP1 PUSH1 0x0 DUP1 PUSH1 0x0 DUP1 PUSH1 0x0 PUSH2 0x120 DUP11 DUP13 SUB SLT ISZERO PUSH2 0x60D JUMPI PUSH2 0x60C PUSH2 0x323 JUMP JUMPDEST JUMPDEST PUSH1 0x0 PUSH2 0x61B DUP13 DUP3 DUP14 ADD PUSH2 0x376 JUMP JUMPDEST SWAP10 POP POP PUSH1 0x20 DUP11 ADD MLOAD PUSH8 0xFFFFFFFFFFFFFFFF DUP2 GT ISZERO PUSH2 0x63C JUMPI PUSH2 0x63B PUSH2 0x328 JUMP JUMPDEST JUMPDEST PUSH2 0x648 DUP13 DUP3 DUP14 ADD PUSH2 0x4BE JUMP JUMPDEST SWAP9 POP POP PUSH1 0x40 PUSH2 0x659 DUP13 DUP3 DUP14 ADD PUSH2 0x50D JUMP JUMPDEST SWAP8 POP POP PUSH1 0x60 PUSH2 0x66A DUP13 DUP3 DUP14 ADD PUSH2 0x50D JUMP JUMPDEST SWAP7 POP POP PUSH1 0x80 PUSH2 0x67B DUP13 DUP3 DUP14 ADD PUSH2 0x50D JUMP JUMPDEST SWAP6 POP POP PUSH1 0xA0 PUSH2 0x68C DUP13 DUP3 DUP14 ADD PUSH2 0x50D JUMP JUMPDEST SWAP5 POP POP PUSH1 0xC0 PUSH2 0x69D DUP13 DUP3 DUP14 ADD PUSH2 0x50D JUMP JUMPDEST SWAP4 POP POP PUSH1 0xE0 DUP11 ADD MLOAD PUSH8 0xFFFFFFFFFFFFFFFF DUP2 GT ISZERO PUSH2 0x6BE JUMPI PUSH2 0x6BD PUSH2 0x328 JUMP JUMPDEST JUMPDEST PUSH2 0x6CA DUP13 DUP3 DUP14 ADD PUSH2 0x5BC JUMP JUMPDEST SWAP3 POP POP PUSH2 0x100 PUSH2 0x6DC DUP13 DUP3 DUP14 ADD PUSH2 0x50D JUMP JUMPDEST SWAP2 POP POP SWAP3 SWAP6 SWAP9 POP SWAP3 SWAP6 SWAP9 POP SWAP3 SWAP6 SWAP9 JUMP JUMPDEST PUSH1 0x0 DUP3 DUP3 MSTORE PUSH1 0x20 DUP3 ADD SWAP1 POP SWAP3 SWAP2 POP POP JUMP JUMPDEST PUSH32 0x5061727469636970616E747320636F756E74206D69736D617463680000000000 PUSH1 0x0 DUP3 ADD MSTORE POP JUMP JUMPDEST PUSH1 0x0 PUSH2 0x733 PUSH1 0x1B DUP4 PUSH2 0x6EC JUMP JUMPDEST SWAP2 POP PUSH2 0x73E DUP3 PUSH2 0x6FD JUMP JUMPDEST PUSH1 0x20 DUP3 ADD SWAP1 POP SWAP2 SWAP1 POP JUMP JUMPDEST PUSH1 0x0 PUSH1 0x20 DUP3 ADD SWAP1 POP DUP2 DUP2 SUB PUSH1 0x0 DUP4 ADD MSTORE PUSH2 0x762 DUP2 PUSH2 0x726 JUMP JUMPDEST SWAP1 POP SWAP2 SWAP1 POP JUMP JUMPDEST PUSH32 0x436F6C6C61746572616C2070657263656E746167652073686F756C6420626520 PUSH1 0x0 DUP3 ADD MSTORE PUSH32 0x6265747765656E203120616E6420313030000000000000000000000000000000 PUSH1 0x20 DUP3 ADD MSTORE POP JUMP JUMPDEST PUSH1 0x0 PUSH2 0x7C5 PUSH1 0x31 DUP4 PUSH2 0x6EC JUMP JUMPDEST SWAP2 POP PUSH2 0x7D0 DUP3 PUSH2 0x769 JUMP JUMPDEST PUSH1 0x40 DUP3 ADD SWAP1 POP SWAP2 SWAP1 POP JUMP JUMPDEST PUSH1 0x0 PUSH1 0x20 DUP3 ADD SWAP1 POP DUP2 DUP2 SUB PUSH1 0x0 DUP4 ADD MSTORE PUSH2 0x7F4 DUP2 PUSH2 0x7B8 JUMP JUMPDEST SWAP1 POP SWAP2 SWAP1 POP JUMP JUMPDEST PUSH1 0x0 DUP2 MLOAD SWAP1 POP SWAP2 SWAP1 POP JUMP JUMPDEST PUSH32 0x4E487B7100000000000000000000000000000000000000000000000000000000 PUSH1 0x0 MSTORE PUSH1 0x22 PUSH1 0x4 MSTORE PUSH1 0x24 PUSH1 0x0 REVERT JUMPDEST PUSH1 0x0 PUSH1 0x2 DUP3 DIV SWAP1 POP PUSH1 0x1 DUP3 AND DUP1 PUSH2 0x84D JUMPI PUSH1 0x7F DUP3 AND SWAP2 POP JUMPDEST PUSH1 0x20 DUP3 LT DUP2 SUB PUSH2 0x860 JUMPI PUSH2 0x85F PUSH2 0x806 JUMP JUMPDEST JUMPDEST POP SWAP2 SWAP1 POP JUMP JUMPDEST PUSH1 0x0 DUP2 SWAP1 POP DUP2 PUSH1 0x0 MSTORE PUSH1 0x20 PUSH1 0x0 KECCAK256 SWAP1 POP SWAP2 SWAP1 POP JUMP JUMPDEST PUSH1 0x0 PUSH1 0x20 PUSH1 0x1F DUP4 ADD DIV SWAP1 POP SWAP2 SWAP1 POP JUMP JUMPDEST PUSH1 0x0 DUP3 DUP3 SHL SWAP1 POP SWAP3 SWAP2 POP POP JUMP JUMPDEST PUSH1 0x0 PUSH1 0x8 DUP4 MUL PUSH2 0x8C8 PUSH32 0xFFFFFFFFFFFFFFFFFFFFFFFFFFFFFFFFFFFFFFFFFFFFFFFFFFFFFFFFFFFFFFFF DUP3 PUSH2 0x88B JUMP JUMPDEST PUSH2 0x8D2 DUP7 DUP4 PUSH2 0x88B JUMP JUMPDEST SWAP6 POP DUP1 NOT DUP5 AND SWAP4 POP DUP1 DUP7 AND DUP5 OR SWAP3 POP POP POP SWAP4 SWAP3 POP POP POP JUMP JUMPDEST PUSH1 0x0 DUP2 SWAP1 POP SWAP2 SWAP1 POP JUMP JUMPDEST PUSH1 0x0 PUSH2 0x90F PUSH2 0x90A PUSH2 0x905 DUP5 PUSH2 0x4EC JUMP JUMPDEST PUSH2 0x8EA JUMP JUMPDEST PUSH2 0x4EC JUMP JUMPDEST SWAP1 POP SWAP2 SWAP1 POP JUMP JUMPDEST PUSH1 0x0 DUP2 SWAP1 POP SWAP2 SWAP1 POP JUMP JUMPDEST PUSH2 0x929 DUP4 PUSH2 0x8F4 JUMP JUMPDEST PUSH2 0x93D PUSH2 0x935 DUP3 PUSH2 0x916 JUMP JUMPDEST DUP5 DUP5 SLOAD PUSH2 0x898 JUMP JUMPDEST DUP3 SSTORE POP POP POP POP JUMP JUMPDEST PUSH1 0x0 SWAP1 JUMP JUMPDEST PUSH2 0x952 PUSH2 0x945 JUMP JUMPDEST PUSH2 0x95D DUP2 DUP5 DUP5 PUSH2 0x920 JUMP JUMPDEST POP POP POP JUMP JUMPDEST JUMPDEST DUP2 DUP2 LT ISZERO PUSH2 0x981 JUMPI PUSH2 0x976 PUSH1 0x0 DUP3 PUSH2 0x94A JUMP JUMPDEST PUSH1 0x1 DUP2 ADD SWAP1 POP PUSH2 0x963 JUMP JUMPDEST POP POP JUMP JUMPDEST PUSH1 0x1F DUP3 GT ISZERO PUSH2 0x9C6 JUMPI PUSH2 0x997 DUP2 PUSH2 0x866 JUMP JUMPDEST PUSH2 0x9A0 DUP5 PUSH2 0x87B JUMP JUMPDEST DUP2 ADD PUSH1 0x20 DUP6 LT ISZERO PUSH2 0x9AF JUMPI DUP2 SWAP1 POP JUMPDEST PUSH2 0x9C3 PUSH2 0x9BB DUP6 PUSH2 0x87B JUMP JUMPDEST DUP4 ADD DUP3 PUSH2 0x962 JUMP JUMPDEST POP POP JUMPDEST POP POP POP JUMP JUMPDEST PUSH1 0x0 DUP3 DUP3 SHR SWAP1 POP SWAP3 SWAP2 POP POP JUMP JUMPDEST PUSH1 0x0 PUSH2 0x9E9 PUSH1 0x0 NOT DUP5 PUSH1 0x8 MUL PUSH2 0x9CB JUMP JUMPDEST NOT DUP1 DUP4 AND SWAP2 POP POP SWAP3 SWAP2 POP POP JUMP JUMPDEST PUSH1 0x0 PUSH2 0xA02 DUP4 DUP4 PUSH2 0x9D8 JUMP JUMPDEST SWAP2 POP DUP3 PUSH1 0x2 MUL DUP3 OR SWAP1 POP SWAP3 SWAP2 POP POP JUMP JUMPDEST PUSH2 0xA1B DUP3 PUSH2 0x7FB JUMP JUMPDEST PUSH8 0xFFFFFFFFFFFFFFFF DUP2 GT ISZERO PUSH2 0xA34 JUMPI PUSH2 0xA33 PUSH2 0x3A6 JUMP JUMPDEST JUMPDEST PUSH2 0xA3E DUP3 SLOAD PUSH2 0x835 JUMP JUMPDEST PUSH2 0xA49 DUP3 DUP3 DUP6 PUSH2 0x985 JUMP JUMPDEST PUSH1 0x0 PUSH1 0x20 SWAP1 POP PUSH1 0x1F DUP4 GT PUSH1 0x1 DUP2 EQ PUSH2 0xA7C JUMPI PUSH1 0x0 DUP5 ISZERO PUSH2 0xA6A JUMPI DUP3 DUP8 ADD MLOAD SWAP1 POP JUMPDEST PUSH2 0xA74 DUP6 DUP3 PUSH2 0x9F6 JUMP JUMPDEST DUP7 SSTORE POP PUSH2 0xADC JUMP JUMPDEST PUSH1 0x1F NOT DUP5 AND PUSH2 0xA8A DUP7 PUSH2 0x866 JUMP JUMPDEST PUSH1 0x0 JUMPDEST DUP3 DUP2 LT ISZERO PUSH2 0xAB2 JUMPI DUP5 DUP10 ADD MLOAD DUP3 SSTORE PUSH1 0x1 DUP3 ADD SWAP2 POP PUSH1 0x20 DUP6 ADD SWAP5 POP PUSH1 0x20 DUP2 ADD SWAP1 POP PUSH2 0xA8D JUMP JUMPDEST DUP7 DUP4 LT ISZERO PUSH2 0xACF JUMPI DUP5 DUP10 ADD MLOAD PUSH2 0xACB PUSH1 0x1F DUP10 AND DUP3 PUSH2 0x9D8 JUMP JUMPDEST DUP4 SSTORE POP JUMPDEST PUSH1 0x1 PUSH1 0x2 DUP9 MUL ADD DUP9 SSTORE POP POP POP JUMPDEST POP POP POP POP POP POP JUMP JUMPDEST PUSH32 0x4E487B7100000000000000000000000000000000000000000000000000000000 PUSH1 0x0 MSTORE PUSH1 0x11 PUSH1 0x4 MSTORE PUSH1 0x24 PUSH1 0x0 REVERT JUMPDEST PUSH1 0x0 PUSH2 0xB1E DUP3 PUSH2 0x4EC JUMP JUMPDEST SWAP2 POP PUSH2 0xB29 DUP4 PUSH2 0x4EC JUMP JUMPDEST SWAP3 POP DUP3 DUP3 MUL PUSH2 0xB37 DUP2 PUSH2 0x4EC JUMP JUMPDEST SWAP2 POP DUP3 DUP3 DIV DUP5 EQ DUP4 ISZERO OR PUSH2 0xB4E JUMPI PUSH2 0xB4D PUSH2 0xAE4 JUMP JUMPDEST JUMPDEST POP SWAP3 SWAP2 POP POP JUMP JUMPDEST PUSH32 0x4E487B7100000000000000000000000000000000000000000000000000000000 PUSH1 0x0 MSTORE PUSH1 0x12 PUSH1 0x4 MSTORE PUSH1 0x24 PUSH1 0x0 REVERT JUMPDEST PUSH1 0x0 PUSH2 0xB8F DUP3 PUSH2 0x4EC JUMP JUMPDEST SWAP2 POP PUSH2 0xB9A DUP4 PUSH2 0x4EC JUMP JUMPDEST SWAP3 POP DUP3 PUSH2 0xBAA JUMPI PUSH2 0xBA9 PUSH2 0xB55 JUMP JUMPDEST JUMPDEST DUP3 DUP3 DIV SWAP1 POP SWAP3 SWAP2 POP POP JUMP JUMPDEST PUSH32 0x4E487B7100000000000000000000000000000000000000000000000000000000 PUSH1 0x0 MSTORE PUSH1 0x32 PUSH1 0x4 MSTORE PUSH1 0x24 PUSH1 0x0 REVERT JUMPDEST PUSH2 0x25D1 DUP1 PUSH2 0xBF3 PUSH1 0x0 CODECOPY PUSH1 0x0 RETURN INVALID PUSH1 0x80 PUSH1 0x40 MSTORE PUSH1 0x4 CALLDATASIZE LT PUSH2 0x166 JUMPI PUSH1 0x0 CALLDATALOAD PUSH1 0xE0 SHR DUP1 PUSH4 0x65D68E4E GT PUSH2 0xD1 JUMPI DUP1 PUSH4 0xAF2D0A31 GT PUSH2 0x8A JUMPI DUP1 PUSH4 0xCBC3CECB GT PUSH2 0x64 JUMPI DUP1 PUSH4 0xCBC3CECB EQ PUSH2 0x539 JUMPI DUP1 PUSH4 0xD7BB99BA EQ PUSH2 0x564 JUMPI DUP1 PUSH4 0xF54A36CC EQ PUSH2 0x56E JUMPI DUP1 PUSH4 0xFD379A31 EQ PUSH2 0x599 JUMPI PUSH2 0x166 JUMP JUMPDEST DUP1 PUSH4 0xAF2D0A31 EQ PUSH2 0x4A6 JUMPI DUP1 PUSH4 0xBAB2F552 EQ PUSH2 0x4E3 JUMPI DUP1 PUSH4 0xBBB48445 EQ PUSH2 0x50E JUMPI PUSH2 0x166 JUMP JUMPDEST DUP1 PUSH4 0x65D68E4E EQ PUSH2 0x387 JUMPI DUP1 PUSH4 0x78E97925 EQ PUSH2 0x3BD JUMPI DUP1 PUSH4 0x929066F5 EQ PUSH2 0x3E8 JUMPI DUP1 PUSH4 0x92D09CEB EQ PUSH2 0x425 JUMPI DUP1 PUSH4 0xA1657681 EQ PUSH2 0x450 JUMPI DUP1 PUSH4 0xA26DBF26 EQ PUSH2 0x47B JUMPI PUSH2 0x166 JUMP JUMPDEST DUP1 PUSH4 0x44E0B8C1 GT PUSH2 0x123 JUMPI DUP1 PUSH4 0x44E0B8C1 EQ PUSH2 0x273 JUMPI DUP1 PUSH4 0x4A9829CD EQ PUSH2 0x2B2 JUMPI DUP1 PUSH4 0x4E71D92D EQ PUSH2 0x2EF JUMPI DUP1 PUSH4 0x5BEC4CB4 EQ PUSH2 0x306 JUMPI DUP1 PUSH4 0x5FA0B65F EQ PUSH2 0x331 JUMPI DUP1 PUSH4 0x61203265 EQ PUSH2 0x35C JUMPI PUSH2 0x166 JUMP JUMPDEST DUP1 PUSH4 0x6FDDE03 EQ PUSH2 0x16B JUMPI DUP1 PUSH4 0x70FECB5 EQ PUSH2 0x196 JUMPI DUP1 PUSH4 0x83B9137 EQ PUSH2 0x1A0 JUMPI DUP1 PUSH4 0x271751DA EQ PUSH2 0x1DD JUMPI DUP1 PUSH4 0x308352E8 EQ PUSH2 0x208 JUMPI DUP1 PUSH4 0x35C1D349 EQ PUSH2 0x233 JUMPI JUMPDEST PUSH1 0x0 DUP1 REVERT JUMPDEST CALLVALUE DUP1 ISZERO PUSH2 0x177 JUMPI PUSH1 0x0 DUP1 REVERT JUMPDEST POP PUSH2 0x180 PUSH2 0x5C4 JUMP JUMPDEST PUSH1 0x40 MLOAD PUSH2 0x18D SWAP2 SWAP1 PUSH2 0x1777 JUMP JUMPDEST PUSH1 0x40 MLOAD DUP1 SWAP2 SUB SWAP1 RETURN JUMPDEST PUSH2 0x19E PUSH2 0x652 JUMP JUMPDEST STOP JUMPDEST CALLVALUE DUP1 ISZERO PUSH2 0x1AC JUMPI PUSH1 0x0 DUP1 REVERT JUMPDEST POP PUSH2 0x1C7 PUSH1 0x4 DUP1 CALLDATASIZE SUB DUP2 ADD SWAP1 PUSH2 0x1C2 SWAP2 SWAP1 PUSH2 0x17FC JUMP JUMPDEST PUSH2 0x8B9 JUMP JUMPDEST PUSH1 0x40 MLOAD PUSH2 0x1D4 SWAP2 SWAP1 PUSH2 0x1842 JUMP JUMPDEST PUSH1 0x40 MLOAD DUP1 SWAP2 SUB SWAP1 RETURN JUMPDEST CALLVALUE DUP1 ISZERO PUSH2 0x1E9 JUMPI PUSH1 0x0 DUP1 REVERT JUMPDEST POP PUSH2 0x1F2 PUSH2 0x8D1 JUMP JUMPDEST PUSH1 0x40 MLOAD PUSH2 0x1FF SWAP2 SWAP1 PUSH2 0x1842 JUMP JUMPDEST PUSH1 0x40 MLOAD DUP1 SWAP2 SUB SWAP1 RETURN JUMPDEST CALLVALUE DUP1 ISZERO PUSH2 0x214 JUMPI PUSH1 0x0 DUP1 REVERT JUMPDEST POP PUSH2 0x21D PUSH2 0x8D7 JUMP JUMPDEST PUSH1 0x40 MLOAD PUSH2 0x22A SWAP2 SWAP1 PUSH2 0x1842 JUMP JUMPDEST PUSH1 0x40 MLOAD DUP1 SWAP2 SUB SWAP1 RETURN JUMPDEST CALLVALUE DUP1 ISZERO PUSH2 0x23F JUMPI PUSH1 0x0 DUP1 REVERT JUMPDEST POP PUSH2 0x25A PUSH1 0x4 DUP1 CALLDATASIZE SUB DUP2 ADD SWAP1 PUSH2 0x255 SWAP2 SWAP1 PUSH2 0x1889 JUMP JUMPDEST PUSH2 0x8DD JUMP JUMPDEST PUSH1 0x40 MLOAD PUSH2 0x26A SWAP5 SWAP4 SWAP3 SWAP2 SWAP1 PUSH2 0x18F2 JUMP JUMPDEST PUSH1 0x40 MLOAD DUP1 SWAP2 SUB SWAP1 RETURN JUMPDEST CALLVALUE DUP1 ISZERO PUSH2 0x27F JUMPI PUSH1 0x0 DUP1 REVERT JUMPDEST POP PUSH2 0x29A PUSH1 0x4 DUP1 CALLDATASIZE SUB DUP2 ADD SWAP1 PUSH2 0x295 SWAP2 SWAP1 PUSH2 0x17FC JUMP JUMPDEST PUSH2 0x960 JUMP JUMPDEST PUSH1 0x40 MLOAD PUSH2 0x2A9 SWAP4 SWAP3 SWAP2 SWAP1 PUSH2 0x1937 JUMP JUMPDEST PUSH1 0x40 MLOAD DUP1 SWAP2 SUB SWAP1 RETURN JUMPDEST CALLVALUE DUP1 ISZERO PUSH2 0x2BE JUMPI PUSH1 0x0 DUP1 REVERT JUMPDEST POP PUSH2 0x2D9 PUSH1 0x4 DUP1 CALLDATASIZE SUB DUP2 ADD SWAP1 PUSH2 0x2D4 SWAP2 SWAP1 PUSH2 0x17FC JUMP JUMPDEST PUSH2 0xA2E JUMP JUMPDEST PUSH1 0x40 MLOAD PUSH2 0x2E6 SWAP2 SWAP1 PUSH2 0x196E JUMP JUMPDEST PUSH1 0x40 MLOAD DUP1 SWAP2 SUB SWAP1 RETURN JUMPDEST CALLVALUE DUP1 ISZERO PUSH2 0x2FB JUMPI PUSH1 0x0 DUP1 REVERT JUMPDEST POP PUSH2 0x304 PUSH2 0xB29 JUMP JUMPDEST STOP JUMPDEST CALLVALUE DUP1 ISZERO PUSH2 0x312 JUMPI PUSH1 0x0 DUP1 REVERT JUMPDEST POP PUSH2 0x31B PUSH2 0xC79 JUMP JUMPDEST PUSH1 0x40 MLOAD PUSH2 0x328 SWAP2 SWAP1 PUSH2 0x1842 JUMP JUMPDEST PUSH1 0x40 MLOAD DUP1 SWAP2 SUB SWAP1 RETURN JUMPDEST CALLVALUE DUP1 ISZERO PUSH2 0x33D JUMPI PUSH1 0x0 DUP1 REVERT JUMPDEST POP PUSH2 0x346 PUSH2 0xC7F JUMP JUMPDEST PUSH1 0x40 MLOAD PUSH2 0x353 SWAP2 SWAP1 PUSH2 0x1842 JUMP JUMPDEST PUSH1 0x40 MLOAD DUP1 SWAP2 SUB SWAP1 RETURN JUMPDEST CALLVALUE DUP1 ISZERO PUSH2 0x368 JUMPI PUSH1 0x0 DUP1 REVERT JUMPDEST POP PUSH2 0x371 PUSH2 0xC85 JUMP JUMPDEST PUSH1 0x40 MLOAD PUSH2 0x37E SWAP2 SWAP1 PUSH2 0x1998 JUMP JUMPDEST PUSH1 0x40 MLOAD DUP1 SWAP2 SUB SWAP1 RETURN JUMPDEST CALLVALUE DUP1 ISZERO PUSH2 0x393 JUMPI PUSH1 0x0 DUP1 REVERT JUMPDEST POP PUSH2 0x39C PUSH2 0xCA9 JUMP JUMPDEST PUSH1 0x40 MLOAD PUSH2 0x3B4 SWAP13 SWAP12 SWAP11 SWAP10 SWAP9 SWAP8 SWAP7 SWAP6 SWAP5 SWAP4 SWAP3 SWAP2 SWAP1 PUSH2 0x19B3 JUMP JUMPDEST PUSH1 0x40 MLOAD DUP1 SWAP2 SUB SWAP1 RETURN JUMPDEST CALLVALUE DUP1 ISZERO PUSH2 0x3C9 JUMPI PUSH1 0x0 DUP1 REVERT JUMPDEST POP PUSH2 0x3D2 PUSH2 0xDBA JUMP JUMPDEST PUSH1 0x40 MLOAD PUSH2 0x3DF SWAP2 SWAP1 PUSH2 0x1842 JUMP JUMPDEST PUSH1 0x40 MLOAD DUP1 SWAP2 SUB SWAP1 RETURN JUMPDEST CALLVALUE DUP1 ISZERO PUSH2 0x3F4 JUMPI PUSH1 0x0 DUP1 REVERT JUMPDEST POP PUSH2 0x40F PUSH1 0x4 DUP1 CALLDATASIZE SUB DUP2 ADD SWAP1 PUSH2 0x40A SWAP2 SWAP1 PUSH2 0x17FC JUMP JUMPDEST PUSH2 0xDC0 JUMP JUMPDEST PUSH1 0x40 MLOAD PUSH2 0x41C SWAP2 SWAP1 PUSH2 0x196E JUMP JUMPDEST PUSH1 0x40 MLOAD DUP1 SWAP2 SUB SWAP1 RETURN JUMPDEST CALLVALUE DUP1 ISZERO PUSH2 0x431 JUMPI PUSH1 0x0 DUP1 REVERT JUMPDEST POP PUSH2 0x43A PUSH2 0xE8D JUMP JUMPDEST PUSH1 0x40 MLOAD PUSH2 0x447 SWAP2 SWAP1 PUSH2 0x1842 JUMP JUMPDEST PUSH1 0x40 MLOAD DUP1 SWAP2 SUB SWAP1 RETURN JUMPDEST CALLVALUE DUP1 ISZERO PUSH2 0x45C JUMPI PUSH1 0x0 DUP1 REVERT JUMPDEST POP PUSH2 0x465 PUSH2 0xE93 JUMP JUMPDEST PUSH1 0x40 MLOAD PUSH2 0x472 SWAP2 SWAP1 PUSH2 0x1842 JUMP JUMPDEST PUSH1 0x40 MLOAD DUP1 SWAP2 SUB SWAP1 RETURN JUMPDEST CALLVALUE DUP1 ISZERO PUSH2 0x487 JUMPI PUSH1 0x0 DUP1 REVERT JUMPDEST POP PUSH2 0x490 PUSH2 0xE99 JUMP JUMPDEST PUSH1 0x40 MLOAD PUSH2 0x49D SWAP2 SWAP1 PUSH2 0x1842 JUMP JUMPDEST PUSH1 0x40 MLOAD DUP1 SWAP2 SUB SWAP1 RETURN JUMPDEST CALLVALUE DUP1 ISZERO PUSH2 0x4B2 JUMPI PUSH1 0x0 DUP1 REVERT JUMPDEST POP PUSH2 0x4CD PUSH1 0x4 DUP1 CALLDATASIZE SUB DUP2 ADD SWAP1 PUSH2 0x4C8 SWAP2 SWAP1 PUSH2 0x1889 JUMP JUMPDEST PUSH2 0xE9F JUMP JUMPDEST PUSH1 0x40 MLOAD PUSH2 0x4DA SWAP2 SWAP1 PUSH2 0x1842 JUMP JUMPDEST PUSH1 0x40 MLOAD DUP1 SWAP2 SUB SWAP1 RETURN JUMPDEST CALLVALUE DUP1 ISZERO PUSH2 0x4EF JUMPI PUSH1 0x0 DUP1 REVERT JUMPDEST POP PUSH2 0x4F8 PUSH2 0xF14 JUMP JUMPDEST PUSH1 0x40 MLOAD PUSH2 0x505 SWAP2 SWAP1 PUSH2 0x1842 JUMP JUMPDEST PUSH1 0x40 MLOAD DUP1 SWAP2 SUB SWAP1 RETURN JUMPDEST CALLVALUE DUP1 ISZERO PUSH2 0x51A JUMPI PUSH1 0x0 DUP1 REVERT JUMPDEST POP PUSH2 0x523 PUSH2 0xF1A JUMP JUMPDEST PUSH1 0x40 MLOAD PUSH2 0x530 SWAP2 SWAP1 PUSH2 0x1842 JUMP JUMPDEST PUSH1 0x40 MLOAD DUP1 SWAP2 SUB SWAP1 RETURN JUMPDEST CALLVALUE DUP1 ISZERO PUSH2 0x545 JUMPI PUSH1 0x0 DUP1 REVERT JUMPDEST POP PUSH2 0x54E PUSH2 0xF31 JUMP JUMPDEST PUSH1 0x40 MLOAD PUSH2 0x55B SWAP2 SWAP1 PUSH2 0x1B32 JUMP JUMPDEST PUSH1 0x40 MLOAD DUP1 SWAP2 SUB SWAP1 RETURN JUMPDEST PUSH2 0x56C PUSH2 0x1104 JUMP JUMPDEST STOP JUMPDEST CALLVALUE DUP1 ISZERO PUSH2 0x57A JUMPI PUSH1 0x0 DUP1 REVERT JUMPDEST POP PUSH2 0x583 PUSH2 0x13A2 JUMP JUMPDEST PUSH1 0x40 MLOAD PUSH2 0x590 SWAP2 SWAP1 PUSH2 0x196E JUMP JUMPDEST PUSH1 0x40 MLOAD DUP1 SWAP2 SUB SWAP1 RETURN JUMPDEST CALLVALUE DUP1 ISZERO PUSH2 0x5A5 JUMPI PUSH1 0x0 DUP1 REVERT JUMPDEST POP PUSH2 0x5AE PUSH2 0x13B5 JUMP JUMPDEST PUSH1 0x40 MLOAD PUSH2 0x5BB SWAP2 SWAP1 PUSH2 0x1998 JUMP JUMPDEST PUSH1 0x40 MLOAD DUP1 SWAP2 SUB SWAP1 RETURN JUMPDEST PUSH1 0x1 DUP1 SLOAD PUSH2 0x5D1 SWAP1 PUSH2 0x1B83 JUMP JUMPDEST DUP1 PUSH1 0x1F ADD PUSH1 0x20 DUP1 SWAP2 DIV MUL PUSH1 0x20 ADD PUSH1 0x40 MLOAD SWAP1 DUP2 ADD PUSH1 0x40 MSTORE DUP1 SWAP3 SWAP2 SWAP1 DUP2 DUP2 MSTORE PUSH1 0x20 ADD DUP3 DUP1 SLOAD PUSH2 0x5FD SWAP1 PUSH2 0x1B83 JUMP JUMPDEST DUP1 ISZERO PUSH2 0x64A JUMPI DUP1 PUSH1 0x1F LT PUSH2 0x61F JUMPI PUSH2 0x100 DUP1 DUP4 SLOAD DIV MUL DUP4 MSTORE SWAP2 PUSH1 0x20 ADD SWAP2 PUSH2 0x64A JUMP JUMPDEST DUP3 ADD SWAP2 SWAP1 PUSH1 0x0 MSTORE PUSH1 0x20 PUSH1 0x0 KECCAK256 SWAP1 JUMPDEST DUP2 SLOAD DUP2 MSTORE SWAP1 PUSH1 0x1 ADD SWAP1 PUSH1 0x20 ADD DUP1 DUP4 GT PUSH2 0x62D JUMPI DUP3 SWAP1 SUB PUSH1 0x1F AND DUP3 ADD SWAP2 JUMPDEST POP POP POP POP POP DUP2 JUMP JUMPDEST PUSH2 0x65B CALLER PUSH2 0xDC0 JUMP JUMPDEST PUSH2 0x69A JUMPI PUSH1 0x40 MLOAD PUSH32 0x8C379A000000000000000000000000000000000000000000000000000000000 DUP2 MSTORE PUSH1 0x4 ADD PUSH2 0x691 SWAP1 PUSH2 0x1C26 JUMP JUMPDEST PUSH1 0x40 MLOAD DUP1 SWAP2 SUB SWAP1 REVERT JUMPDEST PUSH1 0xA PUSH1 0x0 SWAP1 SLOAD SWAP1 PUSH2 0x100 EXP SWAP1 DIV PUSH1 0xFF AND ISZERO PUSH2 0x6EA JUMPI PUSH1 0x40 MLOAD PUSH32 0x8C379A000000000000000000000000000000000000000000000000000000000 DUP2 MSTORE PUSH1 0x4 ADD PUSH2 0x6E1 SWAP1 PUSH2 0x1C92 JUMP JUMPDEST PUSH1 0x40 MLOAD DUP1 SWAP2 SUB SWAP1 REVERT JUMPDEST PUSH1 0x9 SLOAD CALLVALUE EQ PUSH2 0x72E JUMPI PUSH1 0x40 MLOAD PUSH32 0x8C379A000000000000000000000000000000000000000000000000000000000 DUP2 MSTORE PUSH1 0x4 ADD PUSH2 0x725 SWAP1 PUSH2 0x1CFE JUMP JUMPDEST PUSH1 0x40 MLOAD DUP1 SWAP2 SUB SWAP1 REVERT JUMPDEST PUSH1 0x0 PUSH1 0xC PUSH1 0x0 CALLER PUSH20 0xFFFFFFFFFFFFFFFFFFFFFFFFFFFFFFFFFFFFFFFF AND PUSH20 0xFFFFFFFFFFFFFFFFFFFFFFFFFFFFFFFFFFFFFFFF AND DUP2 MSTORE PUSH1 0x20 ADD SWAP1 DUP2 MSTORE PUSH1 0x20 ADD PUSH1 0x0 KECCAK256 SLOAD SWAP1 POP PUSH1 0x0 PUSH1 0xB DUP3 DUP2 SLOAD DUP2 LT PUSH2 0x788 JUMPI PUSH2 0x787 PUSH2 0x1D1E JUMP JUMPDEST JUMPDEST SWAP1 PUSH1 0x0 MSTORE PUSH1 0x20 PUSH1 0x0 KECCAK256 ADD SWAP1 POP DUP1 PUSH1 0x0 ADD PUSH1 0x15 SWAP1 SLOAD SWAP1 PUSH2 0x100 EXP SWAP1 DIV PUSH1 0xFF AND ISZERO PUSH2 0x7E6 JUMPI PUSH1 0x40 MLOAD PUSH32 0x8C379A000000000000000000000000000000000000000000000000000000000 DUP2 MSTORE PUSH1 0x4 ADD PUSH2 0x7DD SWAP1 PUSH2 0x1D99 JUMP JUMPDEST PUSH1 0x40 MLOAD DUP1 SWAP2 SUB SWAP1 REVERT JUMPDEST PUSH1 0x1 DUP2 PUSH1 0x0 ADD PUSH1 0x15 PUSH2 0x100 EXP DUP2 SLOAD DUP2 PUSH1 0xFF MUL NOT AND SWAP1 DUP4 ISZERO ISZERO MUL OR SWAP1 SSTORE POP CALLVALUE PUSH1 0xD PUSH1 0x0 DUP3 DUP3 SLOAD PUSH2 0x815 SWAP2 SWAP1 PUSH2 0x1DE8 JUMP JUMPDEST SWAP3 POP POP DUP2 SWAP1 SSTORE POP PUSH32 0xE9B0699BFFDB73D59BCD6347DFD5172F6D708C11E0B056C5A76D7C231D402FFB CALLER CALLVALUE PUSH1 0x40 MLOAD PUSH2 0x84D SWAP3 SWAP2 SWAP1 PUSH2 0x1E1C JUMP JUMPDEST PUSH1 0x40 MLOAD DUP1 SWAP2 SUB SWAP1 LOG1 PUSH1 0x3 SLOAD PUSH1 0x9 SLOAD PUSH2 0x865 SWAP2 SWAP1 PUSH2 0x1E45 JUMP JUMPDEST PUSH1 0xD SLOAD SUB PUSH2 0x8B5 JUMPI PUSH1 0x1 PUSH1 0xA PUSH1 0x0 PUSH2 0x100 EXP DUP2 SLOAD DUP2 PUSH1 0xFF MUL NOT AND SWAP1 DUP4 ISZERO ISZERO MUL OR SWAP1 SSTORE POP PUSH32 0x41DDB0BDA597672859A3817681CDB372A435E94FE5A68A5651EEE0FBDF4664B PUSH1 0x40 MLOAD PUSH1 0x40 MLOAD DUP1 SWAP2 SUB SWAP1 LOG1 JUMPDEST POP POP JUMP JUMPDEST PUSH1 0xC PUSH1 0x20 MSTORE DUP1 PUSH1 0x0 MSTORE PUSH1 0x40 PUSH1 0x0 KECCAK256 PUSH1 0x0 SWAP2 POP SWAP1 POP SLOAD DUP2 JUMP JUMPDEST PUSH1 0xD SLOAD DUP2 JUMP JUMPDEST PUSH1 0x8 SLOAD DUP2 JUMP JUMPDEST PUSH1 0xB DUP2 DUP2 SLOAD DUP2 LT PUSH2 0x8ED JUMPI PUSH1 0x0 DUP1 REVERT JUMPDEST SWAP1 PUSH1 0x0 MSTORE PUSH1 0x20 PUSH1 0x0 KECCAK256 ADD PUSH1 0x0 SWAP2 POP SWAP1 POP DUP1 PUSH1 0x0 ADD PUSH1 0x0 SWAP1 SLOAD SWAP1 PUSH2 0x100 EXP SWAP1 DIV PUSH20 0xFFFFFFFFFFFFFFFFFFFFFFFFFFFFFFFFFFFFFFFF AND SWAP1 DUP1 PUSH1 0x0 ADD PUSH1 0x14 SWAP1 SLOAD SWAP1 PUSH2 0x100 EXP SWAP1 DIV PUSH1 0xFF AND SWAP1 DUP1 PUSH1 0x0 ADD PUSH1 0x15 SWAP1 SLOAD SWAP1 PUSH2 0x100 EXP SWAP1 DIV PUSH1 0xFF AND SWAP1 DUP1 PUSH1 0x0 ADD PUSH1 0x16 SWAP1 SLOAD SWAP1 PUSH2 0x100 EXP SWAP1 DIV PUSH1 0xFF AND SWAP1 POP DUP5 JUMP JUMPDEST PUSH1 0x0 DUP1 PUSH1 0x0 PUSH2 0x96E DUP5 PUSH2 0xDC0 JUMP JUMPDEST PUSH2 0x982 JUMPI PUSH1 0x0 DUP1 PUSH1 0x0 SWAP3 POP SWAP3 POP SWAP3 POP PUSH2 0xA27 JUMP JUMPDEST PUSH1 0x0 PUSH1 0xC PUSH1 0x0 DUP7 PUSH20 0xFFFFFFFFFFFFFFFFFFFFFFFFFFFFFFFFFFFFFFFF AND PUSH20 0xFFFFFFFFFFFFFFFFFFFFFFFFFFFFFFFFFFFFFFFF AND DUP2 MSTORE PUSH1 0x20 ADD SWAP1 DUP2 MSTORE PUSH1 0x20 ADD PUSH1 0x0 KECCAK256 SLOAD SWAP1 POP PUSH1 0x0 PUSH1 0xB DUP3 DUP2 SLOAD DUP2 LT PUSH2 0x9DC JUMPI PUSH2 0x9DB PUSH2 0x1D1E JUMP JUMPDEST JUMPDEST SWAP1 PUSH1 0x0 MSTORE PUSH1 0x20 PUSH1 0x0 KECCAK256 ADD SWAP1 POP DUP1 PUSH1 0x0 ADD PUSH1 0x15 SWAP1 SLOAD SWAP1 PUSH2 0x100 EXP SWAP1 DIV PUSH1 0xFF AND DUP2 PUSH1 0x0 ADD PUSH1 0x14 SWAP1 SLOAD SWAP1 PUSH2 0x100 EXP SWAP1 DIV PUSH1 0xFF AND DUP3 PUSH1 0x0 ADD PUSH1 0x16 SWAP1 SLOAD SWAP1 PUSH2 0x100 EXP SWAP1 DIV PUSH1 0xFF AND SWAP5 POP SWAP5 POP SWAP5 POP POP POP JUMPDEST SWAP2 SWAP4 SWAP1 SWAP3 POP JUMP JUMPDEST PUSH1 0x0 PUSH2 0xA39 DUP3 PUSH2 0xDC0 JUMP JUMPDEST PUSH2 0xA78 JUMPI PUSH1 0x40 MLOAD PUSH32 0x8C379A000000000000000000000000000000000000000000000000000000000 DUP2 MSTORE PUSH1 0x4 ADD PUSH2 0xA6F SWAP1 PUSH2 0x1ED3 JUMP JUMPDEST PUSH1 0x40 MLOAD DUP1 SWAP2 SUB SWAP1 REVERT JUMPDEST PUSH1 0x0 PUSH1 0xC PUSH1 0x0 DUP5 PUSH20 0xFFFFFFFFFFFFFFFFFFFFFFFFFFFFFFFFFFFFFFFF AND PUSH20 0xFFFFFFFFFFFFFFFFFFFFFFFFFFFFFFFFFFFFFFFF AND DUP2 MSTORE PUSH1 0x20 ADD SWAP1 DUP2 MSTORE PUSH1 0x20 ADD PUSH1 0x0 KECCAK256 SLOAD SWAP1 POP PUSH1 0x0 PUSH1 0xB DUP3 DUP2 SLOAD DUP2 LT PUSH2 0xAD2 JUMPI PUSH2 0xAD1 PUSH2 0x1D1E JUMP JUMPDEST JUMPDEST SWAP1 PUSH1 0x0 MSTORE PUSH1 0x20 PUSH1 0x0 KECCAK256 ADD SWAP1 POP PUSH1 0x0 PUSH2 0xAEB PUSH1 0x4 SLOAD PUSH2 0xE9F JUMP JUMPDEST SWAP1 POP DUP2 PUSH1 0x0 ADD PUSH1 0x14 SWAP1 SLOAD SWAP1 PUSH2 0x100 EXP SWAP1 DIV PUSH1 0xFF AND ISZERO DUP1 ISZERO PUSH2 0xB0B JUMPI POP DUP1 TIMESTAMP GT JUMPDEST ISZERO PUSH2 0xB1C JUMPI PUSH1 0x1 SWAP4 POP POP POP POP PUSH2 0xB24 JUMP JUMPDEST PUSH1 0x0 SWAP4 POP POP POP POP JUMPDEST SWAP2 SWAP1 POP JUMP JUMPDEST CALLER PUSH20 0xFFFFFFFFFFFFFFFFFFFFFFFFFFFFFFFFFFFFFFFF AND PUSH2 0xB48 PUSH2 0x13B5 JUMP JUMPDEST PUSH20 0xFFFFFFFFFFFFFFFFFFFFFFFFFFFFFFFFFFFFFFFF AND EQ PUSH2 0xB9E JUMPI PUSH1 0x40 MLOAD PUSH32 0x8C379A000000000000000000000000000000000000000000000000000000000 DUP2 MSTORE PUSH1 0x4 ADD PUSH2 0xB95 SWAP1 PUSH2 0x1F65 JUMP JUMPDEST PUSH1 0x40 MLOAD DUP1 SWAP2 SUB SWAP1 REVERT JUMPDEST PUSH1 0xA PUSH1 0x0 SWAP1 SLOAD SWAP1 PUSH2 0x100 EXP SWAP1 DIV PUSH1 0xFF AND PUSH2 0xBED JUMPI PUSH1 0x40 MLOAD PUSH32 0x8C379A000000000000000000000000000000000000000000000000000000000 DUP2 MSTORE PUSH1 0x4 ADD PUSH2 0xBE4 SWAP1 PUSH2 0x1FD1 JUMP JUMPDEST PUSH1 0x40 MLOAD DUP1 SWAP2 SUB SWAP1 REVERT JUMPDEST PUSH2 0xBF5 PUSH2 0x1493 JUMP JUMPDEST PUSH2 0xC34 JUMPI PUSH1 0x40 MLOAD PUSH32 0x8C379A000000000000000000000000000000000000000000000000000000000 DUP2 MSTORE PUSH1 0x4 ADD PUSH2 0xC2B SWAP1 PUSH2 0x203D JUMP JUMPDEST PUSH1 0x40 MLOAD DUP1 SWAP2 SUB SWAP1 REVERT JUMPDEST PUSH2 0xC3C PUSH2 0x14FB JUMP JUMPDEST PUSH32 0xC8DC8699E66727A0166CCF48D03B81C15C44F6106437B58B71708EE620B6DCF6 CALLER PUSH1 0x4 SLOAD PUSH1 0x40 MLOAD PUSH2 0xC6F SWAP3 SWAP2 SWAP1 PUSH2 0x1E1C JUMP JUMPDEST PUSH1 0x40 MLOAD DUP1 SWAP2 SUB SWAP1 LOG1 JUMP JUMPDEST PUSH1 0x6 SLOAD DUP2 JUMP JUMPDEST PUSH1 0x2 SLOAD DUP2 JUMP JUMPDEST PUSH1 0x0 DUP1 SLOAD SWAP1 PUSH2 0x100 EXP SWAP1 DIV PUSH20 0xFFFFFFFFFFFFFFFFFFFFFFFFFFFFFFFFFFFFFFFF AND DUP2 JUMP JUMPDEST PUSH1 0x0 PUSH1 0x60 PUSH1 0x0 DUP1 PUSH1 0x0 DUP1 PUSH1 0x0 DUP1 PUSH1 0x0 DUP1 PUSH1 0x0 DUP1 ADDRESS PUSH1 0x1 PUSH1 0x0 DUP1 SLOAD SWAP1 PUSH2 0x100 EXP SWAP1 DIV PUSH20 0xFFFFFFFFFFFFFFFFFFFFFFFFFFFFFFFFFFFFFFFF AND PUSH1 0x2 SLOAD PUSH1 0x3 SLOAD PUSH1 0x4 SLOAD PUSH1 0x5 SLOAD PUSH1 0xA PUSH1 0x0 SWAP1 SLOAD SWAP1 PUSH2 0x100 EXP SWAP1 DIV PUSH1 0xFF AND PUSH1 0xD SLOAD PUSH1 0x6 SLOAD PUSH1 0x7 SLOAD PUSH1 0x9 SLOAD DUP11 DUP1 SLOAD PUSH2 0xD14 SWAP1 PUSH2 0x1B83 JUMP JUMPDEST DUP1 PUSH1 0x1F ADD PUSH1 0x20 DUP1 SWAP2 DIV MUL PUSH1 0x20 ADD PUSH1 0x40 MLOAD SWAP1 DUP2 ADD PUSH1 0x40 MSTORE DUP1 SWAP3 SWAP2 SWAP1 DUP2 DUP2 MSTORE PUSH1 0x20 ADD DUP3 DUP1 SLOAD PUSH2 0xD40 SWAP1 PUSH2 0x1B83 JUMP JUMPDEST DUP1 ISZERO PUSH2 0xD8D JUMPI DUP1 PUSH1 0x1F LT PUSH2 0xD62 JUMPI PUSH2 0x100 DUP1 DUP4 SLOAD DIV MUL DUP4 MSTORE SWAP2 PUSH1 0x20 ADD SWAP2 PUSH2 0xD8D JUMP JUMPDEST DUP3 ADD SWAP2 SWAP1 PUSH1 0x0 MSTORE PUSH1 0x20 PUSH1 0x0 KECCAK256 SWAP1 JUMPDEST DUP2 SLOAD DUP2 MSTORE SWAP1 PUSH1 0x1 ADD SWAP1 PUSH1 0x20 ADD DUP1 DUP4 GT PUSH2 0xD70 JUMPI DUP3 SWAP1 SUB PUSH1 0x1F AND DUP3 ADD SWAP2 JUMPDEST POP POP POP POP POP SWAP11 POP SWAP12 POP SWAP12 POP SWAP12 POP SWAP12 POP SWAP12 POP SWAP12 POP SWAP12 POP SWAP12 POP SWAP12 POP SWAP12 POP SWAP12 POP SWAP12 POP SWAP1 SWAP2 SWAP3 SWAP4 SWAP5 SWAP6 SWAP7 SWAP8 SWAP9 SWAP10 SWAP11 SWAP12 JUMP JUMPDEST PUSH1 0x7 SLOAD DUP2 JUMP JUMPDEST PUSH1 0x0 DUP1 PUSH1 0xC PUSH1 0x0 DUP5 PUSH20 0xFFFFFFFFFFFFFFFFFFFFFFFFFFFFFFFFFFFFFFFF AND PUSH20 0xFFFFFFFFFFFFFFFFFFFFFFFFFFFFFFFFFFFFFFFF AND DUP2 MSTORE PUSH1 0x20 ADD SWAP1 DUP2 MSTORE PUSH1 0x20 ADD PUSH1 0x0 KECCAK256 SLOAD SWAP1 POP DUP1 PUSH1 0xB DUP1 SLOAD SWAP1 POP GT DUP1 ISZERO PUSH2 0xE85 JUMPI POP DUP3 PUSH20 0xFFFFFFFFFFFFFFFFFFFFFFFFFFFFFFFFFFFFFFFF AND PUSH1 0xB DUP3 DUP2 SLOAD DUP2 LT PUSH2 0xE3F JUMPI PUSH2 0xE3E PUSH2 0x1D1E JUMP JUMPDEST JUMPDEST SWAP1 PUSH1 0x0 MSTORE PUSH1 0x20 PUSH1 0x0 KECCAK256 ADD PUSH1 0x0 ADD PUSH1 0x0 SWAP1 SLOAD SWAP1 PUSH2 0x100 EXP SWAP1 DIV PUSH20 0xFFFFFFFFFFFFFFFFFFFFFFFFFFFFFFFFFFFFFFFF AND PUSH20 0xFFFFFFFFFFFFFFFFFFFFFFFFFFFFFFFFFFFFFFFF AND EQ JUMPDEST SWAP2 POP POP SWAP2 SWAP1 POP JUMP JUMPDEST PUSH1 0x9 SLOAD DUP2 JUMP JUMPDEST PUSH1 0x5 SLOAD DUP2 JUMP JUMPDEST PUSH1 0x3 SLOAD DUP2 JUMP JUMPDEST PUSH1 0x0 PUSH1 0x5 SLOAD DUP3 GT ISZERO PUSH2 0xEE6 JUMPI PUSH1 0x40 MLOAD PUSH32 0x8C379A000000000000000000000000000000000000000000000000000000000 DUP2 MSTORE PUSH1 0x4 ADD PUSH2 0xEDD SWAP1 PUSH2 0x20A9 JUMP JUMPDEST PUSH1 0x40 MLOAD DUP1 SWAP2 SUB SWAP1 REVERT JUMPDEST PUSH1 0x6 SLOAD PUSH1 0x1 DUP4 PUSH2 0xEF6 SWAP2 SWAP1 PUSH2 0x20C9 JUMP JUMPDEST PUSH2 0xF00 SWAP2 SWAP1 PUSH2 0x1E45 JUMP JUMPDEST PUSH1 0x7 SLOAD PUSH2 0xF0D SWAP2 SWAP1 PUSH2 0x1DE8 JUMP JUMPDEST SWAP1 POP SWAP2 SWAP1 POP JUMP JUMPDEST PUSH1 0x4 SLOAD DUP2 JUMP JUMPDEST PUSH1 0x0 PUSH1 0x3 SLOAD PUSH1 0x2 SLOAD PUSH2 0xF2C SWAP2 SWAP1 PUSH2 0x212C JUMP JUMPDEST SWAP1 POP SWAP1 JUMP JUMPDEST PUSH1 0x60 PUSH1 0x0 DUP1 PUSH2 0xF41 PUSH1 0x4 SLOAD PUSH2 0xE9F JUMP JUMPDEST SWAP1 POP PUSH1 0x0 JUMPDEST PUSH1 0xB DUP1 SLOAD SWAP1 POP DUP2 LT ISZERO PUSH2 0xFAF JUMPI PUSH1 0xB DUP2 DUP2 SLOAD DUP2 LT PUSH2 0xF67 JUMPI PUSH2 0xF66 PUSH2 0x1D1E JUMP JUMPDEST JUMPDEST SWAP1 PUSH1 0x0 MSTORE PUSH1 0x20 PUSH1 0x0 KECCAK256 ADD PUSH1 0x0 ADD PUSH1 0x14 SWAP1 SLOAD SWAP1 PUSH2 0x100 EXP SWAP1 DIV PUSH1 0xFF AND ISZERO DUP1 ISZERO PUSH2 0xF8E JUMPI POP DUP2 TIMESTAMP GT JUMPDEST ISZERO PUSH2 0xFA2 JUMPI DUP3 DUP1 PUSH2 0xF9E SWAP1 PUSH2 0x215D JUMP JUMPDEST SWAP4 POP POP JUMPDEST DUP1 DUP1 PUSH1 0x1 ADD SWAP2 POP POP PUSH2 0xF46 JUMP JUMPDEST POP PUSH1 0x0 DUP3 PUSH8 0xFFFFFFFFFFFFFFFF DUP2 GT ISZERO PUSH2 0xFCC JUMPI PUSH2 0xFCB PUSH2 0x21A5 JUMP JUMPDEST JUMPDEST PUSH1 0x40 MLOAD SWAP1 DUP1 DUP3 MSTORE DUP1 PUSH1 0x20 MUL PUSH1 0x20 ADD DUP3 ADD PUSH1 0x40 MSTORE DUP1 ISZERO PUSH2 0xFFA JUMPI DUP2 PUSH1 0x20 ADD PUSH1 0x20 DUP3 MUL DUP1 CALLDATASIZE DUP4 CALLDATACOPY DUP1 DUP3 ADD SWAP2 POP POP SWAP1 POP JUMPDEST POP SWAP1 POP PUSH1 0x0 DUP1 JUMPDEST PUSH1 0xB DUP1 SLOAD SWAP1 POP DUP2 LT ISZERO PUSH2 0x10F9 JUMPI PUSH1 0xB DUP2 DUP2 SLOAD DUP2 LT PUSH2 0x1022 JUMPI PUSH2 0x1021 PUSH2 0x1D1E JUMP JUMPDEST JUMPDEST SWAP1 PUSH1 0x0 MSTORE PUSH1 0x20 PUSH1 0x0 KECCAK256 ADD PUSH1 0x0 ADD PUSH1 0x14 SWAP1 SLOAD SWAP1 PUSH2 0x100 EXP SWAP1 DIV PUSH1 0xFF AND ISZERO DUP1 ISZERO PUSH2 0x1049 JUMPI POP DUP4 TIMESTAMP GT JUMPDEST ISZERO PUSH2 0x10EC JUMPI PUSH1 0xB DUP2 DUP2 SLOAD DUP2 LT PUSH2 0x1062 JUMPI PUSH2 0x1061 PUSH2 0x1D1E JUMP JUMPDEST JUMPDEST SWAP1 PUSH1 0x0 MSTORE PUSH1 0x20 PUSH1 0x0 KECCAK256 ADD PUSH1 0x0 ADD PUSH1 0x0 SWAP1 SLOAD SWAP1 PUSH2 0x100 EXP SWAP1 DIV PUSH20 0xFFFFFFFFFFFFFFFFFFFFFFFFFFFFFFFFFFFFFFFF AND DUP4 DUP4 DUP2 MLOAD DUP2 LT PUSH2 0x10A3 JUMPI PUSH2 0x10A2 PUSH2 0x1D1E JUMP JUMPDEST JUMPDEST PUSH1 0x20 MUL PUSH1 0x20 ADD ADD SWAP1 PUSH20 0xFFFFFFFFFFFFFFFFFFFFFFFFFFFFFFFFFFFFFFFF AND SWAP1 DUP2 PUSH20 0xFFFFFFFFFFFFFFFFFFFFFFFFFFFFFFFFFFFFFFFF AND DUP2 MSTORE POP POP DUP2 DUP1 PUSH2 0x10E8 SWAP1 PUSH2 0x215D JUMP JUMPDEST SWAP3 POP POP JUMPDEST DUP1 DUP1 PUSH1 0x1 ADD SWAP2 POP POP PUSH2 0x1001 JUMP JUMPDEST POP DUP2 SWAP5 POP POP POP POP POP SWAP1 JUMP JUMPDEST PUSH2 0x110D CALLER PUSH2 0xDC0 JUMP JUMPDEST PUSH2 0x114C JUMPI PUSH1 0x40 MLOAD PUSH32 0x8C379A000000000000000000000000000000000000000000000000000000000 DUP2 MSTORE PUSH1 0x4 ADD PUSH2 0x1143 SWAP1 PUSH2 0x1C26 JUMP JUMPDEST PUSH1 0x40 MLOAD DUP1 SWAP2 SUB SWAP1 REVERT JUMPDEST PUSH1 0xA PUSH1 0x0 SWAP1 SLOAD SWAP1 PUSH2 0x100 EXP SWAP1 DIV PUSH1 0xFF AND PUSH2 0x119B JUMPI PUSH1 0x40 MLOAD PUSH32 0x8C379A000000000000000000000000000000000000000000000000000000000 DUP2 MSTORE PUSH1 0x4 ADD PUSH2 0x1192 SWAP1 PUSH2 0x1FD1 JUMP JUMPDEST PUSH1 0x40 MLOAD DUP1 SWAP2 SUB SWAP1 REVERT JUMPDEST PUSH1 0x5 SLOAD PUSH1 0x4 SLOAD GT ISZERO PUSH2 0x11E2 JUMPI PUSH1 0x40 MLOAD PUSH32 0x8C379A000000000000000000000000000000000000000000000000000000000 DUP2 MSTORE PUSH1 0x4 ADD PUSH2 0x11D9 SWAP1 PUSH2 0x2220 JUMP JUMPDEST PUSH1 0x40 MLOAD DUP1 SWAP2 SUB SWAP1 REVERT JUMPDEST PUSH1 0x0 PUSH1 0x3 SLOAD PUSH1 0x2 SLOAD PUSH2 0x11F4 SWAP2 SWAP1 PUSH2 0x212C JUMP JUMPDEST SWAP1 POP PUSH1 0x0 PUSH2 0x1203 PUSH1 0x4 SLOAD PUSH2 0xE9F JUMP JUMPDEST SWAP1 POP DUP1 TIMESTAMP GT ISZERO PUSH2 0x1248 JUMPI PUSH1 0x40 MLOAD PUSH32 0x8C379A000000000000000000000000000000000000000000000000000000000 DUP2 MSTORE PUSH1 0x4 ADD PUSH2 0x123F SWAP1 PUSH2 0x22B2 JUMP JUMPDEST PUSH1 0x40 MLOAD DUP1 SWAP2 SUB SWAP1 REVERT JUMPDEST DUP2 CALLVALUE EQ PUSH2 0x128A JUMPI PUSH1 0x40 MLOAD PUSH32 0x8C379A000000000000000000000000000000000000000000000000000000000 DUP2 MSTORE PUSH1 0x4 ADD PUSH2 0x1281 SWAP1 PUSH2 0x231E JUMP JUMPDEST PUSH1 0x40 MLOAD DUP1 SWAP2 SUB SWAP1 REVERT JUMPDEST PUSH1 0x0 PUSH1 0xC PUSH1 0x0 CALLER PUSH20 0xFFFFFFFFFFFFFFFFFFFFFFFFFFFFFFFFFFFFFFFF AND PUSH20 0xFFFFFFFFFFFFFFFFFFFFFFFFFFFFFFFFFFFFFFFF AND DUP2 MSTORE PUSH1 0x20 ADD SWAP1 DUP2 MSTORE PUSH1 0x20 ADD PUSH1 0x0 KECCAK256 SLOAD SWAP1 POP PUSH1 0x0 PUSH1 0xB DUP3 DUP2 SLOAD DUP2 LT PUSH2 0x12E4 JUMPI PUSH2 0x12E3 PUSH2 0x1D1E JUMP JUMPDEST JUMPDEST SWAP1 PUSH1 0x0 MSTORE PUSH1 0x20 PUSH1 0x0 KECCAK256 ADD SWAP1 POP DUP1 PUSH1 0x0 ADD PUSH1 0x14 SWAP1 SLOAD SWAP1 PUSH2 0x100 EXP SWAP1 DIV PUSH1 0xFF AND ISZERO PUSH2 0x1342 JUMPI PUSH1 0x40 MLOAD PUSH32 0x8C379A000000000000000000000000000000000000000000000000000000000 DUP2 MSTORE PUSH1 0x4 ADD PUSH2 0x1339 SWAP1 PUSH2 0x238A JUMP JUMPDEST PUSH1 0x40 MLOAD DUP1 SWAP2 SUB SWAP1 REVERT JUMPDEST PUSH1 0x1 DUP2 PUSH1 0x0 ADD PUSH1 0x14 PUSH2 0x100 EXP DUP2 SLOAD DUP2 PUSH1 0xFF MUL NOT AND SWAP1 DUP4 ISZERO ISZERO MUL OR SWAP1 SSTORE POP PUSH32 0xD2DFF949D20E874CC6BA1DCEFB840FB8CF6000A4197BFB69ACCFEA5A32443FF5 CALLER CALLVALUE PUSH1 0x4 SLOAD PUSH1 0x40 MLOAD PUSH2 0x1394 SWAP4 SWAP3 SWAP2 SWAP1 PUSH2 0x23AA JUMP JUMPDEST PUSH1 0x40 MLOAD DUP1 SWAP2 SUB SWAP1 LOG1 POP POP POP POP JUMP JUMPDEST PUSH1 0xA PUSH1 0x0 SWAP1 SLOAD SWAP1 PUSH2 0x100 EXP SWAP1 DIV PUSH1 0xFF AND DUP2 JUMP JUMPDEST PUSH1 0x0 DUP1 PUSH1 0x0 SWAP1 POP JUMPDEST PUSH1 0xB DUP1 SLOAD SWAP1 POP DUP2 LT ISZERO PUSH2 0x1454 JUMPI PUSH1 0xB DUP2 DUP2 SLOAD DUP2 LT PUSH2 0x13DE JUMPI PUSH2 0x13DD PUSH2 0x1D1E JUMP JUMPDEST JUMPDEST SWAP1 PUSH1 0x0 MSTORE PUSH1 0x20 PUSH1 0x0 KECCAK256 ADD PUSH1 0x0 ADD PUSH1 0x16 SWAP1 SLOAD SWAP1 PUSH2 0x100 EXP SWAP1 DIV PUSH1 0xFF AND PUSH2 0x1447 JUMPI PUSH1 0xB DUP2 DUP2 SLOAD DUP2 LT PUSH2 0x1411 JUMPI PUSH2 0x1410 PUSH2 0x1D1E JUMP JUMPDEST JUMPDEST SWAP1 PUSH1 0x0 MSTORE PUSH1 0x20 PUSH1 0x0 KECCAK256 ADD PUSH1 0x0 ADD PUSH1 0x0 SWAP1 SLOAD SWAP1 PUSH2 0x100 EXP SWAP1 DIV PUSH20 0xFFFFFFFFFFFFFFFFFFFFFFFFFFFFFFFFFFFFFFFF AND SWAP2 POP POP PUSH2 0x1490 JUMP JUMPDEST DUP1 DUP1 PUSH1 0x1 ADD SWAP2 POP POP PUSH2 0x13BD JUMP JUMPDEST POP PUSH1 0x40 MLOAD PUSH32 0x8C379A000000000000000000000000000000000000000000000000000000000 DUP2 MSTORE PUSH1 0x4 ADD PUSH2 0x1487 SWAP1 PUSH2 0x2453 JUMP JUMPDEST PUSH1 0x40 MLOAD DUP1 SWAP2 SUB SWAP1 REVERT JUMPDEST SWAP1 JUMP JUMPDEST PUSH1 0x0 DUP1 PUSH1 0x0 SWAP1 POP JUMPDEST PUSH1 0xB DUP1 SLOAD SWAP1 POP DUP2 LT ISZERO PUSH2 0x14F2 JUMPI PUSH1 0xB DUP2 DUP2 SLOAD DUP2 LT PUSH2 0x14BC JUMPI PUSH2 0x14BB PUSH2 0x1D1E JUMP JUMPDEST JUMPDEST SWAP1 PUSH1 0x0 MSTORE PUSH1 0x20 PUSH1 0x0 KECCAK256 ADD PUSH1 0x0 ADD PUSH1 0x14 SWAP1 SLOAD SWAP1 PUSH2 0x100 EXP SWAP1 DIV PUSH1 0xFF AND PUSH2 0x14E5 JUMPI PUSH1 0x0 SWAP2 POP POP PUSH2 0x14F8 JUMP JUMPDEST DUP1 DUP1 PUSH1 0x1 ADD SWAP2 POP POP PUSH2 0x149B JUMP JUMPDEST POP PUSH1 0x1 SWAP1 POP JUMPDEST SWAP1 JUMP JUMPDEST PUSH2 0x1503 PUSH2 0x1493 JUMP JUMPDEST PUSH2 0x1542 JUMPI PUSH1 0x40 MLOAD PUSH32 0x8C379A000000000000000000000000000000000000000000000000000000000 DUP2 MSTORE PUSH1 0x4 ADD PUSH2 0x1539 SWAP1 PUSH2 0x24E5 JUMP JUMPDEST PUSH1 0x40 MLOAD DUP1 SWAP2 SUB SWAP1 REVERT JUMPDEST PUSH1 0x0 DUP1 PUSH1 0x0 SWAP1 POP JUMPDEST PUSH1 0xB DUP1 SLOAD SWAP1 POP DUP2 LT ISZERO PUSH2 0x15E7 JUMPI PUSH1 0x0 PUSH1 0xB DUP3 DUP2 SLOAD DUP2 LT PUSH2 0x156D JUMPI PUSH2 0x156C PUSH2 0x1D1E JUMP JUMPDEST JUMPDEST SWAP1 PUSH1 0x0 MSTORE PUSH1 0x20 PUSH1 0x0 KECCAK256 ADD SWAP1 POP DUP1 PUSH1 0x0 ADD PUSH1 0x16 SWAP1 SLOAD SWAP1 PUSH2 0x100 EXP SWAP1 DIV PUSH1 0xFF AND PUSH2 0x15D9 JUMPI DUP1 PUSH1 0x0 ADD PUSH1 0x0 SWAP1 SLOAD SWAP1 PUSH2 0x100 EXP SWAP1 DIV PUSH20 0xFFFFFFFFFFFFFFFFFFFFFFFFFFFFFFFFFFFFFFFF AND SWAP3 POP PUSH1 0x1 DUP2 PUSH1 0x0 ADD PUSH1 0x16 PUSH2 0x100 EXP DUP2 SLOAD DUP2 PUSH1 0xFF MUL NOT AND SWAP1 DUP4 ISZERO ISZERO MUL OR SWAP1 SSTORE POP POP PUSH2 0x15E7 JUMP JUMPDEST POP DUP1 DUP1 PUSH1 0x1 ADD SWAP2 POP POP PUSH2 0x154A JUMP JUMPDEST POP PUSH1 0x0 PUSH1 0x2 SLOAD SWAP1 POP DUP2 PUSH20 0xFFFFFFFFFFFFFFFFFFFFFFFFFFFFFFFFFFFFFFFF AND PUSH2 0x8FC DUP3 SWAP1 DUP2 ISZERO MUL SWAP1 PUSH1 0x40 MLOAD PUSH1 0x0 PUSH1 0x40 MLOAD DUP1 DUP4 SUB DUP2 DUP6 DUP9 DUP9 CALL SWAP4 POP POP POP POP ISZERO DUP1 ISZERO PUSH2 0x1635 JUMPI RETURNDATASIZE PUSH1 0x0 DUP1 RETURNDATACOPY RETURNDATASIZE PUSH1 0x0 REVERT JUMPDEST POP PUSH32 0xBA47A90C5497941F5C8A80CB50E75A6739149C92483DCC0648EB1F37C129C36D DUP3 DUP3 PUSH1 0x4 SLOAD PUSH1 0x40 MLOAD PUSH2 0x166B SWAP4 SWAP3 SWAP2 SWAP1 PUSH2 0x2564 JUMP JUMPDEST PUSH1 0x40 MLOAD DUP1 SWAP2 SUB SWAP1 LOG1 PUSH1 0x0 JUMPDEST PUSH1 0xB DUP1 SLOAD SWAP1 POP DUP2 LT ISZERO PUSH2 0x16CA JUMPI PUSH1 0x0 PUSH1 0xB DUP3 DUP2 SLOAD DUP2 LT PUSH2 0x1699 JUMPI PUSH2 0x1698 PUSH2 0x1D1E JUMP JUMPDEST JUMPDEST SWAP1 PUSH1 0x0 MSTORE PUSH1 0x20 PUSH1 0x0 KECCAK256 ADD PUSH1 0x0 ADD PUSH1 0x14 PUSH2 0x100 EXP DUP2 SLOAD DUP2 PUSH1 0xFF MUL NOT AND SWAP1 DUP4 ISZERO ISZERO MUL OR SWAP1 SSTORE POP DUP1 DUP1 PUSH1 0x1 ADD SWAP2 POP POP PUSH2 0x1676 JUMP JUMPDEST POP PUSH1 0x4 PUSH1 0x0 DUP2 SLOAD DUP1 SWAP3 SWAP2 SWAP1 PUSH2 0x16DE SWAP1 PUSH2 0x215D JUMP JUMPDEST SWAP2 SWAP1 POP SSTORE POP POP POP JUMP JUMPDEST PUSH1 0x0 DUP2 MLOAD SWAP1 POP SWAP2 SWAP1 POP JUMP JUMPDEST PUSH1 0x0 DUP3 DUP3 MSTORE PUSH1 0x20 DUP3 ADD SWAP1 POP SWAP3 SWAP2 POP POP JUMP JUMPDEST PUSH1 0x0 JUMPDEST DUP4 DUP2 LT ISZERO PUSH2 0x1721 JUMPI DUP1 DUP3 ADD MLOAD DUP2 DUP5 ADD MSTORE PUSH1 0x20 DUP2 ADD SWAP1 POP PUSH2 0x1706 JUMP JUMPDEST PUSH1 0x0 DUP5 DUP5 ADD MSTORE POP POP POP POP JUMP JUMPDEST PUSH1 0x0 PUSH1 0x1F NOT PUSH1 0x1F DUP4 ADD AND SWAP1 POP SWAP2 SWAP1 POP JUMP JUMPDEST PUSH1 0x0 PUSH2 0x1749 DUP3 PUSH2 0x16E7 JUMP JUMPDEST PUSH2 0x1753 DUP2 DUP6 PUSH2 0x16F2 JUMP JUMPDEST SWAP4 POP PUSH2 0x1763 DUP2 DUP6 PUSH1 0x20 DUP7 ADD PUSH2 0x1703 JUMP JUMPDEST PUSH2 0x176C DUP2 PUSH2 0x172D JUMP JUMPDEST DUP5 ADD SWAP2 POP POP SWAP3 SWAP2 POP POP JUMP JUMPDEST PUSH1 0x0 PUSH1 0x20 DUP3 ADD SWAP1 POP DUP2 DUP2 SUB PUSH1 0x0 DUP4 ADD MSTORE PUSH2 0x1791 DUP2 DUP5 PUSH2 0x173E JUMP JUMPDEST SWAP1 POP SWAP3 SWAP2 POP POP JUMP JUMPDEST PUSH1 0x0 DUP1 REVERT JUMPDEST PUSH1 0x0 PUSH20 0xFFFFFFFFFFFFFFFFFFFFFFFFFFFFFFFFFFFFFFFF DUP3 AND SWAP1 POP SWAP2 SWAP1 POP JUMP JUMPDEST PUSH1 0x0 PUSH2 0x17C9 DUP3 PUSH2 0x179E JUMP JUMPDEST SWAP1 POP SWAP2 SWAP1 POP JUMP JUMPDEST PUSH2 0x17D9 DUP2 PUSH2 0x17BE JUMP JUMPDEST DUP2 EQ PUSH2 0x17E4 JUMPI PUSH1 0x0 DUP1 REVERT JUMPDEST POP JUMP JUMPDEST PUSH1 0x0 DUP2 CALLDATALOAD SWAP1 POP PUSH2 0x17F6 DUP2 PUSH2 0x17D0 JUMP JUMPDEST SWAP3 SWAP2 POP POP JUMP JUMPDEST PUSH1 0x0 PUSH1 0x20 DUP3 DUP5 SUB SLT ISZERO PUSH2 0x1812 JUMPI PUSH2 0x1811 PUSH2 0x1799 JUMP JUMPDEST JUMPDEST PUSH1 0x0 PUSH2 0x1820 DUP5 DUP3 DUP6 ADD PUSH2 0x17E7 JUMP JUMPDEST SWAP2 POP POP SWAP3 SWAP2 POP POP JUMP JUMPDEST PUSH1 0x0 DUP2 SWAP1 POP SWAP2 SWAP1 POP JUMP JUMPDEST PUSH2 0x183C DUP2 PUSH2 0x1829 JUMP JUMPDEST DUP3 MSTORE POP POP JUMP JUMPDEST PUSH1 0x0 PUSH1 0x20 DUP3 ADD SWAP1 POP PUSH2 0x1857 PUSH1 0x0 DUP4 ADD DUP5 PUSH2 0x1833 JUMP JUMPDEST SWAP3 SWAP2 POP POP JUMP JUMPDEST PUSH2 0x1866 DUP2 PUSH2 0x1829 JUMP JUMPDEST DUP2 EQ PUSH2 0x1871 JUMPI PUSH1 0x0 DUP1 REVERT JUMPDEST POP JUMP JUMPDEST PUSH1 0x0 DUP2 CALLDATALOAD SWAP1 POP PUSH2 0x1883 DUP2 PUSH2 0x185D JUMP JUMPDEST SWAP3 SWAP2 POP POP JUMP JUMPDEST PUSH1 0x0 PUSH1 0x20 DUP3 DUP5 SUB SLT ISZERO PUSH2 0x189F JUMPI PUSH2 0x189E PUSH2 0x1799 JUMP JUMPDEST JUMPDEST PUSH1 0x0 PUSH2 0x18AD DUP5 DUP3 DUP6 ADD PUSH2 0x1874 JUMP JUMPDEST SWAP2 POP POP SWAP3 SWAP2 POP POP JUMP JUMPDEST PUSH1 0x0 PUSH2 0x18C1 DUP3 PUSH2 0x179E JUMP JUMPDEST SWAP1 POP SWAP2 SWAP1 POP JUMP JUMPDEST PUSH2 0x18D1 DUP2 PUSH2 0x18B6 JUMP JUMPDEST DUP3 MSTORE POP POP JUMP JUMPDEST PUSH1 0x0 DUP2 ISZERO ISZERO SWAP1 POP SWAP2 SWAP1 POP JUMP JUMPDEST PUSH2 0x18EC DUP2 PUSH2 0x18D7 JUMP JUMPDEST DUP3 MSTORE POP POP JUMP JUMPDEST PUSH1 0x0 PUSH1 0x80 DUP3 ADD SWAP1 POP PUSH2 0x1907 PUSH1 0x0 DUP4 ADD DUP8 PUSH2 0x18C8 JUMP JUMPDEST PUSH2 0x1914 PUSH1 0x20 DUP4 ADD DUP7 PUSH2 0x18E3 JUMP JUMPDEST PUSH2 0x1921 PUSH1 0x40 DUP4 ADD DUP6 PUSH2 0x18E3 JUMP JUMPDEST PUSH2 0x192E PUSH1 0x60 DUP4 ADD DUP5 PUSH2 0x18E3 JUMP JUMPDEST SWAP6 SWAP5 POP POP POP POP POP JUMP JUMPDEST PUSH1 0x0 PUSH1 0x60 DUP3 ADD SWAP1 POP PUSH2 0x194C PUSH1 0x0 DUP4 ADD DUP7 PUSH2 0x18E3 JUMP JUMPDEST PUSH2 0x1959 PUSH1 0x20 DUP4 ADD DUP6 PUSH2 0x18E3 JUMP JUMPDEST PUSH2 0x1966 PUSH1 0x40 DUP4 ADD DUP5 PUSH2 0x18E3 JUMP JUMPDEST SWAP5 SWAP4 POP POP POP POP JUMP JUMPDEST PUSH1 0x0 PUSH1 0x20 DUP3 ADD SWAP1 POP PUSH2 0x1983 PUSH1 0x0 DUP4 ADD DUP5 PUSH2 0x18E3 JUMP JUMPDEST SWAP3 SWAP2 POP POP JUMP JUMPDEST PUSH2 0x1992 DUP2 PUSH2 0x17BE JUMP JUMPDEST DUP3 MSTORE POP POP JUMP JUMPDEST PUSH1 0x0 PUSH1 0x20 DUP3 ADD SWAP1 POP PUSH2 0x19AD PUSH1 0x0 DUP4 ADD DUP5 PUSH2 0x1989 JUMP JUMPDEST SWAP3 SWAP2 POP POP JUMP JUMPDEST PUSH1 0x0 PUSH2 0x180 DUP3 ADD SWAP1 POP PUSH2 0x19C9 PUSH1 0x0 DUP4 ADD DUP16 PUSH2 0x1989 JUMP JUMPDEST DUP2 DUP2 SUB PUSH1 0x20 DUP4 ADD MSTORE PUSH2 0x19DB DUP2 DUP15 PUSH2 0x173E JUMP JUMPDEST SWAP1 POP PUSH2 0x19EA PUSH1 0x40 DUP4 ADD DUP14 PUSH2 0x1989 JUMP JUMPDEST PUSH2 0x19F7 PUSH1 0x60 DUP4 ADD DUP13 PUSH2 0x1833 JUMP JUMPDEST PUSH2 0x1A04 PUSH1 0x80 DUP4 ADD DUP12 PUSH2 0x1833 JUMP JUMPDEST PUSH2 0x1A11 PUSH1 0xA0 DUP4 ADD DUP11 PUSH2 0x1833 JUMP JUMPDEST PUSH2 0x1A1E PUSH1 0xC0 DUP4 ADD DUP10 PUSH2 0x1833 JUMP JUMPDEST PUSH2 0x1A2B PUSH1 0xE0 DUP4 ADD DUP9 PUSH2 0x18E3 JUMP JUMPDEST PUSH2 0x1A39 PUSH2 0x100 DUP4 ADD DUP8 PUSH2 0x1833 JUMP JUMPDEST PUSH2 0x1A47 PUSH2 0x120 DUP4 ADD DUP7 PUSH2 0x1833 JUMP JUMPDEST PUSH2 0x1A55 PUSH2 0x140 DUP4 ADD DUP6 PUSH2 0x1833 JUMP JUMPDEST PUSH2 0x1A63 PUSH2 0x160 DUP4 ADD DUP5 PUSH2 0x1833 JUMP JUMPDEST SWAP14 SWAP13 POP POP POP POP POP POP POP POP POP POP POP POP POP JUMP JUMPDEST PUSH1 0x0 DUP2 MLOAD SWAP1 POP SWAP2 SWAP1 POP JUMP JUMPDEST PUSH1 0x0 DUP3 DUP3 MSTORE PUSH1 0x20 DUP3 ADD SWAP1 POP SWAP3 SWAP2 POP POP JUMP JUMPDEST PUSH1 0x0 DUP2 SWAP1 POP PUSH1 0x20 DUP3 ADD SWAP1 POP SWAP2 SWAP1 POP JUMP JUMPDEST PUSH2 0x1AA9 DUP2 PUSH2 0x17BE JUMP JUMPDEST DUP3 MSTORE POP POP JUMP JUMPDEST PUSH1 0x0 PUSH2 0x1ABB DUP4 DUP4 PUSH2 0x1AA0 JUMP JUMPDEST PUSH1 0x20 DUP4 ADD SWAP1 POP SWAP3 SWAP2 POP POP JUMP JUMPDEST PUSH1 0x0 PUSH1 0x20 DUP3 ADD SWAP1 POP SWAP2 SWAP1 POP JUMP JUMPDEST PUSH1 0x0 PUSH2 0x1ADF DUP3 PUSH2 0x1A74 JUMP JUMPDEST PUSH2 0x1AE9 DUP2 DUP6 PUSH2 0x1A7F JUMP JUMPDEST SWAP4 POP PUSH2 0x1AF4 DUP4 PUSH2 0x1A90 JUMP JUMPDEST DUP1 PUSH1 0x0 JUMPDEST DUP4 DUP2 LT ISZERO PUSH2 0x1B25 JUMPI DUP2 MLOAD PUSH2 0x1B0C DUP9 DUP3 PUSH2 0x1AAF JUMP JUMPDEST SWAP8 POP PUSH2 0x1B17 DUP4 PUSH2 0x1AC7 JUMP JUMPDEST SWAP3 POP POP PUSH1 0x1 DUP2 ADD SWAP1 POP PUSH2 0x1AF8 JUMP JUMPDEST POP DUP6 SWAP4 POP POP POP POP SWAP3 SWAP2 POP POP JUMP JUMPDEST PUSH1 0x0 PUSH1 0x20 DUP3 ADD SWAP1 POP DUP2 DUP2 SUB PUSH1 0x0 DUP4 ADD MSTORE PUSH2 0x1B4C DUP2 DUP5 PUSH2 0x1AD4 JUMP JUMPDEST SWAP1 POP SWAP3 SWAP2 POP POP JUMP JUMPDEST PUSH32 0x4E487B7100000000000000000000000000000000000000000000000000000000 PUSH1 0x0 MSTORE PUSH1 0x22 PUSH1 0x4 MSTORE PUSH1 0x24 PUSH1 0x0 REVERT JUMPDEST PUSH1 0x0 PUSH1 0x2 DUP3 DIV SWAP1 POP PUSH1 0x1 DUP3 AND DUP1 PUSH2 0x1B9B JUMPI PUSH1 0x7F DUP3 AND SWAP2 POP JUMPDEST PUSH1 0x20 DUP3 LT DUP2 SUB PUSH2 0x1BAE JUMPI PUSH2 0x1BAD PUSH2 0x1B54 JUMP JUMPDEST JUMPDEST POP SWAP2 SWAP1 POP JUMP JUMPDEST PUSH32 0x4F6E6C79207061727469636970616E74732063616E20706572666F726D207468 PUSH1 0x0 DUP3 ADD MSTORE PUSH32 0x697320616374696F6E0000000000000000000000000000000000000000000000 PUSH1 0x20 DUP3 ADD MSTORE POP JUMP JUMPDEST PUSH1 0x0 PUSH2 0x1C10 PUSH1 0x29 DUP4 PUSH2 0x16F2 JUMP JUMPDEST SWAP2 POP PUSH2 0x1C1B DUP3 PUSH2 0x1BB4 JUMP JUMPDEST PUSH1 0x40 DUP3 ADD SWAP1 POP SWAP2 SWAP1 POP JUMP JUMPDEST PUSH1 0x0 PUSH1 0x20 DUP3 ADD SWAP1 POP DUP2 DUP2 SUB PUSH1 0x0 DUP4 ADD MSTORE PUSH2 0x1C3F DUP2 PUSH2 0x1C03 JUMP JUMPDEST SWAP1 POP SWAP2 SWAP1 POP JUMP JUMPDEST PUSH32 0x46756E6420616C72656164792073746172746564000000000000000000000000 PUSH1 0x0 DUP3 ADD MSTORE POP JUMP JUMPDEST PUSH1 0x0 PUSH2 0x1C7C PUSH1 0x14 DUP4 PUSH2 0x16F2 JUMP JUMPDEST SWAP2 POP PUSH2 0x1C87 DUP3 PUSH2 0x1C46 JUMP JUMPDEST PUSH1 0x20 DUP3 ADD SWAP1 POP SWAP2 SWAP1 POP JUMP JUMPDEST PUSH1 0x0 PUSH1 0x20 DUP3 ADD SWAP1 POP DUP2 DUP2 SUB PUSH1 0x0 DUP4 ADD MSTORE PUSH2 0x1CAB DUP2 PUSH2 0x1C6F JUMP JUMPDEST SWAP1 POP SWAP2 SWAP1 POP JUMP JUMPDEST PUSH32 0x496E636F727265637420636F6C6C61746572616C20616D6F756E740000000000 PUSH1 0x0 DUP3 ADD MSTORE POP JUMP JUMPDEST PUSH1 0x0 PUSH2 0x1CE8 PUSH1 0x1B DUP4 PUSH2 0x16F2 JUMP JUMPDEST SWAP2 POP PUSH2 0x1CF3 DUP3 PUSH2 0x1CB2 JUMP JUMPDEST PUSH1 0x20 DUP3 ADD SWAP1 POP SWAP2 SWAP1 POP JUMP JUMPDEST PUSH1 0x0 PUSH1 0x20 DUP3 ADD SWAP1 POP DUP2 DUP2 SUB PUSH1 0x0 DUP4 ADD MSTORE PUSH2 0x1D17 DUP2 PUSH2 0x1CDB JUMP JUMPDEST SWAP1 POP SWAP2 SWAP1 POP JUMP JUMPDEST PUSH32 0x4E487B7100000000000000000000000000000000000000000000000000000000 PUSH1 0x0 MSTORE PUSH1 0x32 PUSH1 0x4 MSTORE PUSH1 0x24 PUSH1 0x0 REVERT JUMPDEST PUSH32 0x416C7265616479207374616B656420636F6C6C61746572616C00000000000000 PUSH1 0x0 DUP3 ADD MSTORE POP JUMP JUMPDEST PUSH1 0x0 PUSH2 0x1D83 PUSH1 0x19 DUP4 PUSH2 0x16F2 JUMP JUMPDEST SWAP2 POP PUSH2 0x1D8E DUP3 PUSH2 0x1D4D JUMP JUMPDEST PUSH1 0x20 DUP3 ADD SWAP1 POP SWAP2 SWAP1 POP JUMP JUMPDEST PUSH1 0x0 PUSH1 0x20 DUP3 ADD SWAP1 POP DUP2 DUP2 SUB PUSH1 0x0 DUP4 ADD MSTORE PUSH2 0x1DB2 DUP2 PUSH2 0x1D76 JUMP JUMPDEST SWAP1 POP SWAP2 SWAP1 POP JUMP JUMPDEST PUSH32 0x4E487B7100000000000000000000000000000000000000000000000000000000 PUSH1 0x0 MSTORE PUSH1 0x11 PUSH1 0x4 MSTORE PUSH1 0x24 PUSH1 0x0 REVERT JUMPDEST PUSH1 0x0 PUSH2 0x1DF3 DUP3 PUSH2 0x1829 JUMP JUMPDEST SWAP2 POP PUSH2 0x1DFE DUP4 PUSH2 0x1829 JUMP JUMPDEST SWAP3 POP DUP3 DUP3 ADD SWAP1 POP DUP1 DUP3 GT ISZERO PUSH2 0x1E16 JUMPI PUSH2 0x1E15 PUSH2 0x1DB9 JUMP JUMPDEST JUMPDEST SWAP3 SWAP2 POP POP JUMP JUMPDEST PUSH1 0x0 PUSH1 0x40 DUP3 ADD SWAP1 POP PUSH2 0x1E31 PUSH1 0x0 DUP4 ADD DUP6 PUSH2 0x1989 JUMP JUMPDEST PUSH2 0x1E3E PUSH1 0x20 DUP4 ADD DUP5 PUSH2 0x1833 JUMP JUMPDEST SWAP4 SWAP3 POP POP POP JUMP JUMPDEST PUSH1 0x0 PUSH2 0x1E50 DUP3 PUSH2 0x1829 JUMP JUMPDEST SWAP2 POP PUSH2 0x1E5B DUP4 PUSH2 0x1829 JUMP JUMPDEST SWAP3 POP DUP3 DUP3 MUL PUSH2 0x1E69 DUP2 PUSH2 0x1829 JUMP JUMPDEST SWAP2 POP DUP3 DUP3 DIV DUP5 EQ DUP4 ISZERO OR PUSH2 0x1E80 JUMPI PUSH2 0x1E7F PUSH2 0x1DB9 JUMP JUMPDEST JUMPDEST POP SWAP3 SWAP2 POP POP JUMP JUMPDEST PUSH32 0x41646472657373206973206E6F742061207061727469636970616E7400000000 PUSH1 0x0 DUP3 ADD MSTORE POP JUMP JUMPDEST PUSH1 0x0 PUSH2 0x1EBD PUSH1 0x1C DUP4 PUSH2 0x16F2 JUMP JUMPDEST SWAP2 POP PUSH2 0x1EC8 DUP3 PUSH2 0x1E87 JUMP JUMPDEST PUSH1 0x20 DUP3 ADD SWAP1 POP SWAP2 SWAP1 POP JUMP JUMPDEST PUSH1 0x0 PUSH1 0x20 DUP3 ADD SWAP1 POP DUP2 DUP2 SUB PUSH1 0x0 DUP4 ADD MSTORE PUSH2 0x1EEC DUP2 PUSH2 0x1EB0 JUMP JUMPDEST SWAP1 POP SWAP2 SWAP1 POP JUMP JUMPDEST PUSH32 0x4F6E6C792074686520656C696769626C6520726563697069656E742063616E20 PUSH1 0x0 DUP3 ADD MSTORE PUSH32 0x636C61696D207468652066756E64730000000000000000000000000000000000 PUSH1 0x20 DUP3 ADD MSTORE POP JUMP JUMPDEST PUSH1 0x0 PUSH2 0x1F4F PUSH1 0x2F DUP4 PUSH2 0x16F2 JUMP JUMPDEST SWAP2 POP PUSH2 0x1F5A DUP3 PUSH2 0x1EF3 JUMP JUMPDEST PUSH1 0x40 DUP3 ADD SWAP1 POP SWAP2 SWAP1 POP JUMP JUMPDEST PUSH1 0x0 PUSH1 0x20 DUP3 ADD SWAP1 POP DUP2 DUP2 SUB PUSH1 0x0 DUP4 ADD MSTORE PUSH2 0x1F7E DUP2 PUSH2 0x1F42 JUMP JUMPDEST SWAP1 POP SWAP2 SWAP1 POP JUMP JUMPDEST PUSH32 0x46756E6420686173206E6F742073746172746564207965740000000000000000 PUSH1 0x0 DUP3 ADD MSTORE POP JUMP JUMPDEST PUSH1 0x0 PUSH2 0x1FBB PUSH1 0x18 DUP4 PUSH2 0x16F2 JUMP JUMPDEST SWAP2 POP PUSH2 0x1FC6 DUP3 PUSH2 0x1F85 JUMP JUMPDEST PUSH1 0x20 DUP3 ADD SWAP1 POP SWAP2 SWAP1 POP JUMP JUMPDEST PUSH1 0x0 PUSH1 0x20 DUP3 ADD SWAP1 POP DUP2 DUP2 SUB PUSH1 0x0 DUP4 ADD MSTORE PUSH2 0x1FEA DUP2 PUSH2 0x1FAE JUMP JUMPDEST SWAP1 POP SWAP2 SWAP1 POP JUMP JUMPDEST PUSH32 0x4E6F7420616C6C20636F6E747269627574696F6E732072656365697665640000 PUSH1 0x0 DUP3 ADD MSTORE POP JUMP JUMPDEST PUSH1 0x0 PUSH2 0x2027 PUSH1 0x1E DUP4 PUSH2 0x16F2 JUMP JUMPDEST SWAP2 POP PUSH2 0x2032 DUP3 PUSH2 0x1FF1 JUMP JUMPDEST PUSH1 0x20 DUP3 ADD SWAP1 POP SWAP2 SWAP1 POP JUMP JUMPDEST PUSH1 0x0 PUSH1 0x20 DUP3 ADD SWAP1 POP DUP2 DUP2 SUB PUSH1 0x0 DUP4 ADD MSTORE PUSH2 0x2056 DUP2 PUSH2 0x201A JUMP JUMPDEST SWAP1 POP SWAP2 SWAP1 POP JUMP JUMPDEST PUSH32 0x4379636C65206F7574206F6620626F756E647300000000000000000000000000 PUSH1 0x0 DUP3 ADD MSTORE POP JUMP JUMPDEST PUSH1 0x0 PUSH2 0x2093 PUSH1 0x13 DUP4 PUSH2 0x16F2 JUMP JUMPDEST SWAP2 POP PUSH2 0x209E DUP3 PUSH2 0x205D JUMP JUMPDEST PUSH1 0x20 DUP3 ADD SWAP1 POP SWAP2 SWAP1 POP JUMP JUMPDEST PUSH1 0x0 PUSH1 0x20 DUP3 ADD SWAP1 POP DUP2 DUP2 SUB PUSH1 0x0 DUP4 ADD MSTORE PUSH2 0x20C2 DUP2 PUSH2 0x2086 JUMP JUMPDEST SWAP1 POP SWAP2 SWAP1 POP JUMP JUMPDEST PUSH1 0x0 PUSH2 0x20D4 DUP3 PUSH2 0x1829 JUMP JUMPDEST SWAP2 POP PUSH2 0x20DF DUP4 PUSH2 0x1829 JUMP JUMPDEST SWAP3 POP DUP3 DUP3 SUB SWAP1 POP DUP2 DUP2 GT ISZERO PUSH2 0x20F7 JUMPI PUSH2 0x20F6 PUSH2 0x1DB9 JUMP JUMPDEST JUMPDEST SWAP3 SWAP2 POP POP JUMP JUMPDEST PUSH32 0x4E487B7100000000000000000000000000000000000000000000000000000000 PUSH1 0x0 MSTORE PUSH1 0x12 PUSH1 0x4 MSTORE PUSH1 0x24 PUSH1 0x0 REVERT JUMPDEST PUSH1 0x0 PUSH2 0x2137 DUP3 PUSH2 0x1829 JUMP JUMPDEST SWAP2 POP PUSH2 0x2142 DUP4 PUSH2 0x1829 JUMP JUMPDEST SWAP3 POP DUP3 PUSH2 0x2152 JUMPI PUSH2 0x2151 PUSH2 0x20FD JUMP JUMPDEST JUMPDEST DUP3 DUP3 DIV SWAP1 POP SWAP3 SWAP2 POP POP JUMP JUMPDEST PUSH1 0x0 PUSH2 0x2168 DUP3 PUSH2 0x1829 JUMP JUMPDEST SWAP2 POP PUSH32 0xFFFFFFFFFFFFFFFFFFFFFFFFFFFFFFFFFFFFFFFFFFFFFFFFFFFFFFFFFFFFFFFF DUP3 SUB PUSH2 0x219A JUMPI PUSH2 0x2199 PUSH2 0x1DB9 JUMP JUMPDEST JUMPDEST PUSH1 0x1 DUP3 ADD SWAP1 POP SWAP2 SWAP1 POP JUMP JUMPDEST PUSH32 0x4E487B7100000000000000000000000000000000000000000000000000000000 PUSH1 0x0 MSTORE PUSH1 0x41 PUSH1 0x4 MSTORE PUSH1 0x24 PUSH1 0x0 REVERT JUMPDEST PUSH32 0x416C6C206379636C657320636F6D706C65746564000000000000000000000000 PUSH1 0x0 DUP3 ADD MSTORE POP JUMP JUMPDEST PUSH1 0x0 PUSH2 0x220A PUSH1 0x14 DUP4 PUSH2 0x16F2 JUMP JUMPDEST SWAP2 POP PUSH2 0x2215 DUP3 PUSH2 0x21D4 JUMP JUMPDEST PUSH1 0x20 DUP3 ADD SWAP1 POP SWAP2 SWAP1 POP JUMP JUMPDEST PUSH1 0x0 PUSH1 0x20 DUP3 ADD SWAP1 POP DUP2 DUP2 SUB PUSH1 0x0 DUP4 ADD MSTORE PUSH2 0x2239 DUP2 PUSH2 0x21FD JUMP JUMPDEST SWAP1 POP SWAP2 SWAP1 POP JUMP JUMPDEST PUSH32 0x436F6E747269627574696F6E20706572696F6420656E64656420666F72207468 PUSH1 0x0 DUP3 ADD MSTORE PUSH32 0x6973206379636C65000000000000000000000000000000000000000000000000 PUSH1 0x20 DUP3 ADD MSTORE POP JUMP JUMPDEST PUSH1 0x0 PUSH2 0x229C PUSH1 0x28 DUP4 PUSH2 0x16F2 JUMP JUMPDEST SWAP2 POP PUSH2 0x22A7 DUP3 PUSH2 0x2240 JUMP JUMPDEST PUSH1 0x40 DUP3 ADD SWAP1 POP SWAP2 SWAP1 POP JUMP JUMPDEST PUSH1 0x0 PUSH1 0x20 DUP3 ADD SWAP1 POP DUP2 DUP2 SUB PUSH1 0x0 DUP4 ADD MSTORE PUSH2 0x22CB DUP2 PUSH2 0x228F JUMP JUMPDEST SWAP1 POP SWAP2 SWAP1 POP JUMP JUMPDEST PUSH32 0x496E636F727265637420636F6E747269627574696F6E20616D6F756E74000000 PUSH1 0x0 DUP3 ADD MSTORE POP JUMP JUMPDEST PUSH1 0x0 PUSH2 0x2308 PUSH1 0x1D DUP4 PUSH2 0x16F2 JUMP JUMPDEST SWAP2 POP PUSH2 0x2313 DUP3 PUSH2 0x22D2 JUMP JUMPDEST PUSH1 0x20 DUP3 ADD SWAP1 POP SWAP2 SWAP1 POP JUMP JUMPDEST PUSH1 0x0 PUSH1 0x20 DUP3 ADD SWAP1 POP DUP2 DUP2 SUB PUSH1 0x0 DUP4 ADD MSTORE PUSH2 0x2337 DUP2 PUSH2 0x22FB JUMP JUMPDEST SWAP1 POP SWAP2 SWAP1 POP JUMP JUMPDEST PUSH32 0x416C726561647920636F6E74726962757465642074686973206379636C650000 PUSH1 0x0 DUP3 ADD MSTORE POP JUMP JUMPDEST PUSH1 0x0 PUSH2 0x2374 PUSH1 0x1E DUP4 PUSH2 0x16F2 JUMP JUMPDEST SWAP2 POP PUSH2 0x237F DUP3 PUSH2 0x233E JUMP JUMPDEST PUSH1 0x20 DUP3 ADD SWAP1 POP SWAP2 SWAP1 POP JUMP JUMPDEST PUSH1 0x0 PUSH1 0x20 DUP3 ADD SWAP1 POP DUP2 DUP2 SUB PUSH1 0x0 DUP4 ADD MSTORE PUSH2 0x23A3 DUP2 PUSH2 0x2367 JUMP JUMPDEST SWAP1 POP SWAP2 SWAP1 POP JUMP JUMPDEST PUSH1 0x0 PUSH1 0x60 DUP3 ADD SWAP1 POP PUSH2 0x23BF PUSH1 0x0 DUP4 ADD DUP7 PUSH2 0x1989 JUMP JUMPDEST PUSH2 0x23CC PUSH1 0x20 DUP4 ADD DUP6 PUSH2 0x1833 JUMP JUMPDEST PUSH2 0x23D9 PUSH1 0x40 DUP4 ADD DUP5 PUSH2 0x1833 JUMP JUMPDEST SWAP5 SWAP4 POP POP POP POP JUMP JUMPDEST PUSH32 0x416C6C207061727469636970616E747320686176652072656365697665642074 PUSH1 0x0 DUP3 ADD MSTORE PUSH32 0x68652066756E6420666F722074686973206379636C652E000000000000000000 PUSH1 0x20 DUP3 ADD MSTORE POP JUMP JUMPDEST PUSH1 0x0 PUSH2 0x243D PUSH1 0x37 DUP4 PUSH2 0x16F2 JUMP JUMPDEST SWAP2 POP PUSH2 0x2448 DUP3 PUSH2 0x23E1 JUMP JUMPDEST PUSH1 0x40 DUP3 ADD SWAP1 POP SWAP2 SWAP1 POP JUMP JUMPDEST PUSH1 0x0 PUSH1 0x20 DUP3 ADD SWAP1 POP DUP2 DUP2 SUB PUSH1 0x0 DUP4 ADD MSTORE PUSH2 0x246C DUP2 PUSH2 0x2430 JUMP JUMPDEST SWAP1 POP SWAP2 SWAP1 POP JUMP JUMPDEST PUSH32 0x416C6C20636F6E747269627574696F6E73206E6F742072656365697665642079 PUSH1 0x0 DUP3 ADD MSTORE PUSH32 0x6574000000000000000000000000000000000000000000000000000000000000 PUSH1 0x20 DUP3 ADD MSTORE POP JUMP JUMPDEST PUSH1 0x0 PUSH2 0x24CF PUSH1 0x22 DUP4 PUSH2 0x16F2 JUMP JUMPDEST SWAP2 POP PUSH2 0x24DA DUP3 PUSH2 0x2473 JUMP JUMPDEST PUSH1 0x40 DUP3 ADD SWAP1 POP SWAP2 SWAP1 POP JUMP JUMPDEST PUSH1 0x0 PUSH1 0x20 DUP3 ADD SWAP1 POP DUP2 DUP2 SUB PUSH1 0x0 DUP4 ADD MSTORE PUSH2 0x24FE DUP2 PUSH2 0x24C2 JUMP JUMPDEST SWAP1 POP SWAP2 SWAP1 POP JUMP JUMPDEST PUSH1 0x0 DUP2 SWAP1 POP SWAP2 SWAP1 POP JUMP JUMPDEST PUSH1 0x0 PUSH2 0x252A PUSH2 0x2525 PUSH2 0x2520 DUP5 PUSH2 0x179E JUMP JUMPDEST PUSH2 0x2505 JUMP JUMPDEST PUSH2 0x179E JUMP JUMPDEST SWAP1 POP SWAP2 SWAP1 POP JUMP JUMPDEST PUSH1 0x0 PUSH2 0x253C DUP3 PUSH2 0x250F JUMP JUMPDEST SWAP1 POP SWAP2 SWAP1 POP JUMP JUMPDEST PUSH1 0x0 PUSH2 0x254E DUP3 PUSH2 0x2531 JUMP JUMPDEST SWAP1 POP SWAP2 SWAP1 POP JUMP JUMPDEST PUSH2 0x255E DUP2 PUSH2 0x2543 JUMP JUMPDEST DUP3 MSTORE POP POP JUMP JUMPDEST PUSH1 0x0 PUSH1 0x60 DUP3 ADD SWAP1 POP PUSH2 0x2579 PUSH1 0x0 DUP4 ADD DUP7 PUSH2 0x2555 JUMP JUMPDEST PUSH2 0x2586 PUSH1 0x20 DUP4 ADD DUP6 PUSH2 0x1833 JUMP JUMPDEST PUSH2 0x2593 PUSH1 0x40 DUP4 ADD DUP5 PUSH2 0x1833 JUMP JUMPDEST SWAP5 SWAP4 POP POP POP POP JUMP INVALID LOG2 PUSH5 0x6970667358 0x22 SLT KECCAK256 0xBB SWAP13 0xAA 0xD9 SWAP3 GT 0xED 0xEC PUSH10 0x26C4AFCB7D4F1D8DAC1B 0xED PUSH4 0xF9D0E789 DUP3 RETURNDATACOPY LOG2 CALLCODE PUSH18 0xD4EE64736F6C634300081B00330000000000 "
        },
        "methodIdentifiers": {
          "claim()": "4e71d92d",
          "collateralAmount()": "92d09ceb",
          "collateralPercentage()": "308352e8",
          "contribute()": "d7bb99ba",
          "contributionAmount()": "5fa0b65f",
          "currentCycle()": "bab2f552",
          "cycleDuration()": "5bec4cb4",
          "fundStarted()": "f54a36cc",
          "getChitFundDetails()": "65d68e4e",
          "getContributionAmount()": "bbb48445",
          "getDeadlineForCycle(uint256)": "af2d0a31",
          "getNextRecipient()": "fd379a31",
          "getOverdueParticipants()": "cbc3cecb",
          "getParticipantDetails(address)": "44e0b8c1",
          "isParticipant(address)": "929066f5",
          "isParticipantOverdue(address)": "4a9829cd",
          "name()": "06fdde03",
          "organizer()": "61203265",
          "participantIndex(address)": "083b9137",
          "participants(uint256)": "35c1d349",
          "stakeCollateral()": "070fecb5",
          "startTime()": "78e97925",
          "totalCollateralStaked()": "271751da",
          "totalCycles()": "a1657681",
          "totalParticipants()": "a26dbf26"
        }
      }
    }
  }
}